{"abi":[{"type":"function","name":"A","inputs":[],"outputs":[{"name":"","type":"uint256","internalType":"uint256"}],"stateMutability":"view"},{"type":"function","name":"D","inputs":[],"outputs":[{"name":"","type":"uint256","internalType":"uint256"}],"stateMutability":"view"},{"type":"function","name":"Q","inputs":[],"outputs":[{"name":"","type":"uint256","internalType":"uint256"}],"stateMutability":"view"},{"type":"function","name":"R","inputs":[],"outputs":[{"name":"","type":"uint256","internalType":"uint256"}],"stateMutability":"view"},{"type":"function","name":"add","inputs":[{"name":"lhs","type":"tuple","internalType":"struct BabyJubJub.Affine","components":[{"name":"x","type":"uint256","internalType":"uint256"},{"name":"y","type":"uint256","internalType":"uint256"}]},{"name":"rhs","type":"tuple","internalType":"struct BabyJubJub.Affine","components":[{"name":"x","type":"uint256","internalType":"uint256"},{"name":"y","type":"uint256","internalType":"uint256"}]}],"outputs":[{"name":"res","type":"tuple","internalType":"struct BabyJubJub.Affine","components":[{"name":"x","type":"uint256","internalType":"uint256"},{"name":"y","type":"uint256","internalType":"uint256"}]}],"stateMutability":"pure"},{"type":"function","name":"computeLagrangeCoefficiants","inputs":[{"name":"ids","type":"uint256[]","internalType":"uint256[]"},{"name":"threshold","type":"uint256","internalType":"uint256"},{"name":"numPeers","type":"uint256","internalType":"uint256"}],"outputs":[{"name":"lagrange","type":"uint256[]","internalType":"uint256[]"}],"stateMutability":"pure"},{"type":"function","name":"generator","inputs":[],"outputs":[{"name":"p","type":"tuple","internalType":"struct BabyJubJub.Affine","components":[{"name":"x","type":"uint256","internalType":"uint256"},{"name":"y","type":"uint256","internalType":"uint256"}]}],"stateMutability":"pure"},{"type":"function","name":"identity","inputs":[],"outputs":[{"name":"p","type":"tuple","internalType":"struct BabyJubJub.Affine","components":[{"name":"x","type":"uint256","internalType":"uint256"},{"name":"y","type":"uint256","internalType":"uint256"}]}],"stateMutability":"pure"},{"type":"function","name":"isEmpty","inputs":[{"name":"p","type":"tuple","internalType":"struct BabyJubJub.Affine","components":[{"name":"x","type":"uint256","internalType":"uint256"},{"name":"y","type":"uint256","internalType":"uint256"}]}],"outputs":[{"name":"","type":"bool","internalType":"bool"}],"stateMutability":"pure"},{"type":"function","name":"isEqual","inputs":[{"name":"lhs","type":"tuple","internalType":"struct BabyJubJub.Affine","components":[{"name":"x","type":"uint256","internalType":"uint256"},{"name":"y","type":"uint256","internalType":"uint256"}]},{"name":"rhs","type":"tuple","internalType":"struct BabyJubJub.Affine","components":[{"name":"x","type":"uint256","internalType":"uint256"},{"name":"y","type":"uint256","internalType":"uint256"}]}],"outputs":[{"name":"","type":"bool","internalType":"bool"}],"stateMutability":"pure"},{"type":"function","name":"isIdentity","inputs":[{"name":"p","type":"tuple","internalType":"struct BabyJubJub.Affine","components":[{"name":"x","type":"uint256","internalType":"uint256"},{"name":"y","type":"uint256","internalType":"uint256"}]}],"outputs":[{"name":"","type":"bool","internalType":"bool"}],"stateMutability":"pure"},{"type":"function","name":"isInCorrectSubgroupAssumingOnCurve","inputs":[{"name":"p","type":"tuple","internalType":"struct BabyJubJub.Affine","components":[{"name":"x","type":"uint256","internalType":"uint256"},{"name":"y","type":"uint256","internalType":"uint256"}]}],"outputs":[{"name":"","type":"bool","internalType":"bool"}],"stateMutability":"pure"},{"type":"function","name":"isOnCurve","inputs":[{"name":"p","type":"tuple","internalType":"struct BabyJubJub.Affine","components":[{"name":"x","type":"uint256","internalType":"uint256"},{"name":"y","type":"uint256","internalType":"uint256"}]}],"outputs":[{"name":"","type":"bool","internalType":"bool"}],"stateMutability":"pure"},{"type":"function","name":"scalarMul","inputs":[{"name":"scalar","type":"uint256","internalType":"uint256"},{"name":"p","type":"tuple","internalType":"struct BabyJubJub.Affine","components":[{"name":"x","type":"uint256","internalType":"uint256"},{"name":"y","type":"uint256","internalType":"uint256"}]}],"outputs":[{"name":"","type":"tuple","internalType":"struct BabyJubJub.Affine","components":[{"name":"x","type":"uint256","internalType":"uint256"},{"name":"y","type":"uint256","internalType":"uint256"}]}],"stateMutability":"pure"}],"bytecode":{"object":"0x60808060405234601957611ed3908161001e823930815050f35b5f80fdfe6080806040526004361015610012575f80fd5b5f3560e01c9081630f529ba214611449575080632ba6bab9146114135780632c159a1a146113b857806337d2224c14610fd65780634980e1be14610f835780637afa1eed14610ee95780638071469c14610eab5780638a9088a314610e605780639679db0d14610e4b578063e0d29faa14610dc8578063e128c1aa14610190578063e493ef8c1461013d578063e8c87428146100f05763f446c1d0146100b6575f80fd5b5f7ffffffffffffffffffffffffffffffffffffffffffffffffffffffffffffffffc3601126100ec576020604051620292fc8152f35b5f80fd5b60407ffffffffffffffffffffffffffffffffffffffffffffffffffffffffffffffffc3601126100ec576004351580610131575b6040519015158152602090f35b50602435600114610124565b5f7ffffffffffffffffffffffffffffffffffffffffffffffffffffffffffffffffc3601126100ec5760206040517f30644e72e131a029b85045b68181585d2833e84879b9709143e1f593f00000018152f35b60407ffffffffffffffffffffffffffffffffffffffffffffffffffffffffffffffffc3601126100ec57611f60806101c781611501565b36903760405190810181811067ffffffffffffffff821117610d9b5760405260018152600160208201525f60408201525f60608201525f60808201525f60a08201525f60c0820152600160e082015260016101008201525f6101208201525f61014082015260016101608201525f6101808201525f6101a08201525f6101c082015260016101e08201525f6102008201525f6102208201526001610240820152600161026082015260016102808201525f6102a08201525f6102c082015260016102e0820152600161030082015260016103208201525f6103408201525f61036082015260016103808201525f6103a082015260016103c082015260016103e082015260016104008201525f6104208201525f6104408201525f6104608201525f61048082015260016104a08201525f6104c08201525f6104e0820152600161050082015260016105208201525f6105408201525f6105608201525f61058082015260016105a082015260016105c08201525f6105e082015260016106008201525f6106208201525f6106408201525f6106608201525f6106808201525f6106a08201525f6106c08201525f6106e082015260016107008201525f61072082015260016107408201525f6107608201525f61078082015260016107a082015260016107c08201525f6107e08201526001610800820152600161082082015260016108408201525f6108608201525f6108808201525f6108a08201525f6108c082015260016108e08201525f61090082015260016109208201525f6109408201525f6109608201525f6109808201525f6109a08201525f6109c082015260016109e08201525f610a008201525f610a208201525f610a408201526001610a608201525f610a808201526001610aa08201526001610ac08201525f610ae08201526001610b008201526001610b208201525f610b408201526001610b608201526001610b808201525f610ba08201526001610bc08201525f610be08201525f610c008201525f610c208201525f610c408201525f610c608201525f610c808201526001610ca08201526001610cc08201525f610ce08201525f610d008201525f610d208201525f610d408201525f610d608201525f610d808201526001610da08201525f610dc08201526001610de08201525f610e008201526001610e208201526001610e408201525f610e608201525f610e808201525f610ea08201525f610ec08201526001610ee08201525f610f008201526001610f208201526001610f408201526001610f608201525f610f808201526001610fa08201525f610fc08201526001610fe08201525f611000820152600161102082015260016110408201525f6110608201525f61108082015260016110a082015260016110c082015260016110e0820152600161110082015260016111208201525f6111408201526001611160820152600161118082015260016111a08201525f6111c082015260016111e082015260016112008201525f611220820152600161124082015260016112608201525f61128082015260016112a082015260016112c082015260016112e08201525f6113008201525f6113208201525f6113408201525f6113608201525f61138082015260016113a082015260016113c082015260016113e08201525f6114008201525f61142082015260016114408201525f6114608201525f61148082015260016114a08201525f6114c08201525f6114e08201525f6115008201525f6115208201525f6115408201526001611560820152600161158082015260016115a08201525f6115c082015260016115e0820152600161160082015260016116208201525f6116408201525f6116608201525f6116808201525f6116a08201525f6116c082015260016116e08201525f61170082015260016117208201525f6117408201525f611760820152600161178082015260016117a08201525f6117c08201525f6117e08201526001611800820152600161182082015260016118408201525f611860820152600161188082015260016118a082015260016118c08201525f6118e08201525f61190082015260016119208201525f61194082015260016119608201525f6119808201525f6119a082015260016119c08201525f6119e08201526001611a008201526001611a208201526001611a408201526001611a608201526001611a808201525f611aa08201526001611ac08201526001611ae08201526001611b008201525f611b208201525f611b408201525f611b608201525f611b808201526001611ba08201526001611bc08201526001611be08201525f611c008201525f611c208201526001611c408201525f611c608201525f611c808201526001611ca08201525f611cc08201525f611ce08201525f611d008201525f611d208201526001611d408201525f611d608201525f611d808201526001611da08201525f611dc08201525f611de08201526001611e008201526001611e208201525f611e408201526001611e608201526001611e808201526001611ea08201526001611ec08201525f611ee08201525f611f008201525f611f208201526001611f40820152600435906024355f9260019081935f915f5b60fb841061097e5750505050602093909290159283610974575b50508161096a575b506040519015158152f35b905015158261095f565b1491508380610957565b95929395610d6e577f30644e72e131a029b85045b68181585d2833e84879b9709143e1f593f00000018780097f30644e72e131a029b85045b68181585d2833e84879b9709143e1f593f0000001878009937f7fffffffffffffffffffffffffffffffffffffffffffffffffffffffffffffff81168103610d4157610a317f30644e72e131a029b85045b68181585d2833e84879b9709143e1f593f000000182819360011b099882620292fc85099a611555565b800990808210610d2f57610a4491611dc5565b83808210610d1c57610a5591611dc5565b965b610a618482611555565b9687818110610d095790610a7491611dc5565b935b808210610cf657610a8691611dc5565b935b7f30644e72e131a029b85045b68181585d2833e84879b9709143e1f593f0000001848909977f30644e72e131a029b85045b68181585d2833e84879b9709143e1f593f000000180878a09985f96099780968a600160ff610ae8878a611dd2565b511614610afd575b505050506001019261093d565b91975092995087847f30644e72e131a029b85045b68181585d2833e84879b9709143e1f593f000000181849c959c099a7f30644e72e131a029b85045b68181585d2833e84879b9709143e1f593f0000001838b09957f30644e72e131a029b85045b68181585d2833e84879b9709143e1f593f000000191097f30644e72e131a029b85045b68181585d2833e84879b9709143e1f593f000000190620292f809907f30644e72e131a029b85045b68181585d2833e84879b9709143e1f593f00000019109907f30644e72e131a029b85045b68181585d2833e84879b9709143e1f593f0000001910996610bee91611555565b610bf88885611555565b7f30644e72e131a029b85045b68181585d2833e84879b9709143e1f593f000000191096001927f30644e72e131a029b85045b68181585d2833e84879b9709143e1f593f000000192918391908290610c85908d808210610ce457610c5b91611dc5565b83808210610cd157610c6c91611dc5565b9a5b808610610cc457610c7f8187611dc5565b95611555565b9b620292fc09808210610cad57610c9b91611dc5565b818b84099a0996099790898080610af0565b610cbf91610cba91611dc5565b611d79565b610c9b565b610c7f610cba8783611dc5565b610cde91610cba91611dc5565b9a610c6e565b610cf191610cba91611dc5565b610c5b565b610d0391610cba91611dc5565b93610a88565b610cba90610d1692611dc5565b93610a76565b610d2991610cba91611dc5565b96610a57565b610d3c91610cba91611dc5565b610a44565b7f4e487b71000000000000000000000000000000000000000000000000000000005f52601160045260245ffd5b7f4e487b71000000000000000000000000000000000000000000000000000000005f52601260045260245ffd5b7f4e487b71000000000000000000000000000000000000000000000000000000005f52604160045260245ffd5b60607ffffffffffffffffffffffffffffffffffffffffffffffffffffffffffffffffc3601126100ec5760407fffffffffffffffffffffffffffffffffffffffffffffffffffffffffffffffdc3601126100ec57610e47610e2a600435611838565b604051918291829190916020806040830194805184520151910152565b0390f35b610e47610e2a610e5a3661147d565b90611684565b60407ffffffffffffffffffffffffffffffffffffffffffffffffffffffffffffffffc3601126100ec576004351580610ea1575b6020906040519015158152f35b5060243515610e94565b60407ffffffffffffffffffffffffffffffffffffffffffffffffffffffffffffffffc3601126100ec576020610edf61157a565b6040519015158152f35b5f7ffffffffffffffffffffffffffffffffffffffffffffffffffffffffffffffffc3601126100ec57610e47610f1d6114e1565b7f0bb77a6ad63e739b4eacb2e09d6277c12ab8d8010534e0b62893f3f6bb95705181527f25797203f7a0b24925572e1cd16bf9edfce0051fb9e133774b3c257a872d7d8b6020820152604051918291829190916020806040830194805184520151910152565b5f7ffffffffffffffffffffffffffffffffffffffffffffffffffffffffffffffffc3601126100ec5760206040517f060c89ce5c263405370a08b6d0302b0bab3eedb83920ee0a677297dc392126f18152f35b60607ffffffffffffffffffffffffffffffffffffffffffffffffffffffffffffffffc3601126100ec5760043567ffffffffffffffff81116100ec57366023820112156100ec5780600401359067ffffffffffffffff82116100ec576024810190602436918460051b0101116100ec5760243590604435928281036100ec575f5b83811061136457509061107d61107461106f86611562565b611501565b94808652611562565b927fffffffffffffffffffffffffffffffffffffffffffffffffffffffffffffffe06020860194013685375f92835b8281106110f7578587604051918291602083019060208452518091526040830191905f5b8181106110de575050500390f35b82518452859450602093840193909201916001016110d0565b60019081611106828588611545565b35838101809111610d41575f5b868110611255575050867f060c89ce5c263405370a08b6d0302b0bab3eedb83920ee0a677297dc392126ef807f060c89ce5c263405370a08b6d0302b0bab3eedb83920ee0a677297dc392126f160019406905b6111e9575050610d6e5761117b828588611545565b359089518210156111bc577f060c89ce5c263405370a08b6d0302b0bab3eedb83920ee0a677297dc392126f1602091600195099160051b8a010152016110ac565b7f4e487b71000000000000000000000000000000000000000000000000000000005f52603260045260245ffd5b909150600180831614611227575b807f060c89ce5c263405370a08b6d0302b0bab3eedb83920ee0a677297dc392126f19109889160011c9081611166565b917f060c89ce5c263405370a08b6d0302b0bab3eedb83920ee0a677297dc392126f1838192099290506111f7565b61126081878a611545565b3560018101809111610d415780830361127d575b50600101611113565b94909298610d6e577f060c89ce5c263405370a08b6d0302b0bab3eedb83920ee0a677297dc392126f185839209948181106112e9576112df6001927f060c89ce5c263405370a08b6d0302b0bab3eedb83920ee0a677297dc392126f192611dc5565b5f9a099290611274565b6112f291611dc5565b7f060c89ce5c263405370a08b6d0302b0bab3eedb83920ee0a677297dc392126f1037f060c89ce5c263405370a08b6d0302b0bab3eedb83920ee0a677297dc392126f18111610d41577f060c89ce5c263405370a08b6d0302b0bab3eedb83920ee0a677297dc392126f16001916112df565b84611370828486611545565b3510156100ec5760018101808211610d41575b8481106113935750600101611057565b61139e828486611545565b356113aa828587611545565b35146100ec57600101611383565b5f7ffffffffffffffffffffffffffffffffffffffffffffffffffffffffffffffffc3601126100ec57610e476113ec6114e1565b5f815260016020820152604051918291829190916020806040830194805184520151910152565b602061141e3661147d565b9081358135149182611437575b50506040519015158152f35b8391925081013591013514828061142b565b5f7ffffffffffffffffffffffffffffffffffffffffffffffffffffffffffffffffc3601126100ec5780620292f860209252f35b907ffffffffffffffffffffffffffffffffffffffffffffffffffffffffffffffffc8201608081126100ec576040136100ec5760407fffffffffffffffffffffffffffffffffffffffffffffffffffffffffffffffbc60049301126100ec57604490565b604051906040820182811067ffffffffffffffff821117610d9b57604052565b907fffffffffffffffffffffffffffffffffffffffffffffffffffffffffffffffe0601f604051930116820182811067ffffffffffffffff821117610d9b57604052565b91908110156111bc5760051b0190565b91908201809211610d4157565b67ffffffffffffffff8111610d9b5760051b60200190565b600435801580611654575b61164e577f30644e72e131a029b85045b68181585d2833e84879b9709143e1f593f00000018110801590611622575b61161d57807f30644e72e131a029b85045b68181585d2833e84879b9709143e1f593f000000191097f30644e72e131a029b85045b68181585d2833e84879b9709143e1f593f000000180602435800981808080848709620292f80960010893620292fc09081490565b505f90565b507f30644e72e131a029b85045b68181585d2833e84879b9709143e1f593f000000160243510156115b4565b50600190565b50600160243514611585565b91908260409103126100ec5760206116766114e1565b928035845201356020830152565b91909161168f6114e1565b5f81525f6020820152926116a282611d60565b611829576116af81611d60565b61181857602082359201359061170560208235920135937f30644e72e131a029b85045b68181585d2833e84879b9709143e1f593f000000180848309958180828809958180888b09620292f80997099209611555565b90826001019384600111610d41577f30644e72e131a029b85045b68181585d2833e84879b9709143e1f593f000000190620292fc098082106118055761174a91611dc5565b915b600181116117a2576001039260018411610d41577f30644e72e131a029b85045b68181585d2833e84879b9709143e1f593f000000161179992611790829693611de3565b90098652611de3565b90096020830152565b927fffffffffffffffffffffffffffffffffffffffffffffffffffffffffffffffff8401938411610d41577f30644e72e131a029b85045b68181585d2833e84879b9709143e1f593f0000001611799926117906117ff8397611d79565b93611de3565b61181291610cba91611dc5565b9161174c565b506118269192503690611660565b90565b90506118269192503690611660565b6118406114e1565b5f81525f6020820152507f060c89ce5c263405370a08b6d0302b0bab3eedb83920ee0a677297dc392126f18110156100ec578015611d4a57611f609061188582611501565b913683376101009060051b5f5b60fb8110611cf6575060019283925f925090604435602435845b60fb851061194a57505050505091906118c36114e1565b925f845260208401915f8352811580611941575b80611936575b156118ef575050600191505f83525290565b600181036118fe575083525290565b927f30644e72e131a029b85045b68181585d2833e84879b9709143e1f593f000000161192b819495611de3565b809309855209905290565b5060018414156118dd565b508084146118d7565b959395610d6e577f30644e72e131a029b85045b68181585d2833e84879b9709143e1f593f00000018580097f30644e72e131a029b85045b68181585d2833e84879b9709143e1f593f0000001888009947f7fffffffffffffffffffffffffffffffffffffffffffffffffffffffffffffff81168103610d41576119fc7f30644e72e131a029b85045b68181585d2833e84879b9709143e1f593f000000182819360011b099982620292fc850998611555565b800990808210611ce457611a0f91611dc5565b84808210611cd157611a2091611dc5565b945b611a2c8582611555565b9788818110611cbe5790611a3f91611dc5565b945b808210611cab57611a5191611dc5565b955b7f30644e72e131a029b85045b68181585d2833e84879b9709143e1f593f0000001858709977f30644e72e131a029b85045b68181585d2833e84879b9709143e1f593f000000180898309915f97099781998098600160ff611ab4878b611dd2565b511614611ac9575b50505050600101936118ac565b839b5081929499508590879b947f30644e72e131a029b85045b68181585d2833e84879b9709143e1f593f0000001838a95099c7f30644e72e131a029b85045b68181585d2833e84879b9709143e1f593f00000019109957f30644e72e131a029b85045b68181585d2833e84879b9709143e1f593f000000191097f30644e72e131a029b85045b68181585d2833e84879b9709143e1f593f000000190620292f809907f30644e72e131a029b85045b68181585d2833e84879b9709143e1f593f00000019109907f30644e72e131a029b85045b68181585d2833e84879b9709143e1f593f0000001910999611bbc91611555565b611bc68585611555565b7f30644e72e131a029b85045b68181585d2833e84879b9709143e1f593f000000191096001927f30644e72e131a029b85045b68181585d2833e84879b9709143e1f593f000000192918391908290611c4c908d808210611c9957611c2991611dc5565b83808210611c8657611c3a91611dc5565b9d808610610cc457610c7f8187611dc5565b9b620292fc09808210611c7457611c6291611dc5565b818b84099a09990995905f8080611abc565b611c8191610cba91611dc5565b611c62565b611c9391610cba91611dc5565b9d610c6e565b611ca691610cba91611dc5565b611c29565b611cb891610cba91611dc5565b95611a53565b610cba90611ccb92611dc5565b94611a41565b611cde91610cba91611dc5565b94611a22565b611cf191610cba91611dc5565b611a0f565b8060ff0360ff8111610d4157826001911c16611d128286611dd2565b52600160ff611d218387611dd2565b51161480611d3f575b611d37575b600101611892565b915081611d2f565b506101008314611d2a565b50611d536114e1565b5f81526001602082015290565b8035159081611d6d575090565b60019150602001351490565b7f30644e72e131a029b85045b68181585d2833e84879b9709143e1f593f000000103907f30644e72e131a029b85045b68181585d2833e84879b9709143e1f593f00000018211610d4157565b91908203918211610d4157565b9060fb8110156111bc5760051b0190565b907f30644e72e131a029b85045b68181585d2833e84879b9709143e1f593efffffff807f30644e72e131a029b85045b68181585d2833e84879b9709143e1f593f000000160019406905b611e35575050565b600180831614611e6f575b807f30644e72e131a029b85045b68181585d2833e84879b9709143e1f593f000000191099060011c9081611e2d565b927f30644e72e131a029b85045b68181585d2833e84879b9709143e1f593f000000184819209939050611e4056fea2646970667358221220b3cf264d4f8e2a36a6bb3fad523ebac60f0c0b96754fe3c07cbd53568943c10364736f6c634300081e0033","linkReferences":{}},"methodIdentifiers":{"A()":"f446c1d0","D()":"0f529ba2","Q()":"e493ef8c","R()":"4980e1be","add(BabyJubJub.Affine,BabyJubJub.Affine)":"9679db0d","computeLagrangeCoefficiants(uint256[],uint256,uint256)":"37d2224c","generator()":"7afa1eed","identity()":"2c159a1a","isEmpty(BabyJubJub.Affine)":"8a9088a3","isEqual(BabyJubJub.Affine,BabyJubJub.Affine)":"2ba6bab9","isIdentity(BabyJubJub.Affine)":"e8c87428","isInCorrectSubgroupAssumingOnCurve(BabyJubJub.Affine)":"e128c1aa","isOnCurve(BabyJubJub.Affine)":"8071469c","scalarMul(uint256,BabyJubJub.Affine)":"e0d29faa"},"id":0}