{"abi":[{"type":"constructor","inputs":[{"name":"_clientVerifier","type":"address","internalType":"address"},{"name":"_serverVerifier","type":"address","internalType":"address"},{"name":"_mpcAddress","type":"address","internalType":"address"},{"name":"_tokenAddress","type":"address","internalType":"address"},{"name":"_mpcPk1","type":"tuple","internalType":"struct BabyJubJub.Affine","components":[{"name":"x","type":"uint256","internalType":"uint256"},{"name":"y","type":"uint256","internalType":"uint256"}]},{"name":"_mpcPk2","type":"tuple","internalType":"struct BabyJubJub.Affine","components":[{"name":"x","type":"uint256","internalType":"uint256"},{"name":"y","type":"uint256","internalType":"uint256"}]},{"name":"_mpcPk3","type":"tuple","internalType":"struct BabyJubJub.Affine","components":[{"name":"x","type":"uint256","internalType":"uint256"},{"name":"y","type":"uint256","internalType":"uint256"}]},{"name":"_environmentTag","type":"string","internalType":"string"}],"stateMutability":"nonpayable"},{"type":"function","name":"DOMAIN_TAG","inputs":[],"outputs":[{"name":"","type":"bytes32","internalType":"bytes32"}],"stateMutability":"view"},{"type":"function","name":"actionQueue","inputs":[],"outputs":[{"name":"nextKey","type":"uint256","internalType":"uint256"},{"name":"lowestKey","type":"uint256","internalType":"uint256"}],"stateMutability":"view"},{"type":"function","name":"balanceCommitments","inputs":[{"name":"","type":"address","internalType":"address"}],"outputs":[{"name":"","type":"uint256","internalType":"uint256"}],"stateMutability":"view"},{"type":"function","name":"clientVerifier","inputs":[],"outputs":[{"name":"","type":"address","internalType":"contract IVerifierClient"}],"stateMutability":"view"},{"type":"function","name":"contractCompCheck","inputs":[{"name":"interfaceId","type":"bytes4","internalType":"bytes4"},{"name":"domainTag","type":"bytes32","internalType":"bytes32"}],"outputs":[],"stateMutability":"view"},{"type":"function","name":"deposit","inputs":[{"name":"amount","type":"uint256","internalType":"uint256"}],"outputs":[{"name":"","type":"uint256","internalType":"uint256"}],"stateMutability":"payable"},{"type":"function","name":"getBalanceCommitment","inputs":[{"name":"user","type":"address","internalType":"address"}],"outputs":[{"name":"","type":"uint256","internalType":"uint256"}],"stateMutability":"view"},{"type":"function","name":"getMpcPublicKeys","inputs":[],"outputs":[{"name":"","type":"tuple","internalType":"struct BabyJubJub.Affine","components":[{"name":"x","type":"uint256","internalType":"uint256"},{"name":"y","type":"uint256","internalType":"uint256"}]},{"name":"","type":"tuple","internalType":"struct BabyJubJub.Affine","components":[{"name":"x","type":"uint256","internalType":"uint256"},{"name":"y","type":"uint256","internalType":"uint256"}]},{"name":"","type":"tuple","internalType":"struct BabyJubJub.Affine","components":[{"name":"x","type":"uint256","internalType":"uint256"},{"name":"y","type":"uint256","internalType":"uint256"}]}],"stateMutability":"view"},{"type":"function","name":"getNextActionIndex","inputs":[],"outputs":[{"name":"","type":"uint256","internalType":"uint256"}],"stateMutability":"view"},{"type":"function","name":"getQueueSize","inputs":[],"outputs":[{"name":"","type":"uint256","internalType":"uint256"}],"stateMutability":"view"},{"type":"function","name":"mpcPk1","inputs":[],"outputs":[{"name":"x","type":"uint256","internalType":"uint256"},{"name":"y","type":"uint256","internalType":"uint256"}],"stateMutability":"view"},{"type":"function","name":"mpcPk2","inputs":[],"outputs":[{"name":"x","type":"uint256","internalType":"uint256"},{"name":"y","type":"uint256","internalType":"uint256"}],"stateMutability":"view"},{"type":"function","name":"mpcPk3","inputs":[],"outputs":[{"name":"x","type":"uint256","internalType":"uint256"},{"name":"y","type":"uint256","internalType":"uint256"}],"stateMutability":"view"},{"type":"function","name":"processMPC","inputs":[{"name":"num_transactions","type":"uint256","internalType":"uint256"},{"name":"commitments","type":"uint256[100]","internalType":"uint256[100]"},{"name":"valid","type":"bool[50]","internalType":"bool[50]"},{"name":"proof","type":"uint256[4]","internalType":"uint256[4]"}],"outputs":[{"name":"","type":"uint256[50]","internalType":"uint256[50]"}],"stateMutability":"nonpayable"},{"type":"function","name":"readQueue","inputs":[{"name":"num_items","type":"uint256","internalType":"uint256"}],"outputs":[{"name":"","type":"uint256[]","internalType":"uint256[]"},{"name":"","type":"tuple[]","internalType":"struct ActionItem[]","components":[{"name":"action","type":"uint8","internalType":"enum Action"},{"name":"sender","type":"address","internalType":"address"},{"name":"receiver","type":"address","internalType":"address"},{"name":"amount","type":"uint256","internalType":"uint256"}]},{"name":"","type":"tuple[]","internalType":"struct Merces.Ciphertext[]","components":[{"name":"amount","type":"uint256[3]","internalType":"uint256[3]"},{"name":"r","type":"uint256[3]","internalType":"uint256[3]"},{"name":"senderPk","type":"tuple","internalType":"struct BabyJubJub.Affine","components":[{"name":"x","type":"uint256","internalType":"uint256"},{"name":"y","type":"uint256","internalType":"uint256"}]}]}],"stateMutability":"view"},{"type":"function","name":"retrieveFunds","inputs":[{"name":"receiver","type":"address","internalType":"address"}],"outputs":[],"stateMutability":"nonpayable"},{"type":"function","name":"serverVerifier","inputs":[],"outputs":[{"name":"","type":"address","internalType":"contract IVerifierServer"}],"stateMutability":"view"},{"type":"function","name":"supportsInterface","inputs":[{"name":"interfaceId","type":"bytes4","internalType":"bytes4"}],"outputs":[{"name":"","type":"bool","internalType":"bool"}],"stateMutability":"view"},{"type":"function","name":"token","inputs":[],"outputs":[{"name":"","type":"address","internalType":"contract IERC20"}],"stateMutability":"view"},{"type":"function","name":"transfer","inputs":[{"name":"receiver","type":"address","internalType":"address"},{"name":"amountCommitment","type":"uint256","internalType":"uint256"},{"name":"beta","type":"uint256","internalType":"uint256"},{"name":"ciphertext","type":"tuple","internalType":"struct Merces.Ciphertext","components":[{"name":"amount","type":"uint256[3]","internalType":"uint256[3]"},{"name":"r","type":"uint256[3]","internalType":"uint256[3]"},{"name":"senderPk","type":"tuple","internalType":"struct BabyJubJub.Affine","components":[{"name":"x","type":"uint256","internalType":"uint256"},{"name":"y","type":"uint256","internalType":"uint256"}]}]},{"name":"proof","type":"uint256[4]","internalType":"uint256[4]"}],"outputs":[{"name":"","type":"uint256","internalType":"uint256"}],"stateMutability":"nonpayable"},{"type":"function","name":"withdraw","inputs":[{"name":"amount","type":"uint256","internalType":"uint256"}],"outputs":[{"name":"","type":"uint256","internalType":"uint256"}],"stateMutability":"nonpayable"},{"type":"event","name":"Deposit","inputs":[{"name":"actionIndex","type":"uint256","indexed":false,"internalType":"uint256"}],"anonymous":false},{"type":"event","name":"ProcessedMPC","inputs":[{"name":"actionIndices","type":"uint256[50]","indexed":false,"internalType":"uint256[50]"},{"name":"valid","type":"bool[50]","indexed":false,"internalType":"bool[50]"}],"anonymous":false},{"type":"event","name":"Transfer","inputs":[{"name":"actionIndex","type":"uint256","indexed":false,"internalType":"uint256"}],"anonymous":false},{"type":"event","name":"Withdraw","inputs":[{"name":"actionIndex","type":"uint256","indexed":false,"internalType":"uint256"}],"anonymous":false},{"type":"error","name":"CannotPushNotPresent","inputs":[]},{"type":"error","name":"ContractComp","inputs":[]},{"type":"error","name":"InvalidAmount","inputs":[]},{"type":"error","name":"InvalidCommitment","inputs":[]},{"type":"error","name":"InvalidMpcAction","inputs":[]},{"type":"error","name":"InvalidPoint","inputs":[]},{"type":"error","name":"InvalidTransfer","inputs":[]},{"type":"error","name":"NotInPrimeField","inputs":[]},{"type":"error","name":"SafeERC20FailedOperation","inputs":[{"name":"token","type":"address","internalType":"address"}]},{"type":"error","name":"Unauthorized","inputs":[]}],"bytecode":{"object":"0x610100806040523461033757612df6803803809161001d828561033b565b833981019061016081830312610337576100368161035e565b906100436020820161035e565b906100506040820161035e565b9161005d6060830161035e565b9261006b8660808501610372565b906100798760c08601610372565b91610088886101008701610372565b61014086015190956001600160401b03821161033757019188601f84011215610337578251946001600160401b03861161031657604051986100d4601f8801601f19166020018b61033b565b868a5260208a019a60208887010111610337576020985f8a89819a8f83809b01905e8d010152610103856103c2565b61010c876103c2565b610115896103c2565b6001600160a01b03168061032a57600160ff195f5416175f555b60e0526001600160a01b0390811660a0521660c0525f8054610100600160a81b03191660089290921b610100600160a81b0316919091179055805160019081559101516002558151600355910151600455815160055591015160065560408051909390916101ef916101a1868561033b565b600784526020808501666d65726365733160c81b81528751958693838501985180918a5e840190602d60f81b84830152518092602183015e01015f838201520301601f19810183528261033b565b519020608090815281519081016001600160401b0381118282101761031657825260048152602081015f81528282015f815260608301905f82526008545f526007602052845f20935192600584101561030257845490516001600160a81b031990911660ff90941693909317600893841b610100600160a81b031617845551600180850180546001600160a01b0319166001600160a01b039390931692909217909155905160029390930192909255805482019055600955516128c5908161053182396080518181816101e80152611e6f015260a0518181816105290152610863015260c05181818161134e0152611d6d015260e05181818161014f015281816103d501528181611a820152611f8d0152f35b634e487b7160e01b5f52602160045260245ffd5b634e487b7160e01b5f52604160045260245ffd5b60ff195f54165f5561012f565b5f80fd5b601f909101601f19168101906001600160401b0382119082101761031657604052565b51906001600160a01b038216820361033757565b919082604091031261033757604080519081016001600160401b03811182821017610316576040526020808294805184520151910152565b90816020910312610337575180151581036103375790565b604051631d190e8560e31b815281516004820152602080830151602483015290919073__$fd1bbc507ebce9bb0449be7c85ea578f4f$__9083604481845af49283156104a5575f9361050f575b5082156104b0575b8215610435575b505061042657565b63b8fedf8760e01b5f5260045ffd5b60405163709460d560e11b81528251600482015260209283015160248201529250829060449082905af49081156104a5575f91610476575b50155f8061041e565b610498915060203d60201161049e575b610490818361033b565b8101906103aa565b5f61046d565b503d610486565b6040513d5f823e3d90fd5b60405163201c51a760e21b81528251600482015260208084015160248301529193509081604481865af49081156104a5575f916104f0575b501591610417565b610509915060203d60201161049e57610490818361033b565b5f6104e8565b61052991935060203d60201161049e57610490818361033b565b915f61040f56fe6080806040526004361015610012575f80fd5b5f905f3560e01c90816301ffc9a714612046575080632ad2205214611f2c5780632e1a7d4d14611e95578063326175b814611df457806351b1e52414611d91578063547ecebf14611d235780635fdd52e414611ce157806367f627b01461128a5780636d77cd0514610d675780637564ba2114610d2457806391f3a33114610c5e578063a135dff31461054d578063b51ac8a2146104de578063b6b55f251461031b578063c1a75210146102d8578063ce348c6f14610298578063d915433c1461024e578063d93c0d9e1461020b578063e32e13eb146101b2578063faf3a304146101765763fc0c546a14610105575f80fd5b3461017357807ffffffffffffffffffffffffffffffffffffffffffffffffffffffffffffffffc36011261017357602060405173ffffffffffffffffffffffffffffffffffffffff7f0000000000000000000000000000000000000000000000000000000000000000168152f35b80fd5b503461017357807ffffffffffffffffffffffffffffffffffffffffffffffffffffffffffffffffc360112610173576020600954604051908152f35b503461017357807ffffffffffffffffffffffffffffffffffffffffffffffffffffffffffffffffc3601126101735760206040517f00000000000000000000000000000000000000000000000000000000000000008152f35b503461017357807ffffffffffffffffffffffffffffffffffffffffffffffffffffffffffffffffc36011261017357604060055460065482519182526020820152f35b50346101735760207ffffffffffffffffffffffffffffffffffffffffffffffffffffffffffffffffc36011261017357602061029061028b6120b8565b612495565b604051908152f35b503461017357807ffffffffffffffffffffffffffffffffffffffffffffffffffffffffffffffffc3601126101735760206102906008546009549061286a565b503461017357807ffffffffffffffffffffffffffffffffffffffffffffffffffffffffffffffffc36011261017357604060085460095482519182526020820152f35b5060207ffffffffffffffffffffffffffffffffffffffffffffffffffffffffffffffffc3601126101735760043590610353826125fa565b60ff815416806104d4575b6104ac5781156104ac57610392604051610377816121a0565b60018152826020820152336040820152836060820152612647565b917f4d6ce1e535dbade1c23defba91e23b8f791ce5edc0cc320257a2b364e4e384266020604051858152a160ff825416156103d3575b602083604051908152f35b7f000000000000000000000000000000000000000000000000000000000000000090604051907f23b872dd000000000000000000000000000000000000000000000000000000008452336004523060245260445260208360648180865af190600184511482161561048b575b604052826060526103c8577f5274afe700000000000000000000000000000000000000000000000000000000825273ffffffffffffffffffffffffffffffffffffffff16600452602490fd5b9060018115166104a357823b15153d1516169061043f565b503d83823e3d90fd5b807f2c5211c60000000000000000000000000000000000000000000000000000000060049252fd5b508134141561035e565b503461017357807ffffffffffffffffffffffffffffffffffffffffffffffffffffffffffffffffc36011261017357602060405173ffffffffffffffffffffffffffffffffffffffff7f0000000000000000000000000000000000000000000000000000000000000000168152f35b5034610173576101e07ffffffffffffffffffffffffffffffffffffffffffffffffffffffffffffffffc360112610173576105866120b8565b602435604435916101007fffffffffffffffffffffffffffffffffffffffffffffffffffffffffffffff9c36011261099f57366101e41161099f5773ffffffffffffffffffffffffffffffffffffffff1691823314610c36576105e882612819565b60407ffffffffffffffffffffffffffffffffffffffffffffffffffffffffffffffedc36011261099f576040519161061f836121e9565b610124358084526101443560208086018281526040517fe8c87428000000000000000000000000000000000000000000000000000000008152875160048201529051602482015291959294929073__$fd1bbc507ebce9bb0449be7c85ea578f4f$__9083604481845af4928315610c0a578993610c15575b508215610b92575b8215610afe575b5050610ad657606435946106b986612819565b6084356106c581612819565b60a435906106d282612819565b60c435906106df82612819565b60e435916106ec83612819565b61072461010435956106fd87612819565b6040519061070a826121a0565b600382523360208301526040820152886060820152612647565b99604051976101e0890189811067ffffffffffffffff821117610aa9576040528989528a60208a015260408901526060880152608087015260a086015260c085015260e08401526101008301526001546101208301526002546101408301526003546101608301526004546101808301526005546101a08301526006546101c08301526040518660208201809285835b600f8110610a90575050602093506101e081526107d361020082612221565b604051918291518091835e8101838152039060025afa15610a85579085917f1fffffffffffffffffffffffffffffffffffffffffffffffffffffffffffffff83511691818301908491600e90815b6109b2575050517f30644e72e131a029b85045b68181585d2833e84879b9709143e1f593f000000191089173ffffffffffffffffffffffffffffffffffffffff7f000000000000000000000000000000000000000000000000000000000000000016926040519261089184612205565b835260208301526040820152813b156109ae576108ea60e4849260405194859384927f98c13db9000000000000000000000000000000000000000000000000000000008452608061016460048601376084840190612102565b5afa80156109a35761098a575b50839052600b60205260408420936064815b6003811061097657505060c4905b6003811061095f575050836007916006602096015501557f248dd4076d0a389d795107efafd558ce7f31ae37b441ccb9a599c60868f480d582604051838152a1604051908152f35b600190602083359301926003828901015501610917565b600190602083359301928189015501610909565b8161099491612221565b61099f57835f6108f7565b8380fd5b6040513d84823e3d90fd5b8280fd5b91929093949550600f841015610a58578360051b8301518101809111610a2b577f30644e72e131a029b85045b68181585d2833e84879b9709143e1f593f0000001908209928015610a2b577fffffffffffffffffffffffffffffffffffffffffffffffffffffffffffffffff0189959493929181610821565b60248a7f4e487b710000000000000000000000000000000000000000000000000000000081526011600452fd5b60248a7f4e487b710000000000000000000000000000000000000000000000000000000081526032600452fd5b6040513d87823e3d90fd5b815186526020958601958c9550909101906001016107b4565b60248e7f4e487b710000000000000000000000000000000000000000000000000000000081526041600452fd5b6004867fb8fedf87000000000000000000000000000000000000000000000000000000008152fd5b6040517fe128c1aa0000000000000000000000000000000000000000000000000000000081528251600482015260209283015160248201529250829060449082905af4908115610b87578791610b58575b50155f806106a6565b610b7a915060203d602011610b80575b610b728183612221565b810190612877565b5f610b4f565b503d610b68565b6040513d89823e3d90fd5b6040517f8071469c0000000000000000000000000000000000000000000000000000000081528251600482015260208084015160248301529193509081604481865af4908115610c0a578991610beb575b50159161069f565b610c04915060203d602011610b8057610b728183612221565b5f610be3565b6040513d8b823e3d90fd5b610c2f91935060203d602011610b8057610b728183612221565b915f610697565b6004847f2f352531000000000000000000000000000000000000000000000000000000008152fd5b503461017357807ffffffffffffffffffffffffffffffffffffffffffffffffffffffffffffffffc36011261017357610c95612412565b50610c9e612412565b50610ca7612412565b5060c0604051610cb6816121e9565b600154815260025460208201908152604051610cd1816121e9565b60035481526004546020820190815260405191610ced836121e9565b60055483526006549360208401948552604051955186525160208601525160408501525160608401525160808301525160a0820152f35b503461017357807ffffffffffffffffffffffffffffffffffffffffffffffffffffffffffffffffc36011261017357604060035460045482519182526020820152f35b50346101735760207ffffffffffffffffffffffffffffffffffffffffffffffffffffffffffffffffc36011261017357600435610da96008546009549061286a565b808211611282575b5090610dbc826123d6565b91610dca6040519384612221565b8083527fffffffffffffffffffffffffffffffffffffffffffffffffffffffffffffffe0610df7826123d6565b01825b818110611263575050610e0c816123d6565b91610e1a6040519384612221565b818352610e26826123d6565b937fffffffffffffffffffffffffffffffffffffffffffffffffffffffffffffffe0602085019501368637610e5a836123d6565b92610e686040519485612221565b8084527fffffffffffffffffffffffffffffffffffffffffffffffffffffffffffffffe0610e95826123d6565b01835b8181106111fb57505060095490839173__$96414a38f905666ffb62ad69c724988e3b$__905b82841061103a575050505060405194859460608601906060875251809152608086019190845b8181106110215750505084810360208601526020808351928381520192019083905b808210610f7f575050508381036040850152602080845192838152019301915b818110610f34575050500390f35b9193509160206101006001928260408851610f50848251612102565b610f61838201516060860190612102565b0151805160c0840152015160e0820152019401910191849392610f26565b91809596509290925180516005811015610ff4578260606020936080936001965273ffffffffffffffffffffffffffffffffffffffff85820151168584015273ffffffffffffffffffffffffffffffffffffffff60408201511660408401520151606082015201950192018695949291610f06565b6024867f4e487b710000000000000000000000000000000000000000000000000000000081526021600452fd5b8251845288975060209384019390920191600101610ee4565b80611049858a9b97999a61242a565b526040517feaceeec200000000000000000000000000000000000000000000000000000000815260076004820152816024820152608081604481865af4908115610b8757879161117d575b5061109f858961242a565b526110aa848861242a565b50808652600b60205260408620604051906110c482612205565b6110cd8161245f565b82526110db6003820161245f565b60208301526007604051916110ef836121e9565b6006810154835201546020820152604082015261110c858a61242a565b52611117848961242a565b507fffffffffffffffffffffffffffffffffffffffffffffffffffffffffffffffff811461115057939796959360019384019301610ebe565b6024867f4e487b710000000000000000000000000000000000000000000000000000000081526011600452fd5b90506080813d82116111f3575b8161119760809383612221565b810103126111ef57604051906111ac826121a0565b805160058110156111eb5782526060906111c86020820161243e565b60208401526111d96040820161243e565b6040840152015160608201525f611094565b8880fd5b8680fd5b3d915061118a565b602090604098949697985161120f81612205565b606060405161121e8282612221565b813682378252604051906112328183612221565b36823783820152604051611245816121e9565b5f81525f84820152604082015282828a010152019695949296610e98565b602090611272959394956123ee565b8282860101520193929193610dfa565b90505f610db1565b503461147b576113607ffffffffffffffffffffffffffffffffffffffffffffffffffffffffffffffffc36011261147b5760043536610ca41161147b57366112e41161147b57366113641161147b5761064091826040516112eb8282612221565b3690376112f66124e5565b60328211611c575760405161258061130e8183612221565b3682376040519261131f8585612221565b843685375f5b81811061163957505b6032811061147f575073ffffffffffffffffffffffffffffffffffffffff7f000000000000000000000000000000000000000000000000000000000000000016803b1561147b5760405180927f4f89a15500000000000000000000000000000000000000000000000000000000825260806112e460048401375f608483015b61012c821061146157505050612604815f935afa801561145657611443575b50604051906113db82846120db565b80610ca48386015b603284106114225786867f98260fc8883baa863b09be1de9e73d5317d1aa060f783363c71c625e61df886c610c8088a161142060405180926120db565bf35b813580151580910361099f57602082819260019452019201930192906113e3565b61144f91505f90612221565b5f5f6113cc565b6040513d5f823e3d90fd5b8293506020809160019394518152019301910184926113ad565b5f80fd5b8060011b818104600214821517156115e45761149a81612344565b3561161157600181018091116115e4576114b390612344565b35611611577f087f763a403ee4109adc79d4a7638af3cb8cb6a33f5b027bd1476ffa97361acb6114e3828461238e565b5260328101908181116115e4577f087f763a403ee4109adc79d4a7638af3cb8cb6a33f5b027bd1476ffa97361acb61151d6001938561238e565b527f087f763a403ee4109adc79d4a7638af3cb8cb6a33f5b027bd1476ffa97361acb61155161154b83612356565b8561238e565b527f087f763a403ee4109adc79d4a7638af3cb8cb6a33f5b027bd1476ffa97361acb61157f61154b83612364565b527f087f763a403ee4109adc79d4a7638af3cb8cb6a33f5b027bd1476ffa97361acb6115ad61154b83612372565b526115bf6115ba82612324565b612337565b156115dc5760ff825b166115d561154b83612380565b520161132e565b60ff5f6115c8565b7f4e487b71000000000000000000000000000000000000000000000000000000005f52601160045260245ffd5b7fc06789fa000000000000000000000000000000000000000000000000000000005f5260045ffd5b6116456115ba82612324565b15611cd95760ff60015b16906009546032821015611cac578160051b87015261166c612743565b91606083019283519381516005811015611c7f5760010361188d5750604001926116ac73ffffffffffffffffffffffffffffffffffffffff855116612495565b938360011b94848604600214851517156115e4576116c986612344565b35611611575f906001870180971192836115e457602061173c956116f56116ef8b612344565b35612819565b60405190611702826121e9565b81525f82820152604051809781927f8b0fc30c000000000000000000000000000000000000000000000000000000008352600483016123a0565b038173__$58a96acb294a42983af7110ac717d64ca3$__5af4948515611456575f9561185a575b506117706115ba88612324565b611820575b5083611781878b61238e565b52603286018087116115e4576117b87f087f763a403ee4109adc79d4a7638af3cb8cb6a33f5b027bd1476ffa97361acb918b61238e565b526117cb6117c587612356565b8a61238e565b526115e4576115e4576117df600194612344565b356117f26117ec85612364565b8861238e565b526118056117ff84612372565b8761238e565b5261181861181283612380565b8661238e565b525b01611325565b5f935083925073ffffffffffffffffffffffffffffffffffffffff61184489612344565b359151165f52600a60205260405f20555f611775565b9094506020813d8211611885575b8161187560209383612221565b8101031261147b5751935f611763565b3d9150611868565b939080516005811015611c7f57600203611ade576020019073ffffffffffffffffffffffffffffffffffffffff8251165f52600a60205260405f20548460011b92858404600214861517156115e457600184018085116115e4576118f090612344565b35611611576119509660205f946119096116ef88612344565b60405190611916826121e9565b81525f82820152604051809a81927f8b0fc30c000000000000000000000000000000000000000000000000000000008352600483016123a0565b038173__$58a96acb294a42983af7110ac717d64ca3$__5af4978815611456575f98611aab575b506119846115ba88612324565b611a19575b5050611995858961238e565b526115e4576119a390612344565b359260328301938484116115e4576119bd6001958861238e565b527f087f763a403ee4109adc79d4a7638af3cb8cb6a33f5b027bd1476ffa97361acb6119eb6117ec85612356565b52806119f96117ec85612364565b52611a066117ff84612372565b52611a1361181283612380565b5261181a565b90925073ffffffffffffffffffffffffffffffffffffffff5f93611a3c86612344565b35828251165f52600a60205260405f20555116905160ff5f54165f14611a7c575f80808093611a75955af1611a6f612262565b506122bf565b5f80611989565b611aa6917f0000000000000000000000000000000000000000000000000000000000000000612530565b611a75565b9097506020813d8211611ad6575b81611ac660209383612221565b8101031261147b5751965f611977565b3d9150611ab9565b809450516005811015611c7f57600303611c57576020840173ffffffffffffffffffffffffffffffffffffffff8151165f52600a6020526040805f2054950194611b3e73ffffffffffffffffffffffffffffffffffffffff875116612495565b908560011b90868204600214871517156115e457611b5e6116ef83612344565b5f90600183019889841195866115e457611b7a6116ef8c612344565b611b866115ba8b612324565b611beb575b5050611b97888c61238e565b526115e457611ba590612344565b35603286018087116115e457611bbb908a61238e565b52611bce611bc886612356565b8961238e565b526115e457611bde600194612344565b356119f96117ec85612364565b919250945073ffffffffffffffffffffffffffffffffffffffff611c0e84612344565b359151165f52600a60205260405f20555f905f9473ffffffffffffffffffffffffffffffffffffffff611c408b612344565b359151165f52600a60205260405f20555f80611b8b565b7f27606320000000000000000000000000000000000000000000000000000000005f5260045ffd5b7f4e487b71000000000000000000000000000000000000000000000000000000005f52602160045260245ffd5b7f4e487b71000000000000000000000000000000000000000000000000000000005f52603260045260245ffd5b60ff5f61164f565b3461147b575f7ffffffffffffffffffffffffffffffffffffffffffffffffffffffffffffffffc36011261147b57604060015460025482519182526020820152f35b3461147b575f7ffffffffffffffffffffffffffffffffffffffffffffffffffffffffffffffffc36011261147b57602060405173ffffffffffffffffffffffffffffffffffffffff7f0000000000000000000000000000000000000000000000000000000000000000168152f35b3461147b5760207ffffffffffffffffffffffffffffffffffffffffffffffffffffffffffffffffc36011261147b5773ffffffffffffffffffffffffffffffffffffffff611ddd6120b8565b165f52600a602052602060405f2054604051908152f35b3461147b5760407ffffffffffffffffffffffffffffffffffffffffffffffffffffffffffffffffc36011261147b57611e33611e2e612089565b612129565b158015611e69575b611e4157005b7fccae95ad000000000000000000000000000000000000000000000000000000005f5260045ffd5b506024357f00000000000000000000000000000000000000000000000000000000000000001415611e3b565b3461147b5760207ffffffffffffffffffffffffffffffffffffffffffffffffffffffffffffffffc36011261147b576020611efb600435611ed5816125fa565b60405190611ee2826121a0565b6002825233848301525f60408301526060820152612647565b7f5b6b431d4476a211bb7d41c20d1aab9ae2321deee0d20be3d9fc9b1093fa6e3d82604051838152a1604051908152f35b3461147b5760207ffffffffffffffffffffffffffffffffffffffffffffffffffffffffffffffffc36011261147b57611f636120b8565b611f6b6124e5565b5f5460ff1615611f8b575f808080611f899447905af1611a6f612262565b005b7f0000000000000000000000000000000000000000000000000000000000000000604051917f70a0823100000000000000000000000000000000000000000000000000000000835230600484015260208360248173ffffffffffffffffffffffffffffffffffffffff86165afa918215611456575f92612010575b611f899350612530565b91506020833d60201161203e575b8161202b60209383612221565b8101031261147b57611f89925191612006565b3d915061201e565b3461147b5760207ffffffffffffffffffffffffffffffffffffffffffffffffffffffffffffffffc36011261147b57602090612083611e2e612089565b15158152f35b600435907fffffffff000000000000000000000000000000000000000000000000000000008216820361147b57565b6004359073ffffffffffffffffffffffffffffffffffffffff8216820361147b57565b905f905b603282106120ec57505050565b60208060019285518152019301910190916120df565b905f905b6003821061211357505050565b6020806001928551815201930191019091612106565b7fffffffff00000000000000000000000000000000000000000000000000000000167f1494e58c000000000000000000000000000000000000000000000000000000008114908115612179575090565b7f01ffc9a70000000000000000000000000000000000000000000000000000000091501490565b6080810190811067ffffffffffffffff8211176121bc57604052565b7f4e487b71000000000000000000000000000000000000000000000000000000005f52604160045260245ffd5b6040810190811067ffffffffffffffff8211176121bc57604052565b6060810190811067ffffffffffffffff8211176121bc57604052565b90601f7fffffffffffffffffffffffffffffffffffffffffffffffffffffffffffffffe0910116810190811067ffffffffffffffff8211176121bc57604052565b3d156122ba573d9067ffffffffffffffff82116121bc57604051916122af60207fffffffffffffffffffffffffffffffffffffffffffffffffffffffffffffffe0601f8401160184612221565b82523d5f602084013e565b606090565b156122c657565b60646040517f08c379a000000000000000000000000000000000000000000000000000000000815260206004820152601560248201527f546f6b656e207472616e73666572206661696c656400000000000000000000006044820152fd5b6032811015611cac5760051b610ca40190565b35801515810361147b5790565b6064811015611cac5760051b60240190565b90606482018092116115e457565b90609682018092116115e457565b9060c882018092116115e457565b9060fa82018092116115e457565b9061012c811015611cac5760051b0190565b6060810192915f825b600282106123c057505050604063deadbeef910152565b60208060019285518152019301910190916123a9565b67ffffffffffffffff81116121bc5760051b60200190565b604051906123fb826121a0565b5f6060838281528260208201528260408201520152565b6040519061241f826121e9565b5f6020838281520152565b8051821015611cac5760209160051b010190565b519073ffffffffffffffffffffffffffffffffffffffff8216820361147b57565b60405191905f835b6003821061247f5750505061247d606083612221565b565b6001602081928554815201930191019091612467565b73ffffffffffffffffffffffffffffffffffffffff165f52600a60205260405f205480156124c05790565b507f087f763a403ee4109adc79d4a7638af3cb8cb6a33f5b027bd1476ffa97361acb90565b73ffffffffffffffffffffffffffffffffffffffff5f5460081c16330361250857565b7f82b42900000000000000000000000000000000000000000000000000000000005f5260045ffd5b9173ffffffffffffffffffffffffffffffffffffffff604051927fa9059cbb000000000000000000000000000000000000000000000000000000005f521660045260245260205f60448180865af19060015f51148216156125d9575b604052156125975750565b73ffffffffffffffffffffffffffffffffffffffff907f5274afe7000000000000000000000000000000000000000000000000000000005f521660045260245ffd5b9060018115166125f157823b15153d1516169061258c565b503d5f823e3d90fd5b8015908115612633575b5061260b57565b7f2c5211c6000000000000000000000000000000000000000000000000000000005f5260045ffd5b69ffffffffffffffffffff9150115f612604565b80516005811015611c7f571561271b576008545f52600760205260405f209080516005811015611c7f5760029160609184547fffffffffffffffffffffff00000000000000000000000000000000000000000060ff74ffffffffffffffffffffffffffffffffffffffff00602086015160081b1693169116171784556001840173ffffffffffffffffffffffffffffffffffffffff6040830151167fffffffffffffffffffffffff000000000000000000000000000000000000000082541617905501519101556008546001810160085590565b7fe5c28924000000000000000000000000000000000000000000000000000000005f5260045ffd5b61274b6123ee565b50600854906009548092146127f357815f52600760205260405f2060405190612773826121a0565b80549060ff82166005811015611c7f5760029273ffffffffffffffffffffffffffffffffffffffff91855260081c16602084015273ffffffffffffffffffffffffffffffffffffffff600182015416604084015201546060820152915f5260076020525f6002604082208281558260018201550155600160095401600955565b9050604051612801816121a0565b5f81525f60208201525f60408201525f606082015290565b7f30644e72e131a029b85045b68181585d2833e84879b9709143e1f593f0000001111561284257565b7f2d8aa1c8000000000000000000000000000000000000000000000000000000005f5260045ffd5b919082039182116115e457565b9081602091031261147b5751801515810361147b579056fea2646970667358221220befc648a72e581e25e57e5f1b5ae321cee563ae3dd3a5bde2a697e0de48715d964736f6c634300081e0033","linkReferences":{"lib/babyjubjub-solidity/src/BabyJubJub.sol":{"BabyJubJub":[{"start":998,"length":20},{"start":2975,"length":20}]},"src/ActionQueue.sol":{"ActionQueueLib":[{"start":5082,"length":20}]},"src/Poseidon2.sol":{"Poseidon2T2_BN254":[{"start":7281,"length":20},{"start":7813,"length":20}]}}},"methodIdentifiers":{"DOMAIN_TAG()":"e32e13eb","actionQueue()":"c1a75210","balanceCommitments(address)":"51b1e524","clientVerifier()":"b51ac8a2","contractCompCheck(bytes4,bytes32)":"326175b8","deposit(uint256)":"b6b55f25","getBalanceCommitment(address)":"d915433c","getMpcPublicKeys()":"91f3a331","getNextActionIndex()":"faf3a304","getQueueSize()":"ce348c6f","mpcPk1()":"5fdd52e4","mpcPk2()":"7564ba21","mpcPk3()":"d93c0d9e","processMPC(uint256,uint256[100],bool[50],uint256[4])":"67f627b0","readQueue(uint256)":"6d77cd05","retrieveFunds(address)":"2ad22052","serverVerifier()":"547ecebf","supportsInterface(bytes4)":"01ffc9a7","token()":"fc0c546a","transfer(address,uint256,uint256,(uint256[3],uint256[3],(uint256,uint256)),uint256[4])":"a135dff3","withdraw(uint256)":"2e1a7d4d"},"id":9}