{"abi":[{"type":"constructor","inputs":[{"name":"_clientVerifier","type":"address","internalType":"address"},{"name":"_serverVerifier","type":"address","internalType":"address"},{"name":"_mpcAddress","type":"address","internalType":"address"},{"name":"_tokenAddress","type":"address","internalType":"address"},{"name":"_mpcPk1","type":"tuple","internalType":"struct BabyJubJub.Affine","components":[{"name":"x","type":"uint256","internalType":"uint256"},{"name":"y","type":"uint256","internalType":"uint256"}]},{"name":"_mpcPk2","type":"tuple","internalType":"struct BabyJubJub.Affine","components":[{"name":"x","type":"uint256","internalType":"uint256"},{"name":"y","type":"uint256","internalType":"uint256"}]},{"name":"_mpcPk3","type":"tuple","internalType":"struct BabyJubJub.Affine","components":[{"name":"x","type":"uint256","internalType":"uint256"},{"name":"y","type":"uint256","internalType":"uint256"}]},{"name":"_environmentTag","type":"string","internalType":"string"}],"stateMutability":"nonpayable"},{"type":"function","name":"DOMAIN_TAG","inputs":[],"outputs":[{"name":"","type":"bytes32","internalType":"bytes32"}],"stateMutability":"view"},{"type":"function","name":"actionQueue","inputs":[],"outputs":[{"name":"nextKey","type":"uint256","internalType":"uint256"},{"name":"lowestKey","type":"uint256","internalType":"uint256"}],"stateMutability":"view"},{"type":"function","name":"balanceCommitments","inputs":[{"name":"","type":"address","internalType":"address"}],"outputs":[{"name":"","type":"uint256","internalType":"uint256"}],"stateMutability":"view"},{"type":"function","name":"clientVerifier","inputs":[],"outputs":[{"name":"","type":"address","internalType":"contract IVerifierClient"}],"stateMutability":"view"},{"type":"function","name":"contractCompCheck","inputs":[{"name":"interfaceId","type":"bytes4","internalType":"bytes4"},{"name":"domainTag","type":"bytes32","internalType":"bytes32"}],"outputs":[],"stateMutability":"view"},{"type":"function","name":"deposit","inputs":[{"name":"amount","type":"uint256","internalType":"uint256"}],"outputs":[{"name":"","type":"uint256","internalType":"uint256"}],"stateMutability":"payable"},{"type":"function","name":"getBalanceCommitment","inputs":[{"name":"user","type":"address","internalType":"address"}],"outputs":[{"name":"","type":"uint256","internalType":"uint256"}],"stateMutability":"view"},{"type":"function","name":"getMpcPublicKeys","inputs":[],"outputs":[{"name":"","type":"tuple","internalType":"struct BabyJubJub.Affine","components":[{"name":"x","type":"uint256","internalType":"uint256"},{"name":"y","type":"uint256","internalType":"uint256"}]},{"name":"","type":"tuple","internalType":"struct BabyJubJub.Affine","components":[{"name":"x","type":"uint256","internalType":"uint256"},{"name":"y","type":"uint256","internalType":"uint256"}]},{"name":"","type":"tuple","internalType":"struct BabyJubJub.Affine","components":[{"name":"x","type":"uint256","internalType":"uint256"},{"name":"y","type":"uint256","internalType":"uint256"}]}],"stateMutability":"view"},{"type":"function","name":"getNextActionIndex","inputs":[],"outputs":[{"name":"","type":"uint256","internalType":"uint256"}],"stateMutability":"view"},{"type":"function","name":"getQueueSize","inputs":[],"outputs":[{"name":"","type":"uint256","internalType":"uint256"}],"stateMutability":"view"},{"type":"function","name":"mpcPk1","inputs":[],"outputs":[{"name":"x","type":"uint256","internalType":"uint256"},{"name":"y","type":"uint256","internalType":"uint256"}],"stateMutability":"view"},{"type":"function","name":"mpcPk2","inputs":[],"outputs":[{"name":"x","type":"uint256","internalType":"uint256"},{"name":"y","type":"uint256","internalType":"uint256"}],"stateMutability":"view"},{"type":"function","name":"mpcPk3","inputs":[],"outputs":[{"name":"x","type":"uint256","internalType":"uint256"},{"name":"y","type":"uint256","internalType":"uint256"}],"stateMutability":"view"},{"type":"function","name":"processMPC","inputs":[{"name":"num_transactions","type":"uint256","internalType":"uint256"},{"name":"commitments","type":"uint256[100]","internalType":"uint256[100]"},{"name":"valid","type":"bool[50]","internalType":"bool[50]"},{"name":"beta","type":"uint256","internalType":"uint256"},{"name":"proof","type":"uint256[4]","internalType":"uint256[4]"}],"outputs":[{"name":"","type":"uint256[50]","internalType":"uint256[50]"}],"stateMutability":"nonpayable"},{"type":"function","name":"readQueue","inputs":[{"name":"num_items","type":"uint256","internalType":"uint256"}],"outputs":[{"name":"","type":"uint256[]","internalType":"uint256[]"},{"name":"","type":"tuple[]","internalType":"struct ActionItem[]","components":[{"name":"action","type":"uint8","internalType":"enum Action"},{"name":"sender","type":"address","internalType":"address"},{"name":"receiver","type":"address","internalType":"address"},{"name":"amount","type":"uint256","internalType":"uint256"}]},{"name":"","type":"tuple[]","internalType":"struct Merces.Ciphertext[]","components":[{"name":"amount","type":"uint256[3]","internalType":"uint256[3]"},{"name":"r","type":"uint256[3]","internalType":"uint256[3]"},{"name":"senderPk","type":"tuple","internalType":"struct BabyJubJub.Affine","components":[{"name":"x","type":"uint256","internalType":"uint256"},{"name":"y","type":"uint256","internalType":"uint256"}]}]}],"stateMutability":"view"},{"type":"function","name":"retrieveFunds","inputs":[{"name":"receiver","type":"address","internalType":"address"}],"outputs":[],"stateMutability":"nonpayable"},{"type":"function","name":"serverVerifier","inputs":[],"outputs":[{"name":"","type":"address","internalType":"contract IVerifierServer"}],"stateMutability":"view"},{"type":"function","name":"supportsInterface","inputs":[{"name":"interfaceId","type":"bytes4","internalType":"bytes4"}],"outputs":[{"name":"","type":"bool","internalType":"bool"}],"stateMutability":"view"},{"type":"function","name":"token","inputs":[],"outputs":[{"name":"","type":"address","internalType":"contract IERC20"}],"stateMutability":"view"},{"type":"function","name":"transfer","inputs":[{"name":"receiver","type":"address","internalType":"address"},{"name":"amountCommitment","type":"uint256","internalType":"uint256"},{"name":"ciphertext","type":"tuple","internalType":"struct Merces.Ciphertext","components":[{"name":"amount","type":"uint256[3]","internalType":"uint256[3]"},{"name":"r","type":"uint256[3]","internalType":"uint256[3]"},{"name":"senderPk","type":"tuple","internalType":"struct BabyJubJub.Affine","components":[{"name":"x","type":"uint256","internalType":"uint256"},{"name":"y","type":"uint256","internalType":"uint256"}]}]},{"name":"proof","type":"uint256[4]","internalType":"uint256[4]"}],"outputs":[{"name":"","type":"uint256","internalType":"uint256"}],"stateMutability":"nonpayable"},{"type":"function","name":"withdraw","inputs":[{"name":"amount","type":"uint256","internalType":"uint256"}],"outputs":[{"name":"","type":"uint256","internalType":"uint256"}],"stateMutability":"nonpayable"},{"type":"event","name":"Deposit","inputs":[{"name":"actionIndex","type":"uint256","indexed":false,"internalType":"uint256"}],"anonymous":false},{"type":"event","name":"ProcessedMPC","inputs":[{"name":"actionIndices","type":"uint256[50]","indexed":false,"internalType":"uint256[50]"},{"name":"valid","type":"bool[50]","indexed":false,"internalType":"bool[50]"}],"anonymous":false},{"type":"event","name":"Transfer","inputs":[{"name":"actionIndex","type":"uint256","indexed":false,"internalType":"uint256"}],"anonymous":false},{"type":"event","name":"Withdraw","inputs":[{"name":"actionIndex","type":"uint256","indexed":false,"internalType":"uint256"}],"anonymous":false},{"type":"error","name":"CannotPushNotPresent","inputs":[]},{"type":"error","name":"ContractComp","inputs":[]},{"type":"error","name":"InvalidAmount","inputs":[]},{"type":"error","name":"InvalidCommitment","inputs":[]},{"type":"error","name":"InvalidMpcAction","inputs":[]},{"type":"error","name":"InvalidPoint","inputs":[]},{"type":"error","name":"InvalidTransfer","inputs":[]},{"type":"error","name":"NotInPrimeField","inputs":[]},{"type":"error","name":"SafeERC20FailedOperation","inputs":[{"name":"token","type":"address","internalType":"address"}]},{"type":"error","name":"Unauthorized","inputs":[]}],"bytecode":{"object":"0x610100806040523461033757613017803803809161001d828561033b565b833981019061016081830312610337576100368161035e565b906100436020820161035e565b906100506040820161035e565b9161005d6060830161035e565b9261006b8660808501610372565b906100798760c08601610372565b91610088886101008701610372565b61014086015190956001600160401b03821161033757019188601f84011215610337578251946001600160401b03861161031657604051986100d4601f8801601f19166020018b61033b565b868a5260208a019a60208887010111610337576020985f8a89819a8f83809b01905e8d010152610103856103c2565b61010c876103c2565b610115896103c2565b6001600160a01b03168061032a57600160ff195f5416175f555b60e0526001600160a01b0390811660a0521660c0525f8054610100600160a81b03191660089290921b610100600160a81b0316919091179055805160019081559101516002558151600355910151600455815160055591015160065560408051909390916101ef916101a1868561033b565b600784526020808501666d65726365733160c81b81528751958693838501985180918a5e840190602d60f81b84830152518092602183015e01015f838201520301601f19810183528261033b565b519020608090815281519081016001600160401b0381118282101761031657825260048152602081015f81528282015f815260608301905f82526008545f526007602052845f20935192600584101561030257845490516001600160a81b031990911660ff90941693909317600893841b610100600160a81b031617845551600180850180546001600160a01b0319166001600160a01b03939093169290921790915590516002939093019290925580548201905560095551612ae6908161053182396080518181816101e801526120c8015260a0518181816105290152611637015260c0518181816106bb0152611fc6015260e05181818161014f015281816103d50152818161106e01526121e60152f35b634e487b7160e01b5f52602160045260245ffd5b634e487b7160e01b5f52604160045260245ffd5b60ff195f54165f5561012f565b5f80fd5b601f909101601f19168101906001600160401b0382119082101761031657604052565b51906001600160a01b038216820361033757565b919082604091031261033757604080519081016001600160401b03811182821017610316576040526020808294805184520151910152565b90816020910312610337575180151581036103375790565b604051631d190e8560e31b815281516004820152602080830151602483015290919073__$fd1bbc507ebce9bb0449be7c85ea578f4f$__9083604481845af49283156104a5575f9361050f575b5082156104b0575b8215610435575b505061042657565b63b8fedf8760e01b5f5260045ffd5b60405163709460d560e11b81528251600482015260209283015160248201529250829060449082905af49081156104a5575f91610476575b50155f8061041e565b610498915060203d60201161049e575b610490818361033b565b8101906103aa565b5f61046d565b503d610486565b6040513d5f823e3d90fd5b60405163201c51a760e21b81528251600482015260208084015160248301529193509081604481865af49081156104a5575f916104f0575b501591610417565b610509915060203d60201161049e57610490818361033b565b5f6104e8565b61052991935060203d60201161049e57610490818361033b565b915f61040f56fe6080806040526004361015610012575f80fd5b5f905f3560e01c90816301ffc9a71461229f575080632ad22052146121855780632e1a7d4d146120ee578063326175b81461204d57806351b1e52414611fea578063547ecebf14611f7c5780635fdd52e414611f3a5780636d77cd0514611a275780637564ba21146119e557806391f3a331146119205780639935ef79146113ca578063aa5e5d951461054d578063b51ac8a2146104de578063b6b55f251461031b578063c1a75210146102d8578063ce348c6f14610298578063d915433c1461024e578063d93c0d9e1461020b578063e32e13eb146101b2578063faf3a304146101765763fc0c546a14610105575f80fd5b3461017357807ffffffffffffffffffffffffffffffffffffffffffffffffffffffffffffffffc36011261017357602060405173ffffffffffffffffffffffffffffffffffffffff7f0000000000000000000000000000000000000000000000000000000000000000168152f35b80fd5b503461017357807ffffffffffffffffffffffffffffffffffffffffffffffffffffffffffffffffc360112610173576020600954604051908152f35b503461017357807ffffffffffffffffffffffffffffffffffffffffffffffffffffffffffffffffc3601126101735760206040517f00000000000000000000000000000000000000000000000000000000000000008152f35b503461017357807ffffffffffffffffffffffffffffffffffffffffffffffffffffffffffffffffc36011261017357604060055460065482519182526020820152f35b50346101735760207ffffffffffffffffffffffffffffffffffffffffffffffffffffffffffffffffc36011261017357602061029061028b612311565b6126b6565b604051908152f35b503461017357807ffffffffffffffffffffffffffffffffffffffffffffffffffffffffffffffffc36011261017357602061029060085460095490612964565b503461017357807ffffffffffffffffffffffffffffffffffffffffffffffffffffffffffffffffc36011261017357604060085460095482519182526020820152f35b5060207ffffffffffffffffffffffffffffffffffffffffffffffffffffffffffffffffc36011261017357600435906103538261281b565b60ff815416806104d4575b6104ac5781156104ac57610392604051610377816123f9565b60018152826020820152336040820152836060820152612868565b917f4d6ce1e535dbade1c23defba91e23b8f791ce5edc0cc320257a2b364e4e384266020604051858152a160ff825416156103d3575b602083604051908152f35b7f000000000000000000000000000000000000000000000000000000000000000090604051907f23b872dd000000000000000000000000000000000000000000000000000000008452336004523060245260445260208360648180865af190600184511482161561048b575b604052826060526103c8577f5274afe700000000000000000000000000000000000000000000000000000000825273ffffffffffffffffffffffffffffffffffffffff16600452602490fd5b9060018115166104a357823b15153d1516169061043f565b503d83823e3d90fd5b807f2c5211c60000000000000000000000000000000000000000000000000000000060049252fd5b508134141561035e565b503461017357807ffffffffffffffffffffffffffffffffffffffffffffffffffffffffffffffffc36011261017357602060405173ffffffffffffffffffffffffffffffffffffffff7f0000000000000000000000000000000000000000000000000000000000000000168152f35b5034610173576113807ffffffffffffffffffffffffffffffffffffffffffffffffffffffffffffffffc3601126101735760043536610ca4116113c657366112e4116113c6576112e4359136611384116101735761064092836040516105b3828261244d565b3690376105be612706565b6032831161139e57604051906125806105d7818461244d565b80368437604051946105e9878761244d565b86368737845b818110610ab957505b603281106108a5575060405183918591602081019183835b61012c821061088b57505060209450815261062d6125a08261244d565b604051918291518091835e8101838152039060025afa156107e35782517f1fffffffffffffffffffffffffffffffffffffffffffffffffffffffffffffff169161012b908490838501835b6107f257507f30644e72e131a029b85045b68181585d2833e84879b9709143e1f593f000000192505190089173ffffffffffffffffffffffffffffffffffffffff7f00000000000000000000000000000000000000000000000000000000000000001692604051926106e984612415565b835260208301526040820152813b156107ee5761074260e4849260405194859384927f98c13db9000000000000000000000000000000000000000000000000000000008452608061130460048601376084840190612334565b5afa80156107e3579082916107ce575b505060405190610762828461235b565b80610ca48386015b603284106107a95786867f98260fc8883baa863b09be1de9e73d5317d1aa060f783363c71c625e61df886c610c8088a16107a7604051809261235b565bf35b81358015158091036107ca576020828192600194520192019301929061076a565b8380fd5b816107d89161244d565b61017357805f610752565b6040513d84823e3d90fd5b8280fd5b90916107fe848461266e565b51810180911161085e577f30644e72e131a029b85045b68181585d2833e84879b9709143e1f593f000000190820992801561085e577fffffffffffffffffffffffffffffffffffffffffffffffffffffffffffffffff0192919083610678565b6024877f4e487b710000000000000000000000000000000000000000000000000000000081526011600452fd5b865181526020968701968a96506001929092019101610610565b8060011b81159082810460021482171561085e576108c28161265c565b35610a91576001810180911161085e576108db9061265c565b35610a695760068202908282046006141715610a3c577f087f763a403ee4109adc79d4a7638af3cb8cb6a33f5b027bd1476ffa97361acb61091c828761266e565b526001810180821161085e576109537f087f763a403ee4109adc79d4a7638af3cb8cb6a33f5b027bd1476ffa97361acb918761266e565b526002810180821161085e5761098a7f087f763a403ee4109adc79d4a7638af3cb8cb6a33f5b027bd1476ffa97361acb918761266e565b526003810180821161085e576109c17f087f763a403ee4109adc79d4a7638af3cb8cb6a33f5b027bd1476ffa97361acb918761266e565b526004810180821161085e576109f87f087f763a403ee4109adc79d4a7638af3cb8cb6a33f5b027bd1476ffa97361acb918761266e565b52610a0a610a058361263c565b61264f565b15610a365760015b6005820180921161085e5790610a2f60ff6001949316918761266e565b52016105f8565b85610a12565b6024867f4e487b710000000000000000000000000000000000000000000000000000000081526011600452fd5b6004867fc06789fa000000000000000000000000000000000000000000000000000000008152fd5b6004877fc06789fa000000000000000000000000000000000000000000000000000000008152fd5b610ac5610a058261263c565b156113965760ff60015b166009546032831015611369578260051b890152610aeb6129c2565b606081018051918051600581101561133c57600103610e7f576040915001610b2973ffffffffffffffffffffffffffffffffffffffff8251166126b6565b918460011b91851593868404600214851715610e5257610b488461265c565b35610e2a578b91600185018095119384610d4e5790602086959493928f610b7a610b74610bc09a61265c565b35612971565b60405191610b8783612431565b825282820152604051809881927f8b0fc30c00000000000000000000000000000000000000000000000000000000835260048301612680565b038173__$58a96acb294a42983af7110ac717d64ca3$__5af4958615610e1d57908e918297610de3575b50610bf7610a058b61263c565b610da8575b505060068802958887046006141715610d7b5784610c1a878e61266e565b5260018601808711610d4e57610c517f087f763a403ee4109adc79d4a7638af3cb8cb6a33f5b027bd1476ffa97361acb918e61266e565b5260028601808711610d4e57610c67908d61266e565b52610d2157610cf457610c799061265c565b3560038301808411610d2157610c8f908a61266e565b5260048201808311610cf457610ca5908961266e565b5260058101809111610cc75790610cbf600193928861266e565b525b016105ef565b6024887f4e487b710000000000000000000000000000000000000000000000000000000081526011600452fd5b60248a7f4e487b710000000000000000000000000000000000000000000000000000000081526011600452fd5b60248b7f4e487b710000000000000000000000000000000000000000000000000000000081526011600452fd5b60248e7f4e487b710000000000000000000000000000000000000000000000000000000081526011600452fd5b60248d7f4e487b710000000000000000000000000000000000000000000000000000000081526011600452fd5b92508093509160408473ffffffffffffffffffffffffffffffffffffffff610dcf8861265c565b359351168152600a60205220558c5f610bfc565b915095506020813d8211610e15575b81610dff6020938361244d565b81010312610e11578d9051955f610bea565b5f80fd5b3d9150610df2565b8e604051903d90823e3d90fd5b60048c7fc06789fa000000000000000000000000000000000000000000000000000000008152fd5b60248c7f4e487b710000000000000000000000000000000000000000000000000000000081526011600452fd5b8051600581101561133c576002036110f55760200173ffffffffffffffffffffffffffffffffffffffff8151168a52600a60205260408a2054908560011b92861594878504600214861715610d7b5760018501808611610d4e57610ee29061265c565b356110cd5791610eff94939160208e9485610b7a610b748961265c565b038173__$58a96acb294a42983af7110ac717d64ca3$__5af4958615610e1d57908e918297611097575b50610f36610a058b61263c565b611001575b50505060068702948786046006141715610e5257610f59858c61266e565b52610cf457610f679061265c565b3560018301808411610d2157610f7d908a61266e565b5260028201808311610cf457610fb47f087f763a403ee4109adc79d4a7638af3cb8cb6a33f5b027bd1476ffa97361acb918a61266e565b5260038201808311610cf457610fcb82918a61266e565b5260048201808311610cf457610fe1908961266e565b5260058101809111610cc75790610ffb600193928861266e565b52610cc1565b9091935073ffffffffffffffffffffffffffffffffffffffff82946110258761265c565b35828251168552600a6020526040852055511690519060ff8354165f1461106757918080809361105f955af161105961248e565b506124eb565b5f8c81610f3b565b61109292507f0000000000000000000000000000000000000000000000000000000000000000612751565b61105f565b915095506020813d82116110c5575b816110b36020938361244d565b81010312610e11578d9051955f610f29565b3d91506110a6565b60048d7fc06789fa000000000000000000000000000000000000000000000000000000008152fd5b8092915051600581101561130f576003036112e7576020820173ffffffffffffffffffffffffffffffffffffffff8151168a52600a6020526040808b205493019061115673ffffffffffffffffffffffffffffffffffffffff8351166126b6565b8660011b87810460021488151715610d7b57611174610b748261265c565b8c600182019485831194856112b957908f91611192610b748961265c565b61119e610a058d61263c565b61124e575b50505060068902968988046006148a151715611221576111c3888f61266e565b52610d7b576111d19061265c565b3560018601808711610d4e576111e7908d61266e565b5260028501808611610d7b576111fd908c61266e565b52610cf45761120b9061265c565b3560038301808411610d2157610fcb908a61266e565b60248f7f4e487b710000000000000000000000000000000000000000000000000000000081526011600452fd5b919550915073ffffffffffffffffffffffffffffffffffffffff6112718461265c565b359151168552600a6020526040852055839060408573ffffffffffffffffffffffffffffffffffffffff6112a48961265c565b359351168152600a60205220558d5f806111a3565b5060248f7f4e487b710000000000000000000000000000000000000000000000000000000081526011600452fd5b6004897f27606320000000000000000000000000000000000000000000000000000000008152fd5b60248a7f4e487b710000000000000000000000000000000000000000000000000000000081526021600452fd5b60248b7f4e487b710000000000000000000000000000000000000000000000000000000081526021600452fd5b6024887f4e487b710000000000000000000000000000000000000000000000000000000081526032600452fd5b60ff86610acf565b6004827f27606320000000000000000000000000000000000000000000000000000000008152fd5b5080fd5b5034610e11576101c07ffffffffffffffffffffffffffffffffffffffffffffffffffffffffffffffffc360112610e1157611403612311565b602435906101007fffffffffffffffffffffffffffffffffffffffffffffffffffffffffffffffbc360112610e1157366101c411610e115773ffffffffffffffffffffffffffffffffffffffff16908133146118f85761146281612971565b60407ffffffffffffffffffffffffffffffffffffffffffffffffffffffffffffffefc360112610e11576040519061149982612431565b610104358083526101243560208085018281526040517fe8c87428000000000000000000000000000000000000000000000000000000008152865160048201529051602482015291949293929073__$fd1bbc507ebce9bb0449be7c85ea578f4f$__9083604481845af492831561175c575f936118d7575b50821561185f575b82156117d6575b50506117ae576044359361153385612971565b60643561153f81612971565b6084359061154c82612971565b60a4359061155982612971565b60c4359161156683612971565b61159d60e4359561157687612971565b60405190611583826123f9565b600382523360208301526040820152876060820152612868565b98604051966101e0880188811067ffffffffffffffff8211176117815760405288885289602089015260408801526060870152608086015260a085015260c084015260e08301526101008201526001546101208201526002546101408201526003546101608201526004546101808201526005546101a08201526006546101c082015273ffffffffffffffffffffffffffffffffffffffff7f000000000000000000000000000000000000000000000000000000000000000016803b15610e115760405180927f216df434000000000000000000000000000000000000000000000000000000008252608061014460048401375f608483015b600f821061176757505050610264815f935afa801561175c57611747575b50828452600b60205260408420936044815b6003811061173357505060a4905b6003811061171c575050836007916006602096015501557f248dd4076d0a389d795107efafd558ce7f31ae37b441ccb9a599c60868f480d582604051838152a1604051908152f35b6001906020833593019260038289010155016116d4565b6001906020833593019281890155016116c6565b6117549194505f9061244d565b5f925f6116b4565b6040513d5f823e3d90fd5b829350602080916001939451815201930191018492611696565b7f4e487b71000000000000000000000000000000000000000000000000000000005f52604160045260245ffd5b7fb8fedf87000000000000000000000000000000000000000000000000000000005f5260045ffd5b6040517fe128c1aa0000000000000000000000000000000000000000000000000000000081528251600482015260209283015160248201529250829060449082905af490811561175c575f91611830575b50155f80611520565b611852915060203d602011611858575b61184a818361244d565b810190612a98565b5f611827565b503d611840565b6040517f8071469c0000000000000000000000000000000000000000000000000000000081528251600482015260208084015160248301529193509081604481865af490811561175c575f916118b8575b501591611519565b6118d1915060203d6020116118585761184a818361244d565b5f6118b0565b6118f191935060203d6020116118585761184a818361244d565b915f611511565b7f2f352531000000000000000000000000000000000000000000000000000000005f5260045ffd5b34610e11575f7ffffffffffffffffffffffffffffffffffffffffffffffffffffffffffffffffc360112610e115761195661258c565b5061195f61258c565b5061196861258c565b5060c060405161197781612431565b60015481526002546020820190815260405161199281612431565b600354815260045460208201908152604051916119ae83612431565b60055483526006549360208401948552604051955186525160208601525160408501525160608401525160808301525160a0820152f35b34610e11575f7ffffffffffffffffffffffffffffffffffffffffffffffffffffffffffffffffc360112610e1157604060035460045482519182526020820152f35b34610e115760207ffffffffffffffffffffffffffffffffffffffffffffffffffffffffffffffffc360112610e1157600435611a6860085460095490612964565b808211611f32575b50611a7a81612550565b90611a88604051928361244d565b8082527fffffffffffffffffffffffffffffffffffffffffffffffffffffffffffffffe0611ab582612550565b015f5b818110611f1b575050611aca81612550565b90611ad8604051928361244d565b808252611ae481612550565b927fffffffffffffffffffffffffffffffffffffffffffffffffffffffffffffffe0602084019401368537611b1882612550565b91611b26604051938461244d565b8083527fffffffffffffffffffffffffffffffffffffffffffffffffffffffffffffffe0611b5382612550565b015f5b818110611eb3575050600954905f9173__$96414a38f905666ffb62ad69c724988e3b$__905b828410611cf95750505050604051938493606085019060608652518091526080850191905f5b818110611ce0575050508381036020850152602080835192838152019201905f5b818110611c3d575050508281036040840152602080835192838152019201905f5b818110611bf2575050500390f35b9193509160206101006001928260408851611c0e848251612334565b611c1f838201516060860190612334565b0151805160c0840152015160e0820152019401910191849392611be4565b9180949550929092518051906005821015611cb3578260606080926020946001965273ffffffffffffffffffffffffffffffffffffffff85820151168584015273ffffffffffffffffffffffffffffffffffffffff60408201511660408401520151606082015201940191019185949392611bc3565b7f4e487b71000000000000000000000000000000000000000000000000000000005f52602160045260245ffd5b8251845287965060209384019390920191600101611ba2565b80611d0885899a9798996125a4565b526040517feaceeec200000000000000000000000000000000000000000000000000000000815260076004820152816024820152608081604481865af490811561175c575f91611e3c575b50611d5e85886125a4565b52611d6984876125a4565b50805f52600b60205260405f2060405190611d8382612415565b611d8c81612606565b8252611d9a60038201612606565b6020830152600760405191611dae83612431565b60068101548352015460208201526040820152611dcb85896125a4565b52611dd684886125a4565b507fffffffffffffffffffffffffffffffffffffffffffffffffffffffffffffffff8114611e0f57939695949360019384019301611b7c565b7f4e487b71000000000000000000000000000000000000000000000000000000005f52601160045260245ffd5b90506080813d8211611eab575b81611e566080938361244d565b81010312610e115760405190611e6b826123f9565b8051906005821015610e11576060918352611e88602082016125e5565b6020840152611e99604082016125e5565b60408401520151606082015289611d53565b3d9150611e49565b6020906040979495969751611ec781612415565b6060604051611ed6828261244d565b81368237825260405190611eea818361244d565b36823783820152604051611efd81612431565b5f81525f848201526040820152828289010152019594939295611b56565b602090611f26612568565b82828701015201611ab8565b905081611a70565b34610e11575f7ffffffffffffffffffffffffffffffffffffffffffffffffffffffffffffffffc360112610e1157604060015460025482519182526020820152f35b34610e11575f7ffffffffffffffffffffffffffffffffffffffffffffffffffffffffffffffffc360112610e1157602060405173ffffffffffffffffffffffffffffffffffffffff7f0000000000000000000000000000000000000000000000000000000000000000168152f35b34610e115760207ffffffffffffffffffffffffffffffffffffffffffffffffffffffffffffffffc360112610e115773ffffffffffffffffffffffffffffffffffffffff612036612311565b165f52600a602052602060405f2054604051908152f35b34610e115760407ffffffffffffffffffffffffffffffffffffffffffffffffffffffffffffffffc360112610e115761208c6120876122e2565b612382565b1580156120c2575b61209a57005b7fccae95ad000000000000000000000000000000000000000000000000000000005f5260045ffd5b506024357f00000000000000000000000000000000000000000000000000000000000000001415612094565b34610e115760207ffffffffffffffffffffffffffffffffffffffffffffffffffffffffffffffffc360112610e1157602061215460043561212e8161281b565b6040519061213b826123f9565b6002825233848301525f60408301526060820152612868565b7f5b6b431d4476a211bb7d41c20d1aab9ae2321deee0d20be3d9fc9b1093fa6e3d82604051838152a1604051908152f35b34610e115760207ffffffffffffffffffffffffffffffffffffffffffffffffffffffffffffffffc360112610e11576121bc612311565b6121c4612706565b5f5460ff16156121e4575f8080806121e29447905af161105961248e565b005b7f0000000000000000000000000000000000000000000000000000000000000000604051917f70a0823100000000000000000000000000000000000000000000000000000000835230600484015260208360248173ffffffffffffffffffffffffffffffffffffffff86165afa91821561175c575f92612269575b6121e29350612751565b91506020833d602011612297575b816122846020938361244d565b81010312610e11576121e292519161225f565b3d9150612277565b34610e115760207ffffffffffffffffffffffffffffffffffffffffffffffffffffffffffffffffc360112610e11576020906122dc6120876122e2565b15158152f35b600435907fffffffff0000000000000000000000000000000000000000000000000000000082168203610e1157565b6004359073ffffffffffffffffffffffffffffffffffffffff82168203610e1157565b905f905b6003821061234557505050565b6020806001928551815201930191019091612338565b905f905b6032821061236c57505050565b602080600192855181520193019101909161235f565b7fffffffff00000000000000000000000000000000000000000000000000000000167fd93c9fa90000000000000000000000000000000000000000000000000000000081149081156123d2575090565b7f01ffc9a70000000000000000000000000000000000000000000000000000000091501490565b6080810190811067ffffffffffffffff82111761178157604052565b6060810190811067ffffffffffffffff82111761178157604052565b6040810190811067ffffffffffffffff82111761178157604052565b90601f7fffffffffffffffffffffffffffffffffffffffffffffffffffffffffffffffe0910116810190811067ffffffffffffffff82111761178157604052565b3d156124e6573d9067ffffffffffffffff821161178157604051916124db60207fffffffffffffffffffffffffffffffffffffffffffffffffffffffffffffffe0601f840116018461244d565b82523d5f602084013e565b606090565b156124f257565b60646040517f08c379a000000000000000000000000000000000000000000000000000000000815260206004820152601560248201527f546f6b656e207472616e73666572206661696c656400000000000000000000006044820152fd5b67ffffffffffffffff81116117815760051b60200190565b60405190612575826123f9565b5f6060838281528260208201528260408201520152565b6040519061259982612431565b5f6020838281520152565b80518210156125b85760209160051b010190565b7f4e487b71000000000000000000000000000000000000000000000000000000005f52603260045260245ffd5b519073ffffffffffffffffffffffffffffffffffffffff82168203610e1157565b60405191905f835b600382106126265750505061262460608361244d565b565b600160208192855481520193019101909161260e565b60328110156125b85760051b610ca40190565b358015158103610e115790565b60648110156125b85760051b60240190565b9061012c8110156125b85760051b0190565b6060810192915f825b600282106126a057505050604063deadbeef910152565b6020806001928551815201930191019091612689565b73ffffffffffffffffffffffffffffffffffffffff165f52600a60205260405f205480156126e15790565b507f087f763a403ee4109adc79d4a7638af3cb8cb6a33f5b027bd1476ffa97361acb90565b73ffffffffffffffffffffffffffffffffffffffff5f5460081c16330361272957565b7f82b42900000000000000000000000000000000000000000000000000000000005f5260045ffd5b9173ffffffffffffffffffffffffffffffffffffffff604051927fa9059cbb000000000000000000000000000000000000000000000000000000005f521660045260245260205f60448180865af19060015f51148216156127fa575b604052156127b85750565b73ffffffffffffffffffffffffffffffffffffffff907f5274afe7000000000000000000000000000000000000000000000000000000005f521660045260245ffd5b90600181151661281257823b15153d151616906127ad565b503d5f823e3d90fd5b8015908115612854575b5061282c57565b7f2c5211c6000000000000000000000000000000000000000000000000000000005f5260045ffd5b69ffffffffffffffffffff9150115f612825565b80516005811015611cb3571561293c576008545f52600760205260405f209080516005811015611cb35760029160609184547fffffffffffffffffffffff00000000000000000000000000000000000000000060ff74ffffffffffffffffffffffffffffffffffffffff00602086015160081b1693169116171784556001840173ffffffffffffffffffffffffffffffffffffffff6040830151167fffffffffffffffffffffffff000000000000000000000000000000000000000082541617905501519101556008546001810160085590565b7fe5c28924000000000000000000000000000000000000000000000000000000005f5260045ffd5b91908203918211611e0f57565b7f30644e72e131a029b85045b68181585d2833e84879b9709143e1f593f0000001111561299a57565b7f2d8aa1c8000000000000000000000000000000000000000000000000000000005f5260045ffd5b6129ca612568565b5060085490600954809214612a7257815f52600760205260405f20604051906129f2826123f9565b80549060ff82166005811015611cb35760029273ffffffffffffffffffffffffffffffffffffffff91855260081c16602084015273ffffffffffffffffffffffffffffffffffffffff600182015416604084015201546060820152915f5260076020525f6002604082208281558260018201550155600160095401600955565b9050604051612a80816123f9565b5f81525f60208201525f60408201525f606082015290565b90816020910312610e1157518015158103610e11579056fea2646970667358221220e64166dcb9169554f457ae41f42c42397aa2b4893e9c2a24f9c23fb2f701052864736f6c634300081e0033","linkReferences":{"lib/babyjubjub-solidity/src/BabyJubJub.sol":{"BabyJubJub":[{"start":998,"length":20},{"start":6681,"length":20}]},"src/ActionQueue.sol":{"ActionQueueLib":[{"start":8344,"length":20}]},"src/Poseidon2.sol":{"Poseidon2T2_BN254":[{"start":4341,"length":20},{"start":5172,"length":20}]}}},"methodIdentifiers":{"DOMAIN_TAG()":"e32e13eb","actionQueue()":"c1a75210","balanceCommitments(address)":"51b1e524","clientVerifier()":"b51ac8a2","contractCompCheck(bytes4,bytes32)":"326175b8","deposit(uint256)":"b6b55f25","getBalanceCommitment(address)":"d915433c","getMpcPublicKeys()":"91f3a331","getNextActionIndex()":"faf3a304","getQueueSize()":"ce348c6f","mpcPk1()":"5fdd52e4","mpcPk2()":"7564ba21","mpcPk3()":"d93c0d9e","processMPC(uint256,uint256[100],bool[50],uint256,uint256[4])":"aa5e5d95","readQueue(uint256)":"6d77cd05","retrieveFunds(address)":"2ad22052","serverVerifier()":"547ecebf","supportsInterface(bytes4)":"01ffc9a7","token()":"fc0c546a","transfer(address,uint256,(uint256[3],uint256[3],(uint256,uint256)),uint256[4])":"9935ef79","withdraw(uint256)":"2e1a7d4d"},"id":9}