{"abi":[{"type":"constructor","inputs":[{"name":"_clientVerifier","type":"address","internalType":"address"},{"name":"_serverVerifier","type":"address","internalType":"address"},{"name":"_mpcAddress","type":"address","internalType":"address"},{"name":"_tokenAddress","type":"address","internalType":"address"},{"name":"_mpcPk1","type":"tuple","internalType":"struct BabyJubJub.Affine","components":[{"name":"x","type":"uint256","internalType":"uint256"},{"name":"y","type":"uint256","internalType":"uint256"}]},{"name":"_mpcPk2","type":"tuple","internalType":"struct BabyJubJub.Affine","components":[{"name":"x","type":"uint256","internalType":"uint256"},{"name":"y","type":"uint256","internalType":"uint256"}]},{"name":"_mpcPk3","type":"tuple","internalType":"struct BabyJubJub.Affine","components":[{"name":"x","type":"uint256","internalType":"uint256"},{"name":"y","type":"uint256","internalType":"uint256"}]},{"name":"_environmentTag","type":"string","internalType":"string"}],"stateMutability":"nonpayable"},{"type":"function","name":"DOMAIN_TAG","inputs":[],"outputs":[{"name":"","type":"bytes32","internalType":"bytes32"}],"stateMutability":"view"},{"type":"function","name":"actionQueue","inputs":[],"outputs":[{"name":"nextKey","type":"uint256","internalType":"uint256"},{"name":"lowestKey","type":"uint256","internalType":"uint256"}],"stateMutability":"view"},{"type":"function","name":"balanceCommitments","inputs":[{"name":"","type":"address","internalType":"address"}],"outputs":[{"name":"","type":"uint256","internalType":"uint256"}],"stateMutability":"view"},{"type":"function","name":"clientVerifier","inputs":[],"outputs":[{"name":"","type":"address","internalType":"contract IVerifierClient"}],"stateMutability":"view"},{"type":"function","name":"contractCompCheck","inputs":[{"name":"interfaceId","type":"bytes4","internalType":"bytes4"},{"name":"domainTag","type":"bytes32","internalType":"bytes32"}],"outputs":[],"stateMutability":"view"},{"type":"function","name":"deposit","inputs":[{"name":"amount","type":"uint256","internalType":"uint256"}],"outputs":[{"name":"","type":"uint256","internalType":"uint256"}],"stateMutability":"payable"},{"type":"function","name":"getBalanceCommitment","inputs":[{"name":"user","type":"address","internalType":"address"}],"outputs":[{"name":"","type":"uint256","internalType":"uint256"}],"stateMutability":"view"},{"type":"function","name":"getMpcPublicKeys","inputs":[],"outputs":[{"name":"","type":"tuple","internalType":"struct BabyJubJub.Affine","components":[{"name":"x","type":"uint256","internalType":"uint256"},{"name":"y","type":"uint256","internalType":"uint256"}]},{"name":"","type":"tuple","internalType":"struct BabyJubJub.Affine","components":[{"name":"x","type":"uint256","internalType":"uint256"},{"name":"y","type":"uint256","internalType":"uint256"}]},{"name":"","type":"tuple","internalType":"struct BabyJubJub.Affine","components":[{"name":"x","type":"uint256","internalType":"uint256"},{"name":"y","type":"uint256","internalType":"uint256"}]}],"stateMutability":"view"},{"type":"function","name":"getNextActionIndex","inputs":[],"outputs":[{"name":"","type":"uint256","internalType":"uint256"}],"stateMutability":"view"},{"type":"function","name":"getQueueSize","inputs":[],"outputs":[{"name":"","type":"uint256","internalType":"uint256"}],"stateMutability":"view"},{"type":"function","name":"mpcPk1","inputs":[],"outputs":[{"name":"x","type":"uint256","internalType":"uint256"},{"name":"y","type":"uint256","internalType":"uint256"}],"stateMutability":"view"},{"type":"function","name":"mpcPk2","inputs":[],"outputs":[{"name":"x","type":"uint256","internalType":"uint256"},{"name":"y","type":"uint256","internalType":"uint256"}],"stateMutability":"view"},{"type":"function","name":"mpcPk3","inputs":[],"outputs":[{"name":"x","type":"uint256","internalType":"uint256"},{"name":"y","type":"uint256","internalType":"uint256"}],"stateMutability":"view"},{"type":"function","name":"processMPC","inputs":[{"name":"num_transactions","type":"uint256","internalType":"uint256"},{"name":"commitments","type":"uint256[100]","internalType":"uint256[100]"},{"name":"valid","type":"bool[50]","internalType":"bool[50]"},{"name":"proof","type":"uint256[4]","internalType":"uint256[4]"}],"outputs":[{"name":"","type":"uint256[50]","internalType":"uint256[50]"}],"stateMutability":"nonpayable"},{"type":"function","name":"readQueue","inputs":[{"name":"num_items","type":"uint256","internalType":"uint256"}],"outputs":[{"name":"","type":"uint256[]","internalType":"uint256[]"},{"name":"","type":"tuple[]","internalType":"struct ActionItem[]","components":[{"name":"action","type":"uint8","internalType":"enum Action"},{"name":"sender","type":"address","internalType":"address"},{"name":"receiver","type":"address","internalType":"address"},{"name":"amount","type":"uint256","internalType":"uint256"}]},{"name":"","type":"tuple[]","internalType":"struct Merces.Ciphertext[]","components":[{"name":"amount","type":"uint256[3]","internalType":"uint256[3]"},{"name":"r","type":"uint256[3]","internalType":"uint256[3]"},{"name":"senderPk","type":"tuple","internalType":"struct BabyJubJub.Affine","components":[{"name":"x","type":"uint256","internalType":"uint256"},{"name":"y","type":"uint256","internalType":"uint256"}]}]}],"stateMutability":"view"},{"type":"function","name":"retrieveFunds","inputs":[{"name":"receiver","type":"address","internalType":"address"}],"outputs":[],"stateMutability":"nonpayable"},{"type":"function","name":"serverVerifier","inputs":[],"outputs":[{"name":"","type":"address","internalType":"contract IVerifierServer"}],"stateMutability":"view"},{"type":"function","name":"supportsInterface","inputs":[{"name":"interfaceId","type":"bytes4","internalType":"bytes4"}],"outputs":[{"name":"","type":"bool","internalType":"bool"}],"stateMutability":"view"},{"type":"function","name":"token","inputs":[],"outputs":[{"name":"","type":"address","internalType":"contract IERC20"}],"stateMutability":"view"},{"type":"function","name":"transfer","inputs":[{"name":"receiver","type":"address","internalType":"address"},{"name":"amountCommitment","type":"uint256","internalType":"uint256"},{"name":"ciphertext","type":"tuple","internalType":"struct Merces.Ciphertext","components":[{"name":"amount","type":"uint256[3]","internalType":"uint256[3]"},{"name":"r","type":"uint256[3]","internalType":"uint256[3]"},{"name":"senderPk","type":"tuple","internalType":"struct BabyJubJub.Affine","components":[{"name":"x","type":"uint256","internalType":"uint256"},{"name":"y","type":"uint256","internalType":"uint256"}]}]},{"name":"proof","type":"uint256[4]","internalType":"uint256[4]"}],"outputs":[{"name":"","type":"uint256","internalType":"uint256"}],"stateMutability":"nonpayable"},{"type":"function","name":"withdraw","inputs":[{"name":"amount","type":"uint256","internalType":"uint256"}],"outputs":[{"name":"","type":"uint256","internalType":"uint256"}],"stateMutability":"nonpayable"},{"type":"event","name":"Deposit","inputs":[{"name":"actionIndex","type":"uint256","indexed":false,"internalType":"uint256"}],"anonymous":false},{"type":"event","name":"ProcessedMPC","inputs":[{"name":"actionIndices","type":"uint256[50]","indexed":false,"internalType":"uint256[50]"},{"name":"valid","type":"bool[50]","indexed":false,"internalType":"bool[50]"}],"anonymous":false},{"type":"event","name":"Transfer","inputs":[{"name":"actionIndex","type":"uint256","indexed":false,"internalType":"uint256"}],"anonymous":false},{"type":"event","name":"Withdraw","inputs":[{"name":"actionIndex","type":"uint256","indexed":false,"internalType":"uint256"}],"anonymous":false},{"type":"error","name":"CannotPushNotPresent","inputs":[]},{"type":"error","name":"ContractComp","inputs":[]},{"type":"error","name":"InvalidAmount","inputs":[]},{"type":"error","name":"InvalidCommitment","inputs":[]},{"type":"error","name":"InvalidMpcAction","inputs":[]},{"type":"error","name":"InvalidPoint","inputs":[]},{"type":"error","name":"InvalidTransfer","inputs":[]},{"type":"error","name":"NotInPrimeField","inputs":[]},{"type":"error","name":"SafeERC20FailedOperation","inputs":[{"name":"token","type":"address","internalType":"address"}]},{"type":"error","name":"Unauthorized","inputs":[]}],"bytecode":{"object":"0x610100806040523461033757612c89803803809161001d828561033b565b833981019061016081830312610337576100368161035e565b906100436020820161035e565b906100506040820161035e565b9161005d6060830161035e565b9261006b8660808501610372565b906100798760c08601610372565b91610088886101008701610372565b61014086015190956001600160401b03821161033757019188601f84011215610337578251946001600160401b03861161031657604051986100d4601f8801601f19166020018b61033b565b868a5260208a019a60208887010111610337576020985f8a89819a8f83809b01905e8d010152610103856103c2565b61010c876103c2565b610115896103c2565b6001600160a01b03168061032a57600160ff195f5416175f555b60e0526001600160a01b0390811660a0521660c0525f8054610100600160a81b03191660089290921b610100600160a81b0316919091179055805160019081559101516002558151600355910151600455815160055591015160065560408051909390916101ef916101a1868561033b565b600784526020808501666d65726365733160c81b81528751958693838501985180918a5e840190602d60f81b84830152518092602183015e01015f838201520301601f19810183528261033b565b519020608090815281519081016001600160401b0381118282101761031657825260048152602081015f81528282015f815260608301905f82526008545f526007602052845f20935192600584101561030257845490516001600160a81b031990911660ff90941693909317600893841b610100600160a81b031617845551600180850180546001600160a01b0319166001600160a01b03939093169290921790915590516002939093019290925580548201905560095551612758908161053182396080518181816101e80152611d35015260a051818181610522015261072f015260c0518181816111b40152611c33015260e05181818161014f015281816103ce0152818161192d0152611e530152f35b634e487b7160e01b5f52602160045260245ffd5b634e487b7160e01b5f52604160045260245ffd5b60ff195f54165f5561012f565b5f80fd5b601f909101601f19168101906001600160401b0382119082101761031657604052565b51906001600160a01b038216820361033757565b919082604091031261033757604080519081016001600160401b03811182821017610316576040526020808294805184520151910152565b90816020910312610337575180151581036103375790565b604051631d190e8560e31b815281516004820152602080830151602483015290919073__$fd1bbc507ebce9bb0449be7c85ea578f4f$__9083604481845af49283156104a5575f9361050f575b5082156104b0575b8215610435575b505061042657565b63b8fedf8760e01b5f5260045ffd5b60405163709460d560e11b81528251600482015260209283015160248201529250829060449082905af49081156104a5575f91610476575b50155f8061041e565b610498915060203d60201161049e575b610490818361033b565b8101906103aa565b5f61046d565b503d610486565b6040513d5f823e3d90fd5b60405163201c51a760e21b81528251600482015260208084015160248301529193509081604481865af49081156104a5575f916104f0575b501591610417565b610509915060203d60201161049e57610490818361033b565b5f6104e8565b61052991935060203d60201161049e57610490818361033b565b915f61040f56fe6080806040526004361015610012575f80fd5b5f905f3560e01c90816301ffc9a714611f0c575080632ad2205214611df25780632e1a7d4d14611d5b578063326175b814611cba57806351b1e52414611c57578063547ecebf14611be95780635fdd52e414611ba757806367f627b0146110f05780636d77cd0514610bc95780637564ba2114610b8657806391f3a33114610ac05780639935ef7914610546578063b51ac8a2146104d7578063b6b55f2514610314578063c1a75210146102d1578063ce348c6f14610298578063d915433c1461024e578063d93c0d9e1461020b578063e32e13eb146101b2578063faf3a304146101765763fc0c546a14610105575f80fd5b3461017357807ffffffffffffffffffffffffffffffffffffffffffffffffffffffffffffffffc36011261017357602060405173ffffffffffffffffffffffffffffffffffffffff7f0000000000000000000000000000000000000000000000000000000000000000168152f35b80fd5b503461017357807ffffffffffffffffffffffffffffffffffffffffffffffffffffffffffffffffc360112610173576020600954604051908152f35b503461017357807ffffffffffffffffffffffffffffffffffffffffffffffffffffffffffffffffc3601126101735760206040517f00000000000000000000000000000000000000000000000000000000000000008152f35b503461017357807ffffffffffffffffffffffffffffffffffffffffffffffffffffffffffffffffc36011261017357604060055460065482519182526020820152f35b50346101735760207ffffffffffffffffffffffffffffffffffffffffffffffffffffffffffffffffc36011261017357602061029061028b611f7e565b612323565b604051908152f35b503461017357807ffffffffffffffffffffffffffffffffffffffffffffffffffffffffffffffffc3601126101735760206102906126f8565b503461017357807ffffffffffffffffffffffffffffffffffffffffffffffffffffffffffffffffc36011261017357604060085460095482519182526020820152f35b5060207ffffffffffffffffffffffffffffffffffffffffffffffffffffffffffffffffc360112610173576004359061034c82612488565b60ff815416806104cd575b6104a55781156104a55761038b60405161037081612066565b600181528260208201523360408201528360608201526124d5565b917f4d6ce1e535dbade1c23defba91e23b8f791ce5edc0cc320257a2b364e4e384266020604051858152a160ff825416156103cc575b602083604051908152f35b7f000000000000000000000000000000000000000000000000000000000000000090604051907f23b872dd000000000000000000000000000000000000000000000000000000008452336004523060245260445260208360648180865af1906001845114821615610484575b604052826060526103c1577f5274afe700000000000000000000000000000000000000000000000000000000825273ffffffffffffffffffffffffffffffffffffffff16600452602490fd5b90600181151661049c57823b15153d15161690610438565b503d83823e3d90fd5b807f2c5211c60000000000000000000000000000000000000000000000000000000060049252fd5b5081341415610357565b503461017357807ffffffffffffffffffffffffffffffffffffffffffffffffffffffffffffffffc36011261017357602060405173ffffffffffffffffffffffffffffffffffffffff7f0000000000000000000000000000000000000000000000000000000000000000168152f35b5034610173576101c07ffffffffffffffffffffffffffffffffffffffffffffffffffffffffffffffffc3601126101735761057f611f7e565b602435906101007fffffffffffffffffffffffffffffffffffffffffffffffffffffffffffffffbc360112610a9457366101c411610a945773ffffffffffffffffffffffffffffffffffffffff1690813314610a98576105de816126a7565b60407ffffffffffffffffffffffffffffffffffffffffffffffffffffffffffffffefc360112610a945760405190610615826120af565b610104358083526101243560208085018281526040517fe8c87428000000000000000000000000000000000000000000000000000000008152865160048201529051602482015291949293929073__$fd1bbc507ebce9bb0449be7c85ea578f4f$__9083604481845af4928315610a68578893610a73575b5082156109f0575b821561095c575b5050610934576044356106ae816126a7565b606435946106bb866126a7565b6084356106c7816126a7565b60a4356106d3816126a7565b60c435916106e0836126a7565b61071760e435946106f0866126a7565b604051906106fd82612066565b6003825233602083015260408201528760608201526124d5565b9873ffffffffffffffffffffffffffffffffffffffff7f00000000000000000000000000000000000000000000000000000000000000001695604051976101e0890189811067ffffffffffffffff82111761090757604052600154895260025460208a015260035460408a015260045460608a015260055460808a015260065460a08a01528960c08a01528a60e08a01526101008901526101208801526101408701526101608601526101808501526101a08401526101c0830152803b1561090357908591604051917f216df4340000000000000000000000000000000000000000000000000000000083526080610144600485013783608484015b600f82106108e957505050816102648185935afa80156108de576108c5575b50839052600b60205260408420936044815b600381106108b157505060a4905b6003811061089a575050836007916006602096015501557f248dd4076d0a389d795107efafd558ce7f31ae37b441ccb9a599c60868f480d582604051838152a1604051908152f35b600190602083359301926003828901015501610852565b600190602083359301928189015501610844565b816108cf916120e7565b6108da57835f610832565b8380fd5b6040513d84823e3d90fd5b825181528995506020928301926001929092019101610813565b8580fd5b60248e7f4e487b710000000000000000000000000000000000000000000000000000000081526041600452fd5b6004857fb8fedf87000000000000000000000000000000000000000000000000000000008152fd5b6040517fe128c1aa0000000000000000000000000000000000000000000000000000000081528251600482015260209283015160248201529250829060449082905af49081156109e55786916109b6575b50155f8061069c565b6109d8915060203d6020116109de575b6109d081836120e7565b81019061270a565b5f6109ad565b503d6109c6565b6040513d88823e3d90fd5b6040517f8071469c0000000000000000000000000000000000000000000000000000000081528251600482015260208084015160248301529193509081604481865af4908115610a68578891610a49575b501591610695565b610a62915060203d6020116109de576109d081836120e7565b5f610a41565b6040513d8a823e3d90fd5b610a8d91935060203d6020116109de576109d081836120e7565b915f61068d565b8280fd5b6004837f2f352531000000000000000000000000000000000000000000000000000000008152fd5b503461017357807ffffffffffffffffffffffffffffffffffffffffffffffffffffffffffffffffc36011261017357610af76122a0565b50610b006122a0565b50610b096122a0565b5060c0604051610b18816120af565b600154815260025460208201908152604051610b33816120af565b60035481526004546020820190815260405191610b4f836120af565b60055483526006549360208401948552604051955186525160208601525160408501525160608401525160808301525160a0820152f35b503461017357807ffffffffffffffffffffffffffffffffffffffffffffffffffffffffffffffffc36011261017357604060035460045482519182526020820152f35b50346101735760207ffffffffffffffffffffffffffffffffffffffffffffffffffffffffffffffffc36011261017357600435610c046126f8565b8082116110e8575b5090610c1782612264565b91610c2560405193846120e7565b8083527fffffffffffffffffffffffffffffffffffffffffffffffffffffffffffffffe0610c5282612264565b01825b8181106110c9575050610c6781612264565b91610c7560405193846120e7565b818352610c8182612264565b937fffffffffffffffffffffffffffffffffffffffffffffffffffffffffffffffe0602085019501368637610cb583612264565b92610cc360405194856120e7565b8084527fffffffffffffffffffffffffffffffffffffffffffffffffffffffffffffffe0610cf082612264565b01835b81811061106157505060095490839173__$96414a38f905666ffb62ad69c724988e3b$__905b828410610e95575050505060405194859460608601906060875251809152608086019190845b818110610e7c5750505084810360208601526020808351928381520192019083905b808210610dda575050508381036040850152602080845192838152019301915b818110610d8f575050500390f35b9193509160206101006001928260408851610dab848251611fc8565b610dbc838201516060860190611fc8565b0151805160c0840152015160e0820152019401910191849392610d81565b91809596509290925180516005811015610e4f578260606020936080936001965273ffffffffffffffffffffffffffffffffffffffff85820151168584015273ffffffffffffffffffffffffffffffffffffffff60408201511660408401520151606082015201950192018695949291610d61565b6024867f4e487b710000000000000000000000000000000000000000000000000000000081526021600452fd5b8251845288975060209384019390920191600101610d3f565b80610ea4858a9b97999a6122b8565b526040517feaceeec200000000000000000000000000000000000000000000000000000000815260076004820152816024820152608081604481865af4908115611056578791610fd8575b50610efa85896122b8565b52610f0584886122b8565b50808652600b6020526040862060405190610f1f826120cb565b610f28816122ed565b8252610f36600382016122ed565b6020830152600760405191610f4a836120af565b60068101548352015460208201526040820152610f67858a6122b8565b52610f7284896122b8565b507fffffffffffffffffffffffffffffffffffffffffffffffffffffffffffffffff8114610fab57939796959360019384019301610d19565b6024867f4e487b710000000000000000000000000000000000000000000000000000000081526011600452fd5b90506080813d821161104e575b81610ff2608093836120e7565b8101031261104a576040519061100782612066565b80516005811015611046578252606090611023602082016122cc565b6020840152611034604082016122cc565b6040840152015160608201525f610eef565b8880fd5b8680fd5b3d9150610fe5565b6040513d89823e3d90fd5b6020906040989496979851611075816120cb565b606060405161108482826120e7565b8136823782526040519061109881836120e7565b368237838201526040516110ab816120af565b5f81525f84820152604082015282828a010152019695949296610cf3565b6020906110d89593949561227c565b8282860101520193929193610c55565b90505f610c0c565b50346112e1576113607ffffffffffffffffffffffffffffffffffffffffffffffffffffffffffffffffc3601126112e15760043536610ca4116112e157366112e4116112e15736611364116112e157610640918260405161115182826120e7565b36903761115c612373565b60328211611b1d5760405161258061117481836120e7565b3682376040519261118585856120e7565b843685375f5b8181106114d257505b603281106112e5575073ffffffffffffffffffffffffffffffffffffffff7f000000000000000000000000000000000000000000000000000000000000000016803b156112e15760405180927f4f89a15500000000000000000000000000000000000000000000000000000000825260806112e460048401375f608483015b61012c82106112c757505050612604815f935afa80156112bc576112a9575b50604051906112418284611fa1565b80610ca48386015b603284106112885786867f98260fc8883baa863b09be1de9e73d5317d1aa060f783363c71c625e61df886c610c8088a16112866040518092611fa1565bf35b81358015158091036108da5760208281926001945201920193019290611249565b6112b591505f906120e7565b5f5f611232565b6040513d5f823e3d90fd5b829350602080916001939451815201930191018492611213565b5f80fd5b8060011b90801591818104600214831715611476576113038161220a565b356114aa57600181018091116114765761131c9061220a565b356114aa5760068102918183046006141715611476577f087f763a403ee4109adc79d4a7638af3cb8cb6a33f5b027bd1476ffa97361acb61135d838561221c565b5260018201808311611476576113947f087f763a403ee4109adc79d4a7638af3cb8cb6a33f5b027bd1476ffa97361acb918561221c565b5260028201808311611476576113cb7f087f763a403ee4109adc79d4a7638af3cb8cb6a33f5b027bd1476ffa97361acb918561221c565b5260038201808311611476576114027f087f763a403ee4109adc79d4a7638af3cb8cb6a33f5b027bd1476ffa97361acb918561221c565b5260048201808311611476576114397f087f763a403ee4109adc79d4a7638af3cb8cb6a33f5b027bd1476ffa97361acb918561221c565b5261144b611446826121ea565b6121fd565b156114a3576001915b600581018091116114765761146f60ff60019416918561221c565b5201611194565b7f4e487b71000000000000000000000000000000000000000000000000000000005f52601160045260245ffd5b5f91611454565b7fc06789fa000000000000000000000000000000000000000000000000000000005f5260045ffd5b6114de611446826121ea565b15611b9f5760ff60015b16906009546032821015611b72578160051b8701526115056125d1565b91606083019283519381516005811015611b455760010361174557506040019261154573ffffffffffffffffffffffffffffffffffffffff855116612323565b938360011b90841595858304600214871715611476576115648361220a565b356114aa575f906001840180941192836114765760206115d79661159061158a8861220a565b356126a7565b6040519061159d826120af565b81525f82820152604051809881927f8b0fc30c0000000000000000000000000000000000000000000000000000000083526004830161222e565b038173__$58a96acb294a42983af7110ac717d64ca3$__5af49586156112bc575f96611712575b5061160b611446896121ea565b6116d8575b5060068702978789046006141715611476578461162d898c61221c565b5260018801808911611476576116647f087f763a403ee4109adc79d4a7638af3cb8cb6a33f5b027bd1476ffa97361acb918c61221c565b52600288018089116114765761167a908b61221c565b52611476576114765761168c9061220a565b3560038501808611611476576116a2908861221c565b5260048401808511611476576116b8908761221c565b5260058301809311611476576116d06001938661221c565b525b0161118b565b5f935083925073ffffffffffffffffffffffffffffffffffffffff6116fc8661220a565b359151165f52600a60205260405f20555f611610565b9095506020813d821161173d575b8161172d602093836120e7565b810103126112e15751945f6115fe565b3d9150611720565b909384516005811015611b45576002036119895773ffffffffffffffffffffffffffffffffffffffff6020860151165f52600a60205260405f2054908460011b918515968684046002148817156114765760018401808511611476576117aa9061220a565b356114aa576117c39460205f9461159061158a8861220a565b038173__$58a96acb294a42983af7110ac717d64ca3$__5af49586156112bc575f96611956575b506117f7611446896121ea565b6118bf575b50506006860296868804600614171561147657611819878a61221c565b52611476576118279061220a565b35600185018086116114765761183d908861221c565b5260028401808511611476576118747f087f763a403ee4109adc79d4a7638af3cb8cb6a33f5b027bd1476ffa97361acb918861221c565b52600384018085116114765761188b82918861221c565b5260048401808511611476576118a1908761221c565b5260058301809311611476576118b96001938661221c565b526116d2565b90925073ffffffffffffffffffffffffffffffffffffffff5f9360406118e48761220a565b35910190828251165f52600a60205260405f20555116905160ff5f54165f14611927575f80808093611920955af161191a612128565b50612185565b5f806117fc565b611951917f00000000000000000000000000000000000000000000000000000000000000006123be565b611920565b9095506020813d8211611981575b81611971602093836120e7565b810103126112e15751945f6117ea565b3d9150611964565b905083516005811015611b4557600303611b1d576020840173ffffffffffffffffffffffffffffffffffffffff8151165f52600a6020526040805f20549501906119e973ffffffffffffffffffffffffffffffffffffffff835116612323565b8560011b86159787820460021489171561147657611a0961158a8361220a565b5f906001830195868411958661147657611a2561158a8961220a565b611a316114468c6121ea565b611ab1575b50506006890299898b04600614171561147657611a538a8d61221c565b5261147657611a619061220a565b356001880180891161147657611a77908b61221c565b526002870180881161147657611a8d908a61221c565b5261147657611a9b9061220a565b35600385018086116114765761188b908861221c565b919250945073ffffffffffffffffffffffffffffffffffffffff611ad48461220a565b359151165f52600a60205260405f20555f905f9473ffffffffffffffffffffffffffffffffffffffff611b068861220a565b359151165f52600a60205260405f20555f80611a36565b7f27606320000000000000000000000000000000000000000000000000000000005f5260045ffd5b7f4e487b71000000000000000000000000000000000000000000000000000000005f52602160045260245ffd5b7f4e487b71000000000000000000000000000000000000000000000000000000005f52603260045260245ffd5b60ff5f6114e8565b346112e1575f7ffffffffffffffffffffffffffffffffffffffffffffffffffffffffffffffffc3601126112e157604060015460025482519182526020820152f35b346112e1575f7ffffffffffffffffffffffffffffffffffffffffffffffffffffffffffffffffc3601126112e157602060405173ffffffffffffffffffffffffffffffffffffffff7f0000000000000000000000000000000000000000000000000000000000000000168152f35b346112e15760207ffffffffffffffffffffffffffffffffffffffffffffffffffffffffffffffffc3601126112e15773ffffffffffffffffffffffffffffffffffffffff611ca3611f7e565b165f52600a602052602060405f2054604051908152f35b346112e15760407ffffffffffffffffffffffffffffffffffffffffffffffffffffffffffffffffc3601126112e157611cf9611cf4611f4f565b611fef565b158015611d2f575b611d0757005b7fccae95ad000000000000000000000000000000000000000000000000000000005f5260045ffd5b506024357f00000000000000000000000000000000000000000000000000000000000000001415611d01565b346112e15760207ffffffffffffffffffffffffffffffffffffffffffffffffffffffffffffffffc3601126112e1576020611dc1600435611d9b81612488565b60405190611da882612066565b6002825233848301525f604083015260608201526124d5565b7f5b6b431d4476a211bb7d41c20d1aab9ae2321deee0d20be3d9fc9b1093fa6e3d82604051838152a1604051908152f35b346112e15760207ffffffffffffffffffffffffffffffffffffffffffffffffffffffffffffffffc3601126112e157611e29611f7e565b611e31612373565b5f5460ff1615611e51575f808080611e4f9447905af161191a612128565b005b7f0000000000000000000000000000000000000000000000000000000000000000604051917f70a0823100000000000000000000000000000000000000000000000000000000835230600484015260208360248173ffffffffffffffffffffffffffffffffffffffff86165afa9182156112bc575f92611ed6575b611e4f93506123be565b91506020833d602011611f04575b81611ef1602093836120e7565b810103126112e157611e4f925191611ecc565b3d9150611ee4565b346112e15760207ffffffffffffffffffffffffffffffffffffffffffffffffffffffffffffffffc3601126112e157602090611f49611cf4611f4f565b15158152f35b600435907fffffffff00000000000000000000000000000000000000000000000000000000821682036112e157565b6004359073ffffffffffffffffffffffffffffffffffffffff821682036112e157565b905f905b60328210611fb257505050565b6020806001928551815201930191019091611fa5565b905f905b60038210611fd957505050565b6020806001928551815201930191019091611fcc565b7fffffffff00000000000000000000000000000000000000000000000000000000167f1494e58c00000000000000000000000000000000000000000000000000000000811490811561203f575090565b7f01ffc9a70000000000000000000000000000000000000000000000000000000091501490565b6080810190811067ffffffffffffffff82111761208257604052565b7f4e487b71000000000000000000000000000000000000000000000000000000005f52604160045260245ffd5b6040810190811067ffffffffffffffff82111761208257604052565b6060810190811067ffffffffffffffff82111761208257604052565b90601f7fffffffffffffffffffffffffffffffffffffffffffffffffffffffffffffffe0910116810190811067ffffffffffffffff82111761208257604052565b3d15612180573d9067ffffffffffffffff8211612082576040519161217560207fffffffffffffffffffffffffffffffffffffffffffffffffffffffffffffffe0601f84011601846120e7565b82523d5f602084013e565b606090565b1561218c57565b60646040517f08c379a000000000000000000000000000000000000000000000000000000000815260206004820152601560248201527f546f6b656e207472616e73666572206661696c656400000000000000000000006044820152fd5b6032811015611b725760051b610ca40190565b3580151581036112e15790565b6064811015611b725760051b60240190565b9061012c811015611b725760051b0190565b6060810192915f825b6002821061224e57505050604063deadbeef910152565b6020806001928551815201930191019091612237565b67ffffffffffffffff81116120825760051b60200190565b6040519061228982612066565b5f6060838281528260208201528260408201520152565b604051906122ad826120af565b5f6020838281520152565b8051821015611b725760209160051b010190565b519073ffffffffffffffffffffffffffffffffffffffff821682036112e157565b60405191905f835b6003821061230d5750505061230b6060836120e7565b565b60016020819285548152019301910190916122f5565b73ffffffffffffffffffffffffffffffffffffffff165f52600a60205260405f2054801561234e5790565b507f087f763a403ee4109adc79d4a7638af3cb8cb6a33f5b027bd1476ffa97361acb90565b73ffffffffffffffffffffffffffffffffffffffff5f5460081c16330361239657565b7f82b42900000000000000000000000000000000000000000000000000000000005f5260045ffd5b9173ffffffffffffffffffffffffffffffffffffffff604051927fa9059cbb000000000000000000000000000000000000000000000000000000005f521660045260245260205f60448180865af19060015f5114821615612467575b604052156124255750565b73ffffffffffffffffffffffffffffffffffffffff907f5274afe7000000000000000000000000000000000000000000000000000000005f521660045260245ffd5b90600181151661247f57823b15153d1516169061241a565b503d5f823e3d90fd5b80159081156124c1575b5061249957565b7f2c5211c6000000000000000000000000000000000000000000000000000000005f5260045ffd5b69ffffffffffffffffffff9150115f612492565b80516005811015611b4557156125a9576008545f52600760205260405f209080516005811015611b455760029160609184547fffffffffffffffffffffff00000000000000000000000000000000000000000060ff74ffffffffffffffffffffffffffffffffffffffff00602086015160081b1693169116171784556001840173ffffffffffffffffffffffffffffffffffffffff6040830151167fffffffffffffffffffffffff000000000000000000000000000000000000000082541617905501519101556008546001810160085590565b7fe5c28924000000000000000000000000000000000000000000000000000000005f5260045ffd5b6125d961227c565b506008549060095480921461268157815f52600760205260405f206040519061260182612066565b80549060ff82166005811015611b455760029273ffffffffffffffffffffffffffffffffffffffff91855260081c16602084015273ffffffffffffffffffffffffffffffffffffffff600182015416604084015201546060820152915f5260076020525f6002604082208281558260018201550155600160095401600955565b905060405161268f81612066565b5f81525f60208201525f60408201525f606082015290565b7f30644e72e131a029b85045b68181585d2833e84879b9709143e1f593f000000111156126d057565b7f2d8aa1c8000000000000000000000000000000000000000000000000000000005f5260045ffd5b60085460095481039081116114765790565b908160209103126112e1575180151581036112e1579056fea2646970667358221220f066a5675181be4f1390c971cad1829b1ef470f071b6178c3b1818f0d85870cd64736f6c634300081e0033","linkReferences":{"lib/babyjubjub-solidity/src/BabyJubJub.sol":{"BabyJubJub":[{"start":998,"length":20},{"start":2965,"length":20}]},"src/ActionQueue.sol":{"ActionQueueLib":[{"start":4661,"length":20}]},"src/Poseidon2.sol":{"Poseidon2T2_BN254":[{"start":6924,"length":20},{"start":7416,"length":20}]}}},"methodIdentifiers":{"DOMAIN_TAG()":"e32e13eb","actionQueue()":"c1a75210","balanceCommitments(address)":"51b1e524","clientVerifier()":"b51ac8a2","contractCompCheck(bytes4,bytes32)":"326175b8","deposit(uint256)":"b6b55f25","getBalanceCommitment(address)":"d915433c","getMpcPublicKeys()":"91f3a331","getNextActionIndex()":"faf3a304","getQueueSize()":"ce348c6f","mpcPk1()":"5fdd52e4","mpcPk2()":"7564ba21","mpcPk3()":"d93c0d9e","processMPC(uint256,uint256[100],bool[50],uint256[4])":"67f627b0","readQueue(uint256)":"6d77cd05","retrieveFunds(address)":"2ad22052","serverVerifier()":"547ecebf","supportsInterface(bytes4)":"01ffc9a7","token()":"fc0c546a","transfer(address,uint256,(uint256[3],uint256[3],(uint256,uint256)),uint256[4])":"9935ef79","withdraw(uint256)":"2e1a7d4d"},"id":9}