{"abi":[{"type":"constructor","inputs":[{"name":"_clientVerifier","type":"address","internalType":"address"},{"name":"_serverVerifier","type":"address","internalType":"address"},{"name":"_mpcAddress","type":"address","internalType":"address"},{"name":"_tokenAddress","type":"address","internalType":"address"},{"name":"_mpcPk1","type":"tuple","internalType":"struct BabyJubJub.Affine","components":[{"name":"x","type":"uint256","internalType":"uint256"},{"name":"y","type":"uint256","internalType":"uint256"}]},{"name":"_mpcPk2","type":"tuple","internalType":"struct BabyJubJub.Affine","components":[{"name":"x","type":"uint256","internalType":"uint256"},{"name":"y","type":"uint256","internalType":"uint256"}]},{"name":"_mpcPk3","type":"tuple","internalType":"struct BabyJubJub.Affine","components":[{"name":"x","type":"uint256","internalType":"uint256"},{"name":"y","type":"uint256","internalType":"uint256"}]},{"name":"_environmentTag","type":"string","internalType":"string"}],"stateMutability":"nonpayable"},{"type":"function","name":"DOMAIN_TAG","inputs":[],"outputs":[{"name":"","type":"bytes32","internalType":"bytes32"}],"stateMutability":"view"},{"type":"function","name":"actionQueue","inputs":[],"outputs":[{"name":"nextKey","type":"uint256","internalType":"uint256"},{"name":"lowestKey","type":"uint256","internalType":"uint256"}],"stateMutability":"view"},{"type":"function","name":"balanceCommitments","inputs":[{"name":"","type":"address","internalType":"address"}],"outputs":[{"name":"","type":"uint256","internalType":"uint256"}],"stateMutability":"view"},{"type":"function","name":"clientVerifier","inputs":[],"outputs":[{"name":"","type":"address","internalType":"contract IVerifierClient"}],"stateMutability":"view"},{"type":"function","name":"contractCompCheck","inputs":[{"name":"interfaceId","type":"bytes4","internalType":"bytes4"},{"name":"domainTag","type":"bytes32","internalType":"bytes32"}],"outputs":[],"stateMutability":"view"},{"type":"function","name":"deposit","inputs":[{"name":"amount","type":"uint256","internalType":"uint256"}],"outputs":[{"name":"","type":"uint256","internalType":"uint256"}],"stateMutability":"payable"},{"type":"function","name":"getBalanceCommitment","inputs":[{"name":"user","type":"address","internalType":"address"}],"outputs":[{"name":"","type":"uint256","internalType":"uint256"}],"stateMutability":"view"},{"type":"function","name":"getMpcPublicKeys","inputs":[],"outputs":[{"name":"","type":"tuple","internalType":"struct BabyJubJub.Affine","components":[{"name":"x","type":"uint256","internalType":"uint256"},{"name":"y","type":"uint256","internalType":"uint256"}]},{"name":"","type":"tuple","internalType":"struct BabyJubJub.Affine","components":[{"name":"x","type":"uint256","internalType":"uint256"},{"name":"y","type":"uint256","internalType":"uint256"}]},{"name":"","type":"tuple","internalType":"struct BabyJubJub.Affine","components":[{"name":"x","type":"uint256","internalType":"uint256"},{"name":"y","type":"uint256","internalType":"uint256"}]}],"stateMutability":"view"},{"type":"function","name":"getNextActionIndex","inputs":[],"outputs":[{"name":"","type":"uint256","internalType":"uint256"}],"stateMutability":"view"},{"type":"function","name":"getQueueSize","inputs":[],"outputs":[{"name":"","type":"uint256","internalType":"uint256"}],"stateMutability":"view"},{"type":"function","name":"mpcPk1","inputs":[],"outputs":[{"name":"x","type":"uint256","internalType":"uint256"},{"name":"y","type":"uint256","internalType":"uint256"}],"stateMutability":"view"},{"type":"function","name":"mpcPk2","inputs":[],"outputs":[{"name":"x","type":"uint256","internalType":"uint256"},{"name":"y","type":"uint256","internalType":"uint256"}],"stateMutability":"view"},{"type":"function","name":"mpcPk3","inputs":[],"outputs":[{"name":"x","type":"uint256","internalType":"uint256"},{"name":"y","type":"uint256","internalType":"uint256"}],"stateMutability":"view"},{"type":"function","name":"processMPC","inputs":[{"name":"num_transactions","type":"uint256","internalType":"uint256"},{"name":"commitments","type":"uint256[100]","internalType":"uint256[100]"},{"name":"valid","type":"bool[50]","internalType":"bool[50]"},{"name":"beta","type":"uint256","internalType":"uint256"},{"name":"proof","type":"uint256[4]","internalType":"uint256[4]"}],"outputs":[{"name":"","type":"uint256[50]","internalType":"uint256[50]"}],"stateMutability":"nonpayable"},{"type":"function","name":"readQueue","inputs":[{"name":"num_items","type":"uint256","internalType":"uint256"}],"outputs":[{"name":"","type":"uint256[]","internalType":"uint256[]"},{"name":"","type":"tuple[]","internalType":"struct ActionItem[]","components":[{"name":"action","type":"uint8","internalType":"enum Action"},{"name":"sender","type":"address","internalType":"address"},{"name":"receiver","type":"address","internalType":"address"},{"name":"amount","type":"uint256","internalType":"uint256"}]},{"name":"","type":"tuple[]","internalType":"struct Merces.Ciphertext[]","components":[{"name":"amount","type":"uint256[3]","internalType":"uint256[3]"},{"name":"r","type":"uint256[3]","internalType":"uint256[3]"},{"name":"senderPk","type":"tuple","internalType":"struct BabyJubJub.Affine","components":[{"name":"x","type":"uint256","internalType":"uint256"},{"name":"y","type":"uint256","internalType":"uint256"}]}]}],"stateMutability":"view"},{"type":"function","name":"retrieveFunds","inputs":[{"name":"receiver","type":"address","internalType":"address"}],"outputs":[],"stateMutability":"nonpayable"},{"type":"function","name":"serverVerifier","inputs":[],"outputs":[{"name":"","type":"address","internalType":"contract IVerifierServer"}],"stateMutability":"view"},{"type":"function","name":"supportsInterface","inputs":[{"name":"interfaceId","type":"bytes4","internalType":"bytes4"}],"outputs":[{"name":"","type":"bool","internalType":"bool"}],"stateMutability":"view"},{"type":"function","name":"token","inputs":[],"outputs":[{"name":"","type":"address","internalType":"contract IERC20"}],"stateMutability":"view"},{"type":"function","name":"transfer","inputs":[{"name":"receiver","type":"address","internalType":"address"},{"name":"amountCommitment","type":"uint256","internalType":"uint256"},{"name":"beta","type":"uint256","internalType":"uint256"},{"name":"ciphertext","type":"tuple","internalType":"struct Merces.Ciphertext","components":[{"name":"amount","type":"uint256[3]","internalType":"uint256[3]"},{"name":"r","type":"uint256[3]","internalType":"uint256[3]"},{"name":"senderPk","type":"tuple","internalType":"struct BabyJubJub.Affine","components":[{"name":"x","type":"uint256","internalType":"uint256"},{"name":"y","type":"uint256","internalType":"uint256"}]}]},{"name":"proof","type":"uint256[4]","internalType":"uint256[4]"}],"outputs":[{"name":"","type":"uint256","internalType":"uint256"}],"stateMutability":"nonpayable"},{"type":"function","name":"withdraw","inputs":[{"name":"amount","type":"uint256","internalType":"uint256"}],"outputs":[{"name":"","type":"uint256","internalType":"uint256"}],"stateMutability":"nonpayable"},{"type":"event","name":"Deposit","inputs":[{"name":"actionIndex","type":"uint256","indexed":false,"internalType":"uint256"}],"anonymous":false},{"type":"event","name":"ProcessedMPC","inputs":[{"name":"actionIndices","type":"uint256[50]","indexed":false,"internalType":"uint256[50]"},{"name":"valid","type":"bool[50]","indexed":false,"internalType":"bool[50]"}],"anonymous":false},{"type":"event","name":"Transfer","inputs":[{"name":"actionIndex","type":"uint256","indexed":false,"internalType":"uint256"}],"anonymous":false},{"type":"event","name":"Withdraw","inputs":[{"name":"actionIndex","type":"uint256","indexed":false,"internalType":"uint256"}],"anonymous":false},{"type":"error","name":"CannotPushNotPresent","inputs":[]},{"type":"error","name":"ContractComp","inputs":[]},{"type":"error","name":"InvalidAmount","inputs":[]},{"type":"error","name":"InvalidCommitment","inputs":[]},{"type":"error","name":"InvalidMpcAction","inputs":[]},{"type":"error","name":"InvalidPoint","inputs":[]},{"type":"error","name":"InvalidTransfer","inputs":[]},{"type":"error","name":"NotInPrimeField","inputs":[]},{"type":"error","name":"SafeERC20FailedOperation","inputs":[{"name":"token","type":"address","internalType":"address"}]},{"type":"error","name":"Unauthorized","inputs":[]}],"bytecode":{"object":"0x6101008060405234610337576130fb803803809161001d828561033b565b833981019061016081830312610337576100368161035e565b906100436020820161035e565b906100506040820161035e565b9161005d6060830161035e565b9261006b8660808501610372565b906100798760c08601610372565b91610088886101008701610372565b61014086015190956001600160401b03821161033757019188601f84011215610337578251946001600160401b03861161031657604051986100d4601f8801601f19166020018b61033b565b868a5260208a019a60208887010111610337576020985f8a89819a8f83809b01905e8d010152610103856103c2565b61010c876103c2565b610115896103c2565b6001600160a01b03168061032a57600160ff195f5416175f555b60e0526001600160a01b0390811660a0521660c0525f8054610100600160a81b03191660089290921b610100600160a81b0316919091179055805160019081559101516002558151600355910151600455815160055591015160065560408051909390916101ef916101a1868561033b565b600784526020808501666d65726365733160c81b81528751958693838501985180918a5e840190602d60f81b84830152518092602183015e01015f838201520301601f19810183528261033b565b519020608090815281519081016001600160401b0381118282101761031657825260048152602081015f81528282015f815260608301905f82526008545f526007602052845f20935192600584101561030257845490516001600160a81b031990911660ff90941693909317600893841b610100600160a81b031617845551600180850180546001600160a01b0319166001600160a01b03939093169290921790915590516002939093019290925580548201905560095551612bca908161053182396080518181816101e80152612157015260a051818181610529015261163d015260c05181818161067e0152612055015260e05181818161014f015281816103d50152818161100d01526122750152f35b634e487b7160e01b5f52602160045260245ffd5b634e487b7160e01b5f52604160045260245ffd5b60ff195f54165f5561012f565b5f80fd5b601f909101601f19168101906001600160401b0382119082101761031657604052565b51906001600160a01b038216820361033757565b919082604091031261033757604080519081016001600160401b03811182821017610316576040526020808294805184520151910152565b90816020910312610337575180151581036103375790565b604051631d190e8560e31b815281516004820152602080830151602483015290919073__$fd1bbc507ebce9bb0449be7c85ea578f4f$__9083604481845af49283156104a5575f9361050f575b5082156104b0575b8215610435575b505061042657565b63b8fedf8760e01b5f5260045ffd5b60405163709460d560e11b81528251600482015260209283015160248201529250829060449082905af49081156104a5575f91610476575b50155f8061041e565b610498915060203d60201161049e575b610490818361033b565b8101906103aa565b5f61046d565b503d610486565b6040513d5f823e3d90fd5b60405163201c51a760e21b81528251600482015260208084015160248301529193509081604481865af49081156104a5575f916104f0575b501591610417565b610509915060203d60201161049e57610490818361033b565b5f6104e8565b61052991935060203d60201161049e57610490818361033b565b915f61040f56fe6080806040526004361015610012575f80fd5b5f905f3560e01c90816301ffc9a71461232e575080632ad22052146122145780632e1a7d4d1461217d578063326175b8146120dc57806351b1e52414612079578063547ecebf1461200b5780635fdd52e414611fc95780636d77cd0514611ab65780637564ba2114611a7457806391f3a331146119af578063a135dff314611369578063aa5e5d951461054d578063b51ac8a2146104de578063b6b55f251461031b578063c1a75210146102d8578063ce348c6f14610298578063d915433c1461024e578063d93c0d9e1461020b578063e32e13eb146101b2578063faf3a304146101765763fc0c546a14610105575f80fd5b3461017357807ffffffffffffffffffffffffffffffffffffffffffffffffffffffffffffffffc36011261017357602060405173ffffffffffffffffffffffffffffffffffffffff7f0000000000000000000000000000000000000000000000000000000000000000168152f35b80fd5b503461017357807ffffffffffffffffffffffffffffffffffffffffffffffffffffffffffffffffc360112610173576020600954604051908152f35b503461017357807ffffffffffffffffffffffffffffffffffffffffffffffffffffffffffffffffc3601126101735760206040517f00000000000000000000000000000000000000000000000000000000000000008152f35b503461017357807ffffffffffffffffffffffffffffffffffffffffffffffffffffffffffffffffc36011261017357604060055460065482519182526020820152f35b50346101735760207ffffffffffffffffffffffffffffffffffffffffffffffffffffffffffffffffc36011261017357602061029061028b6123a0565b612725565b604051908152f35b503461017357807ffffffffffffffffffffffffffffffffffffffffffffffffffffffffffffffffc360112610173576020610290600854600954906129d3565b503461017357807ffffffffffffffffffffffffffffffffffffffffffffffffffffffffffffffffc36011261017357604060085460095482519182526020820152f35b5060207ffffffffffffffffffffffffffffffffffffffffffffffffffffffffffffffffc36011261017357600435906103538261288a565b60ff815416806104d4575b6104ac5781156104ac5761039260405161037781612488565b600181528260208201523360408201528360608201526128d7565b917f4d6ce1e535dbade1c23defba91e23b8f791ce5edc0cc320257a2b364e4e384266020604051858152a160ff825416156103d3575b602083604051908152f35b7f000000000000000000000000000000000000000000000000000000000000000090604051907f23b872dd000000000000000000000000000000000000000000000000000000008452336004523060245260445260208360648180865af190600184511482161561048b575b604052826060526103c8577f5274afe700000000000000000000000000000000000000000000000000000000825273ffffffffffffffffffffffffffffffffffffffff16600452602490fd5b9060018115166104a357823b15153d1516169061043f565b503d83823e3d90fd5b807f2c5211c60000000000000000000000000000000000000000000000000000000060049252fd5b508134141561035e565b503461017357807ffffffffffffffffffffffffffffffffffffffffffffffffffffffffffffffffc36011261017357602060405173ffffffffffffffffffffffffffffffffffffffff7f0000000000000000000000000000000000000000000000000000000000000000168152f35b5034610173576113807ffffffffffffffffffffffffffffffffffffffffffffffffffffffffffffffffc3601126101735760043536610ca41161136557366112e411611365576112e4359136611384116101735761064092836040516105b382826124dc565b3690376105be612775565b6032831161133d57604051906125806105d781846124dc565b80368437604051946105e987876124dc565b86368737845b818110610a5857505b603281106108175750604051908385602084015b61012c821061080157505050815261062f9061062a6125a0826124dc565b612b1f565b9161012b908490838501835b6107b557507f30644e72e131a029b85045b68181585d2833e84879b9709143e1f593f000000192505190089173ffffffffffffffffffffffffffffffffffffffff7f00000000000000000000000000000000000000000000000000000000000000001692604051926106ac846124a4565b835260208301526040820152813b156107b15761070560e4849260405194859384927f98c13db90000000000000000000000000000000000000000000000000000000084526080611304600486013760848401906123c3565b5afa80156107a657908291610791575b50506040519061072582846123ea565b80610ca48386015b6032841061076c5786867f98260fc8883baa863b09be1de9e73d5317d1aa060f783363c71c625e61df886c610c8088a161076a60405180926123ea565bf35b813580151580910361078d576020828192600194520192019301929061072d565b8380fd5b8161079b916124dc565b61017357805f610715565b6040513d84823e3d90fd5b8280fd5b90917f30644e72e131a029b85045b68181585d2833e84879b9709143e1f593f00000016107f06107f8926107e987876126dd565b51906126d0565b830993612b69565b9291908361063b565b602080600192855181520193019101909161060c565b8060011b8115908281046002148217156109a857610834816126be565b35610a3057600181018091116109a85761084d906126be565b35610a0857600682029082820460061417156109db577f087f763a403ee4109adc79d4a7638af3cb8cb6a33f5b027bd1476ffa97361acb61088e82876126dd565b52600181018082116109a8576108c57f087f763a403ee4109adc79d4a7638af3cb8cb6a33f5b027bd1476ffa97361acb91876126dd565b52600281018082116109a8576108fc7f087f763a403ee4109adc79d4a7638af3cb8cb6a33f5b027bd1476ffa97361acb91876126dd565b52600381018082116109a8576109337f087f763a403ee4109adc79d4a7638af3cb8cb6a33f5b027bd1476ffa97361acb91876126dd565b52600481018082116109a85761096a7f087f763a403ee4109adc79d4a7638af3cb8cb6a33f5b027bd1476ffa97361acb91876126dd565b5261097c6109778361269e565b6126b1565b156109d55760015b600582018092116109a857906109a160ff600194931691876126dd565b52016105f8565b6024877f4e487b710000000000000000000000000000000000000000000000000000000081526011600452fd5b85610984565b6024867f4e487b710000000000000000000000000000000000000000000000000000000081526011600452fd5b6004867fc06789fa000000000000000000000000000000000000000000000000000000008152fd5b6004877fc06789fa000000000000000000000000000000000000000000000000000000008152fd5b610a646109778261269e565b156113355760ff60015b166009546032831015611308578260051b890152610a8a612a31565b60608101805191805160058110156112db57600103610e1e576040915001610ac873ffffffffffffffffffffffffffffffffffffffff825116612725565b918460011b91851593868404600214851715610df157610ae7846126be565b35610dc9578b91600185018095119384610ced5790602086959493928f610b19610b13610b5f9a6126be565b356129e0565b60405191610b26836124c0565b825282820152604051809881927f8b0fc30c000000000000000000000000000000000000000000000000000000008352600483016126ef565b038173__$58a96acb294a42983af7110ac717d64ca3$__5af4958615610dbc57908e918297610d82575b50610b966109778b61269e565b610d47575b505060068802958887046006141715610d1a5784610bb9878e6126dd565b5260018601808711610ced57610bf07f087f763a403ee4109adc79d4a7638af3cb8cb6a33f5b027bd1476ffa97361acb918e6126dd565b5260028601808711610ced57610c06908d6126dd565b52610cc057610c9357610c18906126be565b3560038301808411610cc057610c2e908a6126dd565b5260048201808311610c9357610c4490896126dd565b5260058101809111610c665790610c5e60019392886126dd565b525b016105ef565b6024887f4e487b710000000000000000000000000000000000000000000000000000000081526011600452fd5b60248a7f4e487b710000000000000000000000000000000000000000000000000000000081526011600452fd5b60248b7f4e487b710000000000000000000000000000000000000000000000000000000081526011600452fd5b60248e7f4e487b710000000000000000000000000000000000000000000000000000000081526011600452fd5b60248d7f4e487b710000000000000000000000000000000000000000000000000000000081526011600452fd5b92508093509160408473ffffffffffffffffffffffffffffffffffffffff610d6e886126be565b359351168152600a60205220558c5f610b9b565b915095506020813d8211610db4575b81610d9e602093836124dc565b81010312610db0578d9051955f610b89565b5f80fd5b3d9150610d91565b8e604051903d90823e3d90fd5b60048c7fc06789fa000000000000000000000000000000000000000000000000000000008152fd5b60248c7f4e487b710000000000000000000000000000000000000000000000000000000081526011600452fd5b805160058110156112db576002036110945760200173ffffffffffffffffffffffffffffffffffffffff8151168a52600a60205260408a2054908560011b92861594878504600214861715610d1a5760018501808611610ced57610e81906126be565b3561106c5791610e9e94939160208e9485610b19610b13896126be565b038173__$58a96acb294a42983af7110ac717d64ca3$__5af4958615610dbc57908e918297611036575b50610ed56109778b61269e565b610fa0575b50505060068702948786046006141715610df157610ef8858c6126dd565b52610c9357610f06906126be565b3560018301808411610cc057610f1c908a6126dd565b5260028201808311610c9357610f537f087f763a403ee4109adc79d4a7638af3cb8cb6a33f5b027bd1476ffa97361acb918a6126dd565b5260038201808311610c9357610f6a82918a6126dd565b5260048201808311610c9357610f8090896126dd565b5260058101809111610c665790610f9a60019392886126dd565b52610c60565b9091935073ffffffffffffffffffffffffffffffffffffffff8294610fc4876126be565b35828251168552600a6020526040852055511690519060ff8354165f14611006579180808093610ffe955af1610ff861251d565b5061257a565b5f8c81610eda565b61103192507f00000000000000000000000000000000000000000000000000000000000000006127c0565b610ffe565b915095506020813d8211611064575b81611052602093836124dc565b81010312610db0578d9051955f610ec8565b3d9150611045565b60048d7fc06789fa000000000000000000000000000000000000000000000000000000008152fd5b809291505160058110156112ae57600303611286576020820173ffffffffffffffffffffffffffffffffffffffff8151168a52600a6020526040808b20549301906110f573ffffffffffffffffffffffffffffffffffffffff835116612725565b8660011b87810460021488151715610d1a57611113610b13826126be565b8c6001820194858311948561125857908f91611131610b13896126be565b61113d6109778d61269e565b6111ed575b50505060068902968988046006148a1517156111c057611162888f6126dd565b52610d1a57611170906126be565b3560018601808711610ced57611186908d6126dd565b5260028501808611610d1a5761119c908c6126dd565b52610c93576111aa906126be565b3560038301808411610cc057610f6a908a6126dd565b60248f7f4e487b710000000000000000000000000000000000000000000000000000000081526011600452fd5b919550915073ffffffffffffffffffffffffffffffffffffffff611210846126be565b359151168552600a6020526040852055839060408573ffffffffffffffffffffffffffffffffffffffff611243896126be565b359351168152600a60205220558d5f80611142565b5060248f7f4e487b710000000000000000000000000000000000000000000000000000000081526011600452fd5b6004897f27606320000000000000000000000000000000000000000000000000000000008152fd5b60248a7f4e487b710000000000000000000000000000000000000000000000000000000081526021600452fd5b60248b7f4e487b710000000000000000000000000000000000000000000000000000000081526021600452fd5b6024887f4e487b710000000000000000000000000000000000000000000000000000000081526032600452fd5b60ff86610a6e565b6004827f27606320000000000000000000000000000000000000000000000000000000008152fd5b5080fd5b5034610db0576101e07ffffffffffffffffffffffffffffffffffffffffffffffffffffffffffffffffc360112610db0576113a26123a0565b602435604435916101007fffffffffffffffffffffffffffffffffffffffffffffffffffffffffffffff9c360112610db057366101e411610db05773ffffffffffffffffffffffffffffffffffffffff169182331461198757611404826129e0565b60407ffffffffffffffffffffffffffffffffffffffffffffffffffffffffffffffedc360112610db0576040519161143b836124c0565b610124358084526101443560208086018281526040517fe8c87428000000000000000000000000000000000000000000000000000000008152875160048201529051602482015291959294929073__$fd1bbc507ebce9bb0449be7c85ea578f4f$__9083604481845af4928315611779575f93611966575b5082156118ee575b8215611865575b505061183d57606435946114d5866129e0565b6084356114e1816129e0565b60a435906114ee826129e0565b60c435906114fb826129e0565b60e43591611508836129e0565b6115406101043595611519876129e0565b6040519061152682612488565b6003825233602083015260408201528860608201526128d7565b99604051976101e0890189811067ffffffffffffffff821117611810576040528989528a60208a015260408901526060880152608087015260a086015260c085015260e08401526101008301526001546101208301526002546101408301526003546101608301526004546101808301526005546101a08301526006546101c08301526040516020810183905f905b600f82106117fa57505050806101e06115ef925261062a610200826124dc565b91600e905f90838501835b61178457507f30644e72e131a029b85045b68181585d2833e84879b9709143e1f593f000000192505190089173ffffffffffffffffffffffffffffffffffffffff7f000000000000000000000000000000000000000000000000000000000000000016926040519261166b846124a4565b835260208301526040820152813b15610db0576116c460e45f9260405194859384927f98c13db90000000000000000000000000000000000000000000000000000000084526080610164600486013760848401906123c3565b5afa801561177957611764575b50828452600b60205260408420936064815b6003811061175057505060c4905b60038110611739575050836007916006602096015501557f248dd4076d0a389d795107efafd558ce7f31ae37b441ccb9a599c60868f480d582604051838152a1604051908152f35b6001906020833593019260038289010155016116f1565b6001906020833593019281890155016116e3565b6117719194505f906124dc565b5f925f6116d1565b6040513d5f823e3d90fd5b9091600f8410156117cd577f30644e72e131a029b85045b68181585d2833e84879b9709143e1f593f00000016107f06117c4928660051b860151906126d0565b929190836115fa565b7f4e487b71000000000000000000000000000000000000000000000000000000005f52603260045260245ffd5b60208060019285518152019301910190916115cf565b7f4e487b71000000000000000000000000000000000000000000000000000000005f52604160045260245ffd5b7fb8fedf87000000000000000000000000000000000000000000000000000000005f5260045ffd5b6040517fe128c1aa0000000000000000000000000000000000000000000000000000000081528251600482015260209283015160248201529250829060449082905af4908115611779575f916118bf575b50155f806114c2565b6118e1915060203d6020116118e7575b6118d981836124dc565b810190612b07565b5f6118b6565b503d6118cf565b6040517f8071469c0000000000000000000000000000000000000000000000000000000081528251600482015260208084015160248301529193509081604481865af4908115611779575f91611947575b5015916114bb565b611960915060203d6020116118e7576118d981836124dc565b5f61193f565b61198091935060203d6020116118e7576118d981836124dc565b915f6114b3565b7f2f352531000000000000000000000000000000000000000000000000000000005f5260045ffd5b34610db0575f7ffffffffffffffffffffffffffffffffffffffffffffffffffffffffffffffffc360112610db0576119e561261b565b506119ee61261b565b506119f761261b565b5060c0604051611a06816124c0565b600154815260025460208201908152604051611a21816124c0565b60035481526004546020820190815260405191611a3d836124c0565b60055483526006549360208401948552604051955186525160208601525160408501525160608401525160808301525160a0820152f35b34610db0575f7ffffffffffffffffffffffffffffffffffffffffffffffffffffffffffffffffc360112610db057604060035460045482519182526020820152f35b34610db05760207ffffffffffffffffffffffffffffffffffffffffffffffffffffffffffffffffc360112610db057600435611af7600854600954906129d3565b808211611fc1575b50611b09816125df565b90611b1760405192836124dc565b8082527fffffffffffffffffffffffffffffffffffffffffffffffffffffffffffffffe0611b44826125df565b015f5b818110611faa575050611b59816125df565b90611b6760405192836124dc565b808252611b73816125df565b927fffffffffffffffffffffffffffffffffffffffffffffffffffffffffffffffe0602084019401368537611ba7826125df565b91611bb560405193846124dc565b8083527fffffffffffffffffffffffffffffffffffffffffffffffffffffffffffffffe0611be2826125df565b015f5b818110611f42575050600954905f9173__$96414a38f905666ffb62ad69c724988e3b$__905b828410611d885750505050604051938493606085019060608652518091526080850191905f5b818110611d6f575050508381036020850152602080835192838152019201905f5b818110611ccc575050508281036040840152602080835192838152019201905f5b818110611c81575050500390f35b9193509160206101006001928260408851611c9d8482516123c3565b611cae8382015160608601906123c3565b0151805160c0840152015160e0820152019401910191849392611c73565b9180949550929092518051906005821015611d42578260606080926020946001965273ffffffffffffffffffffffffffffffffffffffff85820151168584015273ffffffffffffffffffffffffffffffffffffffff60408201511660408401520151606082015201940191019185949392611c52565b7f4e487b71000000000000000000000000000000000000000000000000000000005f52602160045260245ffd5b8251845287965060209384019390920191600101611c31565b80611d9785899a979899612633565b526040517feaceeec200000000000000000000000000000000000000000000000000000000815260076004820152816024820152608081604481865af4908115611779575f91611ecb575b50611ded8588612633565b52611df88487612633565b50805f52600b60205260405f2060405190611e12826124a4565b611e1b81612668565b8252611e2960038201612668565b6020830152600760405191611e3d836124c0565b60068101548352015460208201526040820152611e5a8589612633565b52611e658488612633565b507fffffffffffffffffffffffffffffffffffffffffffffffffffffffffffffffff8114611e9e57939695949360019384019301611c0b565b7f4e487b71000000000000000000000000000000000000000000000000000000005f52601160045260245ffd5b90506080813d8211611f3a575b81611ee5608093836124dc565b81010312610db05760405190611efa82612488565b8051906005821015610db0576060918352611f1760208201612647565b6020840152611f2860408201612647565b60408401520151606082015289611de2565b3d9150611ed8565b6020906040979495969751611f56816124a4565b6060604051611f6582826124dc565b81368237825260405190611f7981836124dc565b36823783820152604051611f8c816124c0565b5f81525f848201526040820152828289010152019594939295611be5565b602090611fb56125f7565b82828701015201611b47565b905081611aff565b34610db0575f7ffffffffffffffffffffffffffffffffffffffffffffffffffffffffffffffffc360112610db057604060015460025482519182526020820152f35b34610db0575f7ffffffffffffffffffffffffffffffffffffffffffffffffffffffffffffffffc360112610db057602060405173ffffffffffffffffffffffffffffffffffffffff7f0000000000000000000000000000000000000000000000000000000000000000168152f35b34610db05760207ffffffffffffffffffffffffffffffffffffffffffffffffffffffffffffffffc360112610db05773ffffffffffffffffffffffffffffffffffffffff6120c56123a0565b165f52600a602052602060405f2054604051908152f35b34610db05760407ffffffffffffffffffffffffffffffffffffffffffffffffffffffffffffffffc360112610db05761211b612116612371565b612411565b158015612151575b61212957005b7fccae95ad000000000000000000000000000000000000000000000000000000005f5260045ffd5b506024357f00000000000000000000000000000000000000000000000000000000000000001415612123565b34610db05760207ffffffffffffffffffffffffffffffffffffffffffffffffffffffffffffffffc360112610db05760206121e36004356121bd8161288a565b604051906121ca82612488565b6002825233848301525f604083015260608201526128d7565b7f5b6b431d4476a211bb7d41c20d1aab9ae2321deee0d20be3d9fc9b1093fa6e3d82604051838152a1604051908152f35b34610db05760207ffffffffffffffffffffffffffffffffffffffffffffffffffffffffffffffffc360112610db05761224b6123a0565b612253612775565b5f5460ff1615612273575f8080806122719447905af1610ff861251d565b005b7f0000000000000000000000000000000000000000000000000000000000000000604051917f70a0823100000000000000000000000000000000000000000000000000000000835230600484015260208360248173ffffffffffffffffffffffffffffffffffffffff86165afa918215611779575f926122f8575b61227193506127c0565b91506020833d602011612326575b81612313602093836124dc565b81010312610db0576122719251916122ee565b3d9150612306565b34610db05760207ffffffffffffffffffffffffffffffffffffffffffffffffffffffffffffffffc360112610db05760209061236b612116612371565b15158152f35b600435907fffffffff0000000000000000000000000000000000000000000000000000000082168203610db057565b6004359073ffffffffffffffffffffffffffffffffffffffff82168203610db057565b905f905b600382106123d457505050565b60208060019285518152019301910190916123c7565b905f905b603282106123fb57505050565b60208060019285518152019301910190916123ee565b7fffffffff00000000000000000000000000000000000000000000000000000000167fd93c9fa9000000000000000000000000000000000000000000000000000000008114908115612461575090565b7f01ffc9a70000000000000000000000000000000000000000000000000000000091501490565b6080810190811067ffffffffffffffff82111761181057604052565b6060810190811067ffffffffffffffff82111761181057604052565b6040810190811067ffffffffffffffff82111761181057604052565b90601f7fffffffffffffffffffffffffffffffffffffffffffffffffffffffffffffffe0910116810190811067ffffffffffffffff82111761181057604052565b3d15612575573d9067ffffffffffffffff8211611810576040519161256a60207fffffffffffffffffffffffffffffffffffffffffffffffffffffffffffffffe0601f84011601846124dc565b82523d5f602084013e565b606090565b1561258157565b60646040517f08c379a000000000000000000000000000000000000000000000000000000000815260206004820152601560248201527f546f6b656e207472616e73666572206661696c656400000000000000000000006044820152fd5b67ffffffffffffffff81116118105760051b60200190565b6040519061260482612488565b5f6060838281528260208201528260408201520152565b60405190612628826124c0565b5f6020838281520152565b80518210156117cd5760209160051b010190565b519073ffffffffffffffffffffffffffffffffffffffff82168203610db057565b60405191905f835b60038210612688575050506126866060836124dc565b565b6001602081928554815201930191019091612670565b60328110156117cd5760051b610ca40190565b358015158103610db05790565b60648110156117cd5760051b60240190565b91908201809211611e9e57565b9061012c8110156117cd5760051b0190565b6060810192915f825b6002821061270f57505050604063deadbeef910152565b60208060019285518152019301910190916126f8565b73ffffffffffffffffffffffffffffffffffffffff165f52600a60205260405f205480156127505790565b507f087f763a403ee4109adc79d4a7638af3cb8cb6a33f5b027bd1476ffa97361acb90565b73ffffffffffffffffffffffffffffffffffffffff5f5460081c16330361279857565b7f82b42900000000000000000000000000000000000000000000000000000000005f5260045ffd5b9173ffffffffffffffffffffffffffffffffffffffff604051927fa9059cbb000000000000000000000000000000000000000000000000000000005f521660045260245260205f60448180865af19060015f5114821615612869575b604052156128275750565b73ffffffffffffffffffffffffffffffffffffffff907f5274afe7000000000000000000000000000000000000000000000000000000005f521660045260245ffd5b90600181151661288157823b15153d1516169061281c565b503d5f823e3d90fd5b80159081156128c3575b5061289b57565b7f2c5211c6000000000000000000000000000000000000000000000000000000005f5260045ffd5b69ffffffffffffffffffff9150115f612894565b80516005811015611d4257156129ab576008545f52600760205260405f209080516005811015611d425760029160609184547fffffffffffffffffffffff00000000000000000000000000000000000000000060ff74ffffffffffffffffffffffffffffffffffffffff00602086015160081b1693169116171784556001840173ffffffffffffffffffffffffffffffffffffffff6040830151167fffffffffffffffffffffffff000000000000000000000000000000000000000082541617905501519101556008546001810160085590565b7fe5c28924000000000000000000000000000000000000000000000000000000005f5260045ffd5b91908203918211611e9e57565b7f30644e72e131a029b85045b68181585d2833e84879b9709143e1f593f00000011115612a0957565b7f2d8aa1c8000000000000000000000000000000000000000000000000000000005f5260045ffd5b612a396125f7565b5060085490600954809214612ae157815f52600760205260405f2060405190612a6182612488565b80549060ff82166005811015611d425760029273ffffffffffffffffffffffffffffffffffffffff91855260081c16602084015273ffffffffffffffffffffffffffffffffffffffff600182015416604084015201546060820152915f5260076020525f6002604082208281558260018201550155600160095401600955565b9050604051612aef81612488565b5f81525f60208201525f60408201525f606082015290565b90816020910312610db057518015158103610db05790565b5f60208092604051918183925191829101835e8101838152039060025afa15611779577f1fffffffffffffffffffffffffffffffffffffffffffffffffffffffffffffff5f511690565b8015611e9e577fffffffffffffffffffffffffffffffffffffffffffffffffffffffffffffffff019056fea264697066735822122083b5fd391b3600be462f727ebf4b8758bedb9e19db0116cb867200b661d2aa1264736f6c634300081e0033","linkReferences":{"lib/babyjubjub-solidity/src/BabyJubJub.sol":{"BabyJubJub":[{"start":998,"length":20},{"start":6587,"length":20}]},"src/ActionQueue.sol":{"ActionQueueLib":[{"start":8487,"length":20}]},"src/Poseidon2.sol":{"Poseidon2T2_BN254":[{"start":4244,"length":20},{"start":5075,"length":20}]}}},"methodIdentifiers":{"DOMAIN_TAG()":"e32e13eb","actionQueue()":"c1a75210","balanceCommitments(address)":"51b1e524","clientVerifier()":"b51ac8a2","contractCompCheck(bytes4,bytes32)":"326175b8","deposit(uint256)":"b6b55f25","getBalanceCommitment(address)":"d915433c","getMpcPublicKeys()":"91f3a331","getNextActionIndex()":"faf3a304","getQueueSize()":"ce348c6f","mpcPk1()":"5fdd52e4","mpcPk2()":"7564ba21","mpcPk3()":"d93c0d9e","processMPC(uint256,uint256[100],bool[50],uint256,uint256[4])":"aa5e5d95","readQueue(uint256)":"6d77cd05","retrieveFunds(address)":"2ad22052","serverVerifier()":"547ecebf","supportsInterface(bytes4)":"01ffc9a7","token()":"fc0c546a","transfer(address,uint256,uint256,(uint256[3],uint256[3],(uint256,uint256)),uint256[4])":"a135dff3","withdraw(uint256)":"2e1a7d4d"},"id":32}