{"abi":[{"type":"constructor","inputs":[{"name":"_clientVerifier","type":"address","internalType":"address"},{"name":"_serverVerifier","type":"address","internalType":"address"},{"name":"_mpcAddress","type":"address","internalType":"address"},{"name":"_tokenAddress","type":"address","internalType":"address"},{"name":"_mpcPk1","type":"tuple","internalType":"struct BabyJubJub.Affine","components":[{"name":"x","type":"uint256","internalType":"uint256"},{"name":"y","type":"uint256","internalType":"uint256"}]},{"name":"_mpcPk2","type":"tuple","internalType":"struct BabyJubJub.Affine","components":[{"name":"x","type":"uint256","internalType":"uint256"},{"name":"y","type":"uint256","internalType":"uint256"}]},{"name":"_mpcPk3","type":"tuple","internalType":"struct BabyJubJub.Affine","components":[{"name":"x","type":"uint256","internalType":"uint256"},{"name":"y","type":"uint256","internalType":"uint256"}]},{"name":"_environmentTag","type":"string","internalType":"string"}],"stateMutability":"nonpayable"},{"type":"function","name":"DOMAIN_TAG","inputs":[],"outputs":[{"name":"","type":"bytes32","internalType":"bytes32"}],"stateMutability":"view"},{"type":"function","name":"actionQueue","inputs":[],"outputs":[{"name":"nextKey","type":"uint256","internalType":"uint256"},{"name":"lowestKey","type":"uint256","internalType":"uint256"}],"stateMutability":"view"},{"type":"function","name":"balanceCommitments","inputs":[{"name":"","type":"address","internalType":"address"}],"outputs":[{"name":"","type":"uint256","internalType":"uint256"}],"stateMutability":"view"},{"type":"function","name":"clientVerifier","inputs":[],"outputs":[{"name":"","type":"address","internalType":"contract IVerifierClient"}],"stateMutability":"view"},{"type":"function","name":"contractCompCheck","inputs":[{"name":"interfaceId","type":"bytes4","internalType":"bytes4"},{"name":"domainTag","type":"bytes32","internalType":"bytes32"}],"outputs":[],"stateMutability":"view"},{"type":"function","name":"deposit","inputs":[{"name":"amount","type":"uint256","internalType":"uint256"}],"outputs":[{"name":"","type":"uint256","internalType":"uint256"}],"stateMutability":"payable"},{"type":"function","name":"eip712Domain","inputs":[],"outputs":[{"name":"fields","type":"bytes1","internalType":"bytes1"},{"name":"name","type":"string","internalType":"string"},{"name":"version","type":"string","internalType":"string"},{"name":"chainId","type":"uint256","internalType":"uint256"},{"name":"verifyingContract","type":"address","internalType":"address"},{"name":"salt","type":"bytes32","internalType":"bytes32"},{"name":"extensions","type":"uint256[]","internalType":"uint256[]"}],"stateMutability":"view"},{"type":"function","name":"getBalanceCommitment","inputs":[{"name":"user","type":"address","internalType":"address"}],"outputs":[{"name":"","type":"uint256","internalType":"uint256"}],"stateMutability":"view"},{"type":"function","name":"getMpcPublicKeys","inputs":[],"outputs":[{"name":"","type":"tuple","internalType":"struct BabyJubJub.Affine","components":[{"name":"x","type":"uint256","internalType":"uint256"},{"name":"y","type":"uint256","internalType":"uint256"}]},{"name":"","type":"tuple","internalType":"struct BabyJubJub.Affine","components":[{"name":"x","type":"uint256","internalType":"uint256"},{"name":"y","type":"uint256","internalType":"uint256"}]},{"name":"","type":"tuple","internalType":"struct BabyJubJub.Affine","components":[{"name":"x","type":"uint256","internalType":"uint256"},{"name":"y","type":"uint256","internalType":"uint256"}]}],"stateMutability":"view"},{"type":"function","name":"getNextActionIndex","inputs":[],"outputs":[{"name":"","type":"uint256","internalType":"uint256"}],"stateMutability":"view"},{"type":"function","name":"getQueueSize","inputs":[],"outputs":[{"name":"","type":"uint256","internalType":"uint256"}],"stateMutability":"view"},{"type":"function","name":"isNonceUsed","inputs":[{"name":"sender","type":"address","internalType":"address"},{"name":"nonce","type":"uint256","internalType":"uint256"}],"outputs":[{"name":"","type":"bool","internalType":"bool"}],"stateMutability":"view"},{"type":"function","name":"mpcPk1","inputs":[],"outputs":[{"name":"x","type":"uint256","internalType":"uint256"},{"name":"y","type":"uint256","internalType":"uint256"}],"stateMutability":"view"},{"type":"function","name":"mpcPk2","inputs":[],"outputs":[{"name":"x","type":"uint256","internalType":"uint256"},{"name":"y","type":"uint256","internalType":"uint256"}],"stateMutability":"view"},{"type":"function","name":"mpcPk3","inputs":[],"outputs":[{"name":"x","type":"uint256","internalType":"uint256"},{"name":"y","type":"uint256","internalType":"uint256"}],"stateMutability":"view"},{"type":"function","name":"processMPC","inputs":[{"name":"num_transactions","type":"uint256","internalType":"uint256"},{"name":"commitments","type":"uint256[100]","internalType":"uint256[100]"},{"name":"valid","type":"bool[50]","internalType":"bool[50]"},{"name":"beta","type":"uint256","internalType":"uint256"},{"name":"proof","type":"uint256[4]","internalType":"uint256[4]"}],"outputs":[{"name":"","type":"uint256[50]","internalType":"uint256[50]"}],"stateMutability":"nonpayable"},{"type":"function","name":"readQueue","inputs":[{"name":"num_items","type":"uint256","internalType":"uint256"}],"outputs":[{"name":"","type":"uint256[]","internalType":"uint256[]"},{"name":"","type":"tuple[]","internalType":"struct ActionItem[]","components":[{"name":"action","type":"uint8","internalType":"enum Action"},{"name":"sender","type":"address","internalType":"address"},{"name":"receiver","type":"address","internalType":"address"},{"name":"amount","type":"uint256","internalType":"uint256"}]},{"name":"","type":"tuple[]","internalType":"struct Merces.Ciphertext[]","components":[{"name":"amount","type":"uint256[3]","internalType":"uint256[3]"},{"name":"r","type":"uint256[3]","internalType":"uint256[3]"},{"name":"senderPk","type":"tuple","internalType":"struct BabyJubJub.Affine","components":[{"name":"x","type":"uint256","internalType":"uint256"},{"name":"y","type":"uint256","internalType":"uint256"}]}]}],"stateMutability":"view"},{"type":"function","name":"retrieveFunds","inputs":[{"name":"receiver","type":"address","internalType":"address"}],"outputs":[],"stateMutability":"nonpayable"},{"type":"function","name":"serverVerifier","inputs":[],"outputs":[{"name":"","type":"address","internalType":"contract IVerifierServer"}],"stateMutability":"view"},{"type":"function","name":"supportsInterface","inputs":[{"name":"interfaceId","type":"bytes4","internalType":"bytes4"}],"outputs":[{"name":"","type":"bool","internalType":"bool"}],"stateMutability":"view"},{"type":"function","name":"token","inputs":[],"outputs":[{"name":"","type":"address","internalType":"contract IERC20"}],"stateMutability":"view"},{"type":"function","name":"transfer","inputs":[{"name":"receiver","type":"address","internalType":"address"},{"name":"amountCommitment","type":"uint256","internalType":"uint256"},{"name":"beta","type":"uint256","internalType":"uint256"},{"name":"ciphertext","type":"tuple","internalType":"struct Merces.Ciphertext","components":[{"name":"amount","type":"uint256[3]","internalType":"uint256[3]"},{"name":"r","type":"uint256[3]","internalType":"uint256[3]"},{"name":"senderPk","type":"tuple","internalType":"struct BabyJubJub.Affine","components":[{"name":"x","type":"uint256","internalType":"uint256"},{"name":"y","type":"uint256","internalType":"uint256"}]}]},{"name":"proof","type":"uint256[4]","internalType":"uint256[4]"}],"outputs":[{"name":"","type":"uint256","internalType":"uint256"}],"stateMutability":"nonpayable"},{"type":"function","name":"transferFrom","inputs":[{"name":"sender","type":"address","internalType":"address"},{"name":"receiver","type":"address","internalType":"address"},{"name":"amountCommitment","type":"uint256","internalType":"uint256"},{"name":"beta","type":"uint256","internalType":"uint256"},{"name":"ciphertext","type":"tuple","internalType":"struct Merces.Ciphertext","components":[{"name":"amount","type":"uint256[3]","internalType":"uint256[3]"},{"name":"r","type":"uint256[3]","internalType":"uint256[3]"},{"name":"senderPk","type":"tuple","internalType":"struct BabyJubJub.Affine","components":[{"name":"x","type":"uint256","internalType":"uint256"},{"name":"y","type":"uint256","internalType":"uint256"}]}]},{"name":"proof","type":"uint256[4]","internalType":"uint256[4]"},{"name":"nonce","type":"uint256","internalType":"uint256"},{"name":"deadline","type":"uint256","internalType":"uint256"},{"name":"signature","type":"bytes","internalType":"bytes"}],"outputs":[{"name":"","type":"uint256","internalType":"uint256"}],"stateMutability":"nonpayable"},{"type":"function","name":"usedNonces","inputs":[{"name":"","type":"address","internalType":"address"},{"name":"","type":"uint256","internalType":"uint256"}],"outputs":[{"name":"","type":"bool","internalType":"bool"}],"stateMutability":"view"},{"type":"function","name":"withdraw","inputs":[{"name":"amount","type":"uint256","internalType":"uint256"}],"outputs":[{"name":"","type":"uint256","internalType":"uint256"}],"stateMutability":"nonpayable"},{"type":"event","name":"Deposit","inputs":[{"name":"actionIndex","type":"uint256","indexed":false,"internalType":"uint256"}],"anonymous":false},{"type":"event","name":"EIP712DomainChanged","inputs":[],"anonymous":false},{"type":"event","name":"ProcessedMPC","inputs":[{"name":"actionIndices","type":"uint256[50]","indexed":false,"internalType":"uint256[50]"},{"name":"valid","type":"bool[50]","indexed":false,"internalType":"bool[50]"}],"anonymous":false},{"type":"event","name":"Transfer","inputs":[{"name":"actionIndex","type":"uint256","indexed":false,"internalType":"uint256"}],"anonymous":false},{"type":"event","name":"TransferFrom","inputs":[{"name":"actionIndex","type":"uint256","indexed":false,"internalType":"uint256"},{"name":"sender","type":"address","indexed":true,"internalType":"address"},{"name":"receiver","type":"address","indexed":true,"internalType":"address"}],"anonymous":false},{"type":"event","name":"Withdraw","inputs":[{"name":"actionIndex","type":"uint256","indexed":false,"internalType":"uint256"}],"anonymous":false},{"type":"error","name":"CannotPushNotPresent","inputs":[]},{"type":"error","name":"ContractComp","inputs":[]},{"type":"error","name":"ECDSAInvalidSignature","inputs":[]},{"type":"error","name":"ECDSAInvalidSignatureLength","inputs":[{"name":"length","type":"uint256","internalType":"uint256"}]},{"type":"error","name":"ECDSAInvalidSignatureS","inputs":[{"name":"s","type":"bytes32","internalType":"bytes32"}]},{"type":"error","name":"ExpiredDeadline","inputs":[]},{"type":"error","name":"InvalidAmount","inputs":[]},{"type":"error","name":"InvalidCommitment","inputs":[]},{"type":"error","name":"InvalidMpcAction","inputs":[]},{"type":"error","name":"InvalidPoint","inputs":[]},{"type":"error","name":"InvalidShortString","inputs":[]},{"type":"error","name":"InvalidSignature","inputs":[]},{"type":"error","name":"InvalidTransfer","inputs":[]},{"type":"error","name":"NonceAlreadyUsed","inputs":[]},{"type":"error","name":"NotInPrimeField","inputs":[]},{"type":"error","name":"SafeERC20FailedOperation","inputs":[{"name":"token","type":"address","internalType":"address"}]},{"type":"error","name":"StringTooLong","inputs":[{"name":"str","type":"string","internalType":"string"}]},{"type":"error","name":"Unauthorized","inputs":[]}],"bytecode":{"object":"0x6101e0806040523461044b57614501803803809161001d828561044f565b833981016101608282031261044b5761003582610472565b9061004260208401610472565b9161004f60408501610472565b9361005c60608201610472565b9461006a8460808401610486565b6100778560c08501610486565b90610086866101008601610486565b61014085015190946001600160401b03821161044b57019086601f8301121561044b578151936001600160401b03851161042857604051986100d2601f8701601f19166020018b61044f565b858a5260208a01986020878601011161044b576020975f898881998d83809a01905e8d01015260409b8c8051610108828261044f565b6006815287810190654d657263657360d01b8252825191610129848461044f565b6001835289830191603160f81b835261014181610644565b6101205261014e846107da565b61014052519020918260e05251902080610100524660a052825191898301937f8b73c3c69bb8fe3d512ecc4cf759cc79239f7b179b0ffacaa9a75d522b39400f855283015260608201524660808201523060a082015260a081526101b360c08261044f565b5190206080523060c0526101c6856104d6565b6101cf876104d6565b6101d8896104d6565b6001600160a01b03168061043c57600160ff1960025416176002555b6101c0526001600160a01b0390811661018052166101a05260028054610100600160a81b031916600892831b610100600160a81b031617905581516003559101516004558151600555910151600655815160075591015190558251906102af90600190610261868561044f565b600784526020808501666d65726365733160c81b81528751958693838501985180918a5e840190602d60f81b84830152518092602183015e01015f838201520301601f19810183528261044f565b519020610160528051608081016001600160401b0381118282101761042857825260048152602081015f81528282015f815260608301905f8252600a545f526009602052845f2093519260058410156104145784549051610100600160a81b0360089190911b1660ff949094166001600160a81b0319909116179290921783559051600180840180546001600160a01b039093166001600160a01b0319909316929092179091559051600290920191909155600a805482019055600b5551613bee9081610913823960805181613961015260a05181613a1e015260c05181613932015260e051816139b0015261010051816139d60152610120518161231f0152610140518161234b0152610160518181816102140152612b0d01526101805181818161086d01528181610e5b0152611f5701526101a051818181610faa0152612a0b01526101c05181818161017b01528181610d07015281816119380152612c2c0152f35b634e487b7160e01b5f52602160045260245ffd5b634e487b7160e01b5f52604160045260245ffd5b60ff19600254166002556101f4565b5f80fd5b601f909101601f19168101906001600160401b0382119082101761042857604052565b51906001600160a01b038216820361044b57565b919082604091031261044b57604080519081016001600160401b03811182821017610428576040526020808294805184520151910152565b9081602091031261044b5751801515810361044b5790565b604051631d190e8560e31b815281516004820152602080830151602483015290919073__$fd1bbc507ebce9bb0449be7c85ea578f4f$__9083604481845af49283156105b9575f93610623575b5082156105c4575b8215610549575b505061053a57565b63b8fedf8760e01b5f5260045ffd5b60405163709460d560e11b81528251600482015260209283015160248201529250829060449082905af49081156105b9575f9161058a575b50155f80610532565b6105ac915060203d6020116105b2575b6105a4818361044f565b8101906104be565b5f610581565b503d61059a565b6040513d5f823e3d90fd5b60405163201c51a760e21b81528251600482015260208084015160248301529193509081604481865af49081156105b9575f91610604575b50159161052b565b61061d915060203d6020116105b2576105a4818361044f565b5f6105fc565b61063d91935060203d6020116105b2576105a4818361044f565b915f610523565b908151602081105f146106be575090601f81511161067e57602081519101516020821061066f571790565b5f198260200360031b1b161790565b604460209160405192839163305a27a960e01b83528160048401528051918291826024860152018484015e5f828201840152601f01601f19168101030190fd5b6001600160401b038111610428575f54600181811c911680156107d0575b60208210146107bc57601f811161078a575b50602092601f821160011461072b57928192935f92610720575b50508160011b915f199060031b1c1916175f5560ff90565b015190505f80610708565b601f198216935f8052805f20915f5b868110610772575083600195961061075a575b505050811b015f5560ff90565b01515f1960f88460031b161c191690555f808061074d565b9192602060018192868501518155019401920161073a565b5f8052601f60205f20910160051c810190601f830160051c015b8181106107b157506106ee565b5f81556001016107a4565b634e487b7160e01b5f52602260045260245ffd5b90607f16906106dc565b908151602081105f14610805575090601f81511161067e57602081519101516020821061066f571790565b6001600160401b03811161042857600154600181811c91168015610908575b60208210146107bc57601f81116108d5575b50602092601f821160011461087457928192935f92610869575b50508160011b915f199060031b1c19161760015560ff90565b015190505f80610850565b601f1982169360015f52805f20915f5b8681106108bd57508360019596106108a5575b505050811b0160015560ff90565b01515f1960f88460031b161c191690555f8080610897565b91926020600181928685015181550194019201610884565b60015f52601f60205f20910160051c810190601f830160051c015b8181106108fd5750610836565b5f81556001016108f0565b90607f169061082456fe60a0806040526004361015610012575f80fd5b5f905f3560e01c90816301ffc9a714612ce5575080632ad2205214612bca5780632e1a7d4d14612b33578063326175b814612a9257806351b1e52414612a2f578063547ecebf146129c15780635fdd52e41461297f5780636a8a68941461290b5780636d77cd05146124365780637564ba21146123f457806384b0196e146122e957806391f3a33114612224578063a135dff314611c94578063aa5e5d9514610e7f578063b51ac8a214610e10578063b6b55f2514610c4b578063c1a7521014610c08578063c814f73d14610376578063cab7e8eb14610304578063ce348c6f146102c4578063d915433c1461027a578063d93c0d9e14610237578063e32e13eb146101de578063faf3a304146101a25763fc0c546a14610131575f80fd5b3461019f57807ffffffffffffffffffffffffffffffffffffffffffffffffffffffffffffffffc36011261019f57602060405173ffffffffffffffffffffffffffffffffffffffff7f0000000000000000000000000000000000000000000000000000000000000000168152f35b80fd5b503461019f57807ffffffffffffffffffffffffffffffffffffffffffffffffffffffffffffffffc36011261019f576020600b54604051908152f35b503461019f57807ffffffffffffffffffffffffffffffffffffffffffffffffffffffffffffffffc36011261019f5760206040517f00000000000000000000000000000000000000000000000000000000000000008152f35b503461019f57807ffffffffffffffffffffffffffffffffffffffffffffffffffffffffffffffffc36011261019f57604060075460085482519182526020820152f35b503461019f5760207ffffffffffffffffffffffffffffffffffffffffffffffffffffffffffffffffc36011261019f5760206102bc6102b7612d57565b6131d5565b604051908152f35b503461019f57807ffffffffffffffffffffffffffffffffffffffffffffffffffffffffffffffffc36011261019f5760206102bc600a54600b5490613484565b503461019f5760407ffffffffffffffffffffffffffffffffffffffffffffffffffffffffffffffffc36011261019f5760ff604060209273ffffffffffffffffffffffffffffffffffffffff610358612d57565b168152600e8452818120602435825284522054166040519015158152f35b503461019f576102607ffffffffffffffffffffffffffffffffffffffffffffffffffffffffffffffffc36011261019f576103af612d57565b6024359073ffffffffffffffffffffffffffffffffffffffff821690818303610c045760443592606435906101007fffffffffffffffffffffffffffffffffffffffffffffffffffffffffffffff7c3601126109a25736610204116109a25761020435916102243595610244359667ffffffffffffffff8811610bac5736602389011215610bac5787600401359367ffffffffffffffff8511610c0057366024868b010111610c0057814211610bd85773ffffffffffffffffffffffffffffffffffffffff871696878b52600e60205260408b20878c5260205260ff60408c205416610bb0579061049f91613491565b6104a8826134da565b60407ffffffffffffffffffffffffffffffffffffffffffffffffffffffffffffffebc360112610bac57604051946104df86612f1a565b61014435948587528a610164359788602082015273__$fd1bbc507ebce9bb0449be7c85ea578f4f$__6040517fe8c874280000000000000000000000000000000000000000000000000000000081526020818061055086600483019190916020806040830194805184520151910152565b0381855af4938415610b7f5793610b8b575b508215610b07575b8215610a73575b5050610a4b57918a91888894608435610589906134da565b60a4359c6105968e6134da565b60c435956105a3876134da565b60e4356080526080516105b5906134da565b8d61010435966105c4886134da565b8c610124359a6105d38c6134da565b604051906020820192606060848537606060e4608085013760e0830152610100820152610100815261060761012082612f53565b519020906040519160208301937f5b6c140379c86d7912c86d40ef66cc125342e8283b1f795b9a29b092b5d91dab855288604085015260608401528c608084015260a08301528c60c08301528760e0830152610100820152610100815261067061012082612f53565b51902061067b61391b565b90604051917f19010000000000000000000000000000000000000000000000000000000000008352600283015260228201526042902092806106bc81612f94565b93604051946106cb9086612f53565b81855260240160208501378201602001526106e591613a44565b6106ee91613a7e565b73ffffffffffffffffffffffffffffffffffffffff1603610a2357908b9594939291898752600e602052604087209087526020526040862060017fffffffffffffffffffffffffffffffffffffffffffffffffffffffffffffff0082541617905561077960405161075e81612eb5565b600381528a60208201528b6040820152856060820152613388565b9a6040519461078786612f36565b88865289602087015260408601526084356060860152608051608086015260a085015260c084015260e08301526101008201526003546101208201526004546101408201526005546101608201526006546101808201526007546101a08201526008546101c082015260405160208101829085905b600f8210610a0957505050806101e0610821925261081c61020082612f53565b613895565b908390600e848401815b6109b5575050517f30644e72e131a029b85045b68181585d2833e84879b9709143e1f593f000000191089073ffffffffffffffffffffffffffffffffffffffff7f000000000000000000000000000000000000000000000000000000000000000016916040519361089b85612efe565b845260208401526040830152803b156109b1576108eb91839160405180809581947f98c13db90000000000000000000000000000000000000000000000000000000083526101846004840161352b565b03915afa80156109a65761098d575b50859052600d60205260408620956084815b6003811061097957505060e4905b60038110610962575050856007916006602098015501557fa6a0ba324e6e451efbac233033ef783b3036dd37503d576bc8dacaf986e28da784604051858152a3604051908152f35b600190602083359301926003828b0101550161091a565b60019060208335930192818b01550161090c565b8161099791612f53565b6109a257855f6108fa565b8580fd5b6040513d84823e3d90fd5b8280fd5b919281949596506109f57f30644e72e131a029b85045b68181585d2833e84879b9709143e1f593f0000001916109ee6109fd948761390a565b5190613180565b8309936138df565b8b95949392918161082b565b825181528c965060209283019260019290920191016107fc565b60048c7f8baa579f000000000000000000000000000000000000000000000000000000008152fd5b60048b7fb8fedf87000000000000000000000000000000000000000000000000000000008152fd5b6040517fe128c1aa0000000000000000000000000000000000000000000000000000000081528251600482015260209283015160248201529250829060449082905af4908115610afc578c91610acd575b50155f80610571565b610aef915060203d602011610af5575b610ae78183612f53565b81019061387d565b5f610ac4565b503d610add565b6040513d8e823e3d90fd5b6040517f8071469c0000000000000000000000000000000000000000000000000000000081528251600482015260208084015160248301529193508e9181604481875af4918215610b7f5791610b60575b50159161056a565b610b79915060203d602011610af557610ae78183612f53565b5f610b58565b604051903d90823e3d90fd5b610ba591935060203d602011610af557610ae78183612f53565b915f610562565b8880fd5b60048b7f1fb09b80000000000000000000000000000000000000000000000000000000008152fd5b60048a7ff87d9271000000000000000000000000000000000000000000000000000000008152fd5b8980fd5b8380fd5b503461019f57807ffffffffffffffffffffffffffffffffffffffffffffffffffffffffffffffffc36011261019f576040600a54600b5482519182526020820152f35b5060207ffffffffffffffffffffffffffffffffffffffffffffffffffffffffffffffffc36011261019f5760043590610c838261333b565b60ff6002541680610e06575b610dde578115610dde57610cc3604051610ca881612eb5565b60018152826020820152336040820152836060820152613388565b917f4d6ce1e535dbade1c23defba91e23b8f791ce5edc0cc320257a2b364e4e384266020604051858152a160ff6002541615610d05575b602083604051908152f35b7f000000000000000000000000000000000000000000000000000000000000000090604051907f23b872dd000000000000000000000000000000000000000000000000000000008452336004523060245260445260208360648180865af1906001845114821615610dbd575b60405282606052610cfa577f5274afe700000000000000000000000000000000000000000000000000000000825273ffffffffffffffffffffffffffffffffffffffff16600452602490fd5b906001811516610dd557823b15153d15161690610d71565b503d83823e3d90fd5b807f2c5211c60000000000000000000000000000000000000000000000000000000060049252fd5b5081341415610c8f565b503461019f57807ffffffffffffffffffffffffffffffffffffffffffffffffffffffffffffffffc36011261019f57602060405173ffffffffffffffffffffffffffffffffffffffff7f0000000000000000000000000000000000000000000000000000000000000000168152f35b503461019f576113807ffffffffffffffffffffffffffffffffffffffffffffffffffffffffffffffffc36011261019f5760043536610ca411611c9057366112e411611c90576112e43591366113841161019f576106409283604051610ee58282612f53565b369037610ef0613225565b60328311611c6857604051612580610f088183612f53565b8036833760405194610f1a8787612f53565b86368737845b81811061138257505b603281106111415750604051908285602084015b61012c821061112b575050508152610f5b9061081c6125a082612f53565b9061012b908490848401835b6110ee57507f30644e72e131a029b85045b68181585d2833e84879b9709143e1f593f000000192505190089073ffffffffffffffffffffffffffffffffffffffff7f0000000000000000000000000000000000000000000000000000000000000000169160405193610fd885612efe565b845260208401526040830152803b156109b1576040517f98c13db900000000000000000000000000000000000000000000000000000000815291839183916080611304600485013783608484015b600382106110d2575050508160e4915afa80156109a6579082916110bd575b5050604051906110558284612e17565b80610ca48386015b6032841061109c5786867f98260fc8883baa863b09be1de9e73d5317d1aa060f783363c71c625e61df886c610c8088a161109a6040518092612e17565bf35b8135801515809103610c04576020828192600194520192019301929061105d565b816110c791612f53565b61019f57805f611045565b8251815287955086945060209283019260019092019101611026565b90917f30644e72e131a029b85045b68181585d2833e84879b9709143e1f593f00000016109f5611122926109ee878761318d565b92919083610f67565b6020806001928551815201930191019091610f3d565b8060011b8115908281046002148217156112d25761115e8161316e565b3561135a57600181018091116112d2576111779061316e565b356113325760068202908282046006141715611305577f087f763a403ee4109adc79d4a7638af3cb8cb6a33f5b027bd1476ffa97361acb6111b8828661318d565b52600181018082116112d2576111ef7f087f763a403ee4109adc79d4a7638af3cb8cb6a33f5b027bd1476ffa97361acb918661318d565b52600281018082116112d2576112267f087f763a403ee4109adc79d4a7638af3cb8cb6a33f5b027bd1476ffa97361acb918661318d565b52600381018082116112d25761125d7f087f763a403ee4109adc79d4a7638af3cb8cb6a33f5b027bd1476ffa97361acb918661318d565b52600481018082116112d2576112947f087f763a403ee4109adc79d4a7638af3cb8cb6a33f5b027bd1476ffa97361acb918661318d565b526112a66112a18361314e565b613161565b156112ff5760015b600582018092116112d257906112cb60ff6001949316918661318d565b5201610f29565b6024877f4e487b710000000000000000000000000000000000000000000000000000000081526011600452fd5b856112ae565b6024867f4e487b710000000000000000000000000000000000000000000000000000000081526011600452fd5b6004867fc06789fa000000000000000000000000000000000000000000000000000000008152fd5b6004877fc06789fa000000000000000000000000000000000000000000000000000000008152fd5b61138e6112a18261314e565b15611c605760ff60015b16600b546032831015611c33578260051b8901526113b4613561565b6060810180519180516005811015611c06576001036117485760409150016113f273ffffffffffffffffffffffffffffffffffffffff8251166131d5565b918460011b9185159386840460021485171561171b576114118461316e565b356116f3578b916001850180951193846116175790602086959493928f61144361143d6114899a61316e565b356134da565b6040519161145083612f1a565b825282820152604051809881927f8b0fc30c0000000000000000000000000000000000000000000000000000000083526004830161319f565b038173__$58a96acb294a42983af7110ac717d64ca3$__5af49586156116e657908e9182976116ac575b506114c06112a18b61314e565b611671575b50506006880295888704600614171561164457846114e3878d61318d565b52600186018087116116175761151a7f087f763a403ee4109adc79d4a7638af3cb8cb6a33f5b027bd1476ffa97361acb918d61318d565b526002860180871161161757611530908c61318d565b526115ea576115bd576115429061316e565b35600383018084116115ea57611558908961318d565b52600482018083116115bd5761156e908861318d565b52600581018091116115905790611588600193928761318d565b525b01610f20565b6024887f4e487b710000000000000000000000000000000000000000000000000000000081526011600452fd5b60248a7f4e487b710000000000000000000000000000000000000000000000000000000081526011600452fd5b60248b7f4e487b710000000000000000000000000000000000000000000000000000000081526011600452fd5b60248e7f4e487b710000000000000000000000000000000000000000000000000000000081526011600452fd5b60248d7f4e487b710000000000000000000000000000000000000000000000000000000081526011600452fd5b92508093509160408473ffffffffffffffffffffffffffffffffffffffff6116988861316e565b359351168152600c60205220558c5f6114c5565b915095506020813d82116116de575b816116c860209383612f53565b810103126116da578d9051955f6114b3565b5f80fd5b3d91506116bb565b8e604051903d90823e3d90fd5b60048c7fc06789fa000000000000000000000000000000000000000000000000000000008152fd5b60248c7f4e487b710000000000000000000000000000000000000000000000000000000081526011600452fd5b80516005811015611c06576002036119bf5760200173ffffffffffffffffffffffffffffffffffffffff8151168a52600c60205260408a2054908560011b928615948785046002148617156116445760018501808611611617576117ab9061316e565b3561199757916117c894939160208e948561144361143d8961316e565b038173__$58a96acb294a42983af7110ac717d64ca3$__5af49586156116e657908e918297611961575b506117ff6112a18b61314e565b6118ca575b5050506006870294878604600614171561171b57611822858b61318d565b526115bd576118309061316e565b35600183018084116115ea57611846908961318d565b52600282018083116115bd5761187d7f087f763a403ee4109adc79d4a7638af3cb8cb6a33f5b027bd1476ffa97361acb918961318d565b52600382018083116115bd5761189482918961318d565b52600482018083116115bd576118aa908861318d565b526005810180911161159057906118c4600193928761318d565b5261158a565b9091935073ffffffffffffffffffffffffffffffffffffffff82946118ee8761316e565b35828251168552600c6020526040852055511690519060ff600254165f14611931579180808093611929955af1611923612fce565b50612ffd565b5f8c81611804565b61195c92507f0000000000000000000000000000000000000000000000000000000000000000613271565b611929565b915095506020813d821161198f575b8161197d60209383612f53565b810103126116da578d9051955f6117f2565b3d9150611970565b60048d7fc06789fa000000000000000000000000000000000000000000000000000000008152fd5b80929150516005811015611bd957600303611bb1576020820173ffffffffffffffffffffffffffffffffffffffff8151168a52600c6020526040808b2054930190611a2073ffffffffffffffffffffffffffffffffffffffff8351166131d5565b8660011b8781046002148815171561164457611a3e61143d8261316e565b8c60018201948583119485611b8357908f91611a5c61143d8961316e565b611a686112a18d61314e565b611b18575b50505060068902968988046006148a151715611aeb57611a8d888e61318d565b5261164457611a9b9061316e565b356001860180871161161757611ab1908c61318d565b526002850180861161164457611ac7908b61318d565b526115bd57611ad59061316e565b35600383018084116115ea57611894908961318d565b60248f7f4e487b710000000000000000000000000000000000000000000000000000000081526011600452fd5b919550915073ffffffffffffffffffffffffffffffffffffffff611b3b8461316e565b359151168552600c6020526040852055839060408573ffffffffffffffffffffffffffffffffffffffff611b6e8961316e565b359351168152600c60205220558d5f80611a6d565b5060248f7f4e487b710000000000000000000000000000000000000000000000000000000081526011600452fd5b6004897f27606320000000000000000000000000000000000000000000000000000000008152fd5b60248a7f4e487b710000000000000000000000000000000000000000000000000000000081526021600452fd5b60248b7f4e487b710000000000000000000000000000000000000000000000000000000081526021600452fd5b6024887f4e487b710000000000000000000000000000000000000000000000000000000081526032600452fd5b60ff86611398565b6004827f27606320000000000000000000000000000000000000000000000000000000008152fd5b5080fd5b50346116da576101e07ffffffffffffffffffffffffffffffffffffffffffffffffffffffffffffffffc3601126116da57611ccd612d57565b604435602435610100367fffffffffffffffffffffffffffffffffffffffffffffffffffffffffffffff9c01126116da57366101e4116116da57611d118333613491565b611d1a816134da565b60407ffffffffffffffffffffffffffffffffffffffffffffffffffffffffffffffedc3601126116da5760405191611d5183612f1a565b610124358084526101443560208086018281526040517fe8c87428000000000000000000000000000000000000000000000000000000008152875160048201529051602482015291959294929073__$fd1bbc507ebce9bb0449be7c85ea578f4f$__9083604481845af492831561208c575f93612203575b50821561218b575b8215612112575b50506120ea5760643594611deb866134da565b608435611df7816134da565b60a43590611e04826134da565b60c43590611e11826134da565b60e43591611e1e836134da565b611e6c6101043595611e2f876134da565b73ffffffffffffffffffffffffffffffffffffffff60405191611e5183612eb5565b60038352336020840152166040820152876060820152613388565b9960405196611e7a88612f36565b8988528a602089015260408801526060870152608086015260a085015260c084015260e08301526101008201526003546101208201526004546101408201526005546101608201526006546101808201526007546101a08201526008546101c08201526040516020810182905f905b600f82106120d457505050806101e0611f09925261081c61020082612f53565b90600e905f90848401835b61209757507f30644e72e131a029b85045b68181585d2833e84879b9709143e1f593f000000192505190089073ffffffffffffffffffffffffffffffffffffffff7f0000000000000000000000000000000000000000000000000000000000000000169160405193611f8585612efe565b845260208401526040830152803b156116da57611fd5915f9160405180809581947f98c13db90000000000000000000000000000000000000000000000000000000083526101646004840161352b565b03915afa801561208c57612077575b50828452600d60205260408420936064815b6003811061206357505060c4905b6003811061204c575050836007916006602096015501557f248dd4076d0a389d795107efafd558ce7f31ae37b441ccb9a599c60868f480d582604051838152a1604051908152f35b600190602083359301926003828901015501612004565b600190602083359301928189015501611ff6565b6120849194505f90612f53565b5f925f611fe4565b6040513d5f823e3d90fd5b90917f30644e72e131a029b85045b68181585d2833e84879b9709143e1f593f00000016109f56120cb926109ee878761390a565b92919083611f14565b6020806001928551815201930191019091611ee9565b7fb8fedf87000000000000000000000000000000000000000000000000000000005f5260045ffd5b6040517fe128c1aa0000000000000000000000000000000000000000000000000000000081528251600482015260209283015160248201529250829060449082905af490811561208c575f9161216c575b50155f80611dd8565b612185915060203d602011610af557610ae78183612f53565b5f612163565b6040517f8071469c0000000000000000000000000000000000000000000000000000000081528251600482015260208084015160248301529193509081604481865af490811561208c575f916121e4575b501591611dd1565b6121fd915060203d602011610af557610ae78183612f53565b5f6121dc565b61221d91935060203d602011610af557610ae78183612f53565b915f611dc9565b346116da575f7ffffffffffffffffffffffffffffffffffffffffffffffffffffffffffffffffc3601126116da5761225a61309e565b5061226361309e565b5061226c61309e565b5060c060405161227b81612f1a565b60035481526004546020820190815260405161229681612f1a565b600554815260065460208201908152604051916122b283612f1a565b60075483526008549360208401948552604051955186525160208601525160408501525160608401525160808301525160a0820152f35b346116da575f7ffffffffffffffffffffffffffffffffffffffffffffffffffffffffffffffffc3601126116da576123c26123437f0000000000000000000000000000000000000000000000000000000000000000613637565b6123f061236f7f00000000000000000000000000000000000000000000000000000000000000006137ad565b6123d060405191612381602084612f53565b5f83525f3681376040519586957f0f00000000000000000000000000000000000000000000000000000000000000875260e0602088015260e0870190612dd4565b908582036040870152612dd4565b904660608501523060808501525f60a085015283820360c0850152612d7a565b0390f35b346116da575f7ffffffffffffffffffffffffffffffffffffffffffffffffffffffffffffffffc3601126116da57604060055460065482519182526020820152f35b346116da5760207ffffffffffffffffffffffffffffffffffffffffffffffffffffffffffffffffc3601126116da57600435612477600a54600b5490613484565b808211612903575b5061248981613062565b906124976040519283612f53565b8082527fffffffffffffffffffffffffffffffffffffffffffffffffffffffffffffffe06124c482613062565b015f5b8181106128ec5750506124d981613062565b916124e76040519384612f53565b8183527fffffffffffffffffffffffffffffffffffffffffffffffffffffffffffffffe061251483613062565b0136602085013761252482613062565b916125326040519384612f53565b8083527fffffffffffffffffffffffffffffffffffffffffffffffffffffffffffffffe061255f82613062565b015f5b81811061288e575050600b54905f9173__$96414a38f905666ffb62ad69c724988e3b$__905b8284106126dd576125a9878787604051938493606085526060850190612d7a565b8381036020850152602080835192838152019201905f5b81811061263a575050508281036040840152602080835192838152019201905f5b8181106125ef575050500390f35b919350916020610100600192826040885161260b848251612dad565b61261c838201516060860190612dad565b0151805160c0840152015160e08201520194019101918493926125e1565b91809495509290925180519060058210156126b0578260606080926020946001965273ffffffffffffffffffffffffffffffffffffffff85820151168584015273ffffffffffffffffffffffffffffffffffffffff604082015116604084015201516060820152019401910191859493926125c0565b7f4e487b71000000000000000000000000000000000000000000000000000000005f52602160045260245ffd5b806126e885896130b6565b526040517feaceeec200000000000000000000000000000000000000000000000000000000815260096004820152816024820152608081604481865af490811561208c575f91612817575b5061273e85876130b6565b5261274984866130b6565b50805f52600d60205260405f206040519061276382612efe565b61276c81613118565b825261277a60038201613118565b602083015260076040519161278e83612f1a565b600681015483520154602082015260408201526127ab85886130b6565b526127b684876130b6565b507fffffffffffffffffffffffffffffffffffffffffffffffffffffffffffffffff81146127ea5760019384019301612588565b7f4e487b71000000000000000000000000000000000000000000000000000000005f52601160045260245ffd5b90506080813d8211612886575b8161283160809383612f53565b810103126116da576040519061284682612eb5565b80519060058210156116da576060918352612863602082016130f7565b6020840152612874604082016130f7565b60408401520151606082015288612733565b3d9150612824565b60209060405161289d81612efe565b60606040516128ac8282612f53565b813682378252604051906128c08183612f53565b368237838201526040516128d381612f1a565b5f81525f84820152604082015282828801015201612562565b6020906128f761307a565b828287010152016124c7565b90508161247f565b346116da5760407ffffffffffffffffffffffffffffffffffffffffffffffffffffffffffffffffc3601126116da5773ffffffffffffffffffffffffffffffffffffffff612957612d57565b165f52600e60205260405f206024355f52602052602060ff60405f2054166040519015158152f35b346116da575f7ffffffffffffffffffffffffffffffffffffffffffffffffffffffffffffffffc3601126116da57604060035460045482519182526020820152f35b346116da575f7ffffffffffffffffffffffffffffffffffffffffffffffffffffffffffffffffc3601126116da57602060405173ffffffffffffffffffffffffffffffffffffffff7f0000000000000000000000000000000000000000000000000000000000000000168152f35b346116da5760207ffffffffffffffffffffffffffffffffffffffffffffffffffffffffffffffffc3601126116da5773ffffffffffffffffffffffffffffffffffffffff612a7b612d57565b165f52600c602052602060405f2054604051908152f35b346116da5760407ffffffffffffffffffffffffffffffffffffffffffffffffffffffffffffffffc3601126116da57612ad1612acc612d28565b612e3e565b158015612b07575b612adf57005b7fccae95ad000000000000000000000000000000000000000000000000000000005f5260045ffd5b506024357f00000000000000000000000000000000000000000000000000000000000000001415612ad9565b346116da5760207ffffffffffffffffffffffffffffffffffffffffffffffffffffffffffffffffc3601126116da576020612b99600435612b738161333b565b60405190612b8082612eb5565b6002825233848301525f60408301526060820152613388565b7f5b6b431d4476a211bb7d41c20d1aab9ae2321deee0d20be3d9fc9b1093fa6e3d82604051838152a1604051908152f35b346116da5760207ffffffffffffffffffffffffffffffffffffffffffffffffffffffffffffffffc3601126116da57612c01612d57565b612c09613225565b60025460ff1615612c2a575f808080612c289447905af1611923612fce565b005b7f0000000000000000000000000000000000000000000000000000000000000000604051917f70a0823100000000000000000000000000000000000000000000000000000000835230600484015260208360248173ffffffffffffffffffffffffffffffffffffffff86165afa91821561208c575f92612caf575b612c289350613271565b91506020833d602011612cdd575b81612cca60209383612f53565b810103126116da57612c28925191612ca5565b3d9150612cbd565b346116da5760207ffffffffffffffffffffffffffffffffffffffffffffffffffffffffffffffffc3601126116da57602090612d22612acc612d28565b15158152f35b600435907fffffffff00000000000000000000000000000000000000000000000000000000821682036116da57565b6004359073ffffffffffffffffffffffffffffffffffffffff821682036116da57565b90602080835192838152019201905f5b818110612d975750505090565b8251845260209384019390920191600101612d8a565b905f905b60038210612dbe57505050565b6020806001928551815201930191019091612db1565b907fffffffffffffffffffffffffffffffffffffffffffffffffffffffffffffffe0601f602080948051918291828752018686015e5f8582860101520116010190565b905f905b60328210612e2857505050565b6020806001928551815201930191019091612e1b565b7fffffffff00000000000000000000000000000000000000000000000000000000167fd93c9fa9000000000000000000000000000000000000000000000000000000008114908115612e8e575090565b7f01ffc9a70000000000000000000000000000000000000000000000000000000091501490565b6080810190811067ffffffffffffffff821117612ed157604052565b7f4e487b71000000000000000000000000000000000000000000000000000000005f52604160045260245ffd5b6060810190811067ffffffffffffffff821117612ed157604052565b6040810190811067ffffffffffffffff821117612ed157604052565b6101e0810190811067ffffffffffffffff821117612ed157604052565b90601f7fffffffffffffffffffffffffffffffffffffffffffffffffffffffffffffffe0910116810190811067ffffffffffffffff821117612ed157604052565b67ffffffffffffffff8111612ed157601f017fffffffffffffffffffffffffffffffffffffffffffffffffffffffffffffffe01660200190565b3d15612ff8573d90612fdf82612f94565b91612fed6040519384612f53565b82523d5f602084013e565b606090565b1561300457565b60646040517f08c379a000000000000000000000000000000000000000000000000000000000815260206004820152601560248201527f546f6b656e207472616e73666572206661696c656400000000000000000000006044820152fd5b67ffffffffffffffff8111612ed15760051b60200190565b6040519061308782612eb5565b5f6060838281528260208201528260408201520152565b604051906130ab82612f1a565b5f6020838281520152565b80518210156130ca5760209160051b010190565b7f4e487b71000000000000000000000000000000000000000000000000000000005f52603260045260245ffd5b519073ffffffffffffffffffffffffffffffffffffffff821682036116da57565b60405191905f835b6003821061313857505050613136606083612f53565b565b6001602081928554815201930191019091613120565b60328110156130ca5760051b610ca40190565b3580151581036116da5790565b60648110156130ca5760051b60240190565b919082018092116127ea57565b9061012c8110156130ca5760051b0190565b6060810192915f825b600282106131bf57505050604063deadbeef910152565b60208060019285518152019301910190916131a8565b73ffffffffffffffffffffffffffffffffffffffff165f52600c60205260405f205480156132005790565b507f087f763a403ee4109adc79d4a7638af3cb8cb6a33f5b027bd1476ffa97361acb90565b73ffffffffffffffffffffffffffffffffffffffff60025460081c16330361324957565b7f82b42900000000000000000000000000000000000000000000000000000000005f5260045ffd5b9173ffffffffffffffffffffffffffffffffffffffff604051927fa9059cbb000000000000000000000000000000000000000000000000000000005f521660045260245260205f60448180865af19060015f511482161561331a575b604052156132d85750565b73ffffffffffffffffffffffffffffffffffffffff907f5274afe7000000000000000000000000000000000000000000000000000000005f521660045260245ffd5b90600181151661333257823b15153d151616906132cd565b503d5f823e3d90fd5b8015908115613374575b5061334c57565b7f2c5211c6000000000000000000000000000000000000000000000000000000005f5260045ffd5b69ffffffffffffffffffff9150115f613345565b805160058110156126b0571561345c57600a545f52600960205260405f2090805160058110156126b05760029160609184547fffffffffffffffffffffff00000000000000000000000000000000000000000060ff74ffffffffffffffffffffffffffffffffffffffff00602086015160081b1693169116171784556001840173ffffffffffffffffffffffffffffffffffffffff6040830151167fffffffffffffffffffffffff00000000000000000000000000000000000000008254161790550151910155600a5460018101600a5590565b7fe5c28924000000000000000000000000000000000000000000000000000000005f5260045ffd5b919082039182116127ea57565b73ffffffffffffffffffffffffffffffffffffffff9081169116146134b257565b7f2f352531000000000000000000000000000000000000000000000000000000005f5260045ffd5b7f30644e72e131a029b85045b68181585d2833e84879b9709143e1f593f0000001111561350357565b7f2d8aa1c8000000000000000000000000000000000000000000000000000000005f5260045ffd5b608090939291938160e08201958237015f905b6003821061354b57505050565b602080600192855181520193019101909161353e565b61356961307a565b50600a5490600b5480921461361157815f52600960205260405f206040519061359182612eb5565b80549060ff821660058110156126b05760029273ffffffffffffffffffffffffffffffffffffffff91855260081c16602084015273ffffffffffffffffffffffffffffffffffffffff600182015416604084015201546060820152915f5260096020525f60026040822082815582600182015501556001600b5401600b55565b905060405161361f81612eb5565b5f81525f60208201525f60408201525f606082015290565b60ff81146136965760ff811690601f821161366e576040519161365b604084612f53565b6020808452838101919036833783525290565b7fb3512b0c000000000000000000000000000000000000000000000000000000005f5260045ffd5b506040515f5f548060011c91600182169182156137a3575b60208410831461377657838552849290811561373957506001146136dc575b6136d992500382612f53565b90565b505f80805290917f290decd9548b62a8d60345a988386fc84ba6bc95484008f6362f93160ef3e5635b81831061371d5750509060206136d9928201016136cd565b6020919350806001915483858801015201910190918392613705565b602092506136d99491507fffffffffffffffffffffffffffffffffffffffffffffffffffffffffffffff001682840152151560051b8201016136cd565b7f4e487b71000000000000000000000000000000000000000000000000000000005f52602260045260245ffd5b92607f16926136ae565b60ff81146137d15760ff811690601f821161366e576040519161365b604084612f53565b506040515f6001548060011c9160018216918215613873575b6020841083146137765783855284929081156137395750600114613814576136d992500382612f53565b5060015f90815290917fb10e2d527612073b26eecdfd717e6a320cf44b4afac2b0732d9fcbe2b7fa0cf65b8183106138575750509060206136d9928201016136cd565b602091935080600191548385880101520191019091839261383f565b92607f16926137ea565b908160209103126116da575180151581036116da5790565b5f60208092604051918183925191829101835e8101838152039060025afa1561208c577f1fffffffffffffffffffffffffffffffffffffffffffffffffffffffffffffff5f511690565b80156127ea577fffffffffffffffffffffffffffffffffffffffffffffffffffffffffffffffff0190565b90600f8110156130ca5760051b0190565b73ffffffffffffffffffffffffffffffffffffffff7f000000000000000000000000000000000000000000000000000000000000000016301480613a1b575b15613983577f000000000000000000000000000000000000000000000000000000000000000090565b60405160208101907f8b73c3c69bb8fe3d512ecc4cf759cc79239f7b179b0ffacaa9a75d522b39400f82527f000000000000000000000000000000000000000000000000000000000000000060408201527f000000000000000000000000000000000000000000000000000000000000000060608201524660808201523060a082015260a08152613a1560c082612f53565b51902090565b507f0000000000000000000000000000000000000000000000000000000000000000461461395a565b8151919060418303613a7457613a6d9250602082015190606060408401519301515f1a90613b29565b9192909190565b50505f9160029190565b60048110156126b05780613a90575050565b60018103613ac0577ff645eedf000000000000000000000000000000000000000000000000000000005f5260045ffd5b60028103613af457507ffce698f7000000000000000000000000000000000000000000000000000000005f5260045260245ffd5b600314613afe5750565b7fd78bce0c000000000000000000000000000000000000000000000000000000005f5260045260245ffd5b91907f7fffffffffffffffffffffffffffffff5d576e7357a4501ddfe92f46681b20a08411613bad579160209360809260ff5f9560405194855216868401526040830152606082015282805260015afa1561208c575f5173ffffffffffffffffffffffffffffffffffffffff811615613ba357905f905f90565b505f906001905f90565b5050505f916003919056fea26469706673582212200c33175ca765f2aa5912033685039c8f83a7d46def57b68d4e9b53402584b70c64736f6c634300081e0033","linkReferences":{"lib/babyjubjub-solidity/src/BabyJubJub.sol":{"BabyJubJub":[{"start":1274,"length":20},{"start":3592,"length":20},{"start":9907,"length":20}]},"src/ActionQueue.sol":{"ActionQueueLib":[{"start":11910,"length":20}]},"src/Poseidon2.sol":{"Poseidon2T2_BN254":[{"start":7584,"length":20},{"start":8415,"length":20}]}}},"methodIdentifiers":{"DOMAIN_TAG()":"e32e13eb","actionQueue()":"c1a75210","balanceCommitments(address)":"51b1e524","clientVerifier()":"b51ac8a2","contractCompCheck(bytes4,bytes32)":"326175b8","deposit(uint256)":"b6b55f25","eip712Domain()":"84b0196e","getBalanceCommitment(address)":"d915433c","getMpcPublicKeys()":"91f3a331","getNextActionIndex()":"faf3a304","getQueueSize()":"ce348c6f","isNonceUsed(address,uint256)":"cab7e8eb","mpcPk1()":"5fdd52e4","mpcPk2()":"7564ba21","mpcPk3()":"d93c0d9e","processMPC(uint256,uint256[100],bool[50],uint256,uint256[4])":"aa5e5d95","readQueue(uint256)":"6d77cd05","retrieveFunds(address)":"2ad22052","serverVerifier()":"547ecebf","supportsInterface(bytes4)":"01ffc9a7","token()":"fc0c546a","transfer(address,uint256,uint256,(uint256[3],uint256[3],(uint256,uint256)),uint256[4])":"a135dff3","transferFrom(address,address,uint256,uint256,(uint256[3],uint256[3],(uint256,uint256)),uint256[4],uint256,uint256,bytes)":"c814f73d","usedNonces(address,uint256)":"6a8a6894","withdraw(uint256)":"2e1a7d4d"},"id":40}