{"abi":[{"type":"constructor","inputs":[{"name":"_clientVerifier","type":"address","internalType":"address"},{"name":"_serverVerifier","type":"address","internalType":"address"},{"name":"_mpcAddress","type":"address","internalType":"address"},{"name":"_tokenAddress","type":"address","internalType":"address"},{"name":"_mpcPk1","type":"tuple","internalType":"struct BabyJubJub.Affine","components":[{"name":"x","type":"uint256","internalType":"uint256"},{"name":"y","type":"uint256","internalType":"uint256"}]},{"name":"_mpcPk2","type":"tuple","internalType":"struct BabyJubJub.Affine","components":[{"name":"x","type":"uint256","internalType":"uint256"},{"name":"y","type":"uint256","internalType":"uint256"}]},{"name":"_mpcPk3","type":"tuple","internalType":"struct BabyJubJub.Affine","components":[{"name":"x","type":"uint256","internalType":"uint256"},{"name":"y","type":"uint256","internalType":"uint256"}]},{"name":"_environmentTag","type":"string","internalType":"string"}],"stateMutability":"nonpayable"},{"type":"function","name":"DOMAIN_TAG","inputs":[],"outputs":[{"name":"","type":"bytes32","internalType":"bytes32"}],"stateMutability":"view"},{"type":"function","name":"actionQueue","inputs":[],"outputs":[{"name":"nextKey","type":"uint256","internalType":"uint256"},{"name":"lowestKey","type":"uint256","internalType":"uint256"}],"stateMutability":"view"},{"type":"function","name":"balanceCommitments","inputs":[{"name":"","type":"address","internalType":"address"}],"outputs":[{"name":"","type":"uint256","internalType":"uint256"}],"stateMutability":"view"},{"type":"function","name":"clientVerifier","inputs":[],"outputs":[{"name":"","type":"address","internalType":"contract IVerifierClient"}],"stateMutability":"view"},{"type":"function","name":"contractCompCheck","inputs":[{"name":"interfaceId","type":"bytes4","internalType":"bytes4"},{"name":"domainTag","type":"bytes32","internalType":"bytes32"}],"outputs":[],"stateMutability":"view"},{"type":"function","name":"deposit","inputs":[{"name":"amount","type":"uint256","internalType":"uint256"}],"outputs":[{"name":"","type":"uint256","internalType":"uint256"}],"stateMutability":"payable"},{"type":"function","name":"eip712Domain","inputs":[],"outputs":[{"name":"fields","type":"bytes1","internalType":"bytes1"},{"name":"name","type":"string","internalType":"string"},{"name":"version","type":"string","internalType":"string"},{"name":"chainId","type":"uint256","internalType":"uint256"},{"name":"verifyingContract","type":"address","internalType":"address"},{"name":"salt","type":"bytes32","internalType":"bytes32"},{"name":"extensions","type":"uint256[]","internalType":"uint256[]"}],"stateMutability":"view"},{"type":"function","name":"getBalanceCommitment","inputs":[{"name":"user","type":"address","internalType":"address"}],"outputs":[{"name":"","type":"uint256","internalType":"uint256"}],"stateMutability":"view"},{"type":"function","name":"getMpcPublicKeys","inputs":[],"outputs":[{"name":"","type":"tuple","internalType":"struct BabyJubJub.Affine","components":[{"name":"x","type":"uint256","internalType":"uint256"},{"name":"y","type":"uint256","internalType":"uint256"}]},{"name":"","type":"tuple","internalType":"struct BabyJubJub.Affine","components":[{"name":"x","type":"uint256","internalType":"uint256"},{"name":"y","type":"uint256","internalType":"uint256"}]},{"name":"","type":"tuple","internalType":"struct BabyJubJub.Affine","components":[{"name":"x","type":"uint256","internalType":"uint256"},{"name":"y","type":"uint256","internalType":"uint256"}]}],"stateMutability":"view"},{"type":"function","name":"getNextActionIndex","inputs":[],"outputs":[{"name":"","type":"uint256","internalType":"uint256"}],"stateMutability":"view"},{"type":"function","name":"getQueueSize","inputs":[],"outputs":[{"name":"","type":"uint256","internalType":"uint256"}],"stateMutability":"view"},{"type":"function","name":"isNonceUsed","inputs":[{"name":"sender","type":"address","internalType":"address"},{"name":"nonce","type":"uint256","internalType":"uint256"}],"outputs":[{"name":"","type":"bool","internalType":"bool"}],"stateMutability":"view"},{"type":"function","name":"mpcPk1","inputs":[],"outputs":[{"name":"x","type":"uint256","internalType":"uint256"},{"name":"y","type":"uint256","internalType":"uint256"}],"stateMutability":"view"},{"type":"function","name":"mpcPk2","inputs":[],"outputs":[{"name":"x","type":"uint256","internalType":"uint256"},{"name":"y","type":"uint256","internalType":"uint256"}],"stateMutability":"view"},{"type":"function","name":"mpcPk3","inputs":[],"outputs":[{"name":"x","type":"uint256","internalType":"uint256"},{"name":"y","type":"uint256","internalType":"uint256"}],"stateMutability":"view"},{"type":"function","name":"processMPC","inputs":[{"name":"num_transactions","type":"uint256","internalType":"uint256"},{"name":"commitments","type":"uint256[100]","internalType":"uint256[100]"},{"name":"valid","type":"bool[50]","internalType":"bool[50]"},{"name":"beta","type":"uint256","internalType":"uint256"},{"name":"proof","type":"uint256[4]","internalType":"uint256[4]"}],"outputs":[{"name":"","type":"uint256[50]","internalType":"uint256[50]"}],"stateMutability":"nonpayable"},{"type":"function","name":"readQueue","inputs":[{"name":"num_items","type":"uint256","internalType":"uint256"}],"outputs":[{"name":"","type":"uint256[]","internalType":"uint256[]"},{"name":"","type":"tuple[]","internalType":"struct ActionItem[]","components":[{"name":"action","type":"uint8","internalType":"enum Action"},{"name":"sender","type":"address","internalType":"address"},{"name":"receiver","type":"address","internalType":"address"},{"name":"amount","type":"uint256","internalType":"uint256"}]},{"name":"","type":"tuple[]","internalType":"struct Merces.Ciphertext[]","components":[{"name":"amount","type":"uint256[3]","internalType":"uint256[3]"},{"name":"r","type":"uint256[3]","internalType":"uint256[3]"},{"name":"senderPk","type":"tuple","internalType":"struct BabyJubJub.Affine","components":[{"name":"x","type":"uint256","internalType":"uint256"},{"name":"y","type":"uint256","internalType":"uint256"}]}]}],"stateMutability":"view"},{"type":"function","name":"retrieveFunds","inputs":[{"name":"receiver","type":"address","internalType":"address"}],"outputs":[],"stateMutability":"nonpayable"},{"type":"function","name":"serverVerifier","inputs":[],"outputs":[{"name":"","type":"address","internalType":"contract IVerifierServer"}],"stateMutability":"view"},{"type":"function","name":"supportsInterface","inputs":[{"name":"interfaceId","type":"bytes4","internalType":"bytes4"}],"outputs":[{"name":"","type":"bool","internalType":"bool"}],"stateMutability":"view"},{"type":"function","name":"token","inputs":[],"outputs":[{"name":"","type":"address","internalType":"contract IERC20"}],"stateMutability":"view"},{"type":"function","name":"transfer","inputs":[{"name":"receiver","type":"address","internalType":"address"},{"name":"amountCommitment","type":"uint256","internalType":"uint256"},{"name":"beta","type":"uint256","internalType":"uint256"},{"name":"ciphertext","type":"tuple","internalType":"struct Merces.Ciphertext","components":[{"name":"amount","type":"uint256[3]","internalType":"uint256[3]"},{"name":"r","type":"uint256[3]","internalType":"uint256[3]"},{"name":"senderPk","type":"tuple","internalType":"struct BabyJubJub.Affine","components":[{"name":"x","type":"uint256","internalType":"uint256"},{"name":"y","type":"uint256","internalType":"uint256"}]}]},{"name":"proof","type":"uint256[4]","internalType":"uint256[4]"}],"outputs":[{"name":"","type":"uint256","internalType":"uint256"}],"stateMutability":"nonpayable"},{"type":"function","name":"transferFrom","inputs":[{"name":"sender","type":"address","internalType":"address"},{"name":"receiver","type":"address","internalType":"address"},{"name":"amountCommitment","type":"uint256","internalType":"uint256"},{"name":"beta","type":"uint256","internalType":"uint256"},{"name":"ciphertext","type":"tuple","internalType":"struct Merces.Ciphertext","components":[{"name":"amount","type":"uint256[3]","internalType":"uint256[3]"},{"name":"r","type":"uint256[3]","internalType":"uint256[3]"},{"name":"senderPk","type":"tuple","internalType":"struct BabyJubJub.Affine","components":[{"name":"x","type":"uint256","internalType":"uint256"},{"name":"y","type":"uint256","internalType":"uint256"}]}]},{"name":"proof","type":"uint256[4]","internalType":"uint256[4]"},{"name":"nonce","type":"uint256","internalType":"uint256"},{"name":"deadline","type":"uint256","internalType":"uint256"},{"name":"signature","type":"bytes","internalType":"bytes"}],"outputs":[{"name":"","type":"uint256","internalType":"uint256"}],"stateMutability":"nonpayable"},{"type":"function","name":"usedNonces","inputs":[{"name":"","type":"address","internalType":"address"},{"name":"","type":"uint256","internalType":"uint256"}],"outputs":[{"name":"","type":"bool","internalType":"bool"}],"stateMutability":"view"},{"type":"function","name":"withdraw","inputs":[{"name":"amount","type":"uint256","internalType":"uint256"}],"outputs":[{"name":"","type":"uint256","internalType":"uint256"}],"stateMutability":"nonpayable"},{"type":"event","name":"Deposit","inputs":[{"name":"actionIndex","type":"uint256","indexed":false,"internalType":"uint256"}],"anonymous":false},{"type":"event","name":"EIP712DomainChanged","inputs":[],"anonymous":false},{"type":"event","name":"ProcessedMPC","inputs":[{"name":"actionIndices","type":"uint256[50]","indexed":false,"internalType":"uint256[50]"},{"name":"valid","type":"bool[50]","indexed":false,"internalType":"bool[50]"}],"anonymous":false},{"type":"event","name":"Transfer","inputs":[{"name":"actionIndex","type":"uint256","indexed":false,"internalType":"uint256"}],"anonymous":false},{"type":"event","name":"Withdraw","inputs":[{"name":"actionIndex","type":"uint256","indexed":false,"internalType":"uint256"}],"anonymous":false},{"type":"error","name":"CannotPushNotPresent","inputs":[]},{"type":"error","name":"ContractComp","inputs":[]},{"type":"error","name":"ECDSAInvalidSignature","inputs":[]},{"type":"error","name":"ECDSAInvalidSignatureLength","inputs":[{"name":"length","type":"uint256","internalType":"uint256"}]},{"type":"error","name":"ECDSAInvalidSignatureS","inputs":[{"name":"s","type":"bytes32","internalType":"bytes32"}]},{"type":"error","name":"ExpiredDeadline","inputs":[]},{"type":"error","name":"InvalidAmount","inputs":[]},{"type":"error","name":"InvalidCommitment","inputs":[]},{"type":"error","name":"InvalidMpcAction","inputs":[]},{"type":"error","name":"InvalidPoint","inputs":[]},{"type":"error","name":"InvalidShortString","inputs":[]},{"type":"error","name":"InvalidSignature","inputs":[]},{"type":"error","name":"InvalidTransfer","inputs":[]},{"type":"error","name":"NonceAlreadyUsed","inputs":[]},{"type":"error","name":"NotInPrimeField","inputs":[]},{"type":"error","name":"SafeERC20FailedOperation","inputs":[{"name":"token","type":"address","internalType":"address"}]},{"type":"error","name":"StringTooLong","inputs":[{"name":"str","type":"string","internalType":"string"}]},{"type":"error","name":"Unauthorized","inputs":[]}],"bytecode":{"object":"0x6101e0806040523461044b5761455c803803809161001d828561044f565b833981016101608282031261044b5761003582610472565b9061004260208401610472565b9161004f60408501610472565b9361005c60608201610472565b9461006a8460808401610486565b6100778560c08501610486565b90610086866101008601610486565b61014085015190946001600160401b03821161044b57019086601f8301121561044b578151936001600160401b03851161042857604051986100d2601f8701601f19166020018b61044f565b858a5260208a01986020878601011161044b576020975f898881998d83809a01905e8d01015260409b8c8051610108828261044f565b6006815287810190654d657263657360d01b8252825191610129848461044f565b6001835289830191603160f81b835261014181610644565b6101205261014e846107da565b61014052519020918260e05251902080610100524660a052825191898301937f8b73c3c69bb8fe3d512ecc4cf759cc79239f7b179b0ffacaa9a75d522b39400f855283015260608201524660808201523060a082015260a081526101b360c08261044f565b5190206080523060c0526101c6856104d6565b6101cf876104d6565b6101d8896104d6565b6001600160a01b03168061043c57600160ff1960025416176002555b6101c0526001600160a01b0390811661018052166101a05260028054610100600160a81b031916600892831b610100600160a81b031617905581516003559101516004558151600555910151600655815160075591015190558251906102af90600190610261868561044f565b600784526020808501666d65726365733160c81b81528751958693838501985180918a5e840190602d60f81b84830152518092602183015e01015f838201520301601f19810183528261044f565b519020610160528051608081016001600160401b0381118282101761042857825260048152602081015f81528282015f815260608301905f8252600a545f526009602052845f2093519260058410156104145784549051610100600160a81b0360089190911b1660ff949094166001600160a81b0319909116179290921783559051600180840180546001600160a01b039093166001600160a01b0319909316929092179091559051600290920191909155600a805482019055600b5551613c4990816109138239608051816139bc015260a05181613a79015260c0518161398d015260e05181613a0b01526101005181613a310152610120518161237a015261014051816123a60152610160518181816102140152612b680152610180518181816108bc01528181610eb60152611fb201526101a0518181816110050152612a6601526101c05181818161017b01528181610d62015281816119970152612c870152f35b634e487b7160e01b5f52602160045260245ffd5b634e487b7160e01b5f52604160045260245ffd5b60ff19600254166002556101f4565b5f80fd5b601f909101601f19168101906001600160401b0382119082101761042857604052565b51906001600160a01b038216820361044b57565b919082604091031261044b57604080519081016001600160401b03811182821017610428576040526020808294805184520151910152565b9081602091031261044b5751801515810361044b5790565b604051631d190e8560e31b815281516004820152602080830151602483015290919073__$fd1bbc507ebce9bb0449be7c85ea578f4f$__9083604481845af49283156105b9575f93610623575b5082156105c4575b8215610549575b505061053a57565b63b8fedf8760e01b5f5260045ffd5b60405163709460d560e11b81528251600482015260209283015160248201529250829060449082905af49081156105b9575f9161058a575b50155f80610532565b6105ac915060203d6020116105b2575b6105a4818361044f565b8101906104be565b5f610581565b503d61059a565b6040513d5f823e3d90fd5b60405163201c51a760e21b81528251600482015260208084015160248301529193509081604481865af49081156105b9575f91610604575b50159161052b565b61061d915060203d6020116105b2576105a4818361044f565b5f6105fc565b61063d91935060203d6020116105b2576105a4818361044f565b915f610523565b908151602081105f146106be575090601f81511161067e57602081519101516020821061066f571790565b5f198260200360031b1b161790565b604460209160405192839163305a27a960e01b83528160048401528051918291826024860152018484015e5f828201840152601f01601f19168101030190fd5b6001600160401b038111610428575f54600181811c911680156107d0575b60208210146107bc57601f811161078a575b50602092601f821160011461072b57928192935f92610720575b50508160011b915f199060031b1c1916175f5560ff90565b015190505f80610708565b601f198216935f8052805f20915f5b868110610772575083600195961061075a575b505050811b015f5560ff90565b01515f1960f88460031b161c191690555f808061074d565b9192602060018192868501518155019401920161073a565b5f8052601f60205f20910160051c810190601f830160051c015b8181106107b157506106ee565b5f81556001016107a4565b634e487b7160e01b5f52602260045260245ffd5b90607f16906106dc565b908151602081105f14610805575090601f81511161067e57602081519101516020821061066f571790565b6001600160401b03811161042857600154600181811c91168015610908575b60208210146107bc57601f81116108d5575b50602092601f821160011461087457928192935f92610869575b50508160011b915f199060031b1c19161760015560ff90565b015190505f80610850565b601f1982169360015f52805f20915f5b8681106108bd57508360019596106108a5575b505050811b0160015560ff90565b01515f1960f88460031b161c191690555f8080610897565b91926020600181928685015181550194019201610884565b60015f52601f60205f20910160051c810190601f830160051c015b8181106108fd5750610836565b5f81556001016108f0565b90607f169061082456fe6080806040526004361015610012575f80fd5b5f905f3560e01c90816301ffc9a714612d40575080632ad2205214612c255780632e1a7d4d14612b8e578063326175b814612aed57806351b1e52414612a8a578063547ecebf14612a1c5780635fdd52e4146129da5780636a8a6894146129665780636d77cd05146124915780637564ba211461244f57806384b0196e1461234457806391f3a3311461227f578063a135dff314611cef578063aa5e5d9514610eda578063b51ac8a214610e6b578063b6b55f2514610ca6578063c1a7521014610c63578063c814f73d14610376578063cab7e8eb14610304578063ce348c6f146102c4578063d915433c1461027a578063d93c0d9e14610237578063e32e13eb146101de578063faf3a304146101a25763fc0c546a14610131575f80fd5b3461019f57807ffffffffffffffffffffffffffffffffffffffffffffffffffffffffffffffffc36011261019f57602060405173ffffffffffffffffffffffffffffffffffffffff7f0000000000000000000000000000000000000000000000000000000000000000168152f35b80fd5b503461019f57807ffffffffffffffffffffffffffffffffffffffffffffffffffffffffffffffffc36011261019f576020600b54604051908152f35b503461019f57807ffffffffffffffffffffffffffffffffffffffffffffffffffffffffffffffffc36011261019f5760206040517f00000000000000000000000000000000000000000000000000000000000000008152f35b503461019f57807ffffffffffffffffffffffffffffffffffffffffffffffffffffffffffffffffc36011261019f57604060075460085482519182526020820152f35b503461019f5760207ffffffffffffffffffffffffffffffffffffffffffffffffffffffffffffffffc36011261019f5760206102bc6102b7612db2565b613230565b604051908152f35b503461019f57807ffffffffffffffffffffffffffffffffffffffffffffffffffffffffffffffffc36011261019f5760206102bc600a54600b54906134df565b503461019f5760407ffffffffffffffffffffffffffffffffffffffffffffffffffffffffffffffffc36011261019f5760ff604060209273ffffffffffffffffffffffffffffffffffffffff610358612db2565b168152600e8452818120602435825284522054166040519015158152f35b503461019f576102607ffffffffffffffffffffffffffffffffffffffffffffffffffffffffffffffffc36011261019f576103af612db2565b6024359073ffffffffffffffffffffffffffffffffffffffff82168203610a1b576101007fffffffffffffffffffffffffffffffffffffffffffffffffffffffffffffff7c360112610a1b573661020411610a1b5767ffffffffffffffff6102443511610a1b5736602361024435011215610a1b5767ffffffffffffffff610244356004013511610a1b57366024610244356004013561024435010111610a1b57610224354211610c3b5773ffffffffffffffffffffffffffffffffffffffff81168352600e6020526040832061020435845260205260ff604084205416610c135761049b82826134ec565b6104a6604435613535565b60407ffffffffffffffffffffffffffffffffffffffffffffffffffffffffffffffebc360112610a1b576040516104dc81612f75565b6101443581526101643560208083019182526040517fe8c87428000000000000000000000000000000000000000000000000000000008152835160048201529151602483015290919073__$fd1bbc507ebce9bb0449be7c85ea578f4f$__9083604481845af4928315610be7578693610bf2575b508215610b6f575b8215610adb575b5050610ab3576084359061057282613535565b60a4359061057f82613535565b61058a60c435613535565b60e4359361059785613535565b6105a361010435613535565b6105af61012435613535565b61071f61071660426040516020810190606060848337606060e460808301376101443560e08201526101643561010082015261010081526105f261012082612fae565b51902060405160208101917f5b6c140379c86d7912c86d40ef66cc125342e8283b1f795b9a29b092b5d91dab835273ffffffffffffffffffffffffffffffffffffffff8816604083015273ffffffffffffffffffffffffffffffffffffffff87166060830152604435608083015260a082015260643560c08201526102043560e082015261022435610100820152610100815261069161012082612fae565b51902061069c613976565b90604051917f1901000000000000000000000000000000000000000000000000000000000000835260028301526022820152206106df6102443560040135612fef565b906106ed6040519283612fae565b610244356004810135808452906024016020840137896020610244356004013584010152613a9f565b90929192613ad9565b73ffffffffffffffffffffffffffffffffffffffff808416911603610a8b578173ffffffffffffffffffffffffffffffffffffffff6107ca928189979695168752600e602052604087206102043588526020526040872060017fffffffffffffffffffffffffffffffffffffffffffffffffffffffffffffff0082541617905581604051936107ad85612f10565b6003855216602084015216604082015260443560608201526133e3565b93604051926107d884612f91565b61014435845261016435602085015260443560408501526060840152608083015260a08201526101043560c082015260c43560e0820152610124356101008201526003546101208201526004546101408201526005546101608201526006546101808201526007546101a08201526008546101c082015260405160208101829084905b600f8210610a7157505050806101e0610880925261087b61020082612fae565b6138f0565b908290600e6064358401815b610a1f575050517f30644e72e131a029b85045b68181585d2833e84879b9709143e1f593f00000019108604051917f000000000000000000000000000000000000000000000000000000000000000073ffffffffffffffffffffffffffffffffffffffff16916108fb84612f59565b606435845260208401526040830152803b15610a1b5761094e91839160405180809581947f98c13db900000000000000000000000000000000000000000000000000000000835261018460048401613586565b03915afa8015610a10576109f7575b50819052600d60205260408220916084815b600381106109e357505060e4905b600381106109cc57602083856101443560068201556007610164359101557f248dd4076d0a389d795107efafd558ce7f31ae37b441ccb9a599c60868f480d582604051838152a1604051908152f35b60019060208335930192600382870101550161097d565b60019060208335930192818701550161096f565b81610a0191612fae565b610a0c57815f61095d565b5080fd5b6040513d84823e3d90fd5b8280fd5b919281949550610a5e7f30644e72e131a029b85045b68181585d2833e84879b9709143e1f593f000000191610a57610a669487613965565b51906131db565b83099361393a565b86949392918161088c565b82518152879550602092830192600192909201910161085b565b6004867f8baa579f000000000000000000000000000000000000000000000000000000008152fd5b6004837fb8fedf87000000000000000000000000000000000000000000000000000000008152fd5b6040517fe128c1aa0000000000000000000000000000000000000000000000000000000081528251600482015260209283015160248201529250829060449082905af4908115610b64578491610b35575b50155f8061055f565b610b57915060203d602011610b5d575b610b4f8183612fae565b8101906138d8565b5f610b2c565b503d610b45565b6040513d86823e3d90fd5b6040517f8071469c0000000000000000000000000000000000000000000000000000000081528251600482015260208084015160248301529193509081604481865af4908115610be7578691610bc8575b501591610558565b610be1915060203d602011610b5d57610b4f8183612fae565b5f610bc0565b6040513d88823e3d90fd5b610c0c91935060203d602011610b5d57610b4f8183612fae565b915f610550565b6004837f1fb09b80000000000000000000000000000000000000000000000000000000008152fd5b6004837ff87d9271000000000000000000000000000000000000000000000000000000008152fd5b503461019f57807ffffffffffffffffffffffffffffffffffffffffffffffffffffffffffffffffc36011261019f576040600a54600b5482519182526020820152f35b5060207ffffffffffffffffffffffffffffffffffffffffffffffffffffffffffffffffc36011261019f5760043590610cde82613396565b60ff6002541680610e61575b610e39578115610e3957610d1e604051610d0381612f10565b600181528260208201523360408201528360608201526133e3565b917f4d6ce1e535dbade1c23defba91e23b8f791ce5edc0cc320257a2b364e4e384266020604051858152a160ff6002541615610d60575b602083604051908152f35b7f000000000000000000000000000000000000000000000000000000000000000090604051907f23b872dd000000000000000000000000000000000000000000000000000000008452336004523060245260445260208360648180865af1906001845114821615610e18575b60405282606052610d55577f5274afe700000000000000000000000000000000000000000000000000000000825273ffffffffffffffffffffffffffffffffffffffff16600452602490fd5b906001811516610e3057823b15153d15161690610dcc565b503d83823e3d90fd5b807f2c5211c60000000000000000000000000000000000000000000000000000000060049252fd5b5081341415610cea565b503461019f57807ffffffffffffffffffffffffffffffffffffffffffffffffffffffffffffffffc36011261019f57602060405173ffffffffffffffffffffffffffffffffffffffff7f0000000000000000000000000000000000000000000000000000000000000000168152f35b503461019f576113807ffffffffffffffffffffffffffffffffffffffffffffffffffffffffffffffffc36011261019f5760043536610ca411610a0c57366112e411610a0c576112e43591366113841161019f576106409283604051610f408282612fae565b369037610f4b613280565b60328311611cc757604051612580610f638183612fae565b8036833760405194610f758787612fae565b86368737845b8181106113e157505b603281106111a05750604051908285602084015b61012c821061118a575050508152610fb69061087b6125a082612fae565b9061012b908490848401835b61114d57507f30644e72e131a029b85045b68181585d2833e84879b9709143e1f593f000000192505190089073ffffffffffffffffffffffffffffffffffffffff7f000000000000000000000000000000000000000000000000000000000000000016916040519361103385612f59565b845260208401526040830152803b15610a1b576040517f98c13db900000000000000000000000000000000000000000000000000000000815291839183916080611304600485013783608484015b60038210611131575050508160e4915afa8015610a105790829161111c575b5050604051906110b08284612e72565b80610ca48386015b603284106110f75786867f98260fc8883baa863b09be1de9e73d5317d1aa060f783363c71c625e61df886c610c8088a16110f56040518092612e72565bf35b813580151580910361111857602082819260019452019201930192906110b8565b8380fd5b8161112691612fae565b61019f57805f6110a0565b8251815287955086945060209283019260019092019101611081565b90917f30644e72e131a029b85045b68181585d2833e84879b9709143e1f593f0000001610a5e61118192610a5787876131e8565b92919083610fc2565b6020806001928551815201930191019091610f98565b8060011b811590828104600214821715611331576111bd816131c9565b356113b95760018101809111611331576111d6906131c9565b356113915760068202908282046006141715611364577f087f763a403ee4109adc79d4a7638af3cb8cb6a33f5b027bd1476ffa97361acb61121782866131e8565b52600181018082116113315761124e7f087f763a403ee4109adc79d4a7638af3cb8cb6a33f5b027bd1476ffa97361acb91866131e8565b5260028101808211611331576112857f087f763a403ee4109adc79d4a7638af3cb8cb6a33f5b027bd1476ffa97361acb91866131e8565b5260038101808211611331576112bc7f087f763a403ee4109adc79d4a7638af3cb8cb6a33f5b027bd1476ffa97361acb91866131e8565b5260048101808211611331576112f37f087f763a403ee4109adc79d4a7638af3cb8cb6a33f5b027bd1476ffa97361acb91866131e8565b52611305611300836131a9565b6131bc565b1561135e5760015b60058201809211611331579061132a60ff600194931691866131e8565b5201610f84565b6024877f4e487b710000000000000000000000000000000000000000000000000000000081526011600452fd5b8561130d565b6024867f4e487b710000000000000000000000000000000000000000000000000000000081526011600452fd5b6004867fc06789fa000000000000000000000000000000000000000000000000000000008152fd5b6004877fc06789fa000000000000000000000000000000000000000000000000000000008152fd5b6113ed611300826131a9565b15611cbf5760ff60015b16600b546032831015611c92578260051b8901526114136135bc565b6060810180519180516005811015611c65576001036117a757604091500161145173ffffffffffffffffffffffffffffffffffffffff825116613230565b918460011b9185159386840460021485171561177a57611470846131c9565b35611752578b916001850180951193846116765790602086959493928f6114a261149c6114e89a6131c9565b35613535565b604051916114af83612f75565b825282820152604051809881927f8b0fc30c000000000000000000000000000000000000000000000000000000008352600483016131fa565b038173__$58a96acb294a42983af7110ac717d64ca3$__5af495861561174557908e91829761170b575b5061151f6113008b6131a9565b6116d0575b5050600688029588870460061417156116a35784611542878d6131e8565b5260018601808711611676576115797f087f763a403ee4109adc79d4a7638af3cb8cb6a33f5b027bd1476ffa97361acb918d6131e8565b52600286018087116116765761158f908c6131e8565b526116495761161c576115a1906131c9565b3560038301808411611649576115b790896131e8565b526004820180831161161c576115cd90886131e8565b52600581018091116115ef57906115e760019392876131e8565b525b01610f7b565b6024887f4e487b710000000000000000000000000000000000000000000000000000000081526011600452fd5b60248a7f4e487b710000000000000000000000000000000000000000000000000000000081526011600452fd5b60248b7f4e487b710000000000000000000000000000000000000000000000000000000081526011600452fd5b60248e7f4e487b710000000000000000000000000000000000000000000000000000000081526011600452fd5b60248d7f4e487b710000000000000000000000000000000000000000000000000000000081526011600452fd5b92508093509160408473ffffffffffffffffffffffffffffffffffffffff6116f7886131c9565b359351168152600c60205220558c5f611524565b915095506020813d821161173d575b8161172760209383612fae565b81010312611739578d9051955f611512565b5f80fd5b3d915061171a565b8e604051903d90823e3d90fd5b60048c7fc06789fa000000000000000000000000000000000000000000000000000000008152fd5b60248c7f4e487b710000000000000000000000000000000000000000000000000000000081526011600452fd5b80516005811015611c6557600203611a1e5760200173ffffffffffffffffffffffffffffffffffffffff8151168a52600c60205260408a2054908560011b928615948785046002148617156116a357600185018086116116765761180a906131c9565b356119f6579161182794939160208e94856114a261149c896131c9565b038173__$58a96acb294a42983af7110ac717d64ca3$__5af495861561174557908e9182976119c0575b5061185e6113008b6131a9565b611929575b5050506006870294878604600614171561177a57611881858b6131e8565b5261161c5761188f906131c9565b3560018301808411611649576118a590896131e8565b526002820180831161161c576118dc7f087f763a403ee4109adc79d4a7638af3cb8cb6a33f5b027bd1476ffa97361acb91896131e8565b526003820180831161161c576118f38291896131e8565b526004820180831161161c5761190990886131e8565b52600581018091116115ef579061192360019392876131e8565b526115e9565b9091935073ffffffffffffffffffffffffffffffffffffffff829461194d876131c9565b35828251168552600c6020526040852055511690519060ff600254165f14611990579180808093611988955af1611982613029565b50613058565b5f8c81611863565b6119bb92507f00000000000000000000000000000000000000000000000000000000000000006132cc565b611988565b915095506020813d82116119ee575b816119dc60209383612fae565b81010312611739578d9051955f611851565b3d91506119cf565b60048d7fc06789fa000000000000000000000000000000000000000000000000000000008152fd5b80929150516005811015611c3857600303611c10576020820173ffffffffffffffffffffffffffffffffffffffff8151168a52600c6020526040808b2054930190611a7f73ffffffffffffffffffffffffffffffffffffffff835116613230565b8660011b878104600214881517156116a357611a9d61149c826131c9565b8c60018201948583119485611be257908f91611abb61149c896131c9565b611ac76113008d6131a9565b611b77575b50505060068902968988046006148a151715611b4a57611aec888e6131e8565b526116a357611afa906131c9565b356001860180871161167657611b10908c6131e8565b52600285018086116116a357611b26908b6131e8565b5261161c57611b34906131c9565b3560038301808411611649576118f390896131e8565b60248f7f4e487b710000000000000000000000000000000000000000000000000000000081526011600452fd5b919550915073ffffffffffffffffffffffffffffffffffffffff611b9a846131c9565b359151168552600c6020526040852055839060408573ffffffffffffffffffffffffffffffffffffffff611bcd896131c9565b359351168152600c60205220558d5f80611acc565b5060248f7f4e487b710000000000000000000000000000000000000000000000000000000081526011600452fd5b6004897f27606320000000000000000000000000000000000000000000000000000000008152fd5b60248a7f4e487b710000000000000000000000000000000000000000000000000000000081526021600452fd5b60248b7f4e487b710000000000000000000000000000000000000000000000000000000081526021600452fd5b6024887f4e487b710000000000000000000000000000000000000000000000000000000081526032600452fd5b60ff866113f7565b6004827f27606320000000000000000000000000000000000000000000000000000000008152fd5b5034611739576101e07ffffffffffffffffffffffffffffffffffffffffffffffffffffffffffffffffc36011261173957611d28612db2565b604435602435610100367fffffffffffffffffffffffffffffffffffffffffffffffffffffffffffffff9c011261173957366101e41161173957611d6c83336134ec565b611d7581613535565b60407ffffffffffffffffffffffffffffffffffffffffffffffffffffffffffffffedc3601126117395760405191611dac83612f75565b610124358084526101443560208086018281526040517fe8c87428000000000000000000000000000000000000000000000000000000008152875160048201529051602482015291959294929073__$fd1bbc507ebce9bb0449be7c85ea578f4f$__9083604481845af49283156120e7575f9361225e575b5082156121e6575b821561216d575b50506121455760643594611e4686613535565b608435611e5281613535565b60a43590611e5f82613535565b60c43590611e6c82613535565b60e43591611e7983613535565b611ec76101043595611e8a87613535565b73ffffffffffffffffffffffffffffffffffffffff60405191611eac83612f10565b600383523360208401521660408201528760608201526133e3565b9960405196611ed588612f91565b8988528a602089015260408801526060870152608086015260a085015260c084015260e08301526101008201526003546101208201526004546101408201526005546101608201526006546101808201526007546101a08201526008546101c08201526040516020810182905f905b600f821061212f57505050806101e0611f64925261087b61020082612fae565b90600e905f90848401835b6120f257507f30644e72e131a029b85045b68181585d2833e84879b9709143e1f593f000000192505190089073ffffffffffffffffffffffffffffffffffffffff7f0000000000000000000000000000000000000000000000000000000000000000169160405193611fe085612f59565b845260208401526040830152803b1561173957612030915f9160405180809581947f98c13db900000000000000000000000000000000000000000000000000000000835261016460048401613586565b03915afa80156120e7576120d2575b50828452600d60205260408420936064815b600381106120be57505060c4905b600381106120a7575050836007916006602096015501557f248dd4076d0a389d795107efafd558ce7f31ae37b441ccb9a599c60868f480d582604051838152a1604051908152f35b60019060208335930192600382890101550161205f565b600190602083359301928189015501612051565b6120df9194505f90612fae565b5f925f61203f565b6040513d5f823e3d90fd5b90917f30644e72e131a029b85045b68181585d2833e84879b9709143e1f593f0000001610a5e61212692610a578787613965565b92919083611f6f565b6020806001928551815201930191019091611f44565b7fb8fedf87000000000000000000000000000000000000000000000000000000005f5260045ffd5b6040517fe128c1aa0000000000000000000000000000000000000000000000000000000081528251600482015260209283015160248201529250829060449082905af49081156120e7575f916121c7575b50155f80611e33565b6121e0915060203d602011610b5d57610b4f8183612fae565b5f6121be565b6040517f8071469c0000000000000000000000000000000000000000000000000000000081528251600482015260208084015160248301529193509081604481865af49081156120e7575f9161223f575b501591611e2c565b612258915060203d602011610b5d57610b4f8183612fae565b5f612237565b61227891935060203d602011610b5d57610b4f8183612fae565b915f611e24565b34611739575f7ffffffffffffffffffffffffffffffffffffffffffffffffffffffffffffffffc360112611739576122b56130f9565b506122be6130f9565b506122c76130f9565b5060c06040516122d681612f75565b6003548152600454602082019081526040516122f181612f75565b6005548152600654602082019081526040519161230d83612f75565b60075483526008549360208401948552604051955186525160208601525160408501525160608401525160808301525160a0820152f35b34611739575f7ffffffffffffffffffffffffffffffffffffffffffffffffffffffffffffffffc3601126117395761241d61239e7f0000000000000000000000000000000000000000000000000000000000000000613692565b61244b6123ca7f0000000000000000000000000000000000000000000000000000000000000000613808565b61242b604051916123dc602084612fae565b5f83525f3681376040519586957f0f00000000000000000000000000000000000000000000000000000000000000875260e0602088015260e0870190612e2f565b908582036040870152612e2f565b904660608501523060808501525f60a085015283820360c0850152612dd5565b0390f35b34611739575f7ffffffffffffffffffffffffffffffffffffffffffffffffffffffffffffffffc36011261173957604060055460065482519182526020820152f35b346117395760207ffffffffffffffffffffffffffffffffffffffffffffffffffffffffffffffffc360112611739576004356124d2600a54600b54906134df565b80821161295e575b506124e4816130bd565b906124f26040519283612fae565b8082527fffffffffffffffffffffffffffffffffffffffffffffffffffffffffffffffe061251f826130bd565b015f5b818110612947575050612534816130bd565b916125426040519384612fae565b8183527fffffffffffffffffffffffffffffffffffffffffffffffffffffffffffffffe061256f836130bd565b0136602085013761257f826130bd565b9161258d6040519384612fae565b8083527fffffffffffffffffffffffffffffffffffffffffffffffffffffffffffffffe06125ba826130bd565b015f5b8181106128e9575050600b54905f9173__$96414a38f905666ffb62ad69c724988e3b$__905b82841061273857612604878787604051938493606085526060850190612dd5565b8381036020850152602080835192838152019201905f5b818110612695575050508281036040840152602080835192838152019201905f5b81811061264a575050500390f35b9193509160206101006001928260408851612666848251612e08565b612677838201516060860190612e08565b0151805160c0840152015160e082015201940191019184939261263c565b918094955092909251805190600582101561270b578260606080926020946001965273ffffffffffffffffffffffffffffffffffffffff85820151168584015273ffffffffffffffffffffffffffffffffffffffff6040820151166040840152015160608201520194019101918594939261261b565b7f4e487b71000000000000000000000000000000000000000000000000000000005f52602160045260245ffd5b806127438589613111565b526040517feaceeec200000000000000000000000000000000000000000000000000000000815260096004820152816024820152608081604481865af49081156120e7575f91612872575b506127998587613111565b526127a48486613111565b50805f52600d60205260405f20604051906127be82612f59565b6127c781613173565b82526127d560038201613173565b60208301526007604051916127e983612f75565b600681015483520154602082015260408201526128068588613111565b526128118487613111565b507fffffffffffffffffffffffffffffffffffffffffffffffffffffffffffffffff811461284557600193840193016125e3565b7f4e487b71000000000000000000000000000000000000000000000000000000005f52601160045260245ffd5b90506080813d82116128e1575b8161288c60809383612fae565b8101031261173957604051906128a182612f10565b80519060058210156117395760609183526128be60208201613152565b60208401526128cf60408201613152565b6040840152015160608201528861278e565b3d915061287f565b6020906040516128f881612f59565b60606040516129078282612fae565b8136823782526040519061291b8183612fae565b3682378382015260405161292e81612f75565b5f81525f848201526040820152828288010152016125bd565b6020906129526130d5565b82828701015201612522565b9050816124da565b346117395760407ffffffffffffffffffffffffffffffffffffffffffffffffffffffffffffffffc3601126117395773ffffffffffffffffffffffffffffffffffffffff6129b2612db2565b165f52600e60205260405f206024355f52602052602060ff60405f2054166040519015158152f35b34611739575f7ffffffffffffffffffffffffffffffffffffffffffffffffffffffffffffffffc36011261173957604060035460045482519182526020820152f35b34611739575f7ffffffffffffffffffffffffffffffffffffffffffffffffffffffffffffffffc36011261173957602060405173ffffffffffffffffffffffffffffffffffffffff7f0000000000000000000000000000000000000000000000000000000000000000168152f35b346117395760207ffffffffffffffffffffffffffffffffffffffffffffffffffffffffffffffffc3601126117395773ffffffffffffffffffffffffffffffffffffffff612ad6612db2565b165f52600c602052602060405f2054604051908152f35b346117395760407ffffffffffffffffffffffffffffffffffffffffffffffffffffffffffffffffc36011261173957612b2c612b27612d83565b612e99565b158015612b62575b612b3a57005b7fccae95ad000000000000000000000000000000000000000000000000000000005f5260045ffd5b506024357f00000000000000000000000000000000000000000000000000000000000000001415612b34565b346117395760207ffffffffffffffffffffffffffffffffffffffffffffffffffffffffffffffffc360112611739576020612bf4600435612bce81613396565b60405190612bdb82612f10565b6002825233848301525f604083015260608201526133e3565b7f5b6b431d4476a211bb7d41c20d1aab9ae2321deee0d20be3d9fc9b1093fa6e3d82604051838152a1604051908152f35b346117395760207ffffffffffffffffffffffffffffffffffffffffffffffffffffffffffffffffc36011261173957612c5c612db2565b612c64613280565b60025460ff1615612c85575f808080612c839447905af1611982613029565b005b7f0000000000000000000000000000000000000000000000000000000000000000604051917f70a0823100000000000000000000000000000000000000000000000000000000835230600484015260208360248173ffffffffffffffffffffffffffffffffffffffff86165afa9182156120e7575f92612d0a575b612c8393506132cc565b91506020833d602011612d38575b81612d2560209383612fae565b8101031261173957612c83925191612d00565b3d9150612d18565b346117395760207ffffffffffffffffffffffffffffffffffffffffffffffffffffffffffffffffc36011261173957602090612d7d612b27612d83565b15158152f35b600435907fffffffff000000000000000000000000000000000000000000000000000000008216820361173957565b6004359073ffffffffffffffffffffffffffffffffffffffff8216820361173957565b90602080835192838152019201905f5b818110612df25750505090565b8251845260209384019390920191600101612de5565b905f905b60038210612e1957505050565b6020806001928551815201930191019091612e0c565b907fffffffffffffffffffffffffffffffffffffffffffffffffffffffffffffffe0601f602080948051918291828752018686015e5f8582860101520116010190565b905f905b60328210612e8357505050565b6020806001928551815201930191019091612e76565b7fffffffff00000000000000000000000000000000000000000000000000000000167fd93c9fa9000000000000000000000000000000000000000000000000000000008114908115612ee9575090565b7f01ffc9a70000000000000000000000000000000000000000000000000000000091501490565b6080810190811067ffffffffffffffff821117612f2c57604052565b7f4e487b71000000000000000000000000000000000000000000000000000000005f52604160045260245ffd5b6060810190811067ffffffffffffffff821117612f2c57604052565b6040810190811067ffffffffffffffff821117612f2c57604052565b6101e0810190811067ffffffffffffffff821117612f2c57604052565b90601f7fffffffffffffffffffffffffffffffffffffffffffffffffffffffffffffffe0910116810190811067ffffffffffffffff821117612f2c57604052565b67ffffffffffffffff8111612f2c57601f017fffffffffffffffffffffffffffffffffffffffffffffffffffffffffffffffe01660200190565b3d15613053573d9061303a82612fef565b916130486040519384612fae565b82523d5f602084013e565b606090565b1561305f57565b60646040517f08c379a000000000000000000000000000000000000000000000000000000000815260206004820152601560248201527f546f6b656e207472616e73666572206661696c656400000000000000000000006044820152fd5b67ffffffffffffffff8111612f2c5760051b60200190565b604051906130e282612f10565b5f6060838281528260208201528260408201520152565b6040519061310682612f75565b5f6020838281520152565b80518210156131255760209160051b010190565b7f4e487b71000000000000000000000000000000000000000000000000000000005f52603260045260245ffd5b519073ffffffffffffffffffffffffffffffffffffffff8216820361173957565b60405191905f835b6003821061319357505050613191606083612fae565b565b600160208192855481520193019101909161317b565b60328110156131255760051b610ca40190565b3580151581036117395790565b60648110156131255760051b60240190565b9190820180921161284557565b9061012c8110156131255760051b0190565b6060810192915f825b6002821061321a57505050604063deadbeef910152565b6020806001928551815201930191019091613203565b73ffffffffffffffffffffffffffffffffffffffff165f52600c60205260405f2054801561325b5790565b507f087f763a403ee4109adc79d4a7638af3cb8cb6a33f5b027bd1476ffa97361acb90565b73ffffffffffffffffffffffffffffffffffffffff60025460081c1633036132a457565b7f82b42900000000000000000000000000000000000000000000000000000000005f5260045ffd5b9173ffffffffffffffffffffffffffffffffffffffff604051927fa9059cbb000000000000000000000000000000000000000000000000000000005f521660045260245260205f60448180865af19060015f5114821615613375575b604052156133335750565b73ffffffffffffffffffffffffffffffffffffffff907f5274afe7000000000000000000000000000000000000000000000000000000005f521660045260245ffd5b90600181151661338d57823b15153d15161690613328565b503d5f823e3d90fd5b80159081156133cf575b506133a757565b7f2c5211c6000000000000000000000000000000000000000000000000000000005f5260045ffd5b69ffffffffffffffffffff9150115f6133a0565b8051600581101561270b57156134b757600a545f52600960205260405f20908051600581101561270b5760029160609184547fffffffffffffffffffffff00000000000000000000000000000000000000000060ff74ffffffffffffffffffffffffffffffffffffffff00602086015160081b1693169116171784556001840173ffffffffffffffffffffffffffffffffffffffff6040830151167fffffffffffffffffffffffff00000000000000000000000000000000000000008254161790550151910155600a5460018101600a5590565b7fe5c28924000000000000000000000000000000000000000000000000000000005f5260045ffd5b9190820391821161284557565b73ffffffffffffffffffffffffffffffffffffffff90811691161461350d57565b7f2f352531000000000000000000000000000000000000000000000000000000005f5260045ffd5b7f30644e72e131a029b85045b68181585d2833e84879b9709143e1f593f0000001111561355e57565b7f2d8aa1c8000000000000000000000000000000000000000000000000000000005f5260045ffd5b608090939291938160e08201958237015f905b600382106135a657505050565b6020806001928551815201930191019091613599565b6135c46130d5565b50600a5490600b5480921461366c57815f52600960205260405f20604051906135ec82612f10565b80549060ff8216600581101561270b5760029273ffffffffffffffffffffffffffffffffffffffff91855260081c16602084015273ffffffffffffffffffffffffffffffffffffffff600182015416604084015201546060820152915f5260096020525f60026040822082815582600182015501556001600b5401600b55565b905060405161367a81612f10565b5f81525f60208201525f60408201525f606082015290565b60ff81146136f15760ff811690601f82116136c957604051916136b6604084612fae565b6020808452838101919036833783525290565b7fb3512b0c000000000000000000000000000000000000000000000000000000005f5260045ffd5b506040515f5f548060011c91600182169182156137fe575b6020841083146137d15783855284929081156137945750600114613737575b61373492500382612fae565b90565b505f80805290917f290decd9548b62a8d60345a988386fc84ba6bc95484008f6362f93160ef3e5635b81831061377857505090602061373492820101613728565b6020919350806001915483858801015201910190918392613760565b602092506137349491507fffffffffffffffffffffffffffffffffffffffffffffffffffffffffffffff001682840152151560051b820101613728565b7f4e487b71000000000000000000000000000000000000000000000000000000005f52602260045260245ffd5b92607f1692613709565b60ff811461382c5760ff811690601f82116136c957604051916136b6604084612fae565b506040515f6001548060011c91600182169182156138ce575b6020841083146137d1578385528492908115613794575060011461386f5761373492500382612fae565b5060015f90815290917fb10e2d527612073b26eecdfd717e6a320cf44b4afac2b0732d9fcbe2b7fa0cf65b8183106138b257505090602061373492820101613728565b602091935080600191548385880101520191019091839261389a565b92607f1692613845565b90816020910312611739575180151581036117395790565b5f60208092604051918183925191829101835e8101838152039060025afa156120e7577f1fffffffffffffffffffffffffffffffffffffffffffffffffffffffffffffff5f511690565b8015612845577fffffffffffffffffffffffffffffffffffffffffffffffffffffffffffffffff0190565b90600f8110156131255760051b0190565b73ffffffffffffffffffffffffffffffffffffffff7f000000000000000000000000000000000000000000000000000000000000000016301480613a76575b156139de577f000000000000000000000000000000000000000000000000000000000000000090565b60405160208101907f8b73c3c69bb8fe3d512ecc4cf759cc79239f7b179b0ffacaa9a75d522b39400f82527f000000000000000000000000000000000000000000000000000000000000000060408201527f000000000000000000000000000000000000000000000000000000000000000060608201524660808201523060a082015260a08152613a7060c082612fae565b51902090565b507f000000000000000000000000000000000000000000000000000000000000000046146139b5565b8151919060418303613acf57613ac89250602082015190606060408401519301515f1a90613b84565b9192909190565b50505f9160029190565b600481101561270b5780613aeb575050565b60018103613b1b577ff645eedf000000000000000000000000000000000000000000000000000000005f5260045ffd5b60028103613b4f57507ffce698f7000000000000000000000000000000000000000000000000000000005f5260045260245ffd5b600314613b595750565b7fd78bce0c000000000000000000000000000000000000000000000000000000005f5260045260245ffd5b91907f7fffffffffffffffffffffffffffffff5d576e7357a4501ddfe92f46681b20a08411613c08579160209360809260ff5f9560405194855216868401526040830152606082015282805260015afa156120e7575f5173ffffffffffffffffffffffffffffffffffffffff811615613bfe57905f905f90565b505f906001905f90565b5050505f916003919056fea2646970667358221220b1f7e661aa1eb4fff9a7ac25236144f746c855dc21ac1a4815fcd3051626384064736f6c634300081e0033","linkReferences":{"lib/babyjubjub-solidity/src/BabyJubJub.sol":{"BabyJubJub":[{"start":1274,"length":20},{"start":3642,"length":20},{"start":9998,"length":20}]},"src/ActionQueue.sol":{"ActionQueueLib":[{"start":12001,"length":20}]},"src/Poseidon2.sol":{"Poseidon2T2_BN254":[{"start":7679,"length":20},{"start":8510,"length":20}]}}},"methodIdentifiers":{"DOMAIN_TAG()":"e32e13eb","actionQueue()":"c1a75210","balanceCommitments(address)":"51b1e524","clientVerifier()":"b51ac8a2","contractCompCheck(bytes4,bytes32)":"326175b8","deposit(uint256)":"b6b55f25","eip712Domain()":"84b0196e","getBalanceCommitment(address)":"d915433c","getMpcPublicKeys()":"91f3a331","getNextActionIndex()":"faf3a304","getQueueSize()":"ce348c6f","isNonceUsed(address,uint256)":"cab7e8eb","mpcPk1()":"5fdd52e4","mpcPk2()":"7564ba21","mpcPk3()":"d93c0d9e","processMPC(uint256,uint256[100],bool[50],uint256,uint256[4])":"aa5e5d95","readQueue(uint256)":"6d77cd05","retrieveFunds(address)":"2ad22052","serverVerifier()":"547ecebf","supportsInterface(bytes4)":"01ffc9a7","token()":"fc0c546a","transfer(address,uint256,uint256,(uint256[3],uint256[3],(uint256,uint256)),uint256[4])":"a135dff3","transferFrom(address,address,uint256,uint256,(uint256[3],uint256[3],(uint256,uint256)),uint256[4],uint256,uint256,bytes)":"c814f73d","usedNonces(address,uint256)":"6a8a6894","withdraw(uint256)":"2e1a7d4d"},"id":21}