{"abi":[{"type":"function","name":"compress","inputs":[{"name":"inputs","type":"uint256[2]","internalType":"uint256[2]"},{"name":"domainSep","type":"uint256","internalType":"uint256"}],"outputs":[{"name":"","type":"uint256","internalType":"uint256"}],"stateMutability":"pure"}],"bytecode":{"object":"0x608080604052346019576110cc908161001e823930815050f35b5f80fdfe6080600436101561000e575f80fd5b5f3560e01c638b0fc30c14610021575f80fd5b60607ffffffffffffffffffffffffffffffffffffffffffffffffffffffffffffffffc360112611065573660231215611065576040810181811067ffffffffffffffff821117611069576040528036604411611065576004905b60448210611055578280516044358101809111611028577f30644e72e131a029b85045b68181585d2833e84879b9709143e1f593f0000001827f19b9b63d2f108e17e63817863a8f6c288d7ad29916d98cb1072e4e7b7d52b37682807f0e32db320a044e3197f45f7649a19675ef5eedfea546dea9251de39f9639779a81807f15bbf146ce9bca09e8a33f5e77dfe4f5aad2a164a4617a4cb8ee5415cde913fc81807f0b069353ba091618862f806180c0385f851b98d372b45f544ce7266ed6608dfc81807f015bee1357e3c015b5bda237668522f613d1c88726b5ec4224a20128481b4f7f60209f60208f8480808080808080807f04d727e728ffa0a67aee535ab074a43091ef62d8cf83d270040f5caa1f62af408180807f1596443f763dbcc25f4964fc61d23b3e5e12c9fa97f18a9251ca3355bcb0627e9f819f829f83808080807f14f6bc81d9f186f62bdb475ce6c9411866a7a8a3fd065b3ce0e699b67dd9e796818080808080809e819e829e83807f1672ad3d709a353974266c3039a9a7311424448032cd1819eacb8a4d4284f582818080808080808080809e819e7f28437be3ac1cb2e479e1f5c0eccd32b3aea24234970a8193b11c29ce7e59efd9839f848080808080808080807f1e6f11ce60fc8f513a6a3cfe16ae175a41291462f214cd0879aaf43545b74e03819e829e83809e818080807f012ee3ec1e78d470830c61093c2ade370b26c83cc5cebeeddaa6852dbdb09e2181807f2a67384d3bbd5e438541819cb681f0be04462ed14c3613d8f719206268d142d3819b9882807f27af2d831a9d2748080965db30e298e40e5757c3e008db964cf9e2b12b91251f819e827f0c0356530896eec42a97ed937f3135cfc5142b3ae405b8343c1d83ffa604cb81819f9282809406970151967f09c46e9ec68e9bd4fe1faaba294cba38a71aa177534cdd1b6c7dc0dbd0abd7a788820180920101970101958180828009800909948180828009800909937f1e28a1d935698ad1142e51182bb54cf4a00ea5aabd6268bd317ea977cc154a30858201809201019401019281808280098009099181808280098009099d8e8201809201019d01019b81808280098009099a8180828009800909997f0b66fdf356093a611609f8e12fbfecf0b985e381f025188936408f5d5c9f45d08b8201809201019a010198818082800980090997818082800980090996817f0252ba5f6760bfbdfd88f67f8175e3fd6cd1c431b099b6bb2d108e7b445bb1b989830180930101818082800980090997010695817f179474cceca5ff676c6bec3cef54296354391a8935ff71d6ef5aeaad7ca932f1888301809301018180828009800909968001010694817f2c24261379a51bfa9228ff4a503fd4ed9c1f974a264969b37e1a2589bbed2b91878301809301018180828009800909958001010693817f1cc1d7b62692e63eac2f288bd0695b43c2f63f5001fc0fc553e66c0551801b05868301809301018180828009800909948001010692817f255059301aada98bb2ed55f852979e9600784dbf17fbacd05d9eff5fd9c91b5685830180930101818082800980090993800101069d8e83018093010181808280098009099c800101069a817f28216a442f2e1f711ca4fa6b53766eb118548da8fb4f78d4338762c37f5f20438d83018093010181808280098009099b8001010699817f2c1f47cd17fa5adf1f39f4e7056dd03feee1efce03094581131f2377323482c98c83018093010181808280098009099a8001010698817f07abad02b7a5ebc48632bcc9356ceb7dd9dafca276638a63646b8566a621afc98b8301809301018180828009800909998001010697817f0230264601ffdf29275b33ffaab51dfe9429f90880a69cd137da0c4d15f96c3c8a8301809301018180828009800909988001010696817f1bc973054e51d905a0f168656497ca40a864414557ee289e717e5d66899aa0a9898301809301018180828009800909978001010695817f2e1c22f964435008206c3157e86341edd249aff5c2d8421f2a6b22288f0a67fc888301809301018180828009800909968001010694817f1224f38df67c5378121c1d5f461bbc509e8ea1598e46c9f7a70452bc2bba86b8878301809301018180828009800909958001010693817f02e4e69d8ba59e519280b4bd9ed0068fd7bfe8cd9dfeda1969d2989186cde20e868301809301018180828009800909948001010692817f1f1eccc34aaba0137f5df81fc04ff3ee4f19ee364e653f076d47e9735d98018e85830180930101818082800980090993800101069d8e83018093010181808280098009099c800101069a817f283e3fdc2c6e420c56f44af5192b4ae9cda6961f284d24991d2ed602df8c8fc78d83018093010181808280098009099b8001010699817f1c2a3d120c550ecfd0db0957170fa013683751f8fdff59d6614fbd69ff394bcc8c83018093010181808280098009099a8001010698817f216f84877aac6172f7897a7323456efe143a9a43773ea6f296cb6b8177653fbd8b8301809301018180828009800909998001010697817f2c0d272becf2a75764ba7e8e3e28d12bceaa47ea61ca59a411a1f51552f947888a8301809301018180828009800909988001010696817f16e34299865c0e28484ee7a74c454e9f170a5480abe0508fcb4a6c3d89546f43898301809301018180828009800909978001010695817f175ceba599e96f5b375a232a6fb9cc71772047765802290f48cd939755488fc5888301809301018180828009800909968001010694817f0c7594440dc48c16fead9e1758b028066aa410bfbc354f54d8c5ffbb44a1ee32878301809301018180828009800909958001010693817f1a3c29bc39f21bb5c466db7d7eb6fd8f760e20013ccf912c92479882d919fd8d868301809301018180828009800909948001010692817f0ccfdd906f3426e5c0986ea049b253400855d349074f5a6695c8eeabcd22e68f85830180930101818082800980090993800101069d8e83018093010181808280098009099c800101069a817f0962b82789fb3d129702ca70b2f6c5aacc099810c9c495c888edeb7386b970528d83018093010181808280098009099b8001010699817f1a880af7074d18b3bf20c79de25127bc13284ab01ef02575afef0c8f6a31a86d8c83018093010181808280098009099a8001010698817f10cba18419a6a332cd5e77f0211c154b20af2924fc20ff3f4c3012bb7ae9311b8b8301809301018180828009800909998001010697817f057e62a9a8f89b3ebdc76ba63a9eaca8fa27b7319cae3406756a2849f302f10d8a8301809301018180828009800909988001010696817f287c971de91dc0abd44adf5384b4988cb961303bbf65cff5afa0413b44280cee898301809301018180828009800909978001010695817f21df3388af1687bbb3bca9da0cca908f1e562bc46d4aba4e6f7f7960e306891d888301809301018180828009800909968001010694817f1be5c887d25bce703e25cc974d0934cd789df8f70b498fd83eff8b560e1682b3878301809301018180828009800909958001010693817f268da36f76e568fb68117175cea2cd0dd2cb5d42fda5acea48d59c2706a0d5c1868301809301018180828009800909948001010692817f0e17ab091f6eae50c609beaf5510ececc5d8bb74135ebd05bd06460cc26a5ed685830180930101818082800980090993800101069d8e83018093010181808280098009099c800101069a817f0ddbd7bf9c29341581b549762bc022ed33702ac10f1bfd862b15417d7e39ca6e8d83018093010181808280098009099b8001010699817f2790eb3351621752768162e82989c6c234f5b0d1d3af9b588a29c49c8789654b8c83018093010181808280098009099a8001010698817f1e457c601a63b73e4471950193d8a570395f3d9ab8b2fd0984b764206142f9e98b8301809301018180828009800909998001010697817f21ae64301dca9625638d6ab2bbe7135ffa90ecd0c43ff91fc4c686fc46e091b08a8301809301018180828009800909988001010696817f0379f63c8ce3468d4da293166f494928854be9e3432e09555858534eed8d350b898301809301018180828009800909978001010695817e2d56420359d0266a744a080809e054ca0e4921a46686ac8c9f58a324c35049888301809301018180828009800909968001010694817f123158e5965b5d9b1d68b3cd32e10bbeda8d62459e21f4090fc2c5af963515a6878301809301018180828009800909958001010693817f0be29fc40847a941661d14bbf6cbe0420fbb2b6f52836d4e60c80eb49cad9ec1868301809301018180828009800909948001010692817f1ac96991dec2bb0557716142015a453c36db9d859cad5f9a233802f24fdf4c1a85830180930101818082800980090993800101069d8e83018093010181808280098009099c800101069a817f12e0bcd3654bdfa76b2861d4ec3aeae0f1857d9f17e715aed6d049eae3ba32128d83018093010181808280098009099b8001010699817f0fc92b4f1bbea82b9ea73d4af9af2a50ceabac7f37154b1904e6c76c7cf964ba8c83018093010181808280098009099a8001010698817f1f9c0b1610446442d6f2e592a8013f40b14f7c7722236f4f9c7e9652338727628b8301809301018180828009800909998001010697817f0ebd74244ae72675f8cde06157a782f4050d914da38b4c058d159f643dbbf4d38a8301809301018180828009800909988001010696817f2cb7f0ed39e16e9f69a9fafd4ab951c03b0671e97346ee397a839839dccfc6d1898301809301018180828009800909978001010695817f1a9d6e2ecff022cc5605443ee41bab20ce761d0514ce526690c72bca7352d9bf888301809301018180828009800909968001010694817f2a115439607f335a5ea83c3bc44a9331d0c13326a9a7ba3087da182d648ec72f878301809301018180828009800909958001010693817f23f9b6529b5d040d15b8fa7aee3e3410e738b56305cd44f29535c115c5a4c060868301809301018180828009800909948001010692817f05872c16db0f72a2249ac6ba484bb9c3a3ce97c16d58b68b260eb939f0e6e8a7858301809301018180828009800909938001010691817f1300bdee08bb7824ca20fb80118075f40219b6151d55b5c52b624a7cdeddf6a784830180930101818082800980090992800101069d8e8201809201019d800101019b81808280098009099a8180828009800909997f2953736e94bb6b9f1b9707a4f1615e4efe1e1ce4bab218cbea92c785b128ffd18b8201809201019a0101988180828009800909978180828009800909967f304f74d461ccc13115e4e0bcfb93817e55aeb7eb9306b64e4f588ac97d81f42988820180920101970101958180828009800909948180828009800909937f0ab4dfe0c2742cde44901031487964ed9b8f4b850405c10ca9ff23859572c8c6858201809201019401019281808280098009099181808280099451948009098101010106604051908152f35b7f4e487b71000000000000000000000000000000000000000000000000000000005f52601160045260245ffd5b813581526020918201910161007b565b5f80fd5b7f4e487b71000000000000000000000000000000000000000000000000000000005f52604160045260245ffdfea2646970667358221220db9a83fff643348f6054797fed3102cd310865a4aaba55fa3f9488bdce0c7bef64736f6c634300081e0033","linkReferences":{}},"methodIdentifiers":{"compress(uint256[2],uint256)":"8b0fc30c"},"id":33}