{"abi":[{"type":"function","name":"compressProof","inputs":[{"name":"proof","type":"uint256[8]","internalType":"uint256[8]"}],"outputs":[{"name":"compressed","type":"uint256[4]","internalType":"uint256[4]"}],"stateMutability":"view"},{"type":"function","name":"verifyCompressedProof","inputs":[{"name":"compressedProof","type":"uint256[4]","internalType":"uint256[4]"},{"name":"input","type":"uint256[300]","internalType":"uint256[300]"}],"outputs":[],"stateMutability":"view"},{"type":"function","name":"verifyProof","inputs":[{"name":"proof","type":"uint256[8]","internalType":"uint256[8]"},{"name":"input","type":"uint256[300]","internalType":"uint256[300]"}],"outputs":[],"stateMutability":"view"},{"type":"error","name":"ProofInvalid","inputs":[]},{"type":"error","name":"PublicInputNotInField","inputs":[]}],"bytecode":{"object":"0x6080806040523460165761fff590816200001b8239f35b5f80fdfe60806040526004361015610011575f80fd5b5f3560e01c80630bd6bf4914617c4257806344f6369214617b8f57634f89a1551461003a575f80fd5b34617b8b576126007ffffffffffffffffffffffffffffffffffffffffffffffffffffffffffffffffc360112617b8b5736608411617b8b573661260411617b8b576103006100878161f6cf565b8136823761009660043561fb0c565b6100a760249392933560443561fbb0565b919392906100b660643561fb0c565b9390926040519660408801967f16014102db9de88c44259633d122d1dd6e9fb82b8984a378c74b730d163a94ca89528860208101987f0f2a2b6a68381bc93612284dd2875bdb9ff404311ebdc1da47f680142fa029ca8a527f1a5bece0a06bb393cb5ef163410e727a5477e6b9ea0812c81ccfa2950a43760e81527f30644e72e131a029b85045b68181585d2833e84879b9709143e1f593f0000001604060608401927f2d5f7caa4241d3497c78608878c383b205c6287978889ec8b88c2317e79ce36984527f191d92200ac5f3e4273a871f5b142435ee9b67c8b2513622f26f021a27c908806084359583608082019780895286828660608160075afa911016818360808160065afa167f1fa5a8a231f89dad86faa6ddf7da430d9a437f752fc56499813bc6e9b144a15085527f2110f5866f98b33c96fe3cca59859b8539e8d5210c24738b12abe2f9fbe9f9088852600160a43591828b5288848860608160075afa9310161616818360808160065afa167f296a8531b938e5aaf3a2629279b5f89e307a36e2067a74bae7922389b6b72cd585527f046d8705ef2cf5bcdb2a3d5f6c81705f13550b6d6cadaad3d6af386fe669dc80885260c43590818a5287838760608160075afa92101616818360808160065afa167f0ea38287df54a5f3d420e0eb41c7bcb7380076eddcefed323a61ef50c16f796c85527f22be0e74f875d777ae2233a49f6ebd4a25ff7c83864962f25be843a2974db707885260e43590818a5287838760608160075afa92101616818360808160065afa167f2886885ece937502ec95e84d7d72760c189de343c8a043de2682ffda9836ff4985527f041e09bc341f46c7d27e6e274f54c67adbd99d49ce7477d59b90cd40352be3fa88526101043590818a5287838760608160075afa92101616818360808160065afa167f1571e505c27878f500db4118d6c5670b8209d0fcc94bea85b774134373390a5e85527f07b4066b4644f4af8911c32dff07e2c6e36265ad751b47ffc98a5b4fdd38f82688526101243590818a5287838760608160075afa92101616818360808160065afa167f0bd76597391bea3c7f70edce9bf4c45d3b6c2a8af4665547fd3b6ddfd839de8d85527f059b6ac2841b2406bc58643111d9c9fea955ade2c793546cf3079618d2dcca0a88526101443590818a5287838760608160075afa92101616818360808160065afa167f258d0d73eee8bd4a6168373b5fea38c0f62a9d3bc59181132d782cb3e52fe5bd85527f10d4ef0b68845b5d02844300c7324d470d485b256d2c8b6b5249bbecffc50ee288526101643590818a5287838760608160075afa92101616818360808160065afa167f178c4b5148dd0340b70e51102bf1eead6c5f7bc978a8a5d7aeefd4efa66d19ba85527f190d887831f9d0afa707d99038dd24501b7f6140d9f861cd2a95bc54c323f67c88526101843590818a5287838760608160075afa92101616818360808160065afa167f2951f312957643e9b9c590a6b3f3015135b059fc0b54c48e95c98cab26cc00ad85527f129e5d9d7b94cc61c68bd9154802ea8f65551e0de175339908c42f62a657129188526101a43590818a5287838760608160075afa92101616818360808160065afa167ef02040d4fd0697e612501931a8370d7858e266057f0afee33aa6117057934285527f2697f2207cef01f7bff48f0c7b9314d8c79c345d70659ab8f696ba648ee4d7c888526101c43590818a5287838760608160075afa92101616818360808160065afa167f0ed40243c7579ef0e2f7bcc6dc8d0b9b7ad8a6da16a1e1bdfc26f8bf9a22db0585527f1a1cbb4bf7567f8dd109064b0a0d12afd364137e025f6307425a4dfe43d8d1f988526101e43590818a5287838760608160075afa92101616818360808160065afa167f2ca75970204fe3f951bf614c864f97b82915431dba753cd74363e5228faf54b885527f0ee6df607a4517d69ab368bdd6b313c4b9ca69fd855cea59bb79eb0fb261da9288526102043590818a5287838760608160075afa92101616818360808160065afa167f1cfefd6f026d2d6487a0e844eb06a9dc9668f270d87c40fbcd91393caffe01c385527f2f0e9b81abec6ca385627aa14f91df7e3eb11e47208979cc4b3fb8988f4fac1788526102243590818a5287838760608160075afa92101616818360808160065afa167f1105daaf6f4f01e126ecdeb6b9b69d9890dddb41d2b1507f50ad78be5d1f2d4785527f0dd4f637f091f0062d722e363731561673189b639bffdddf26ebb4897b7db3f388526102443590818a5287838760608160075afa92101616818360808160065afa167f2b32956f815a579849b379cc710c44f1da99dcd2ba05b800251900a40adb3b4b85527f2c904c0606579028c20c6e3c7e53e35850644b79030365e4e952647f4b25236288526102643590818a5287838760608160075afa92101616818360808160065afa167f1bf8bba6ac146da26b6736abe99a3e28d1f1d29dfef80694a0bc7c2f44df91fa85527f22dcf1d0dd35b6ae4d3f7be41d00bdc91d7e0f7498ed8f84cfb8739fc76ed5c688526102843590818a5287838760608160075afa92101616818360808160065afa167f28f645b9fbf9d49f4e360c78a52a124daca0904121e47f5d9110047f748d12f485527f1d6d247f10325a0389972415e6638abba2382343729084acc61d3c80893b9e0a88526102a43590818a5287838760608160075afa92101616818360808160065afa167f24dd397d8e1a05a933f4ae04a332119256e72d09dc0062f84225c82b12be5bcc85527f1e6f4d6d4406978c6f862ca6f0ab604001f076026e20a5dfd8bb544ba1c0163788526102c43590818a5287838760608160075afa92101616818360808160065afa167f18616fefe284961fa483a6a6a773e7e449bdedb47a5c8b931cb4d46c6d33970b85527f264b7b5028fa4dd45f65e24b1f60d2b0ce4b9a00ab14eb68830ddfe601b21ca088526102e43590818a5287838760608160075afa92101616818360808160065afa167f279a2b59a98ae230cb456931372322dea8f12c7b534c39a94137ac219a851e5585527f16298a37e149d5f73e97688d5c3d22ef4ef0327f401877d551cedada41be78a488526103043590818a5287838760608160075afa92101616818360808160065afa167f22d88b350a7809fc78652d08906356f3b3d60e66c710fbdbeda5d8d55980299985527f121d91b8dbc28d191f26d66dc8482d866a90f811da13ac5a006c1c4a3b95493c88526103243590818a5287838760608160075afa92101616818360808160065afa167f2cf445df0b0131a091b5cf947b40555490bb88f03e4a497e1082e504761e627085527f2635231dbf35af7a9aa5dc558f9a835bae84c888c775bd8aaa121d510606212c88526103443590818a5287838760608160075afa92101616818360808160065afa167f1213d6634605ddf153affc03de766d13558209cb04ed53e9021e440bf08cb59085527f07059d3ab9a3d456fd2cc70cc457147e51dfc49ca5ba0a7ea92d02d90eb79c9088526103643590818a5287838760608160075afa92101616818360808160065afa167f2cfdcb34a3ee18f6f81a6077acd9a0c0a87f5981c4e676b4628a1e5ee822e91785527f29fea19020579efd200367f5c72ce40465765bfe55589dded6054bd9dcf7f64588526103843590818a5287838760608160075afa92101616818360808160065afa167f0bd3bf31d32109a3201074c4094cc6efb69d64d0e80abc9efee0ba9993fd360a85527f24bc79bd8a9708987f8445f930e0a138e93ac1d8ab296dc925e280f2a9a18edc88526103a43590818a5287838760608160075afa92101616818360808160065afa167f1a5c733bdbf8eca37f988e8005d5b4bfa239f976a9ade8d0357919f303ff5e0885527f05cb05f4b060847acaa2e9bebddcd381e2a2687c85e25d7a65a59fa2cea5ccc488526103c43590818a5287838760608160075afa92101616818360808160065afa167f034588be1b284e37dd593b4529c3c6f43c1ac111b7e2268a30089bc8ee809ae985527f294c12a666c12396bf3b9c95ffa2258c5bffb72165e3c4e62d6f44f525cee67688526103e43590818a5287838760608160075afa92101616818360808160065afa167f1b32a443d4fbc7bbbc7a6eefde3cd5d86bbc26aace5a222776d0c0ad00b91cc185527f2990b162bc80cc162e38b28c38d62c8b9b2a894098adfed219258e4c13a6697a88526104043590818a5287838760608160075afa92101616818360808160065afa167f06a2a2db18cb8dea96116cf68f32cc79a1fef81cba23ff1fb84997adc34d670a85527f2286b55ab3018b843d5cb2ce8043de5cd77b2c75ba74143bba44aa64524962b888526104243590818a5287838760608160075afa92101616818360808160065afa167f2aaff82ab20cab9f404233f8c56ef8d1901d38c48946dd5557e1058836f20c2785527f01f85478ab6ed2d6621fb98fd02dd460e4a3e39324475c27245f0144c61b92eb88526104443590818a5287838760608160075afa92101616818360808160065afa167f243fa79acb843eea6b11a7ff8b561e970161483fbf74cf6072be19754724892385527f0b7123182147826d05b775c0471c831a5fdb19fd9906e08e9ee7444a53b5168b88526104643590818a5287838760608160075afa92101616818360808160065afa167f2328adadb16b1698936851c7c50add613a26a5169561cede98a67540af34531085527f1ed983158e47bdc66c2c55c4d6fe2ece26e86aa969eb3db20722af67e5de1af688526104843590818a5287838760608160075afa92101616818360808160065afa167e3ecfebd570f0746d65d803c85bb6df6c92cbe2d02a5ba442507f07fb2e0a8d85527f08735fe27d1f793c841040838f7829c11f0c3afcbddd9baeaecc07c8e5986d1788526104a43590818a5287838760608160075afa92101616818360808160065afa167f1c95d3aba9c45d9a7c392e3b4b04256126e298ace066df6b5cb312f75550881c85527f0b68ef32d75ca3b6fa6bca0efe6d4392b116d9386d1d90c16f146b53c677543d88526104c43590818a5287838760608160075afa92101616818360808160065afa167f29d01c0a6d3b9ad837627e3ea34858ac5b06fe1617ee2873fa6e38b2313fc33e85527f105d8617d3e2b3cc995e0c88b3dd4d01e6b31ce77c3e6b0c777f4696367f256788526104e43590818a5287838760608160075afa92101616818360808160065afa167f286995209a2f472dc61e2697423d2bb34733dd29300331e56057e55e29cae7a585527f06c990c5aea5bba5f24ebdabc2d3c3b3bc87cccec02ba5a29378f7a8a107683588526105043590818a5287838760608160075afa92101616818360808160065afa167f21c78df530e21172ecb792d222b5ce9e67dcf3d82bf338cd6e9b16148b6d1a0685527f02e19cba378c0812ad064d008dfea5343a3c49135c90f9df84eb085f1fb4737b88526105243590818a5287838760608160075afa92101616818360808160065afa167f0a11129dde7705e4227f88b817dcb635ebe5db4dba07369f7e03e5f21d8680f485527f245f33ccbfbe9539284597a543e96b1874acca31aaf727d4396c3ff69637bb0c88526105443590818a5287838760608160075afa92101616818360808160065afa167f07c689aa6f26d8c0eee2234312dfb26401b2fff37eb9d7528431025b65e5140985527f1f47579947605636a33784134448e73e28688e03950c028ba2bab2f706afcd7b88526105643590818a5287838760608160075afa92101616818360808160065afa167f2d19b3e1666da4e5552c9afec60f54fdddd324e457be0eb6e4d3f301425666a785527f2f7f253be1b892248866fa95f21a51d34b8d368b1764bc26052627a6d123e6ed88526105843590818a5287838760608160075afa92101616818360808160065afa167f0d9c749c078fe60f6892563d787f314a4a31458ca5872aa952f6748143ecf6b985527f03e0d753cd56637d5b95217727b2615a4202fc7ec5f4e3ba9a8a52b2360ffb9f88526105a43590818a5287838760608160075afa92101616818360808160065afa167f05bef49050ca61cbdc8be262aa2cd9b8bc786ac9d69a2b9b1bc8bb98cd626adb85527f23dd124596146dbe4b50936b82394dcc17fa909b8ed8252f00c4fda7781787a188526105c43590818a5287838760608160075afa92101616818360808160065afa167f04284a9764ef6ad3448ba63e3bbe9b0e36eabeb6582397ff25291a9359a55e5785527f198c2a4ac58aa1100db62f7b3cef95173e3aa4b86f60163a5c32fe9b3aea539588526105e43590818a5287838760608160075afa92101616818360808160065afa167f2d2b2907c998e6d5d732f2633d4a3993cd2d0756cea72f77b3d983a7ef24741385527f025d5c8a511d93f4c9951d788d427f77e51b76b51ce483fb23dc8f1fe8aa3dd188526106043590818a5287838760608160075afa92101616818360808160065afa167f1c2754a2f2218e1b5d4794c68e1b676ab2464cefd819ff35b6b53b66ca0a50f885527f106a2cb8cb8a861a858032a9056c37af86751f429694297f2d3c37f949e0c6ef88526106243590818a5287838760608160075afa92101616818360808160065afa167f0e06e4c93b1d82f0db8ce7e4dce578a3b01eafb5b2510eb6223aecb2e91ed51f85527f1f49f4b1d12b386ee6b0b81eac42c58db83f45d07908b538a7f0638beca0664c88526106443590818a5287838760608160075afa92101616818360808160065afa167f13a08f5ba629798b06be69d60736c350ab73aecb788b5e1e7a02200c1f7dd25c85527f0de75ce4b636b994639e6c2c4cc49054ee387aa3ca70293d692494a0008a951888526106643590818a5287838760608160075afa92101616818360808160065afa167f0deae0e795564f037ba35288a41d0ec698867e9c1d88a36b2a577818e9c188c485527f010483714d340cc463c02399437da11d16d999b09098f7ece7b6fa381346bedf88526106843590818a5287838760608160075afa92101616818360808160065afa167f1941e2cfeda6138a5cb431c10ec35d443b6497518004009a2c6159a896ce0c5585527f247dfacabddf9447772ce00e552fa25ba39f2823ac2b541a9105cc711329ee3288526106a43590818a5287838760608160075afa92101616818360808160065afa167f11898204c83a5588a13dd643dca8637d84cb01e2122b422dbb1730f0b349657a85527f22bf13b4287f27da782485c7e73ad7441a0817b9e722b7df095b5acf6e74513c88526106c43590818a5287838760608160075afa92101616818360808160065afa167f037125540c4f08c6a2caf004c23271f9cc1683cdce860b9d98e00a8142d3ef2d85527f292d0f9aba598fb108aa87a10737eda503a0deeef1e851431308329f85fd47f788526106e43590818a5287838760608160075afa92101616818360808160065afa167f02fd4e80146a467322d186420aad48effad5d5589799b8c29da71ea8b926a71885527f13299035be8118ce0e19468892d0ca192078c9ccd842e41a3777cb4cd4617b5788526107043590818a5287838760608160075afa92101616818360808160065afa167f1f4c8d12a523372c8a52d51b79e2adeafdde5225200c73c445eb978b4571363685527f22e2409997f99c5ce17f053381b7a2ca635bb20f4b3dd844621e9a65824a807988526107243590818a5287838760608160075afa92101616818360808160065afa167f22e4888a22888f3217a74b3f1ff2e4c40637b355e8251acc46ea66331f69e79b85527f1c8362ae477b74528fc9b098410b45ff39873a3e383b78c3649e08066c9a1b6588526107443590818a5287838760608160075afa92101616818360808160065afa167f11fbab109f6ee9f648c3eea85a914f98f8b21114354dbb04cf880c96130a6b6d85527f25dde49df3a9baf5d0f202a8a2b9df297a246761834d57bb2e0a0ef9dcae7aae88526107643590818a5287838760608160075afa92101616818360808160065afa167f0fae90e76a92d0f3536a02118fab0d6ff6fc1b40e6b546e10018ed86e4ab420f85527f0acb59116e9efa0e35aa822c366a235df88a68dd64cca974400f23faa2764c4b88526107843590818a5287838760608160075afa92101616818360808160065afa167f153697ee144a1cd8116bddcf999c589fb58981e4294107554f487cdb84d9c58b85527f13451bce003e7a10308fab0464b8e27e46cbbc0b2a395867e933582b536035ed88526107a43590818a5287838760608160075afa92101616818360808160065afa167f109cfe0c52774337cab9f275e428bd59a04421af4a8339e109e1e3846e0b81ad85527f123fb1360545f21f9a1b5d1ce424874f4918b5309dbfcbeca35cedb11fde113888526107c43590818a5287838760608160075afa92101616818360808160065afa167f07ab1d32179743ba7c3d13cb6aa5c06382240c301480a828dd180181752b39ed85527f2b6dcfd1f27407f573c7f35d1fc4c19ad5e2928518d7b1c3533cd0e201929d0088526107e43590818a5287838760608160075afa92101616818360808160065afa167f14483917c4efe5a81504dacd2b913f67d46a6566783b69187b255b23fd8b6bc485527f0ac2bd55ba87537f49dc308a143844ed4ecb39ac35df93d58ebf54add5ea34bc88526108043590818a5287838760608160075afa92101616818360808160065afa167f1b44d2c6a699215ef90bc5c2e42c316ddc96da21e0153577ba3221fd296934a285527f1535cd0fec497a8ca7772469ffa872bbf629c0bd0f068b0b61c5ca60879905bf88526108243590818a5287838760608160075afa92101616818360808160065afa167f07f781f940eea32854622431fd97442e8a1e34ad11b3522c1f59f9d8ea3f137785527f2d8a2847795c9db067f47f9927edcafc451d31e5f85823ca67dfa889be07e97e88526108443590818a5287838760608160075afa92101616818360808160065afa167f2114d1438377f4a9238afcb8582420a2869089bc53701fa29dbfb592e8860ba285527f27d5c73dede0f3c2f94e8e5c9b6ddb77ccb0f8c9272e0c0bd4a13efbce619a6e88526108643590818a5287838760608160075afa92101616818360808160065afa167f2641cc21b252de095d78bdcafb1f61580806ed18d7beb9223b55fc2e7a84211085527f0e22d54cb5fb97bd03773b6378573c17f720c8cc8d8eef9eaed3b2c0194ca6a988526108843590818a5287838760608160075afa92101616818360808160065afa167f02c750dd8f5010e0a890264994332ee9e0252b3183190cfb97bf8525f02771ed85527f02cb35570537243343b63fbbf462a163a38a523fd2513928f8de17dc8be72b2488526108a43590818a5287838760608160075afa92101616818360808160065afa167f1f17bdde9390704b52f212fe4f9de3b9d827eafca572a117f36852e2ea9504f285527f141753fe59369df23619707ad576ca5f21ab58da235b43965f13f5521518817588526108c43590818a5287838760608160075afa92101616818360808160065afa167f079b510348bb9aa55071164214314d4901ef689e82ecf5f2c75b35edcd83e97985527f14ceb41b476d47cf5d8d407dc7a02960af53fbbb87c12cfdcc4b23e91daf156988526108e43590818a5287838760608160075afa92101616818360808160065afa167f0a87fc1706327899032be8f9af81871cc765e92e643e80908fe9aa67b9bbe16e85527f083129b0dab6afbd0c0eec081d68e847a94234cd570b1a8dc59ef388f5295db188526109043590818a5287838760608160075afa92101616818360808160065afa167f214022bd1c8b916a22019498878fc3d798cb936a2cecd5e3af3084ca0ec363ae85527f0b0bf015b3f4441f074d1d56a6facf8ac5370ed50ff3153689adc5ea82c3df7888526109243590818a5287838760608160075afa92101616818360808160065afa167f0847b09f11d99a746d082f08313bfcf30af2cfa15c30459dd0c1c908541af51685527f2ff7769d543cdd54b44dcfb4251c8ab886f5e08e6eb815f74421134cf41ea3e588526109443590818a5287838760608160075afa92101616818360808160065afa167f1013fd5ba43630f37c540dea4c6193478c5f71c40acc1448e4a9c82b29b0fcf885527f03c3a317c7b1a9f38fa8b6c011519534de94f9f1b1550aba15e79d5c14e3a3ea88526109643590818a5287838760608160075afa92101616818360808160065afa167f24a7487c3e8b903a3e000b67a02575113ba42cf827f2d9201eb7ce651d2753c585527f033d5c0b15f2c96f8bdea29eb34ff37cfd9874696eed2f2a328c3916d5ee4f4688526109843590818a5287838760608160075afa92101616818360808160065afa167f15e9fb926f97bb6748847de6dcceebe45e691e4bdc900618ea49f29eea4da8db85527f093a0cd487c5a4433acbbfa36451f2ffbce1c2f7f76b529033b1c06b74435cec88526109a43590818a5287838760608160075afa92101616818360808160065afa167f24fdd500af49901a36a687e986536903488572d6594a481c8db0e2159491052785527f2c0957aa3902713f3473909dcc7cffe1ef3f5efec2966ea5a6af644a4fde425388526109c43590818a5287838760608160075afa92101616818360808160065afa167f05c75f8547aaa6c48c7da0d7a414cd097b8b92d9d596ea000ddae0b0ab9e0b6c85527f23f012060cab79881724a098698e06f008769c5713441ecbb5cffde455bf371c88526109e43590818a5287838760608160075afa92101616818360808160065afa167f1c90eaebea9136182920c2a30123a54817d5f6e770b8c445284187c6dc9a25f785527f2a2a2b65388a81a642a76eeac7ae4cb0f1c49ad530fac4f214924ff3bec69ff18852610a043590818a5287838760608160075afa92101616818360808160065afa167f09f69331b1971447457c05147230b73602c210a0821562db89ed12b08ddef05a85527f1c81cf087e7e77aefc8eb1e83367977d877d92f451a5a8ece700bc89c1318e838852610a243590818a5287838760608160075afa92101616818360808160065afa167f23800f4a970ca18172ad66d57a31f0b439af4f982f81640fb9f71b8aa439378985527f28810643cc2b3520deb1768e49d418305dce27c28b94e981cd8b8831e08c2e8e8852610a443590818a5287838760608160075afa92101616818360808160065afa167f190cc9bedea2ae3d1130a5ced7e946b5f2025ad8cb3ac041589f125b1e3ed02e85527f0f62d45f5daffdb1b77ea64c4383f930f22cb20292e8f6c9128a7c95bf4c06f98852610a643590818a5287838760608160075afa92101616818360808160065afa167f0f83c8afe3d9ea982b287fe80983860ec9bc14eb0f7ade75f8b5bedfab0c4b6e85527f2b07184803e95411c9f9d3557c7bfc6c8d85e2130175ba2a2c09a42b0f3e49128852610a843590818a5287838760608160075afa92101616818360808160065afa167e3732d7b70f3f0eae6c8688def976393901cd2f691ef3510984261edc66c2a985527f0b9718b63da3fcb8daca3256fc294737259af7d22fbc5606722b4ee350aaf05d8852610aa43590818a5287838760608160075afa92101616818360808160065afa167f01aca27092f5324fc64f2fc656a7f45987b7ed7788896ea5f1380f15d1de538c85527f2bbc0b9f667a602ce0a881e130eb0b3e550f6e71e365387869a36b15819b02098852610ac43590818a5287838760608160075afa92101616818360808160065afa167f08ebcd3ef8b006031b8c2c8d417f2a96b2b771e890afafecf6113009f9fa23ca85527f0c510ee27777ad5bd268be8b4e7d0fd8e0cb9697735f2fc8d30b08edf43051078852610ae43590818a5287838760608160075afa92101616818360808160065afa167f2516e334739d32e9e95e7e311a6b36ecd528fa902c355aceaad93ecdf96c31b785527f2cd2455510f2d6faca36bb3659de0a51ed06cde95bc40a32d8cb5c5c52e66e8b8852610b043590818a5287838760608160075afa92101616818360808160065afa167f1f22cd5d1bd77088106c047f6b88a262bb7a07d590d9aa0bd098277c0299cdf885527f1f7da565094b1527cd54c80091211cf84b21bd9c919c015f6f138ff5ef09dfd28852610b243590818a5287838760608160075afa92101616818360808160065afa167f165d7cf9e4fefdf8647c4daaadbd309d16e9ca5bdaeb7f3af26b7fc157ffd65585527f1d827e91ce2e7e753698de0542dcc57e3bae22f6e1a62b963c65a506861aebfc8852610b443590818a5287838760608160075afa92101616818360808160065afa167f131b4ead1981d63410a4bb01e0095ea660d417669b80d643f7fe662d75a7c9b585527f132c7bbc61d3b671b92f65b27bc64b56869270acfa3b8feae362d4c88a0cd74b8852610b643590818a5287838760608160075afa92101616818360808160065afa167f0f315ebf11bb6f7d6d608d8702db980a79c8c2405ef8456557dbf9a95f49249d85527f1bde494be41e162b4be40929d3fd4f5be18c59693cae327aa3e55c5c4bc81b098852610b843590818a5287838760608160075afa92101616818360808160065afa167f2243c604dfc0001ea7e42f68d35fd77dec73554318e39c6d2843e71db029357885527f10f89448768cf06883ef7331df89671eee0a1f0cc179fb55df82bfd0ce8e09348852610ba43590818a5287838760608160075afa92101616818360808160065afa167f2c721babbfcda1ce3840d502e256b0e38dbb22d2ad9778ff8380c70e0be98d2b85527f2e7dcd31c80356ab73267db8f56655bea0a986b21c1efabc61d613c69882309f8852610bc43590818a5287838760608160075afa92101616818360808160065afa167f26f7ec84aef7a4d4d5ec14c2465deb089b1d4e9e4b048d30f85493e58a16606185527f1ebd75d779194d0e509a4b2c30c35829e889dfdb8806cfda98f5927520fd2af88852610be43590818a5287838760608160075afa92101616818360808160065afa167f2f88d79082ad2f9af29494b60d81e8f1b7aad71b5392fede65ba466c19d4c6a185527f2500d635d161e6e80beb4be25664a78df9efc41caf01d2fbcbab8b3f2edee5bc8852610c043590818a5287838760608160075afa92101616818360808160065afa167f1c8255f56e818f8c6dd3451b3dfaf6d6a79d5b8609ee2da435d3614b7e4b714785527f19113394221e6bb8e090b49200bd2212df81f46a88a396bf3a7e48fa7ef63a928852610c243590818a5287838760608160075afa92101616818360808160065afa167f09e13c3ae0e5c5a605c680f16a734a914aa3ec9fcb46289879d7bb1ef8461d1285527f18571f43b6d347d7b571b7cd9372d24ff0009023b22d476b06107c7be3c54bc88852610c443590818a5287838760608160075afa92101616818360808160065afa167f297ca64306f829095e1a57d5c8ad6fdd4199cc7589e973ae30d552c27635c95985527f026fafc844ce7753cce3232374b9c6c3ec518ce032c08358df92f6ab091c01ff8852610c643590818a5287838760608160075afa92101616818360808160065afa167f11be757f0bff13dfdfae422da357b088d788b943558901f1a2d97f79c2e163af85527f103f5eb98c6b2b202f32e19d68841130951743f481113884dc60eb7289dda1b38852610c843590818a5287838760608160075afa92101616818360808160065afa167f124f91be0fe3c1337d61b2266a904777dd45eb69a104c9e52d2697fc4755c74485527f1fa96b1f45afe12258deb61ca24ca089c1523ddaa90058a21b8913772df44a618852610ca43590818a5287838760608160075afa92101616818360808160065afa167f1a745cb277e5bbfe677b7adf1d0aec33272a6bff19a6774dcd02b89d88c235fb85527f130b6a55828cf8adc7189cf2b94674bb7c216d5d9b2aa1582f6e0d9a593f95658852610cc43590818a5287838760608160075afa92101616818360808160065afa167f0ec95dde7a134b0483425556b389ccad5f90ca1c455bbe3bcffc423319e46fec85527f2f662c8447a0d060751064f049c532a0bd8f420d1d58ddcea0cc5bf797e1ea708852610ce43590818a5287838760608160075afa92101616818360808160065afa167f186089d0e8aeded0f02ac9e51f89a170d34c86946d62dfdda4090a2bd1f5628185527f2e37bc534754b328217395b1f7a70286fcabe6a88150470e1f8905d713f03a618852610d043590818a5287838760608160075afa92101616818360808160065afa167f1286bfff7e1ed54ff6a75e28d7252638fe31c5968889bcd1c522ed63cfd6e94785527f033cd4ea1a57e173ca51a14fbcb77b526ae75d11525d52ff942a524c9b6de3ef8852610d243590818a5287838760608160075afa92101616818360808160065afa167f216b8ba4c44a251b0af2e8214bdd1b04c5b93302b84250af22a5fc10de193a6585527f28286506ddd455895147d90af8c8b545a7732fbde2ecd214a899be4d3477451d8852610d443590818a5287838760608160075afa92101616818360808160065afa167f09af42508727b6d6ded07d09946336c9172fda91213cce538b788db78f8a9c7985527f2c8f48cf0e0868af79b16f7ac7a4977aa280481a57cb7a5a662fb3981d70f98f8852610d643590818a5287838760608160075afa92101616818360808160065afa167f2ab80a4f1a4736f6849e7e43d00b8e3169e907b0e2aa2b9e57b1833d42dfb2cb85527f24fa6e495d83e7fe0eaf6785d44a7b8a4d288b9188d4e6303c85352209eddbfb8852610d843590818a5287838760608160075afa92101616818360808160065afa167f152c446b7edae2e83954a6210e4039796884a5ab3b84c2710107ec73e41fb54685527f2f74ce46ad1269900910b6db42c480d966e27650b528e7b4c56ba92854f5b33e8852610da43590818a5287838760608160075afa92101616818360808160065afa167f1e4afc9146d0495ff193bde78dbad116768258bf30cd79404884d9f861d3d2ed85527f2b31fd4593ecd56b03e852465d449ba693802e003e40927d0f6bdddd80c742d58852610dc43590818a5287838760608160075afa92101616818360808160065afa167f253b73ad6420604916ffc51cf457830c4846cbd2976d477ee9b6c2b6ec2fdcce85527f1505606b72a1583c6da0f9d3fe76ed556e8aa2793ea03ac39c79cb8fad72a5998852610de43590818a5287838760608160075afa92101616818360808160065afa167f0c176fa1bcde8d16bed3ba90cc97959508f04f272d3872ef98d2ddb5b673941a85527f1b33fa28baf65c6fbb38a2327eeaecedccce0e85cc45f35271c3517c12b4c6568852610e043590818a5287838760608160075afa92101616818360808160065afa167f2ee13b88892bcb670fd30e8ce6ae34ad2587418378134cc9eaeaafa4638df76a85527e67fe8f2da1feb35bf3f339c78a1a4f7869078fa63de824a3ea077f27070c0a8852610e243590818a5287838760608160075afa92101616818360808160065afa167f29cb6f5e4bc36a62f3ea4fa5de50e3601dc3fde0b937d1413f5e5f852f06688a85527f22a2999c3329c6b88999a223c454e2aeab859b61d80bfe73387d5e801f05654a8852610e443590818a5287838760608160075afa92101616818360808160065afa167f0638429a39cc2851a94c8b46136a1b492777d447f71898ead5d78c655337414685527f208b6746ff36e21114ec69afbddfd4a45148e7d353ec770c3185224ef7228d9b8852610e643590818a5287838760608160075afa92101616818360808160065afa167f1ab595d3a2a8b5296d5d0b52a8d25a8372f2ff0dfecac34414d95c2b45cb2c6185527f08a4c4cbcd252d474b3af6602b40ebd6d43960ff54fd3010a7725eecea67160a8852610e843590818a5287838760608160075afa92101616818360808160065afa167f1d3f2c9ef1c16c66d9b5a43e4f9c66da8dbadef7ac26ffa3f52d2a1165a6ae6585527f1f911f654f4e1a6c3e77962b370746edf2e5511a60e63d2c547c345446c51b6f8852610ea43590818a5287838760608160075afa92101616818360808160065afa167f05d923ed266e2aec81ab8b6f6aeca34b7a4cd6225df387f5c89d89b0b7dabd3885527e2099dfc135b899548bee73463023a9a76c8f939253b4598631ffd9ec67cd618852610ec43590818a5287838760608160075afa92101616818360808160065afa167f0445c8890bc0343282387d0daec7bfacb45ae2c40fe70223742dbe566b4598de85527f21c4bbb91e6bab5ecdebafe0fa13228dda04a9afd4e15258977b0c13f6c677a28852610ee43590818a5287838760608160075afa92101616818360808160065afa167f265ee335d08d2c56942a6b4eba3c455399499e567f5805e893906e1e26502f1385527f2247c7b13120cadd050033c01e955c2238aaaeb7a8bf6db8676a70529ba6544f8852610f043590818a5287838760608160075afa92101616818360808160065afa167f2880a5ef25c63bc2b9d927f6d74c4a936b65c45e721dd4fcb427ded94278fe2485527f0ce3b167ecbdc1a3b42654bbec5026ca7c82b494b17de4ea7077e14164b9a63a8852610f243590818a5287838760608160075afa92101616818360808160065afa167f1db108dcd6c64db2a2f4a0ff0b6ac56e22218d4bb703979162e92358070a86fb85527f280ce34b5e37645cb6690a4ee9527a1c121942bf6003dd85c3cafff59a40dcf08852610f443590818a5287838760608160075afa92101616818360808160065afa167f0c121abd1a9980300d8cc0407449c83d69c27c6ba7ad60f2f19138ac0a58af3385527e20defd148ca5315158c6f528c5867b2e54a1f648c1d4267fd9ffe08573c1148852610f643590818a5287838760608160075afa92101616818360808160065afa167f2f1938eb4ee546ecbb669339047ed73f96c7834c393291858a95a1feb0baa19d85527f07502c1a6820b4440f0b8b6c3029d3f57f9284f0a7abcf0eed5dc460bbc6e5698852610f843590818a5287838760608160075afa92101616818360808160065afa167f0830ed8f06666800d6dd3f443b8d1bd034702c4055f08dd580242f47bcf226cd85527f041672ed8b74cdf5ebd5e738283721d13aeb3d7a9beb8778a5f26d957d4df0a58852610fa43590818a5287838760608160075afa92101616818360808160065afa167f0343ba346f52425408d9fee874cf3bf5a3c676d3752005a3b2e4211bcda1c82285527e95a855ac81feb1b114c3f7973d5e82a4b64c4ea4aabe17fb48c4b804602a4c8852610fc43590818a5287838760608160075afa92101616818360808160065afa167f06116ead60906aecb0b9e64148904ab05c6cbb469d572f669f114acd7e5da9bb85527f0ab47305df5fe49a710f769925e144b7cdefa9fdccd2f15ec55380bf60dae34c8852610fe43590818a5287838760608160075afa92101616818360808160065afa167f255e191f8453213bcc85954450af10e02ecc6c15aa572173af4def1f9fe0d48785527f2ad9397703a661ff815e25aedb186d873bbd1ea6243da452288834c5d564f06988526110043590818a5287838760608160075afa92101616818360808160065afa167f01918174ec5be26c7d40903576b8f3a5ccd683fbf67f0a922a27c1c795abefb685527f0a35b0b00fc38725219544f1f405cb4902947938489fe628f338d90a1f68a32c88526110243590818a5287838760608160075afa92101616818360808160065afa167f301e0cad775c0d883633d6508a49e8e89e2bb1bca5b75a9fc6ddbd64e0fde22a85527f1b1cafadd1d82c7b9ada5bc354964d86435f14d1a6aa86ddf4f56ddb1acb213a88526110443590818a5287838760608160075afa92101616818360808160065afa167f22f9c19c38344d4fa668bed6468acc9405e40d24e52c119afbca8310a737adeb85527f2d1d84a5b6ff92670c64a46b55325ff148af4f643475cbc51d53c9003307d2c288526110643590818a5287838760608160075afa92101616818360808160065afa167f264317c9285b1d6a3c816134a99f11b0d9e5555a03f9a3e10e8f9384a42e993a85527f12c61eabcda1c503d790539a25609250e7564ee3b315881c9424705e83ed4ef988526110843590818a5287838760608160075afa92101616818360808160065afa167f15ca8d99bdde1d09c154c2ab858e57d29d3cec9a7fc74dada39dcb7aab1c6f4385527f055517b913f02c4292036595e928757d443fbef8fcc53aaf2542dfaaf91099ef88526110a43590818a5287838760608160075afa92101616818360808160065afa167f1374771a0a13fa3a54ebc4310f5d69218e164c20cad7fafe3965a1178e1171da85527f0f80bd05f2d03c6ef5287d908e25ed7e57663f6562c19bcc45da4937eccefe0388526110c43590818a5287838760608160075afa92101616818360808160065afa167f25db643882b90454e32a82cfc6a50edd974112a6898a800e43c1e82ab1ea7e8e85527f270f1c159aa0e3d0aee5327cec164b68d1395af93d0807ccec2760478e9f979188526110e43590818a5287838760608160075afa92101616818360808160065afa167e072a3bd6e47a09ceba4a198f49b8b6190e5352bb4673de0fcbd1d51590db3d85527f21b33f75a613e2c67f5a42b4fa0b77ddc5c95c44e4b53c2eff4f5f001329a92288526111043590818a5287838760608160075afa92101616818360808160065afa167f294ab9f8dd88b7db452e23a94bac640cbff36c25ef2ee271fc703146bca1a91885527f2e6f8ef4ca69c70fc7b66c81efe92a6b81d6344350c2bb0fc15b4e0d122e175888526111243590818a5287838760608160075afa92101616818360808160065afa167f0bd5c061841a629ca98d8e997955320c8cf5138234b259bf5aac96973d5547d185527f11b2170aa47194d28d88c50c34ce31c6017a69867f416c24f4ce5426b9f9e04e88526111443590818a5287838760608160075afa92101616818360808160065afa167f2d2083eeaebc8b25a946fc3c39e8686a2acc346f2b2ec54a811f14e40834b62385527f2dc0c3dd8a72c81eadb85bbb6bf4ec75abf329b37d69021cdd0d5012a9502a5588526111643590818a5287838760608160075afa92101616818360808160065afa167f10c75116d928c419baa07299590cb37bfe47b40f30f93da94fb272ebbe43425285527f2abea80ad1af4b9ac501ccb52acf5fce9f5d4ecdbbf356d9f99549b4056202f188526111843590818a5287838760608160075afa92101616818360808160065afa167f2a2ad810f49631fde57ef189cf7bf7bdaf6d8208c513561a81ffb9747be2017e85527f2cc8ac938e3ff66255e55fed52c15ddbdf905b8ba79a67ff2943902e66589ad588526111a43590818a5287838760608160075afa92101616818360808160065afa167f2b261f8c706842deb94e9e7346246f47d5a24d1bf9fe536bd12fb477adcb1b1785527f07dcf4aa819b65e5c4abd2ab9f44f8a1513cdef07007e931fe9238325de4191788526111c43590818a5287838760608160075afa92101616818360808160065afa167f13865b902c25f2f39d7201d829555cbef70ae35a041aca4142c7774d18a20f9e85527f1534061215e8a66f70ac7fefc65c7ab55984e27e34b4ae0f173ce1fef8ed990f88526111e43590818a5287838760608160075afa92101616818360808160065afa167f1538bedf641925cada2faea90b6279b63f61b26a62c4ef6f044acd313aeb13fd85527f1bf6c2625745ab6477f7b031ccd6107c2b8c562414a1d1a46efb0d00b7b022a688526112043590818a5287838760608160075afa92101616818360808160065afa167f0ed8787791f83bb0ce89fc054152bd3ff641717b4013c141bec11b3ec4776e9d85527f0fb9fa6cc040bb3cec8928a2a8897dc0a22c6d1fd37a7786336f763281b91b1f88526112243590818a5287838760608160075afa92101616818360808160065afa167f295bb6706d0d85368405518278b50506693f157f686f5b6c5062149cd7d2f54585527f2bdaaaf72b24d77d0abbc1d753e11bc67f56b00db6aa016fb71a7777598b07b288526112443590818a5287838760608160075afa92101616818360808160065afa167f104ac1fc1fc9159d2f3687f8cac6e7ff77b021e6e6f8ab51f2046af7df72800385527f061fbdef4fdc53bd2e9b598590fb4059231f2abf3ed36ea81b9163c971d01f4c88526112643590818a5287838760608160075afa92101616818360808160065afa167f05a4ed6541ce8f6f8c80e18b8c9ca9488eda9e59173004784d8bfbc45af146e085527f17287321f0372407825d989fbe96fbfad91aa31650e440a972689c7a0ef0634388526112843590818a5287838760608160075afa92101616818360808160065afa167f131a23e9e98e8c66ea65844503fcb37d6ea6ccf51944bf5e7997060b38ced08085527f026848933359c1ec980a1a9bd5c6903dc59900d6a718ec9b12a02d67433e5fc988526112a43590818a5287838760608160075afa92101616818360808160065afa167f20bac03b869fd2ed2d5688e2065d502feeaa9e2d3b6d47c66a6edcdecd0aa2c885527f0fce5465484cf9e8d1d7c6d68656c73b9017657f684b4c8614a179f6c8a2090388526112c43590818a5287838760608160075afa92101616818360808160065afa167f2db34ef9ae476d06edd5d2d7f50a513af95c10408ad74bf904ee6cdb8eae17ec85527f05197801b1e5438ea9188a33cfe0d7dfe84084021f213cd4c987062558dbfdaa88526112e43590818a5287838760608160075afa92101616818360808160065afa167f03c8e08c649ad5a3ed6921d4070f3932720a7650ff84c4851c162d4e02cabb6885527f2c44c64be2ca0734858d2de4d0d89db1a2d2eb94ea06ab6eef7c921794bc3a6588526113043590818a5287838760608160075afa92101616818360808160065afa167f15e026df8e85d51642d76b4953c812ede169e9f5efc655c34086703f03374a0e85527f10ed56c8260e14d242c3e82509abb72fa816d7a5a7af68f07d4c3df1a787637a88526113243590818a5287838760608160075afa92101616818360808160065afa167f19fb2ffb28a0944c82d3d2a5cdbc4530bf26c4b914ebbb6f5a1dea8b3d02cb9785527f1bb2dfc37686d4d6a2b91194944c9db5dee269568912b64a9b915bbad329532e88526113443590818a5287838760608160075afa92101616818360808160065afa167f2a641ff908c20163cb0b627d1efc273c97e30f0835a836550dbf44344676306985527f18f485339c7eac9e4f0f35e0f922cb4ac8c303ee42fc03f4a2c7479cb222e24788526113643590818a5287838760608160075afa92101616818360808160065afa167f05a05256eb204587b138d0cfe86829d2cfc61d2f3ed7bb83ab596c495f7afc3385527f03d2207d2e90442c2052b802d191b9cdc2097deb0b8e2f31ccc50f7cd0c98cd288526113843590818a5287838760608160075afa92101616818360808160065afa167e42ce67f33e35591caf3f7101b7f7cfbe37b3b1625c237acf22d7fdc6e9965085527f26822e1736150b65854acbdf7fa458d34f1b753619325ed850f3eeaaabeb525688526113a43590818a5287838760608160075afa92101616818360808160065afa167f02dda9d300d9a8ac4defc63eccb7839c4a7b8ff911035afe7a5df88c5dfdf74b85527f0fa6bc82a1bec08068580f9b951a631a7dc73daaf3c24ed803084ff70837179888526113c43590818a5287838760608160075afa92101616818360808160065afa167f262766b0dd048f806022f55530968739e88517d3e5bee99470be49866eca759d85527f227f57966662444dfb9c26d4af0d196fe09036b345d26601a2789c1cf6dec3ed88526113e43590818a5287838760608160075afa92101616818360808160065afa167f2d7e49add71fa589238f881da5bf171c20466b8df4d48c04116e0aa65ec62bbb85527f2d7030ce48d24a48ccebf0a933ad4e145f43ff74eb00f2146a73950c7bf4073d88526114043590818a5287838760608160075afa92101616818360808160065afa167f0b4973470adb76fc015f04f3df3b9993ee2ed154099a6a8e36dcd370274fdc7785527f08da923ff6c9d9b0133a7a701e7661ab8913786d533b92f5f60de185eacb5df888526114243590818a5287838760608160075afa92101616818360808160065afa167ef21710aae50352badc081697e074b4c8e200a84a330f689b8a03d0096393df85527ebe5633dfb24d631aac7ca8177c00fd044562572a7424fa8d26141c44b6495988526114443590818a5287838760608160075afa92101616818360808160065afa167f1e0fd5e30ee7bb0e320cf6aa0f9ca4f76269c93beb74b778aac4b127a498783c85527f1ebf8fd195d038332328afc702f88f4fb7c96a130574856ad6ecd1c56129418f88526114643590818a5287838760608160075afa92101616818360808160065afa167f1a37818eeebb5e6a2ff58d8f1979dc5d8c89138e7f13eeae33ea727633af003485527f2784d22972b8956128fdfa8f89970507b66b08353b5e543d92a43e58e5758bde88526114843590818a5287838760608160075afa92101616818360808160065afa167f07de4b000a25a9d3b0d4153a50baaf06d53ec7ee22c82ab399e4b6e372614ef885527f1417bf9c8b91136ebba7dd66700484444628fdb73503efe5e2dc41e85a6bbb5a88526114a43590818a5287838760608160075afa92101616818360808160065afa167f30631b95422fc4321e9b7ba4cd4a61d23e6dbca9b8995606b704f45b234f6e6785527f0a6675be94074fa40a434cec8540c3088b9616cdda17515823fc03671db6d52c88526114c43590818a5287838760608160075afa92101616818360808160065afa167f2053d5d2f1f67ff3c644e46a00e634971ec937b51b66dce0f7960b8ef09f2bf585527f082be2f108725228363a30ea1fb539f8c05d41e1878e98b8b44c0fc6a1b7c45588526114e43590818a5287838760608160075afa92101616818360808160065afa167f2cdb9c8e89b2c6baf0fcf28ad81948dc055b4201ad734b3fdeffebf28e16138885527f1453fa99f0c5ab50cac8087bffa7586ae660eb98b8aff3e7eb4867e4a77eff4588526115043590818a5287838760608160075afa92101616818360808160065afa167f2cd091886532702d9f6a38e6ca83b366cf723206f55032674b8f67ca66697bd485527f225b916e18304e98509d9a82de04ede2abe2d7f33d279068bc7d578de2ad55e488526115243590818a5287838760608160075afa92101616818360808160065afa167f0eea8d2d8b7ac12e8b30d6216c458d6284ca870b559dee1b05d7bb4eee192dc185527f2097de8c93d20a785406429f0003198ee0b7d700b78a1952adee81115794fadc88526115443590818a5287838760608160075afa92101616818360808160065afa167f12c42f203b2c7b0c96e18c71b48ea31c5e5375185a64be7eff1a9084a7e991c985527f26ffe97d13185bbba9a90839c5aab09aa4c970517eb7cfc368dc73f7edc2cbbc88526115643590818a5287838760608160075afa92101616818360808160065afa167f1d72f4dc92e62e668ea10edaf55b166d6871d78e06608ae6f00a7c272b8d279985527f224517c5006145cd92c4e69c912b01be20cea7246e6bb3b58ec26882b9b5b43c88526115843590818a5287838760608160075afa92101616818360808160065afa167f1fbeb08e88425728c5f9883de5d749b2ef0218fd936ea7215236cf6a9510044a85527f0efda4c5d250826ebb3e07c276c599d0b4682e56bca1f08a6b28f45d43c7640c88526115a43590818a5287838760608160075afa92101616818360808160065afa167f2148d07500162a288f0327b41e51445712fe304854dd334ae776f028b9134dc385527f0a4a4ae8d1b3eb5c46bfd88d06817e85e8f0d4a1af17a8378834b55211c88ed288526115c43590818a5287838760608160075afa92101616818360808160065afa167e5be3510acbb67cc99d6e7492886f773fc8c84450db1bac705f6062ca919c3385527f14a155f0f780f7c87aa46efec7b50c40f64cb1670c96e6b3cc766524fd26e0fc88526115e43590818a5287838760608160075afa92101616818360808160065afa167f0f630f1bc7acb77abb6a087dca923f745e841230db38bc6324b5fef0426f443785527f140af2890ad66b8aac482722e34a2ffaa9ce2917d2179a95152b8df0f94d280088526116043590818a5287838760608160075afa92101616818360808160065afa167f27e413a3e53c569b1d1ce9baaae2652f3ac6a0bf6d93c9c2d2ebd24ecf2a15ba85527f0d4bc8fa5fa1c0dc8b3ed776ae549c2f531ab48a85b4ab78412c35e727532ed288526116243590818a5287838760608160075afa92101616818360808160065afa167f197ed8d24195518025175439de1d696f51a6b96925da0ed8734d5f5118e2414985527f130239cec7f0dbdb683aedd781972a79ea0df665935ff2907d5ec168b61c79bc88526116443590818a5287838760608160075afa92101616818360808160065afa167f035246499ae9d6bd98cb06f980aa8040bee9953f40bc760b04b08d6a2e11433185527f2f9dfcce6f61ad1636231f2be0d492cd6c0fb6524505efc84ee24d22d9a8aedc88526116643590818a5287838760608160075afa92101616818360808160065afa167f1070789ecabc7a0cc6e1f33b3e4c262b1c6aaf12a08a93ef0da5022504d1c32d85527f244e845e683cda660f5769e490c2773e4a62fcec01169cc122ce4cbdc50ceb6988526116843590818a5287838760608160075afa92101616818360808160065afa167f0dc8b807f33075470eb53de964b69920fdb96805d46bfa24d3bacece179344eb85527f24f4a6d65d74a6f1b01d22c2df763500d806ca69ff46036bfbecc131354c2ac788526116a43590818a5287838760608160075afa92101616818360808160065afa167f07cbc903f4e92f26cad293c529fff9c7405f5df6288556888a9a5501a4a6272385527f2fdc2a09a834b98eabaf4c43561e728967ac0b24bdbe353f2dedb04aad93531d88526116c43590818a5287838760608160075afa92101616818360808160065afa167f01515e7eafa389896402c2a78346f1d4f662f8327b52afb9398ca9d8c7ab110c85527f1dac9fc63ebce014337c37a2ad84345f8528dbe5d353ad1232565396e9f757a588526116e43590818a5287838760608160075afa92101616818360808160065afa167f0bd0f4a67a06c65c7bd1b9a40101a2a56f68b5a87c8a01f0fa5fa7001935770885527f2c5b1f70fb82d0736a2749effcd67bb9208e9526742b46efeef5381c0f8d5e1b88526117043590818a5287838760608160075afa92101616818360808160065afa167f0fafff3daae934d813c8c8c0edfb931dd295fd0a0fada815196f345af189745885527f2e7428b7b434d30f338ec05ad54985ccfc4effa5b6c85c39dba1c3a0ff423c9c88526117243590818a5287838760608160075afa92101616818360808160065afa167f157ed68adef4972d3649618356e54dd471bf2a309837a4fb2a22c5b3a306f0a785527f220aab6b74e9b5cc35d45e8854e52df4b6227bddc4447f7344be85d87b57386a88526117443590818a5287838760608160075afa92101616818360808160065afa167f1048c64317cc3201a1d3b2e0270d312df521001b71cda118c53d2a6c6e97275a85527f055befcca06b3eda9abca5a5e317c518f7928c721fb55a26c7babf50abe0c82c88526117643590818a5287838760608160075afa92101616818360808160065afa167f01529b1ea38f93d75bb36f9dbba001eebefd663f15f8611ea703c94362254c3685527f03ce09abfbfce2f48a6542350c1060dfe01ea1b4fd68aca2864d64d60e111ea988526117843590818a5287838760608160075afa92101616818360808160065afa167f2d53c53c6c80bb512ee43ff30df1fd5ad6ebaa4feee3e9af333afc9fd179ca2585527f069ee92b74948566d011b7900ce3ca0c630a427f281ca3fd2f45b734df1aad4788526117a43590818a5287838760608160075afa92101616818360808160065afa167f24fa42b2edf6b7c22eb7b73f917e7e945304d3d2aaf668846a3f2b8e3bfb056e85527f1103b3b7403fd4debbde9b75752113b95ff9eca4d36e835490906afafb2cc81888526117c43590818a5287838760608160075afa92101616818360808160065afa167f1b643671501eda31d22a381fd6c4cfa848973d8531fb53f41908736891a18e7f85527f063931512aa1316ef2f20cf8f9ec7bbd341c97b92b3321d25392fbc90d8e001388526117e43590818a5287838760608160075afa92101616818360808160065afa167f2ecb3dcf5f21457fd5ccc116b5e20f29dce95c5f8a25b66b8175c2ca4b63089e85527f1266daf05603912f1a98fa886c2a8cc3c271e149aa435a02becd7ea19f70cfb888526118043590818a5287838760608160075afa92101616818360808160065afa167f03b75d9970e66a0a4fc30b31ae762d619c0d51684645d91aa30ac651a969acf485527f2d1ce91eb33e62969c9dbd7fd150b7ca6224c0985166734ac7e1ae34c19815f088526118243590818a5287838760608160075afa92101616818360808160065afa167f2f874e3556bb42095d6313d2ef5834318752b321a094bc97d228891a81d3797885527f1301928bf9321a2dde4e0750e6be9adf55d0ca796b45f9f7e6f2446d253fb76788526118443590818a5287838760608160075afa92101616818360808160065afa167f16420a1a4770f0969dd3fa5ebf6bfb7a8e3162224a4a99570eab7f7fbb1fd66a85527f28551e9e068748a66dde204c8691e1cf852eb6c4bc71be40c8c943026b27bce088526118643590818a5287838760608160075afa92101616818360808160065afa167f2f25e96c22dde2e2c3719efb79ab0acb04e2f1570732ebb1eb7e8801c82afa1585527f149a58341860f4fa279db154e15929000ba7d077c631b7313f1cbb206752a06988526118843590818a5287838760608160075afa92101616818360808160065afa167f0455703200ffd01bde8b3b6682bb77522a259ce7179049ead837119610df4c2185527f22e62884404e013e35b1f949576442b77142927ceed71189927961e2a3c1e9a888526118a43590818a5287838760608160075afa92101616818360808160065afa167f02cef97d6ca4b2825b6f274671baf77b0f943bce510bcc6504cccdc457d2ba8c85527f1cec0b0189dc8d2e80c88760df6222c6dae5406fc2d7ab20c5d19ab44dc5776888526118c43590818a5287838760608160075afa92101616818360808160065afa167f2bad2660ed2702b1df2e177827a7f16b47d6c8827b4e0fad2f0df30c1813ca5485527f18cef0062adaaffc4b6d6a5eb9c448d36d8a8a9464dbec6f36ec7ec7af6afe5e88526118e43590818a5287838760608160075afa92101616818360808160065afa167f28b9bd5a5c16690e945b61987b64579174f6d124636baf1cd1268f9ae6f4ce8785527f23b59fa228ed2e0adae581c2404a272a4a4f58b1af07c7a95b91ee6b5150b0ef88526119043590818a5287838760608160075afa92101616818360808160065afa167f0828aa442b1372963f1e91a6596235d29b23c90720241c6ec4c15ff6eab4c77d85527e42c28d54e41a878d26cb58cfe9515df558b7c296f2a76a7786b8df6e54180c88526119243590818a5287838760608160075afa92101616818360808160065afa167f2b36e23d26f4b5b7784e7b107ab5caf39c7443765bf4f186509f4ddb72ff3f1b85527ea2489e9f4f6362ac26a78875b2ad29160775d0975e8d5cf992fbbcb1636ff388526119443590818a5287838760608160075afa92101616818360808160065afa167f29fe940c7b364e919388e53a6c4c8e17b1e9b97eaa9420a268ec931a9b9230a385527f1cab91019dc7f371bc7e8b32c184a62e4b87d1a4dbbc3a5678c7585afa422dc988526119643590818a5287838760608160075afa92101616818360808160065afa167f0c1b3268c61002bc54dfbd8e35aa3af55e0f12a218119ef944a3e6f0f323859885527f2c33305d6c5586299749da2a70af876943061f0db6e1e101114b0c81cfe6542c88526119843590818a5287838760608160075afa92101616818360808160065afa167f16d41812f456e39f9fbae35b6f245e09d0a28ba138f7879f88ebe50cc128c98385527f2764c073acf75a2f3fa03e4dd171337afafb8d5568830d0d9b7c574e01dc91bc88526119a43590818a5287838760608160075afa92101616818360808160065afa167f04c5f35456c182905fedb7816be870a1338e8f8c52e51dbcd334d2265e69b64a85527f261a69fe1698a26c38b230c737d0d3a128eeb1901656b00e94015a988b5346e188526119c43590818a5287838760608160075afa92101616818360808160065afa167f2879088e6b49f5e7a2842103f003e7868578832fb39b316fc7951329a83faff885527f09d8377088a3aa0e032d20df32c9d960807a54c4622b093a6998c757733511bd88526119e43590818a5287838760608160075afa92101616818360808160065afa167f082ac2085fea7a4db91e73d9085bf8dd115ddd41821209d0fb18de90f62da2b785527f0ce8e1ae656a8710e28aa8ae9447ee6a73a0966d294d91089873a430aa03998b8852611a043590818a5287838760608160075afa92101616818360808160065afa167f2aa3783e297f86a7f66c1d9183c2b2d70e6a7b1ed523635f53d7de7fba1e7df685527f06df914e97f052954b596ca6e756c806f4d6dfe8194a59bbc80c67ae07a9aded8852611a243590818a5287838760608160075afa92101616818360808160065afa167f293f86912f9dfaf03b560d00a9ecf87eff0052a50476b4a5e1cfa8363840798385527f0ef1bcceca604047a67083b1ebd397311245cd907e3229a2bb8e12700aa7cc9f8852611a443590818a5287838760608160075afa92101616818360808160065afa167f27d212eef5adde64bde94b3fefa1aa83129cbd808163ade31dd44fe55d96ecd085527f2683597bbd7367f0167165281c26b65d567f0047f82c3e2ceb2bd1c20c83fc488852611a643590818a5287838760608160075afa92101616818360808160065afa167f0d02e180fe6d55956430178a0391bcb6ccb91d1a273f54275a5839311155a4e585527f2f54f76d66bb3d2436e5d340be9821374179871156f6ae60d8652674f563adae8852611a843590818a5287838760608160075afa92101616818360808160065afa167f2c2bed2e4bcb568d67cae6b05f5f08c86728a78e7cf268ce88bfcf3e6d636d3685527f27dd86b9aeca4662cf36a7aa006132f8bb436332cb532fc12ab13a4686c29e678852611aa43590818a5287838760608160075afa92101616818360808160065afa167f152f079002d8aeb6a610f25c243216390fd81b1e536c8eda858056ebc51c609485527f2f699d91766d4e2f11c148d4e5eb0e614a61a847208069408843f180e8a5014e8852611ac43590818a5287838760608160075afa92101616818360808160065afa167f1f6e67092ccaef69a694ae94285812972fd39bebd8749a11552b71acb538df5985527f114159d82d39bba776bed329c8b46c519fddbdfccd73e1da506a43e626b856ed8852611ae43590818a5287838760608160075afa92101616818360808160065afa167f292f546f848868a18d27f300988e0bb6b4d05d27f4aaccce11aaa1dad5bfd9a685527f187d4512c411fae8b1560be632254087e6fbfcc3a5ac7d5bad66166b3c4dfcd08852611b043590818a5287838760608160075afa92101616818360808160065afa167f097614d953306ec5c64afe64d4a36b2f3a6c4d292d0621de8338b358ecf941cd85527f077d603ea3214a7351d46ca4e75dba6bb68afe18c5e15fd41e1f24e410e665248852611b243590818a5287838760608160075afa92101616818360808160065afa167f229c1a76cc3d8e26742f55ee36c09fb1f7e0d9341cf44530f0ffa80b41f1102b85527f02b6bf9d99c9a9bd31b170f69cc5da1ecf8c0c062a0fafea59113a32e9b3e54f8852611b443590818a5287838760608160075afa92101616818360808160065afa167f08f2529be0754d4a1c4b8637506b73436e96b95eae7e34af9380fbb91e8e530385527f2af79689fa40e5b6d70185582b028b179644fca3dc9554db15af27aecf32a19e8852611b643590818a5287838760608160075afa92101616818360808160065afa167f14b790d43db70c8bafbee30e6312573c8e954780169ba0e94ce1f5d4695ffa7385527f2e6aa47450c467ea35a538f3f3772689e65a05c077e78d8b7fb447b1bc1494928852611b843590818a5287838760608160075afa92101616818360808160065afa167f1bf517806343c46b69e166610c7051197a123a197d04d0643f979a3e972db2fe85527f09d77aa6b3789da169b347c0a90af3eb2dce3ca59d801b711e5e0def17173c4a8852611ba43590818a5287838760608160075afa92101616818360808160065afa167f2fef881a49042a83989f813ea3dffd24362190960ac6a5a4e69f78480478fe9385527f2c360deaa243338c127afdc633681c6cee6989478a5b5070003fb8acd84517b28852611bc43590818a5287838760608160075afa92101616818360808160065afa167f1a221b88f42c7710f1474f20195ae87e9adce31ec583fbee187cb1fa33662e5885527f2fbc37fa79a6c16ffa8028e0e1c0592c137255761802ef80f54c17c487f9da908852611be43590818a5287838760608160075afa92101616818360808160065afa167f2ddd8716f128fc7a592117d59a5198cb8529dd493d8e68fcbae9703dbb7bbe6085527f2feb4df516bb6a300abb8a671e98c2a0c87664b033d29ba64f8861a0d2bcc7db8852611c043590818a5287838760608160075afa92101616818360808160065afa167f2dcf18ddf589f8338b8dfb2e574ca3eb78aa3201df50c40149ef5cb0aafe984285527f1d0e5d0bcdad5c8e01873bd314e8937cd8ebbb5f279c3e58eb53b2a995016dce8852611c243590818a5287838760608160075afa92101616818360808160065afa167f1371f79420d3e91878155fe69d0fdbd373f992c8ffa138469120d072f38d287885527f0d62b69002b6ccbfea393d152658567edf63277f8ce403868bf69afc731cd7588852611c443590818a5287838760608160075afa92101616818360808160065afa167f2b226431ca925ecaf8f9282286021280abdb7fcd7d44cb727789fafd7f760e8185527e0ab5b0ea9d6b684a4db4298a6224b592035348a71f10c42e31489cffb648118852611c643590818a5287838760608160075afa92101616818360808160065afa167f0b9d65c90b9d869dc97cdf945cd078eaff6a3329875912d06869e59421e3d88f85527f15d6bebbf288e26e5afea82bb113af1b6dd63027687cdd4cd95617749ade0ac78852611c843590818a5287838760608160075afa92101616818360808160065afa167f1fc460bfe1f2bf5a8cf4d602c40f4af7102944338c4bd252e8591e66a342083a85527f2c43446ad035448b902c529462141f6d0792d4412bb9c44d61fc4c9e04d8636a8852611ca43590818a5287838760608160075afa92101616818360808160065afa167f2928bf8962164df26f89421e317d5921afd538c0c1acef0357cd4458cb1612f085527f2e361620fd9d4f21ae2ca45ee608b9121cd96857bf52e2fce99a9ba766ac1c8f8852611cc43590818a5287838760608160075afa92101616818360808160065afa167f2abf4010ff58ddfef9e3c5a5ae658b2fe8480b2605287b025f759952860b4f0d85527f1414140ae6d9aeb1f267a144c57fb367673699a01be9a783bb7674e9b469de478852611ce43590818a5287838760608160075afa92101616818360808160065afa167f0f30aa11b5d97c51411bfb0ef7aeb3a0fef1f0ec5d596ad35a2c66cad66f28f585527f1c2b8322cccece769f2341fe53cb179903b225f01fd1d979bd1bfc9ec4675e808852611d043590818a5287838760608160075afa92101616818360808160065afa167f2bf1068731c0c9abcbb214944eda8be74d5efb7109b7175de529da2f8c73e9e285527f0328bd1e9f0f245b843f487ba22a365cb733ea05cee648743eb5e5ffb309e8a38852611d243590818a5287838760608160075afa92101616818360808160065afa167f1eb561946299f1257c15f110b4fb27e65ff2aa51feaac377d09ded99bc90ea1d85527f0d1fda1caf694029a4fe8ce5a0e1a1cd5bae6905ae5a449ae186dd8288cb94038852611d443590818a5287838760608160075afa92101616818360808160065afa167f2c800db285ec1f5848c1445000d66770c4ad0de47a3c2bb906df0137a5e4158a85527f1d3cfc8bd4857565cad4e944093e248216e5634cbddd85a69a5f55c34c3e51a18852611d643590818a5287838760608160075afa92101616818360808160065afa167f0f210ba13c257d7d5c0642273c951422ed77f6bae0410f619030fbc55c6098bd85527f2c278d83494222651a2899002e2b0cefc4ebf9d1b5af65118438107c2ad5c9f08852611d843590818a5287838760608160075afa92101616818360808160065afa167f0c56a18ec6a0f0b4413bc539a9cdeef76c3513caf58a669d2bc758234a0b4b5c85527f0d840602e78f789bd28aaa6eeffa763c8ad0129745eb81ecbfe600b7ad55aa498852611da43590818a5287838760608160075afa92101616818360808160065afa167f096d74f1991d4708d17df4eea98d5d79622fa10a2923ad5bec983bb52a3f3cff85527f29cb8bfe355af508e5be9bb3d1cdb80d184fd58a19d412f893c7a0e0c0208b488852611dc43590818a5287838760608160075afa92101616818360808160065afa167f0ab8aeb9db83ef0443080a60f07080af7b4556dc0b4b3478db5c2b65f1c9e07f85527f0827f133ea2d2aa4e03618b7cf719920bf5b810606eb2d6a3da486b9ebe440208852611de43590818a5287838760608160075afa92101616818360808160065afa167f215fd57452ddd95f1fe258168b4c5b706b83d21be4c467adcae3e4126e8dd2fb85527f189086628608e8ef777c04ee233213e773308b559b14835ac65cc5d9ae1c0e7c8852611e043590818a5287838760608160075afa92101616818360808160065afa167f1132982c6a8443c524709ca59c31531f36c62f6067500e41cd603c82a5a83bc585527f168bba1dbdab7ca3d8fe548795c707996a5d4e705f0f4c396bcc57af0d43d9e58852611e243590818a5287838760608160075afa92101616818360808160065afa167f1d3e0e36985be2dd855a7b42e27b4945a603e9f3d58eb72b11a390d61c3e295185527f1799d61872354ca8f9335236550cb6a04d7eaaa83082fe4c49d0869f7b4d71e28852611e443590818a5287838760608160075afa92101616818360808160065afa167f2b431eb80f3d083382dbf17cd323e6925d3ec598b41265b3342266c18ab5e4c285527f1baac0d6da593d0863fc3a9b4609dc70052adb2a69fe6c2eb505d36624f8533e8852611e643590818a5287838760608160075afa92101616818360808160065afa167f03ef148ed543ffc5c6fab9fcfd97cff92d35edb5ce9bd3ba39424d7c1ab919e385527f077f5b4aa1a72c22d99570022326980e1c8d5017751481e71e3b79bb72bf46fd8852611e843590818a5287838760608160075afa92101616818360808160065afa167f0e723c1b720fb350f1c8ec67bb11b6adba9c549fda82a443d79f2a54fa617e9885527ee9858666efc0204fb4eacca6492bcd3f4145afc6f38346181d47a6c645b9158852611ea43590818a5287838760608160075afa92101616818360808160065afa167f0edf34c77c4a29c3c4a94e3d2ac52880a4163e1ff3a4bed808949d6e2b36c9ca85527f2b92b2acd251f9096dc18bb1b6d4834bc9ed8cab4471deed86d54c62c99b64798852611ec43590818a5287838760608160075afa92101616818360808160065afa167f1de0a0949cb72a53e8257e3e696388a2195b6f5fe1205168bda41ee1f839f81285527f245ac5401083666bae9f52ddb3d2e6b6a2cbad44e5fa3d3e268498e01893e99d8852611ee43590818a5287838760608160075afa92101616818360808160065afa167f2ed4f63a4dd4eb82c3907138355096411144c242ec6727cff2ec24a1d55e622085527f23529f6e5981d100387cce5fcdbed628678cdae8a31e7c5e7a6a8477b88996338852611f043590818a5287838760608160075afa92101616818360808160065afa167f2445d628dd5f5153a3ca0d0c88baaa399acbd4b6cb9b2b573b3c31650dece63385527f0cc4a74b5711d877802e608c1cbab86e92b14c41a9d2a7556fdf11e0b2a496b38852611f243590818a5287838760608160075afa92101616818360808160065afa167f0286df034186b8da2f58d71ba7840b5876dc1a2cded15e565d1639bc6588203a85527f1a0c8abe5939f5ae039d500a14e7a0af644fffa42182238aeb2a3f640100255d8852611f443590818a5287838760608160075afa92101616818360808160065afa167f1985423337e2d93a017c819ab0deea7540bd6071679b3429feffd8a2e4cb7c0085527f266c3feaa87f65c9bc8147e3162e5159c515fb15e62a18b4616699765d183e3c8852611f643590818a5287838760608160075afa92101616818360808160065afa167f0b9a13294bc5519a896f4803cb5fd123502c0f99bf4a56e1a466e504dc127a3885527f0465ec4e859cfea6e9c6d39616270e024779e4d84ca789cce1032f1ae212ca298852611f843590818a5287838760608160075afa92101616818360808160065afa167f0b8b884559920a0c8c7c430e23ff29dc94d081e6e2712e2063082df3fb66c31a85527f195950e4185cc78a053199e19fff72ab0eb80f300a485831dba759389accbaee8852611fa43590818a5287838760608160075afa92101616818360808160065afa167f1096f396021eb7ce2f3677e22aec66f1b98d334b09613fe147f574dc938a4d1c85527f0253c8456613adf32624498b7da0e070e0c6ae1c1942ae0e321e4167d1a9dd0a8852611fc43590818a5287838760608160075afa92101616818360808160065afa167f0e22fd9ac3ca0021af900b4c0cc7fd758ef385be96d2af044a9cde558ccef68985527f1b2a68c253b1487fe5a15e2cdef53b0382c671a89bb42681b09193038529626d8852611fe43590818a5287838760608160075afa92101616818360808160065afa167f16789005979d0b96c363e2e25bb5d94393d31acba9327e04f5f93626a48d6df585527f17ecf2b5af2d1fe8038d81e6339555f3a18ea1d98fee25e2dba5726d31683e9b88526120043590818a5287838760608160075afa92101616818360808160065afa167f2575854b8bd346865cbfdda31f7e4c6a07008337d495d4d067d80544b2574dcd85527f1bf8d7a7fed1f5d48284274ab7d55de76dec2ebaa74d53e9ad705ee92f7e3fbf88526120243590818a5287838760608160075afa92101616818360808160065afa167f13d0b0a63081cdc5a343ccfe4be90ce1333b0172ff04cc9064bd8be627a51aa685527f12061eb48375f427129e1250e7a201f2930263a98d9d76ba4418ef973921f3c188526120443590818a5287838760608160075afa92101616818360808160065afa167f10c0bb9cced6f8f3cd0a93a151d6b4c675a4c27a9dbb400e8203f3fc7f40755985527f0c146cad37c3be14acbc5b18a79e8df93b94d358f632ad8beee3552883948a5988526120643590818a5287838760608160075afa92101616818360808160065afa167f07bf8ee8da8e5996f3bf8cb32ca4fa9b776808bc7674913a65c82c4b8c05bfb085527e864a18cfdb9bd4e3d181def7def5c93e6e5899a21bb4359338073454eef24a88526120843590818a5287838760608160075afa92101616818360808160065afa167f08caf6790fbf7d017a68add9932dfebcbe8c3f2b1ce91fcae8a64f3f8d6702ac85527f1deacfbe18fa2b3b38fef4bb25c46fb07acc3e53272c142b6def1ed918b827ff88526120a43590818a5287838760608160075afa92101616818360808160065afa167f1de20c2fd617447e33a5e042c879b5f63d7398606fb512a0f9593e7f1bd9632385527f18cb83216d6e60098b2e681f571d19e2df998283f4f029bf24cf0570f5b5153588526120c43590818a5287838760608160075afa92101616818360808160065afa167f2a1616ad72c6fc4eda1c5e854057f90477c909cc2dd88356987d1d5066a4797785527f2205d51b7efc22a585cd8bc8945b2ed0c1679657a7a262d6fe6c772a25483ab188526120e43590818a5287838760608160075afa92101616818360808160065afa167f1f984caaca14c6f96160d5a4939e3ddb793413ebf88fca6bc1a6b6010b39092485527f24cc49a548ac7aad838a4e405f04cf32528e0041c5c8e3c1b2e078d30dae933088526121043590818a5287838760608160075afa92101616818360808160065afa167f1616382e1cfa046eedcc864ded300ae4cd8afc0c47884b05a35b3351a5ccc15d85527f2a531db9b307830a5e227c47813b32ce91a99c221273044012687910584dd46c88526121243590818a5287838760608160075afa92101616818360808160065afa167f15cb63fc4bffb54666658e1012e966b9162e59c59c90bf0c3dde155948dd243485527f2ec473c7f22ca9255218f29ca6a8ba6128a51fd4cc31bb7efd139877476fd53488526121443590818a5287838760608160075afa92101616818360808160065afa167e22e924ca21cfadbf8b300d73bac5e0f700d99be6dd7613702b94127f107fab85527f0752275af08db8fc76ecb834cdf70efdeda4977f06603ce3c0a8560532a65f6b88526121643590818a5287838760608160075afa92101616818360808160065afa167f1d220214be37009074f8ba4c892ce131a4106a25f8575bf62050f88bbeba8bd385527f1364b122491c7eeb30a62f3b53d39645a9d250f757c87d8eb643908970c7838688526121843590818a5287838760608160075afa92101616818360808160065afa167f291d4be8950cb1fade131b097687cda6f63de333fb5471a15ca7b358cc46ac5685527f255eaf66adc4783d6038af54785183c7e3e6a9d868e205f93b6895cdcdffe9ad88526121a43590818a5287838760608160075afa92101616818360808160065afa167f10d137bd3fd4185078252a04f5098ddbc74a056c2b44f58bacc200933165a32485527f29e0fab57950a07adfda8d5f29093fa269fd50458d85a928e6c53da03300ab2188526121c43590818a5287838760608160075afa92101616818360808160065afa167f2ba1a3e40081d4f7ac1f634c0e52b0f2f36c45ebd34b13d1e6b7b8091c95f54285527f28df30eeeadefee5b33635f4b6433ffd087842a4c1891264253d3760e9592df788526121e43590818a5287838760608160075afa92101616818360808160065afa167f0e838db41afad3123f929acb161cc291b5c449d7c8bc171b6a93b3730b59ddd185527f0d2be5134f2f10c9c6169c6f9057b0fb82e02cc87e9be98b5a790de21e6319f088526122043590818a5287838760608160075afa92101616818360808160065afa167f0900c9bc7651b6916127ff99b4647cfec4d1d7f68ea7314c6be6a9be18fcba8785527f0432a8268c70b810e4fe27622d22503cae8f5b2440302b5b4aec2fafd0e7117988526122243590818a5287838760608160075afa92101616818360808160065afa167f273f7d51d36281784517f3339c3101fb6820178282ae04c4fd16d225aab2463285527f036d089a943fbdba5a74778d2789b791564c6166d4d9d29f8172d8da0fef752588526122443590818a5287838760608160075afa92101616818360808160065afa167f16d89284a05cb0617057cb17dc955193a30555d23ba6ae0502d021eb5c6221b585527f0bcef571ecf52a41521486e9a74a66ca26dca5fe3b690e3388dfb3556f83986888526122643590818a5287838760608160075afa92101616818360808160065afa167f29f5af49309af0d95bfc7b9513bb8ca7c82acfac6544eb503de3e37293009b2f85527f0727f3f092f4613e49cd05eeee440b424bca76bd7881f4d087155c9265afffd188526122843590818a5287838760608160075afa92101616818360808160065afa167eb403e9ca53c1ecf7a2a5e162047fbcf350e012be26dc52a8b4133173b85fc285527f18bb8ea493a8308e158de54fcdbaf4a5dda9530a3560f63d6c6c4558c5ae8d5588526122a43590818a5287838760608160075afa92101616818360808160065afa167f09677c59b7c3cdf29eafda2b00ce8c69e1527aba579303159aeb0beff453935985527f068b92843b6955870dccb29900165ba47b1bc8df810b1283e1f47669c94846ef88526122c43590818a5287838760608160075afa92101616818360808160065afa167f2c2220c9b04ec8eb5ed4129c59fdbc774c6973e017f07bf180e82d549228678285527f12ded898d4ca56920029ece0b31e62c01659215cd036a1dc0b2a17a1e1a87fbc88526122e43590818a5287838760608160075afa92101616818360808160065afa167f23bb26f8aaad6f532f26ac0aafd486ab4d106ebb32341fb0fb4d2bf8c10f55e785527f2eef2dd7300b8e9d5f4879b5874fca20daea408090d693e6d71a53f1aa58e61888526123043590818a5287838760608160075afa92101616818360808160065afa167f2b793253e9eeacb2ab567430008d043de4d066bb0e0fae83c8a00657096c085a85527f2806d6078a386bb74188e7fe10e70708f6345edf2090d629bc7d09f48c94fb5388526123243590818a5287838760608160075afa92101616818360808160065afa167f08cbe1b044c707cfd981804a69ca0a4432ad8c9f4b083d85d3aec3cb47f27be385527f0234e80a0ed2c8783735529220162bba65467cbb5b8ef699e10fd9603efb7f9588526123443590818a5287838760608160075afa92101616818360808160065afa167f136a130389bce25efa5a2395ab502ab359ac36c7456c428b8139ac62cefec3e085527f18e0ce391e903da9c64887835a298812e0ed58df4ee25c06aa11a4c2f0af6efe88526123643590818a5287838760608160075afa92101616818360808160065afa167f07c268479357aba0264960fb5469be99fd78aad4109ed4465061e29c93726f9185527f1886bb8e8afc2ff2d711288be056b7e0ecbe739cee677748f73e4bc86f6188d088526123843590818a5287838760608160075afa92101616818360808160065afa167f3046e82f7d444841c1ffc9603579bc2d038a336d27d60fee5f7031f405a69c8a85527f2e016634b9fff36c438c9ec444cf0344aa218cfb33ea60bc47fc38abc0417c8f88526123a43590818a5287838760608160075afa92101616818360808160065afa167f0ebd27533f42e5b759f6a5090efb32f02bb25cd0072b169158d495b119481fce85527f1f777bd8a98a695366c6f25913d64d3a48e85d5161c9feb901656460dcc8dada88526123c43590818a5287838760608160075afa92101616818360808160065afa167f10c8bd90f8cc3ec10949519c8a7255440ce9c4dc2bec34587a446608ad47ac4c85527f0c0e031c93d22f76ead2f773b4b6a0566afb47b4d5f0f805df5538df8327c25d88526123e43590818a5287838760608160075afa92101616818360808160065afa167f2f4870a8a44bd18f5a6a97242311c9691ddc4b749e66d32f8db6f8a6b30647d185527f02ae1ff1522a057b4a7a073d5b54fe60b27015f33279a180625c0133bf1f82bc88526124043590818a5287838760608160075afa92101616818360808160065afa167f1c2eb9e2d301c722fba31a5575ddb1f07f1a1bf111392d84721a4143f0feefa185527f020c338c7fe69d0297e843bb3b0ee31a9ba9a53fb83ba0d449b21d35b0c6542f88526124243590818a5287838760608160075afa92101616818360808160065afa167f06f8e8ceb384b8461235111880471088a8e16e55aee06b6ba18482afc7cde4ad85527f2eb3ba81b3bc0ebbec84155e8d6eb395afbf7b82091b54dc5ab1641cb0d6a8e688526124443590818a5287838760608160075afa92101616818360808160065afa167f0e606d26640a4135b4fe1df5352b2101db86dabca777f55b0a758754a58a970585527f26c9ec9f72bb9802e55bda79a7399849c1cd5813968db034fd1ccf831bd613f288526124643590818a5287838760608160075afa92101616818360808160065afa167f1010e7579e894c854c2f14e83f5f11cfda51a5307eda56b66ce707c42235553885527f2db07d2caba47cd7c1636fbdc0a849d0f4e5ac5875a920339031fff574e5afe788526124843590818a5287838760608160075afa92101616818360808160065afa167f1dc7678373b8a4b486e58525cc989ace7eeb6d35ed3b942705def50b0640ff0c85527f29f71c7282e4db8908957a36e71391870265d4444329246e8c710580bf8bd76088526124a43590818a5287838760608160075afa92101616818360808160065afa167f213b28256b9e50a15ac1e8712081b21058d1b3d189c6e467d2e359870047184385527f0a1b4210c3d0a94771a10720fa08fc020ad651a2ff2ef33f63f9ba7b6626315a88526124c43590818a5287838760608160075afa92101616818360808160065afa167f039ffca5e58cdbce938375f8fcb498917edf114eb17fc83f78a97f9c32abf8c685527f012b09a1c0213b60694a162b4928e4fac07c4b91c9cded066251399b0f5e93d488526124e43590818a5287838760608160075afa92101616818360808160065afa167f2efd72d3ac7b068252617fa50f433d1701f7ce635e8e0fda153148866de2706885527f2364e35950202b50d5c88fad577c0786cfbeba35c480a866934f215378b1b2df88526125043590818a5287838760608160075afa92101616818360808160065afa167f1d7c16f7c16fe9cfad1289baa2f6b248133704791bd3cce3a3d0f7d49f98676f85527f112c030fe97896e7d8cd069a04147434f527277e13b91c9c8907fc68249dc62388526125243590818a5287838760608160075afa92101616818360808160065afa167f07a1bdb8255a9a746c0fe253c27d070173bdae10c2393ff8167175989a0d6c0185527f0f377959010a8df0a7ebf9de754858fed2dae31cec31d11cb47de3e0aee8a0db88526125443590818a5287838760608160075afa92101616818360808160065afa167f1dd5bf46a0acaead141ffe51231124b112330495489de0abf5a93f95e517d34c85527f2a5f62a1dc1f37ccb41cc12de0d2a396419390a099ff27821f36e5117750947288526125643590818a5287838760608160075afa92101616818360808160065afa167f01a197a532a3951c698ff9f973fc760f1b80d0a63cbbbe6f8c8da5c12a52d69485527f255d752818338dd80256648e7ce5568d249b627383067171e405983067a97a2488526125843590818a5287838760608160075afa92101616818360808160065afa167f202b175ab33e2290c73b61195e51a68e2949d3c25314f1a6c20c9eaa9d32060085527f19501d51f2745c389182438f093561f38433448bc721cfc392c8ce4d82cdfab888526125a43590818a5287838760608160075afa92101616818360808160065afa167f281ec28ee38245620fe868f905593a4c2ba5188ae69d275f4f6b0b8251c973c185527f2396a84697bb36561f43dddc84753604efa724dfb964ef058ac38756f091773b88526125c43590818a5287838760608160075afa921016169160808160065afa16947f0d2269e3cb8d6b480c7206f52d9a1e6aba4a68e879049a25d9642cbcbfdda9d58352526125e43580955260608160075afa9210161660408a60808160065afa16985197519815617b635760209a8a528a8a015260408901526060880152608087015260a086015260c085015260e08401527f0d01205175bb7faacb3326834fb9946998849cb8e4e6f5319f1dc1a2d2a5c5886101008401527f1fc45107b9151da45cfb27404dcbfe9fe85f3c44e1596933f13f1344b67669c06101208401527f14f291e78a53307bd7fe26e29f654adcd4f3dc6061eb85224e4c209b40a32dee6101408401527f09dc91a804a37fd5d9623c6785f3a65d00789b2fab6f37b92a0ac54c331d7c596101608401527f243cb04587ff114a738f1bd6da7b1e9eff474bb193b8fd4891dfa17181b5c2f66101808401527f158b310beb4202188124a5281aab57095b31cf027cee0da4187dc0cb296811916101a08401527f190f64d5953009f66d2400bc282b5d0425183c227b38fca830a3e823826395dc6101c08401527f0f565337d8e8b03ce6d98e45856241393f7bf98611b72d55dc87ddfc4893e2936101e08401527f12dba0fab350ca7965b991d1c8643e9fd350234a5deedb27f749637374e83c3b6102008401527f0e563af98092f7b594986d5e668517fb0c6a92b144c6e5167512d7470db6747a6102208401526102408301526102608201527f23b164991381d4e4bb5a1213a877d6d0d732ae0783215839c2d6455a213a68d46102808201527f1b5292d8d0d09b60d0eacd8e538b86fe39e29ecc61bbc8e76241f9a80e2ade356102a08201527f12086fa777a03016ba596dad8bfd00c750c5458d86df76728da2cc144f3794066102c08201527f0f7acbecb50cfa3e199099e9fa05c2fe4ddd77e20d8a10c5194daf70cfd3114f6102e0820152617b138261f6cf565b9283918336843760085afa15908115617b56575b50617b2e57005b7f7fcdd1f4000000000000000000000000000000000000000000000000000000005f5260045ffd5b600191505114155f617b27565b7fa54f8e27000000000000000000000000000000000000000000000000000000005f5260045ffd5b5f80fd5b34617b8b576101007ffffffffffffffffffffffffffffffffffffffffffffffffffffffffffffffffc360112617b8b573661010411617b8b57617bd2608061f6cf565b6080368237617be560243560043561f740565b8152617bfb60843560a43560443560643561f82d565b60208301526040820152617c1360e43560c43561f740565b6060820152604051905f825b60048210617c2c57608084f35b6020806001928551815201930191019091617c1f565b34617b8b576126807ffffffffffffffffffffffffffffffffffffffffffffffffffffffffffffffffc360112617b8b573661010411617b8b573661268411617b8b5760405160408101907f16014102db9de88c44259633d122d1dd6e9fb82b8984a378c74b730d163a94ca815260208101917f0f2a2b6a68381bc93612284dd2875bdb9ff404311ebdc1da47f680142fa029ca83527f1a5bece0a06bb393cb5ef163410e727a5477e6b9ea0812c81ccfa2950a43760e8152606082017f2d5f7caa4241d3497c78608878c383b205c6287978889ec8b88c2317e79ce36981527f30644e72e131a029b85045b68181585d2833e84879b9709143e1f593f0000001604061010435937f191d92200ac5f3e4273a871f5b142435ee9b67c8b2513622f26f021a27c90880608087019580875284848460608160075afa911016838860808160065afa167f1fa5a8a231f89dad86faa6ddf7da430d9a437f752fc56499813bc6e9b144a15083527f2110f5866f98b33c96fe3cca59859b8539e8d5210c24738b12abe2f9fbe9f90886526001610124359182895286868660608160075afa9310161616838860808160065afa167f296a8531b938e5aaf3a2629279b5f89e307a36e2067a74bae7922389b6b72cd583527f046d8705ef2cf5bcdb2a3d5f6c81705f13550b6d6cadaad3d6af386fe669dc808652610144359081885285858560608160075afa92101616838860808160065afa167f0ea38287df54a5f3d420e0eb41c7bcb7380076eddcefed323a61ef50c16f796c83527f22be0e74f875d777ae2233a49f6ebd4a25ff7c83864962f25be843a2974db7078652610164359081885285858560608160075afa92101616838860808160065afa167f2886885ece937502ec95e84d7d72760c189de343c8a043de2682ffda9836ff4983527f041e09bc341f46c7d27e6e274f54c67adbd99d49ce7477d59b90cd40352be3fa8652610184359081885285858560608160075afa92101616838860808160065afa167f1571e505c27878f500db4118d6c5670b8209d0fcc94bea85b774134373390a5e83527f07b4066b4644f4af8911c32dff07e2c6e36265ad751b47ffc98a5b4fdd38f82686526101a4359081885285858560608160075afa92101616838860808160065afa167f0bd76597391bea3c7f70edce9bf4c45d3b6c2a8af4665547fd3b6ddfd839de8d83527f059b6ac2841b2406bc58643111d9c9fea955ade2c793546cf3079618d2dcca0a86526101c4359081885285858560608160075afa92101616838860808160065afa167f258d0d73eee8bd4a6168373b5fea38c0f62a9d3bc59181132d782cb3e52fe5bd83527f10d4ef0b68845b5d02844300c7324d470d485b256d2c8b6b5249bbecffc50ee286526101e4359081885285858560608160075afa92101616838860808160065afa167f178c4b5148dd0340b70e51102bf1eead6c5f7bc978a8a5d7aeefd4efa66d19ba83527f190d887831f9d0afa707d99038dd24501b7f6140d9f861cd2a95bc54c323f67c8652610204359081885285858560608160075afa92101616838860808160065afa167f2951f312957643e9b9c590a6b3f3015135b059fc0b54c48e95c98cab26cc00ad83527f129e5d9d7b94cc61c68bd9154802ea8f65551e0de175339908c42f62a65712918652610224359081885285858560608160075afa92101616838860808160065afa167ef02040d4fd0697e612501931a8370d7858e266057f0afee33aa6117057934283527f2697f2207cef01f7bff48f0c7b9314d8c79c345d70659ab8f696ba648ee4d7c88652610244359081885285858560608160075afa92101616838860808160065afa167f0ed40243c7579ef0e2f7bcc6dc8d0b9b7ad8a6da16a1e1bdfc26f8bf9a22db0583527f1a1cbb4bf7567f8dd109064b0a0d12afd364137e025f6307425a4dfe43d8d1f98652610264359081885285858560608160075afa92101616838860808160065afa167f2ca75970204fe3f951bf614c864f97b82915431dba753cd74363e5228faf54b883527f0ee6df607a4517d69ab368bdd6b313c4b9ca69fd855cea59bb79eb0fb261da928652610284359081885285858560608160075afa92101616838860808160065afa167f1cfefd6f026d2d6487a0e844eb06a9dc9668f270d87c40fbcd91393caffe01c383527f2f0e9b81abec6ca385627aa14f91df7e3eb11e47208979cc4b3fb8988f4fac1786526102a4359081885285858560608160075afa92101616838860808160065afa167f1105daaf6f4f01e126ecdeb6b9b69d9890dddb41d2b1507f50ad78be5d1f2d4783527f0dd4f637f091f0062d722e363731561673189b639bffdddf26ebb4897b7db3f386526102c4359081885285858560608160075afa92101616838860808160065afa167f2b32956f815a579849b379cc710c44f1da99dcd2ba05b800251900a40adb3b4b83527f2c904c0606579028c20c6e3c7e53e35850644b79030365e4e952647f4b25236286526102e4359081885285858560608160075afa92101616838860808160065afa167f1bf8bba6ac146da26b6736abe99a3e28d1f1d29dfef80694a0bc7c2f44df91fa83527f22dcf1d0dd35b6ae4d3f7be41d00bdc91d7e0f7498ed8f84cfb8739fc76ed5c68652610304359081885285858560608160075afa92101616838860808160065afa167f28f645b9fbf9d49f4e360c78a52a124daca0904121e47f5d9110047f748d12f483527f1d6d247f10325a0389972415e6638abba2382343729084acc61d3c80893b9e0a8652610324359081885285858560608160075afa92101616838860808160065afa167f24dd397d8e1a05a933f4ae04a332119256e72d09dc0062f84225c82b12be5bcc83527f1e6f4d6d4406978c6f862ca6f0ab604001f076026e20a5dfd8bb544ba1c016378652610344359081885285858560608160075afa92101616838860808160065afa167f18616fefe284961fa483a6a6a773e7e449bdedb47a5c8b931cb4d46c6d33970b83527f264b7b5028fa4dd45f65e24b1f60d2b0ce4b9a00ab14eb68830ddfe601b21ca08652610364359081885285858560608160075afa92101616838860808160065afa167f279a2b59a98ae230cb456931372322dea8f12c7b534c39a94137ac219a851e5583527f16298a37e149d5f73e97688d5c3d22ef4ef0327f401877d551cedada41be78a48652610384359081885285858560608160075afa92101616838860808160065afa167f22d88b350a7809fc78652d08906356f3b3d60e66c710fbdbeda5d8d55980299983527f121d91b8dbc28d191f26d66dc8482d866a90f811da13ac5a006c1c4a3b95493c86526103a4359081885285858560608160075afa92101616838860808160065afa167f2cf445df0b0131a091b5cf947b40555490bb88f03e4a497e1082e504761e627083527f2635231dbf35af7a9aa5dc558f9a835bae84c888c775bd8aaa121d510606212c86526103c4359081885285858560608160075afa92101616838860808160065afa167f1213d6634605ddf153affc03de766d13558209cb04ed53e9021e440bf08cb59083527f07059d3ab9a3d456fd2cc70cc457147e51dfc49ca5ba0a7ea92d02d90eb79c9086526103e4359081885285858560608160075afa92101616838860808160065afa167f2cfdcb34a3ee18f6f81a6077acd9a0c0a87f5981c4e676b4628a1e5ee822e91783527f29fea19020579efd200367f5c72ce40465765bfe55589dded6054bd9dcf7f6458652610404359081885285858560608160075afa92101616838860808160065afa167f0bd3bf31d32109a3201074c4094cc6efb69d64d0e80abc9efee0ba9993fd360a83527f24bc79bd8a9708987f8445f930e0a138e93ac1d8ab296dc925e280f2a9a18edc8652610424359081885285858560608160075afa92101616838860808160065afa167f1a5c733bdbf8eca37f988e8005d5b4bfa239f976a9ade8d0357919f303ff5e0883527f05cb05f4b060847acaa2e9bebddcd381e2a2687c85e25d7a65a59fa2cea5ccc48652610444359081885285858560608160075afa92101616838860808160065afa167f034588be1b284e37dd593b4529c3c6f43c1ac111b7e2268a30089bc8ee809ae983527f294c12a666c12396bf3b9c95ffa2258c5bffb72165e3c4e62d6f44f525cee6768652610464359081885285858560608160075afa92101616838860808160065afa167f1b32a443d4fbc7bbbc7a6eefde3cd5d86bbc26aace5a222776d0c0ad00b91cc183527f2990b162bc80cc162e38b28c38d62c8b9b2a894098adfed219258e4c13a6697a8652610484359081885285858560608160075afa92101616838860808160065afa167f06a2a2db18cb8dea96116cf68f32cc79a1fef81cba23ff1fb84997adc34d670a83527f2286b55ab3018b843d5cb2ce8043de5cd77b2c75ba74143bba44aa64524962b886526104a4359081885285858560608160075afa92101616838860808160065afa167f2aaff82ab20cab9f404233f8c56ef8d1901d38c48946dd5557e1058836f20c2783527f01f85478ab6ed2d6621fb98fd02dd460e4a3e39324475c27245f0144c61b92eb86526104c4359081885285858560608160075afa92101616838860808160065afa167f243fa79acb843eea6b11a7ff8b561e970161483fbf74cf6072be19754724892383527f0b7123182147826d05b775c0471c831a5fdb19fd9906e08e9ee7444a53b5168b86526104e4359081885285858560608160075afa92101616838860808160065afa167f2328adadb16b1698936851c7c50add613a26a5169561cede98a67540af34531083527f1ed983158e47bdc66c2c55c4d6fe2ece26e86aa969eb3db20722af67e5de1af68652610504359081885285858560608160075afa92101616838860808160065afa167e3ecfebd570f0746d65d803c85bb6df6c92cbe2d02a5ba442507f07fb2e0a8d83527f08735fe27d1f793c841040838f7829c11f0c3afcbddd9baeaecc07c8e5986d178652610524359081885285858560608160075afa92101616838860808160065afa167f1c95d3aba9c45d9a7c392e3b4b04256126e298ace066df6b5cb312f75550881c83527f0b68ef32d75ca3b6fa6bca0efe6d4392b116d9386d1d90c16f146b53c677543d8652610544359081885285858560608160075afa92101616838860808160065afa167f29d01c0a6d3b9ad837627e3ea34858ac5b06fe1617ee2873fa6e38b2313fc33e83527f105d8617d3e2b3cc995e0c88b3dd4d01e6b31ce77c3e6b0c777f4696367f25678652610564359081885285858560608160075afa92101616838860808160065afa167f286995209a2f472dc61e2697423d2bb34733dd29300331e56057e55e29cae7a583527f06c990c5aea5bba5f24ebdabc2d3c3b3bc87cccec02ba5a29378f7a8a10768358652610584359081885285858560608160075afa92101616838860808160065afa167f21c78df530e21172ecb792d222b5ce9e67dcf3d82bf338cd6e9b16148b6d1a0683527f02e19cba378c0812ad064d008dfea5343a3c49135c90f9df84eb085f1fb4737b86526105a4359081885285858560608160075afa92101616838860808160065afa167f0a11129dde7705e4227f88b817dcb635ebe5db4dba07369f7e03e5f21d8680f483527f245f33ccbfbe9539284597a543e96b1874acca31aaf727d4396c3ff69637bb0c86526105c4359081885285858560608160075afa92101616838860808160065afa167f07c689aa6f26d8c0eee2234312dfb26401b2fff37eb9d7528431025b65e5140983527f1f47579947605636a33784134448e73e28688e03950c028ba2bab2f706afcd7b86526105e4359081885285858560608160075afa92101616838860808160065afa167f2d19b3e1666da4e5552c9afec60f54fdddd324e457be0eb6e4d3f301425666a783527f2f7f253be1b892248866fa95f21a51d34b8d368b1764bc26052627a6d123e6ed8652610604359081885285858560608160075afa92101616838860808160065afa167f0d9c749c078fe60f6892563d787f314a4a31458ca5872aa952f6748143ecf6b983527f03e0d753cd56637d5b95217727b2615a4202fc7ec5f4e3ba9a8a52b2360ffb9f8652610624359081885285858560608160075afa92101616838860808160065afa167f05bef49050ca61cbdc8be262aa2cd9b8bc786ac9d69a2b9b1bc8bb98cd626adb83527f23dd124596146dbe4b50936b82394dcc17fa909b8ed8252f00c4fda7781787a18652610644359081885285858560608160075afa92101616838860808160065afa167f04284a9764ef6ad3448ba63e3bbe9b0e36eabeb6582397ff25291a9359a55e5783527f198c2a4ac58aa1100db62f7b3cef95173e3aa4b86f60163a5c32fe9b3aea53958652610664359081885285858560608160075afa92101616838860808160065afa167f2d2b2907c998e6d5d732f2633d4a3993cd2d0756cea72f77b3d983a7ef24741383527f025d5c8a511d93f4c9951d788d427f77e51b76b51ce483fb23dc8f1fe8aa3dd18652610684359081885285858560608160075afa92101616838860808160065afa167f1c2754a2f2218e1b5d4794c68e1b676ab2464cefd819ff35b6b53b66ca0a50f883527f106a2cb8cb8a861a858032a9056c37af86751f429694297f2d3c37f949e0c6ef86526106a4359081885285858560608160075afa92101616838860808160065afa167f0e06e4c93b1d82f0db8ce7e4dce578a3b01eafb5b2510eb6223aecb2e91ed51f83527f1f49f4b1d12b386ee6b0b81eac42c58db83f45d07908b538a7f0638beca0664c86526106c4359081885285858560608160075afa92101616838860808160065afa167f13a08f5ba629798b06be69d60736c350ab73aecb788b5e1e7a02200c1f7dd25c83527f0de75ce4b636b994639e6c2c4cc49054ee387aa3ca70293d692494a0008a951886526106e4359081885285858560608160075afa92101616838860808160065afa167f0deae0e795564f037ba35288a41d0ec698867e9c1d88a36b2a577818e9c188c483527f010483714d340cc463c02399437da11d16d999b09098f7ece7b6fa381346bedf8652610704359081885285858560608160075afa92101616838860808160065afa167f1941e2cfeda6138a5cb431c10ec35d443b6497518004009a2c6159a896ce0c5583527f247dfacabddf9447772ce00e552fa25ba39f2823ac2b541a9105cc711329ee328652610724359081885285858560608160075afa92101616838860808160065afa167f11898204c83a5588a13dd643dca8637d84cb01e2122b422dbb1730f0b349657a83527f22bf13b4287f27da782485c7e73ad7441a0817b9e722b7df095b5acf6e74513c8652610744359081885285858560608160075afa92101616838860808160065afa167f037125540c4f08c6a2caf004c23271f9cc1683cdce860b9d98e00a8142d3ef2d83527f292d0f9aba598fb108aa87a10737eda503a0deeef1e851431308329f85fd47f78652610764359081885285858560608160075afa92101616838860808160065afa167f02fd4e80146a467322d186420aad48effad5d5589799b8c29da71ea8b926a71883527f13299035be8118ce0e19468892d0ca192078c9ccd842e41a3777cb4cd4617b578652610784359081885285858560608160075afa92101616838860808160065afa167f1f4c8d12a523372c8a52d51b79e2adeafdde5225200c73c445eb978b4571363683527f22e2409997f99c5ce17f053381b7a2ca635bb20f4b3dd844621e9a65824a807986526107a4359081885285858560608160075afa92101616838860808160065afa167f22e4888a22888f3217a74b3f1ff2e4c40637b355e8251acc46ea66331f69e79b83527f1c8362ae477b74528fc9b098410b45ff39873a3e383b78c3649e08066c9a1b6586526107c4359081885285858560608160075afa92101616838860808160065afa167f11fbab109f6ee9f648c3eea85a914f98f8b21114354dbb04cf880c96130a6b6d83527f25dde49df3a9baf5d0f202a8a2b9df297a246761834d57bb2e0a0ef9dcae7aae86526107e4359081885285858560608160075afa92101616838860808160065afa167f0fae90e76a92d0f3536a02118fab0d6ff6fc1b40e6b546e10018ed86e4ab420f83527f0acb59116e9efa0e35aa822c366a235df88a68dd64cca974400f23faa2764c4b8652610804359081885285858560608160075afa92101616838860808160065afa167f153697ee144a1cd8116bddcf999c589fb58981e4294107554f487cdb84d9c58b83527f13451bce003e7a10308fab0464b8e27e46cbbc0b2a395867e933582b536035ed8652610824359081885285858560608160075afa92101616838860808160065afa167f109cfe0c52774337cab9f275e428bd59a04421af4a8339e109e1e3846e0b81ad83527f123fb1360545f21f9a1b5d1ce424874f4918b5309dbfcbeca35cedb11fde11388652610844359081885285858560608160075afa92101616838860808160065afa167f07ab1d32179743ba7c3d13cb6aa5c06382240c301480a828dd180181752b39ed83527f2b6dcfd1f27407f573c7f35d1fc4c19ad5e2928518d7b1c3533cd0e201929d008652610864359081885285858560608160075afa92101616838860808160065afa167f14483917c4efe5a81504dacd2b913f67d46a6566783b69187b255b23fd8b6bc483527f0ac2bd55ba87537f49dc308a143844ed4ecb39ac35df93d58ebf54add5ea34bc8652610884359081885285858560608160075afa92101616838860808160065afa167f1b44d2c6a699215ef90bc5c2e42c316ddc96da21e0153577ba3221fd296934a283527f1535cd0fec497a8ca7772469ffa872bbf629c0bd0f068b0b61c5ca60879905bf86526108a4359081885285858560608160075afa92101616838860808160065afa167f07f781f940eea32854622431fd97442e8a1e34ad11b3522c1f59f9d8ea3f137783527f2d8a2847795c9db067f47f9927edcafc451d31e5f85823ca67dfa889be07e97e86526108c4359081885285858560608160075afa92101616838860808160065afa167f2114d1438377f4a9238afcb8582420a2869089bc53701fa29dbfb592e8860ba283527f27d5c73dede0f3c2f94e8e5c9b6ddb77ccb0f8c9272e0c0bd4a13efbce619a6e86526108e4359081885285858560608160075afa92101616838860808160065afa167f2641cc21b252de095d78bdcafb1f61580806ed18d7beb9223b55fc2e7a84211083527f0e22d54cb5fb97bd03773b6378573c17f720c8cc8d8eef9eaed3b2c0194ca6a98652610904359081885285858560608160075afa92101616838860808160065afa167f02c750dd8f5010e0a890264994332ee9e0252b3183190cfb97bf8525f02771ed83527f02cb35570537243343b63fbbf462a163a38a523fd2513928f8de17dc8be72b248652610924359081885285858560608160075afa92101616838860808160065afa167f1f17bdde9390704b52f212fe4f9de3b9d827eafca572a117f36852e2ea9504f283527f141753fe59369df23619707ad576ca5f21ab58da235b43965f13f552151881758652610944359081885285858560608160075afa92101616838860808160065afa167f079b510348bb9aa55071164214314d4901ef689e82ecf5f2c75b35edcd83e97983527f14ceb41b476d47cf5d8d407dc7a02960af53fbbb87c12cfdcc4b23e91daf15698652610964359081885285858560608160075afa92101616838860808160065afa167f0a87fc1706327899032be8f9af81871cc765e92e643e80908fe9aa67b9bbe16e83527f083129b0dab6afbd0c0eec081d68e847a94234cd570b1a8dc59ef388f5295db18652610984359081885285858560608160075afa92101616838860808160065afa167f214022bd1c8b916a22019498878fc3d798cb936a2cecd5e3af3084ca0ec363ae83527f0b0bf015b3f4441f074d1d56a6facf8ac5370ed50ff3153689adc5ea82c3df7886526109a4359081885285858560608160075afa92101616838860808160065afa167f0847b09f11d99a746d082f08313bfcf30af2cfa15c30459dd0c1c908541af51683527f2ff7769d543cdd54b44dcfb4251c8ab886f5e08e6eb815f74421134cf41ea3e586526109c4359081885285858560608160075afa92101616838860808160065afa167f1013fd5ba43630f37c540dea4c6193478c5f71c40acc1448e4a9c82b29b0fcf883527f03c3a317c7b1a9f38fa8b6c011519534de94f9f1b1550aba15e79d5c14e3a3ea86526109e4359081885285858560608160075afa92101616838860808160065afa167f24a7487c3e8b903a3e000b67a02575113ba42cf827f2d9201eb7ce651d2753c583527f033d5c0b15f2c96f8bdea29eb34ff37cfd9874696eed2f2a328c3916d5ee4f468652610a04359081885285858560608160075afa92101616838860808160065afa167f15e9fb926f97bb6748847de6dcceebe45e691e4bdc900618ea49f29eea4da8db83527f093a0cd487c5a4433acbbfa36451f2ffbce1c2f7f76b529033b1c06b74435cec8652610a24359081885285858560608160075afa92101616838860808160065afa167f24fdd500af49901a36a687e986536903488572d6594a481c8db0e2159491052783527f2c0957aa3902713f3473909dcc7cffe1ef3f5efec2966ea5a6af644a4fde42538652610a44359081885285858560608160075afa92101616838860808160065afa167f05c75f8547aaa6c48c7da0d7a414cd097b8b92d9d596ea000ddae0b0ab9e0b6c83527f23f012060cab79881724a098698e06f008769c5713441ecbb5cffde455bf371c8652610a64359081885285858560608160075afa92101616838860808160065afa167f1c90eaebea9136182920c2a30123a54817d5f6e770b8c445284187c6dc9a25f783527f2a2a2b65388a81a642a76eeac7ae4cb0f1c49ad530fac4f214924ff3bec69ff18652610a84359081885285858560608160075afa92101616838860808160065afa167f09f69331b1971447457c05147230b73602c210a0821562db89ed12b08ddef05a83527f1c81cf087e7e77aefc8eb1e83367977d877d92f451a5a8ece700bc89c1318e838652610aa4359081885285858560608160075afa92101616838860808160065afa167f23800f4a970ca18172ad66d57a31f0b439af4f982f81640fb9f71b8aa439378983527f28810643cc2b3520deb1768e49d418305dce27c28b94e981cd8b8831e08c2e8e8652610ac4359081885285858560608160075afa92101616838860808160065afa167f190cc9bedea2ae3d1130a5ced7e946b5f2025ad8cb3ac041589f125b1e3ed02e83527f0f62d45f5daffdb1b77ea64c4383f930f22cb20292e8f6c9128a7c95bf4c06f98652610ae4359081885285858560608160075afa92101616838860808160065afa167f0f83c8afe3d9ea982b287fe80983860ec9bc14eb0f7ade75f8b5bedfab0c4b6e83527f2b07184803e95411c9f9d3557c7bfc6c8d85e2130175ba2a2c09a42b0f3e49128652610b04359081885285858560608160075afa92101616838860808160065afa167e3732d7b70f3f0eae6c8688def976393901cd2f691ef3510984261edc66c2a983527f0b9718b63da3fcb8daca3256fc294737259af7d22fbc5606722b4ee350aaf05d8652610b24359081885285858560608160075afa92101616838860808160065afa167f01aca27092f5324fc64f2fc656a7f45987b7ed7788896ea5f1380f15d1de538c83527f2bbc0b9f667a602ce0a881e130eb0b3e550f6e71e365387869a36b15819b02098652610b44359081885285858560608160075afa92101616838860808160065afa167f08ebcd3ef8b006031b8c2c8d417f2a96b2b771e890afafecf6113009f9fa23ca83527f0c510ee27777ad5bd268be8b4e7d0fd8e0cb9697735f2fc8d30b08edf43051078652610b64359081885285858560608160075afa92101616838860808160065afa167f2516e334739d32e9e95e7e311a6b36ecd528fa902c355aceaad93ecdf96c31b783527f2cd2455510f2d6faca36bb3659de0a51ed06cde95bc40a32d8cb5c5c52e66e8b8652610b84359081885285858560608160075afa92101616838860808160065afa167f1f22cd5d1bd77088106c047f6b88a262bb7a07d590d9aa0bd098277c0299cdf883527f1f7da565094b1527cd54c80091211cf84b21bd9c919c015f6f138ff5ef09dfd28652610ba4359081885285858560608160075afa92101616838860808160065afa167f165d7cf9e4fefdf8647c4daaadbd309d16e9ca5bdaeb7f3af26b7fc157ffd65583527f1d827e91ce2e7e753698de0542dcc57e3bae22f6e1a62b963c65a506861aebfc8652610bc4359081885285858560608160075afa92101616838860808160065afa167f131b4ead1981d63410a4bb01e0095ea660d417669b80d643f7fe662d75a7c9b583527f132c7bbc61d3b671b92f65b27bc64b56869270acfa3b8feae362d4c88a0cd74b8652610be4359081885285858560608160075afa92101616838860808160065afa167f0f315ebf11bb6f7d6d608d8702db980a79c8c2405ef8456557dbf9a95f49249d83527f1bde494be41e162b4be40929d3fd4f5be18c59693cae327aa3e55c5c4bc81b098652610c04359081885285858560608160075afa92101616838860808160065afa167f2243c604dfc0001ea7e42f68d35fd77dec73554318e39c6d2843e71db029357883527f10f89448768cf06883ef7331df89671eee0a1f0cc179fb55df82bfd0ce8e09348652610c24359081885285858560608160075afa92101616838860808160065afa167f2c721babbfcda1ce3840d502e256b0e38dbb22d2ad9778ff8380c70e0be98d2b83527f2e7dcd31c80356ab73267db8f56655bea0a986b21c1efabc61d613c69882309f8652610c44359081885285858560608160075afa92101616838860808160065afa167f26f7ec84aef7a4d4d5ec14c2465deb089b1d4e9e4b048d30f85493e58a16606183527f1ebd75d779194d0e509a4b2c30c35829e889dfdb8806cfda98f5927520fd2af88652610c64359081885285858560608160075afa92101616838860808160065afa167f2f88d79082ad2f9af29494b60d81e8f1b7aad71b5392fede65ba466c19d4c6a183527f2500d635d161e6e80beb4be25664a78df9efc41caf01d2fbcbab8b3f2edee5bc8652610c84359081885285858560608160075afa92101616838860808160065afa167f1c8255f56e818f8c6dd3451b3dfaf6d6a79d5b8609ee2da435d3614b7e4b714783527f19113394221e6bb8e090b49200bd2212df81f46a88a396bf3a7e48fa7ef63a928652610ca4359081885285858560608160075afa92101616838860808160065afa167f09e13c3ae0e5c5a605c680f16a734a914aa3ec9fcb46289879d7bb1ef8461d1283527f18571f43b6d347d7b571b7cd9372d24ff0009023b22d476b06107c7be3c54bc88652610cc4359081885285858560608160075afa92101616838860808160065afa167f297ca64306f829095e1a57d5c8ad6fdd4199cc7589e973ae30d552c27635c95983527f026fafc844ce7753cce3232374b9c6c3ec518ce032c08358df92f6ab091c01ff8652610ce4359081885285858560608160075afa92101616838860808160065afa167f11be757f0bff13dfdfae422da357b088d788b943558901f1a2d97f79c2e163af83527f103f5eb98c6b2b202f32e19d68841130951743f481113884dc60eb7289dda1b38652610d04359081885285858560608160075afa92101616838860808160065afa167f124f91be0fe3c1337d61b2266a904777dd45eb69a104c9e52d2697fc4755c74483527f1fa96b1f45afe12258deb61ca24ca089c1523ddaa90058a21b8913772df44a618652610d24359081885285858560608160075afa92101616838860808160065afa167f1a745cb277e5bbfe677b7adf1d0aec33272a6bff19a6774dcd02b89d88c235fb83527f130b6a55828cf8adc7189cf2b94674bb7c216d5d9b2aa1582f6e0d9a593f95658652610d44359081885285858560608160075afa92101616838860808160065afa167f0ec95dde7a134b0483425556b389ccad5f90ca1c455bbe3bcffc423319e46fec83527f2f662c8447a0d060751064f049c532a0bd8f420d1d58ddcea0cc5bf797e1ea708652610d64359081885285858560608160075afa92101616838860808160065afa167f186089d0e8aeded0f02ac9e51f89a170d34c86946d62dfdda4090a2bd1f5628183527f2e37bc534754b328217395b1f7a70286fcabe6a88150470e1f8905d713f03a618652610d84359081885285858560608160075afa92101616838860808160065afa167f1286bfff7e1ed54ff6a75e28d7252638fe31c5968889bcd1c522ed63cfd6e94783527f033cd4ea1a57e173ca51a14fbcb77b526ae75d11525d52ff942a524c9b6de3ef8652610da4359081885285858560608160075afa92101616838860808160065afa167f216b8ba4c44a251b0af2e8214bdd1b04c5b93302b84250af22a5fc10de193a6583527f28286506ddd455895147d90af8c8b545a7732fbde2ecd214a899be4d3477451d8652610dc4359081885285858560608160075afa92101616838860808160065afa167f09af42508727b6d6ded07d09946336c9172fda91213cce538b788db78f8a9c7983527f2c8f48cf0e0868af79b16f7ac7a4977aa280481a57cb7a5a662fb3981d70f98f8652610de4359081885285858560608160075afa92101616838860808160065afa167f2ab80a4f1a4736f6849e7e43d00b8e3169e907b0e2aa2b9e57b1833d42dfb2cb83527f24fa6e495d83e7fe0eaf6785d44a7b8a4d288b9188d4e6303c85352209eddbfb8652610e04359081885285858560608160075afa92101616838860808160065afa167f152c446b7edae2e83954a6210e4039796884a5ab3b84c2710107ec73e41fb54683527f2f74ce46ad1269900910b6db42c480d966e27650b528e7b4c56ba92854f5b33e8652610e24359081885285858560608160075afa92101616838860808160065afa167f1e4afc9146d0495ff193bde78dbad116768258bf30cd79404884d9f861d3d2ed83527f2b31fd4593ecd56b03e852465d449ba693802e003e40927d0f6bdddd80c742d58652610e44359081885285858560608160075afa92101616838860808160065afa167f253b73ad6420604916ffc51cf457830c4846cbd2976d477ee9b6c2b6ec2fdcce83527f1505606b72a1583c6da0f9d3fe76ed556e8aa2793ea03ac39c79cb8fad72a5998652610e64359081885285858560608160075afa92101616838860808160065afa167f0c176fa1bcde8d16bed3ba90cc97959508f04f272d3872ef98d2ddb5b673941a83527f1b33fa28baf65c6fbb38a2327eeaecedccce0e85cc45f35271c3517c12b4c6568652610e84359081885285858560608160075afa92101616838860808160065afa167f2ee13b88892bcb670fd30e8ce6ae34ad2587418378134cc9eaeaafa4638df76a83527e67fe8f2da1feb35bf3f339c78a1a4f7869078fa63de824a3ea077f27070c0a8652610ea4359081885285858560608160075afa92101616838860808160065afa167f29cb6f5e4bc36a62f3ea4fa5de50e3601dc3fde0b937d1413f5e5f852f06688a83527f22a2999c3329c6b88999a223c454e2aeab859b61d80bfe73387d5e801f05654a8652610ec4359081885285858560608160075afa92101616838860808160065afa167f0638429a39cc2851a94c8b46136a1b492777d447f71898ead5d78c655337414683527f208b6746ff36e21114ec69afbddfd4a45148e7d353ec770c3185224ef7228d9b8652610ee4359081885285858560608160075afa92101616838860808160065afa167f1ab595d3a2a8b5296d5d0b52a8d25a8372f2ff0dfecac34414d95c2b45cb2c6183527f08a4c4cbcd252d474b3af6602b40ebd6d43960ff54fd3010a7725eecea67160a8652610f04359081885285858560608160075afa92101616838860808160065afa167f1d3f2c9ef1c16c66d9b5a43e4f9c66da8dbadef7ac26ffa3f52d2a1165a6ae6583527f1f911f654f4e1a6c3e77962b370746edf2e5511a60e63d2c547c345446c51b6f8652610f24359081885285858560608160075afa92101616838860808160065afa167f05d923ed266e2aec81ab8b6f6aeca34b7a4cd6225df387f5c89d89b0b7dabd3883527e2099dfc135b899548bee73463023a9a76c8f939253b4598631ffd9ec67cd618652610f44359081885285858560608160075afa92101616838860808160065afa167f0445c8890bc0343282387d0daec7bfacb45ae2c40fe70223742dbe566b4598de83527f21c4bbb91e6bab5ecdebafe0fa13228dda04a9afd4e15258977b0c13f6c677a28652610f64359081885285858560608160075afa92101616838860808160065afa167f265ee335d08d2c56942a6b4eba3c455399499e567f5805e893906e1e26502f1383527f2247c7b13120cadd050033c01e955c2238aaaeb7a8bf6db8676a70529ba6544f8652610f84359081885285858560608160075afa92101616838860808160065afa167f2880a5ef25c63bc2b9d927f6d74c4a936b65c45e721dd4fcb427ded94278fe2483527f0ce3b167ecbdc1a3b42654bbec5026ca7c82b494b17de4ea7077e14164b9a63a8652610fa4359081885285858560608160075afa92101616838860808160065afa167f1db108dcd6c64db2a2f4a0ff0b6ac56e22218d4bb703979162e92358070a86fb83527f280ce34b5e37645cb6690a4ee9527a1c121942bf6003dd85c3cafff59a40dcf08652610fc4359081885285858560608160075afa92101616838860808160065afa167f0c121abd1a9980300d8cc0407449c83d69c27c6ba7ad60f2f19138ac0a58af3383527e20defd148ca5315158c6f528c5867b2e54a1f648c1d4267fd9ffe08573c1148652610fe4359081885285858560608160075afa92101616838860808160065afa167f2f1938eb4ee546ecbb669339047ed73f96c7834c393291858a95a1feb0baa19d83527f07502c1a6820b4440f0b8b6c3029d3f57f9284f0a7abcf0eed5dc460bbc6e5698652611004359081885285858560608160075afa92101616838860808160065afa167f0830ed8f06666800d6dd3f443b8d1bd034702c4055f08dd580242f47bcf226cd83527f041672ed8b74cdf5ebd5e738283721d13aeb3d7a9beb8778a5f26d957d4df0a58652611024359081885285858560608160075afa92101616838860808160065afa167f0343ba346f52425408d9fee874cf3bf5a3c676d3752005a3b2e4211bcda1c82283527e95a855ac81feb1b114c3f7973d5e82a4b64c4ea4aabe17fb48c4b804602a4c8652611044359081885285858560608160075afa92101616838860808160065afa167f06116ead60906aecb0b9e64148904ab05c6cbb469d572f669f114acd7e5da9bb83527f0ab47305df5fe49a710f769925e144b7cdefa9fdccd2f15ec55380bf60dae34c8652611064359081885285858560608160075afa92101616838860808160065afa167f255e191f8453213bcc85954450af10e02ecc6c15aa572173af4def1f9fe0d48783527f2ad9397703a661ff815e25aedb186d873bbd1ea6243da452288834c5d564f0698652611084359081885285858560608160075afa92101616838860808160065afa167f01918174ec5be26c7d40903576b8f3a5ccd683fbf67f0a922a27c1c795abefb683527f0a35b0b00fc38725219544f1f405cb4902947938489fe628f338d90a1f68a32c86526110a4359081885285858560608160075afa92101616838860808160065afa167f301e0cad775c0d883633d6508a49e8e89e2bb1bca5b75a9fc6ddbd64e0fde22a83527f1b1cafadd1d82c7b9ada5bc354964d86435f14d1a6aa86ddf4f56ddb1acb213a86526110c4359081885285858560608160075afa92101616838860808160065afa167f22f9c19c38344d4fa668bed6468acc9405e40d24e52c119afbca8310a737adeb83527f2d1d84a5b6ff92670c64a46b55325ff148af4f643475cbc51d53c9003307d2c286526110e4359081885285858560608160075afa92101616838860808160065afa167f264317c9285b1d6a3c816134a99f11b0d9e5555a03f9a3e10e8f9384a42e993a83527f12c61eabcda1c503d790539a25609250e7564ee3b315881c9424705e83ed4ef98652611104359081885285858560608160075afa92101616838860808160065afa167f15ca8d99bdde1d09c154c2ab858e57d29d3cec9a7fc74dada39dcb7aab1c6f4383527f055517b913f02c4292036595e928757d443fbef8fcc53aaf2542dfaaf91099ef8652611124359081885285858560608160075afa92101616838860808160065afa167f1374771a0a13fa3a54ebc4310f5d69218e164c20cad7fafe3965a1178e1171da83527f0f80bd05f2d03c6ef5287d908e25ed7e57663f6562c19bcc45da4937eccefe038652611144359081885285858560608160075afa92101616838860808160065afa167f25db643882b90454e32a82cfc6a50edd974112a6898a800e43c1e82ab1ea7e8e83527f270f1c159aa0e3d0aee5327cec164b68d1395af93d0807ccec2760478e9f97918652611164359081885285858560608160075afa92101616838860808160065afa167e072a3bd6e47a09ceba4a198f49b8b6190e5352bb4673de0fcbd1d51590db3d83527f21b33f75a613e2c67f5a42b4fa0b77ddc5c95c44e4b53c2eff4f5f001329a9228652611184359081885285858560608160075afa92101616838860808160065afa167f294ab9f8dd88b7db452e23a94bac640cbff36c25ef2ee271fc703146bca1a91883527f2e6f8ef4ca69c70fc7b66c81efe92a6b81d6344350c2bb0fc15b4e0d122e175886526111a4359081885285858560608160075afa92101616838860808160065afa167f0bd5c061841a629ca98d8e997955320c8cf5138234b259bf5aac96973d5547d183527f11b2170aa47194d28d88c50c34ce31c6017a69867f416c24f4ce5426b9f9e04e86526111c4359081885285858560608160075afa92101616838860808160065afa167f2d2083eeaebc8b25a946fc3c39e8686a2acc346f2b2ec54a811f14e40834b62383527f2dc0c3dd8a72c81eadb85bbb6bf4ec75abf329b37d69021cdd0d5012a9502a5586526111e4359081885285858560608160075afa92101616838860808160065afa167f10c75116d928c419baa07299590cb37bfe47b40f30f93da94fb272ebbe43425283527f2abea80ad1af4b9ac501ccb52acf5fce9f5d4ecdbbf356d9f99549b4056202f18652611204359081885285858560608160075afa92101616838860808160065afa167f2a2ad810f49631fde57ef189cf7bf7bdaf6d8208c513561a81ffb9747be2017e83527f2cc8ac938e3ff66255e55fed52c15ddbdf905b8ba79a67ff2943902e66589ad58652611224359081885285858560608160075afa92101616838860808160065afa167f2b261f8c706842deb94e9e7346246f47d5a24d1bf9fe536bd12fb477adcb1b1783527f07dcf4aa819b65e5c4abd2ab9f44f8a1513cdef07007e931fe9238325de419178652611244359081885285858560608160075afa92101616838860808160065afa167f13865b902c25f2f39d7201d829555cbef70ae35a041aca4142c7774d18a20f9e83527f1534061215e8a66f70ac7fefc65c7ab55984e27e34b4ae0f173ce1fef8ed990f8652611264359081885285858560608160075afa92101616838860808160065afa167f1538bedf641925cada2faea90b6279b63f61b26a62c4ef6f044acd313aeb13fd83527f1bf6c2625745ab6477f7b031ccd6107c2b8c562414a1d1a46efb0d00b7b022a68652611284359081885285858560608160075afa92101616838860808160065afa167f0ed8787791f83bb0ce89fc054152bd3ff641717b4013c141bec11b3ec4776e9d83527f0fb9fa6cc040bb3cec8928a2a8897dc0a22c6d1fd37a7786336f763281b91b1f86526112a4359081885285858560608160075afa92101616838860808160065afa167f295bb6706d0d85368405518278b50506693f157f686f5b6c5062149cd7d2f54583527f2bdaaaf72b24d77d0abbc1d753e11bc67f56b00db6aa016fb71a7777598b07b286526112c4359081885285858560608160075afa92101616838860808160065afa167f104ac1fc1fc9159d2f3687f8cac6e7ff77b021e6e6f8ab51f2046af7df72800383527f061fbdef4fdc53bd2e9b598590fb4059231f2abf3ed36ea81b9163c971d01f4c86526112e4359081885285858560608160075afa92101616838860808160065afa167f05a4ed6541ce8f6f8c80e18b8c9ca9488eda9e59173004784d8bfbc45af146e083527f17287321f0372407825d989fbe96fbfad91aa31650e440a972689c7a0ef063438652611304359081885285858560608160075afa92101616838860808160065afa167f131a23e9e98e8c66ea65844503fcb37d6ea6ccf51944bf5e7997060b38ced08083527f026848933359c1ec980a1a9bd5c6903dc59900d6a718ec9b12a02d67433e5fc98652611324359081885285858560608160075afa92101616838860808160065afa167f20bac03b869fd2ed2d5688e2065d502feeaa9e2d3b6d47c66a6edcdecd0aa2c883527f0fce5465484cf9e8d1d7c6d68656c73b9017657f684b4c8614a179f6c8a209038652611344359081885285858560608160075afa92101616838860808160065afa167f2db34ef9ae476d06edd5d2d7f50a513af95c10408ad74bf904ee6cdb8eae17ec83527f05197801b1e5438ea9188a33cfe0d7dfe84084021f213cd4c987062558dbfdaa8652611364359081885285858560608160075afa92101616838860808160065afa167f03c8e08c649ad5a3ed6921d4070f3932720a7650ff84c4851c162d4e02cabb6883527f2c44c64be2ca0734858d2de4d0d89db1a2d2eb94ea06ab6eef7c921794bc3a658652611384359081885285858560608160075afa92101616838860808160065afa167f15e026df8e85d51642d76b4953c812ede169e9f5efc655c34086703f03374a0e83527f10ed56c8260e14d242c3e82509abb72fa816d7a5a7af68f07d4c3df1a787637a86526113a4359081885285858560608160075afa92101616838860808160065afa167f19fb2ffb28a0944c82d3d2a5cdbc4530bf26c4b914ebbb6f5a1dea8b3d02cb9783527f1bb2dfc37686d4d6a2b91194944c9db5dee269568912b64a9b915bbad329532e86526113c4359081885285858560608160075afa92101616838860808160065afa167f2a641ff908c20163cb0b627d1efc273c97e30f0835a836550dbf44344676306983527f18f485339c7eac9e4f0f35e0f922cb4ac8c303ee42fc03f4a2c7479cb222e24786526113e4359081885285858560608160075afa92101616838860808160065afa167f05a05256eb204587b138d0cfe86829d2cfc61d2f3ed7bb83ab596c495f7afc3383527f03d2207d2e90442c2052b802d191b9cdc2097deb0b8e2f31ccc50f7cd0c98cd28652611404359081885285858560608160075afa92101616838860808160065afa167e42ce67f33e35591caf3f7101b7f7cfbe37b3b1625c237acf22d7fdc6e9965083527f26822e1736150b65854acbdf7fa458d34f1b753619325ed850f3eeaaabeb52568652611424359081885285858560608160075afa92101616838860808160065afa167f02dda9d300d9a8ac4defc63eccb7839c4a7b8ff911035afe7a5df88c5dfdf74b83527f0fa6bc82a1bec08068580f9b951a631a7dc73daaf3c24ed803084ff7083717988652611444359081885285858560608160075afa92101616838860808160065afa167f262766b0dd048f806022f55530968739e88517d3e5bee99470be49866eca759d83527f227f57966662444dfb9c26d4af0d196fe09036b345d26601a2789c1cf6dec3ed8652611464359081885285858560608160075afa92101616838860808160065afa167f2d7e49add71fa589238f881da5bf171c20466b8df4d48c04116e0aa65ec62bbb83527f2d7030ce48d24a48ccebf0a933ad4e145f43ff74eb00f2146a73950c7bf4073d8652611484359081885285858560608160075afa92101616838860808160065afa167f0b4973470adb76fc015f04f3df3b9993ee2ed154099a6a8e36dcd370274fdc7783527f08da923ff6c9d9b0133a7a701e7661ab8913786d533b92f5f60de185eacb5df886526114a4359081885285858560608160075afa92101616838860808160065afa167ef21710aae50352badc081697e074b4c8e200a84a330f689b8a03d0096393df83527ebe5633dfb24d631aac7ca8177c00fd044562572a7424fa8d26141c44b6495986526114c4359081885285858560608160075afa92101616838860808160065afa167f1e0fd5e30ee7bb0e320cf6aa0f9ca4f76269c93beb74b778aac4b127a498783c83527f1ebf8fd195d038332328afc702f88f4fb7c96a130574856ad6ecd1c56129418f86526114e4359081885285858560608160075afa92101616838860808160065afa167f1a37818eeebb5e6a2ff58d8f1979dc5d8c89138e7f13eeae33ea727633af003483527f2784d22972b8956128fdfa8f89970507b66b08353b5e543d92a43e58e5758bde8652611504359081885285858560608160075afa92101616838860808160065afa167f07de4b000a25a9d3b0d4153a50baaf06d53ec7ee22c82ab399e4b6e372614ef883527f1417bf9c8b91136ebba7dd66700484444628fdb73503efe5e2dc41e85a6bbb5a8652611524359081885285858560608160075afa92101616838860808160065afa167f30631b95422fc4321e9b7ba4cd4a61d23e6dbca9b8995606b704f45b234f6e6783527f0a6675be94074fa40a434cec8540c3088b9616cdda17515823fc03671db6d52c8652611544359081885285858560608160075afa92101616838860808160065afa167f2053d5d2f1f67ff3c644e46a00e634971ec937b51b66dce0f7960b8ef09f2bf583527f082be2f108725228363a30ea1fb539f8c05d41e1878e98b8b44c0fc6a1b7c4558652611564359081885285858560608160075afa92101616838860808160065afa167f2cdb9c8e89b2c6baf0fcf28ad81948dc055b4201ad734b3fdeffebf28e16138883527f1453fa99f0c5ab50cac8087bffa7586ae660eb98b8aff3e7eb4867e4a77eff458652611584359081885285858560608160075afa92101616838860808160065afa167f2cd091886532702d9f6a38e6ca83b366cf723206f55032674b8f67ca66697bd483527f225b916e18304e98509d9a82de04ede2abe2d7f33d279068bc7d578de2ad55e486526115a4359081885285858560608160075afa92101616838860808160065afa167f0eea8d2d8b7ac12e8b30d6216c458d6284ca870b559dee1b05d7bb4eee192dc183527f2097de8c93d20a785406429f0003198ee0b7d700b78a1952adee81115794fadc86526115c4359081885285858560608160075afa92101616838860808160065afa167f12c42f203b2c7b0c96e18c71b48ea31c5e5375185a64be7eff1a9084a7e991c983527f26ffe97d13185bbba9a90839c5aab09aa4c970517eb7cfc368dc73f7edc2cbbc86526115e4359081885285858560608160075afa92101616838860808160065afa167f1d72f4dc92e62e668ea10edaf55b166d6871d78e06608ae6f00a7c272b8d279983527f224517c5006145cd92c4e69c912b01be20cea7246e6bb3b58ec26882b9b5b43c8652611604359081885285858560608160075afa92101616838860808160065afa167f1fbeb08e88425728c5f9883de5d749b2ef0218fd936ea7215236cf6a9510044a83527f0efda4c5d250826ebb3e07c276c599d0b4682e56bca1f08a6b28f45d43c7640c8652611624359081885285858560608160075afa92101616838860808160065afa167f2148d07500162a288f0327b41e51445712fe304854dd334ae776f028b9134dc383527f0a4a4ae8d1b3eb5c46bfd88d06817e85e8f0d4a1af17a8378834b55211c88ed28652611644359081885285858560608160075afa92101616838860808160065afa167e5be3510acbb67cc99d6e7492886f773fc8c84450db1bac705f6062ca919c3383527f14a155f0f780f7c87aa46efec7b50c40f64cb1670c96e6b3cc766524fd26e0fc8652611664359081885285858560608160075afa92101616838860808160065afa167f0f630f1bc7acb77abb6a087dca923f745e841230db38bc6324b5fef0426f443783527f140af2890ad66b8aac482722e34a2ffaa9ce2917d2179a95152b8df0f94d28008652611684359081885285858560608160075afa92101616838860808160065afa167f27e413a3e53c569b1d1ce9baaae2652f3ac6a0bf6d93c9c2d2ebd24ecf2a15ba83527f0d4bc8fa5fa1c0dc8b3ed776ae549c2f531ab48a85b4ab78412c35e727532ed286526116a4359081885285858560608160075afa92101616838860808160065afa167f197ed8d24195518025175439de1d696f51a6b96925da0ed8734d5f5118e2414983527f130239cec7f0dbdb683aedd781972a79ea0df665935ff2907d5ec168b61c79bc86526116c4359081885285858560608160075afa92101616838860808160065afa167f035246499ae9d6bd98cb06f980aa8040bee9953f40bc760b04b08d6a2e11433183527f2f9dfcce6f61ad1636231f2be0d492cd6c0fb6524505efc84ee24d22d9a8aedc86526116e4359081885285858560608160075afa92101616838860808160065afa167f1070789ecabc7a0cc6e1f33b3e4c262b1c6aaf12a08a93ef0da5022504d1c32d83527f244e845e683cda660f5769e490c2773e4a62fcec01169cc122ce4cbdc50ceb698652611704359081885285858560608160075afa92101616838860808160065afa167f0dc8b807f33075470eb53de964b69920fdb96805d46bfa24d3bacece179344eb83527f24f4a6d65d74a6f1b01d22c2df763500d806ca69ff46036bfbecc131354c2ac78652611724359081885285858560608160075afa92101616838860808160065afa167f07cbc903f4e92f26cad293c529fff9c7405f5df6288556888a9a5501a4a6272383527f2fdc2a09a834b98eabaf4c43561e728967ac0b24bdbe353f2dedb04aad93531d8652611744359081885285858560608160075afa92101616838860808160065afa167f01515e7eafa389896402c2a78346f1d4f662f8327b52afb9398ca9d8c7ab110c83527f1dac9fc63ebce014337c37a2ad84345f8528dbe5d353ad1232565396e9f757a58652611764359081885285858560608160075afa92101616838860808160065afa167f0bd0f4a67a06c65c7bd1b9a40101a2a56f68b5a87c8a01f0fa5fa7001935770883527f2c5b1f70fb82d0736a2749effcd67bb9208e9526742b46efeef5381c0f8d5e1b8652611784359081885285858560608160075afa92101616838860808160065afa167f0fafff3daae934d813c8c8c0edfb931dd295fd0a0fada815196f345af189745883527f2e7428b7b434d30f338ec05ad54985ccfc4effa5b6c85c39dba1c3a0ff423c9c86526117a4359081885285858560608160075afa92101616838860808160065afa167f157ed68adef4972d3649618356e54dd471bf2a309837a4fb2a22c5b3a306f0a783527f220aab6b74e9b5cc35d45e8854e52df4b6227bddc4447f7344be85d87b57386a86526117c4359081885285858560608160075afa92101616838860808160065afa167f1048c64317cc3201a1d3b2e0270d312df521001b71cda118c53d2a6c6e97275a83527f055befcca06b3eda9abca5a5e317c518f7928c721fb55a26c7babf50abe0c82c86526117e4359081885285858560608160075afa92101616838860808160065afa167f01529b1ea38f93d75bb36f9dbba001eebefd663f15f8611ea703c94362254c3683527f03ce09abfbfce2f48a6542350c1060dfe01ea1b4fd68aca2864d64d60e111ea98652611804359081885285858560608160075afa92101616838860808160065afa167f2d53c53c6c80bb512ee43ff30df1fd5ad6ebaa4feee3e9af333afc9fd179ca2583527f069ee92b74948566d011b7900ce3ca0c630a427f281ca3fd2f45b734df1aad478652611824359081885285858560608160075afa92101616838860808160065afa167f24fa42b2edf6b7c22eb7b73f917e7e945304d3d2aaf668846a3f2b8e3bfb056e83527f1103b3b7403fd4debbde9b75752113b95ff9eca4d36e835490906afafb2cc8188652611844359081885285858560608160075afa92101616838860808160065afa167f1b643671501eda31d22a381fd6c4cfa848973d8531fb53f41908736891a18e7f83527f063931512aa1316ef2f20cf8f9ec7bbd341c97b92b3321d25392fbc90d8e00138652611864359081885285858560608160075afa92101616838860808160065afa167f2ecb3dcf5f21457fd5ccc116b5e20f29dce95c5f8a25b66b8175c2ca4b63089e83527f1266daf05603912f1a98fa886c2a8cc3c271e149aa435a02becd7ea19f70cfb88652611884359081885285858560608160075afa92101616838860808160065afa167f03b75d9970e66a0a4fc30b31ae762d619c0d51684645d91aa30ac651a969acf483527f2d1ce91eb33e62969c9dbd7fd150b7ca6224c0985166734ac7e1ae34c19815f086526118a4359081885285858560608160075afa92101616838860808160065afa167f2f874e3556bb42095d6313d2ef5834318752b321a094bc97d228891a81d3797883527f1301928bf9321a2dde4e0750e6be9adf55d0ca796b45f9f7e6f2446d253fb76786526118c4359081885285858560608160075afa92101616838860808160065afa167f16420a1a4770f0969dd3fa5ebf6bfb7a8e3162224a4a99570eab7f7fbb1fd66a83527f28551e9e068748a66dde204c8691e1cf852eb6c4bc71be40c8c943026b27bce086526118e4359081885285858560608160075afa92101616838860808160065afa167f2f25e96c22dde2e2c3719efb79ab0acb04e2f1570732ebb1eb7e8801c82afa1583527f149a58341860f4fa279db154e15929000ba7d077c631b7313f1cbb206752a0698652611904359081885285858560608160075afa92101616838860808160065afa167f0455703200ffd01bde8b3b6682bb77522a259ce7179049ead837119610df4c2183527f22e62884404e013e35b1f949576442b77142927ceed71189927961e2a3c1e9a88652611924359081885285858560608160075afa92101616838860808160065afa167f02cef97d6ca4b2825b6f274671baf77b0f943bce510bcc6504cccdc457d2ba8c83527f1cec0b0189dc8d2e80c88760df6222c6dae5406fc2d7ab20c5d19ab44dc577688652611944359081885285858560608160075afa92101616838860808160065afa167f2bad2660ed2702b1df2e177827a7f16b47d6c8827b4e0fad2f0df30c1813ca5483527f18cef0062adaaffc4b6d6a5eb9c448d36d8a8a9464dbec6f36ec7ec7af6afe5e8652611964359081885285858560608160075afa92101616838860808160065afa167f28b9bd5a5c16690e945b61987b64579174f6d124636baf1cd1268f9ae6f4ce8783527f23b59fa228ed2e0adae581c2404a272a4a4f58b1af07c7a95b91ee6b5150b0ef8652611984359081885285858560608160075afa92101616838860808160065afa167f0828aa442b1372963f1e91a6596235d29b23c90720241c6ec4c15ff6eab4c77d83527e42c28d54e41a878d26cb58cfe9515df558b7c296f2a76a7786b8df6e54180c86526119a4359081885285858560608160075afa92101616838860808160065afa167f2b36e23d26f4b5b7784e7b107ab5caf39c7443765bf4f186509f4ddb72ff3f1b83527ea2489e9f4f6362ac26a78875b2ad29160775d0975e8d5cf992fbbcb1636ff386526119c4359081885285858560608160075afa92101616838860808160065afa167f29fe940c7b364e919388e53a6c4c8e17b1e9b97eaa9420a268ec931a9b9230a383527f1cab91019dc7f371bc7e8b32c184a62e4b87d1a4dbbc3a5678c7585afa422dc986526119e4359081885285858560608160075afa92101616838860808160065afa167f0c1b3268c61002bc54dfbd8e35aa3af55e0f12a218119ef944a3e6f0f323859883527f2c33305d6c5586299749da2a70af876943061f0db6e1e101114b0c81cfe6542c8652611a04359081885285858560608160075afa92101616838860808160065afa167f16d41812f456e39f9fbae35b6f245e09d0a28ba138f7879f88ebe50cc128c98383527f2764c073acf75a2f3fa03e4dd171337afafb8d5568830d0d9b7c574e01dc91bc8652611a24359081885285858560608160075afa92101616838860808160065afa167f04c5f35456c182905fedb7816be870a1338e8f8c52e51dbcd334d2265e69b64a83527f261a69fe1698a26c38b230c737d0d3a128eeb1901656b00e94015a988b5346e18652611a44359081885285858560608160075afa92101616838860808160065afa167f2879088e6b49f5e7a2842103f003e7868578832fb39b316fc7951329a83faff883527f09d8377088a3aa0e032d20df32c9d960807a54c4622b093a6998c757733511bd8652611a64359081885285858560608160075afa92101616838860808160065afa167f082ac2085fea7a4db91e73d9085bf8dd115ddd41821209d0fb18de90f62da2b783527f0ce8e1ae656a8710e28aa8ae9447ee6a73a0966d294d91089873a430aa03998b8652611a84359081885285858560608160075afa92101616838860808160065afa167f2aa3783e297f86a7f66c1d9183c2b2d70e6a7b1ed523635f53d7de7fba1e7df683527f06df914e97f052954b596ca6e756c806f4d6dfe8194a59bbc80c67ae07a9aded8652611aa4359081885285858560608160075afa92101616838860808160065afa167f293f86912f9dfaf03b560d00a9ecf87eff0052a50476b4a5e1cfa8363840798383527f0ef1bcceca604047a67083b1ebd397311245cd907e3229a2bb8e12700aa7cc9f8652611ac4359081885285858560608160075afa92101616838860808160065afa167f27d212eef5adde64bde94b3fefa1aa83129cbd808163ade31dd44fe55d96ecd083527f2683597bbd7367f0167165281c26b65d567f0047f82c3e2ceb2bd1c20c83fc488652611ae4359081885285858560608160075afa92101616838860808160065afa167f0d02e180fe6d55956430178a0391bcb6ccb91d1a273f54275a5839311155a4e583527f2f54f76d66bb3d2436e5d340be9821374179871156f6ae60d8652674f563adae8652611b04359081885285858560608160075afa92101616838860808160065afa167f2c2bed2e4bcb568d67cae6b05f5f08c86728a78e7cf268ce88bfcf3e6d636d3683527f27dd86b9aeca4662cf36a7aa006132f8bb436332cb532fc12ab13a4686c29e678652611b24359081885285858560608160075afa92101616838860808160065afa167f152f079002d8aeb6a610f25c243216390fd81b1e536c8eda858056ebc51c609483527f2f699d91766d4e2f11c148d4e5eb0e614a61a847208069408843f180e8a5014e8652611b44359081885285858560608160075afa92101616838860808160065afa167f1f6e67092ccaef69a694ae94285812972fd39bebd8749a11552b71acb538df5983527f114159d82d39bba776bed329c8b46c519fddbdfccd73e1da506a43e626b856ed8652611b64359081885285858560608160075afa92101616838860808160065afa167f292f546f848868a18d27f300988e0bb6b4d05d27f4aaccce11aaa1dad5bfd9a683527f187d4512c411fae8b1560be632254087e6fbfcc3a5ac7d5bad66166b3c4dfcd08652611b84359081885285858560608160075afa92101616838860808160065afa167f097614d953306ec5c64afe64d4a36b2f3a6c4d292d0621de8338b358ecf941cd83527f077d603ea3214a7351d46ca4e75dba6bb68afe18c5e15fd41e1f24e410e665248652611ba4359081885285858560608160075afa92101616838860808160065afa167f229c1a76cc3d8e26742f55ee36c09fb1f7e0d9341cf44530f0ffa80b41f1102b83527f02b6bf9d99c9a9bd31b170f69cc5da1ecf8c0c062a0fafea59113a32e9b3e54f8652611bc4359081885285858560608160075afa92101616838860808160065afa167f08f2529be0754d4a1c4b8637506b73436e96b95eae7e34af9380fbb91e8e530383527f2af79689fa40e5b6d70185582b028b179644fca3dc9554db15af27aecf32a19e8652611be4359081885285858560608160075afa92101616838860808160065afa167f14b790d43db70c8bafbee30e6312573c8e954780169ba0e94ce1f5d4695ffa7383527f2e6aa47450c467ea35a538f3f3772689e65a05c077e78d8b7fb447b1bc1494928652611c04359081885285858560608160075afa92101616838860808160065afa167f1bf517806343c46b69e166610c7051197a123a197d04d0643f979a3e972db2fe83527f09d77aa6b3789da169b347c0a90af3eb2dce3ca59d801b711e5e0def17173c4a8652611c24359081885285858560608160075afa92101616838860808160065afa167f2fef881a49042a83989f813ea3dffd24362190960ac6a5a4e69f78480478fe9383527f2c360deaa243338c127afdc633681c6cee6989478a5b5070003fb8acd84517b28652611c44359081885285858560608160075afa92101616838860808160065afa167f1a221b88f42c7710f1474f20195ae87e9adce31ec583fbee187cb1fa33662e5883527f2fbc37fa79a6c16ffa8028e0e1c0592c137255761802ef80f54c17c487f9da908652611c64359081885285858560608160075afa92101616838860808160065afa167f2ddd8716f128fc7a592117d59a5198cb8529dd493d8e68fcbae9703dbb7bbe6083527f2feb4df516bb6a300abb8a671e98c2a0c87664b033d29ba64f8861a0d2bcc7db8652611c84359081885285858560608160075afa92101616838860808160065afa167f2dcf18ddf589f8338b8dfb2e574ca3eb78aa3201df50c40149ef5cb0aafe984283527f1d0e5d0bcdad5c8e01873bd314e8937cd8ebbb5f279c3e58eb53b2a995016dce8652611ca4359081885285858560608160075afa92101616838860808160065afa167f1371f79420d3e91878155fe69d0fdbd373f992c8ffa138469120d072f38d287883527f0d62b69002b6ccbfea393d152658567edf63277f8ce403868bf69afc731cd7588652611cc4359081885285858560608160075afa92101616838860808160065afa167f2b226431ca925ecaf8f9282286021280abdb7fcd7d44cb727789fafd7f760e8183527e0ab5b0ea9d6b684a4db4298a6224b592035348a71f10c42e31489cffb648118652611ce4359081885285858560608160075afa92101616838860808160065afa167f0b9d65c90b9d869dc97cdf945cd078eaff6a3329875912d06869e59421e3d88f83527f15d6bebbf288e26e5afea82bb113af1b6dd63027687cdd4cd95617749ade0ac78652611d04359081885285858560608160075afa92101616838860808160065afa167f1fc460bfe1f2bf5a8cf4d602c40f4af7102944338c4bd252e8591e66a342083a83527f2c43446ad035448b902c529462141f6d0792d4412bb9c44d61fc4c9e04d8636a8652611d24359081885285858560608160075afa92101616838860808160065afa167f2928bf8962164df26f89421e317d5921afd538c0c1acef0357cd4458cb1612f083527f2e361620fd9d4f21ae2ca45ee608b9121cd96857bf52e2fce99a9ba766ac1c8f8652611d44359081885285858560608160075afa92101616838860808160065afa167f2abf4010ff58ddfef9e3c5a5ae658b2fe8480b2605287b025f759952860b4f0d83527f1414140ae6d9aeb1f267a144c57fb367673699a01be9a783bb7674e9b469de478652611d64359081885285858560608160075afa92101616838860808160065afa167f0f30aa11b5d97c51411bfb0ef7aeb3a0fef1f0ec5d596ad35a2c66cad66f28f583527f1c2b8322cccece769f2341fe53cb179903b225f01fd1d979bd1bfc9ec4675e808652611d84359081885285858560608160075afa92101616838860808160065afa167f2bf1068731c0c9abcbb214944eda8be74d5efb7109b7175de529da2f8c73e9e283527f0328bd1e9f0f245b843f487ba22a365cb733ea05cee648743eb5e5ffb309e8a38652611da4359081885285858560608160075afa92101616838860808160065afa167f1eb561946299f1257c15f110b4fb27e65ff2aa51feaac377d09ded99bc90ea1d83527f0d1fda1caf694029a4fe8ce5a0e1a1cd5bae6905ae5a449ae186dd8288cb94038652611dc4359081885285858560608160075afa92101616838860808160065afa167f2c800db285ec1f5848c1445000d66770c4ad0de47a3c2bb906df0137a5e4158a83527f1d3cfc8bd4857565cad4e944093e248216e5634cbddd85a69a5f55c34c3e51a18652611de4359081885285858560608160075afa92101616838860808160065afa167f0f210ba13c257d7d5c0642273c951422ed77f6bae0410f619030fbc55c6098bd83527f2c278d83494222651a2899002e2b0cefc4ebf9d1b5af65118438107c2ad5c9f08652611e04359081885285858560608160075afa92101616838860808160065afa167f0c56a18ec6a0f0b4413bc539a9cdeef76c3513caf58a669d2bc758234a0b4b5c83527f0d840602e78f789bd28aaa6eeffa763c8ad0129745eb81ecbfe600b7ad55aa498652611e24359081885285858560608160075afa92101616838860808160065afa167f096d74f1991d4708d17df4eea98d5d79622fa10a2923ad5bec983bb52a3f3cff83527f29cb8bfe355af508e5be9bb3d1cdb80d184fd58a19d412f893c7a0e0c0208b488652611e44359081885285858560608160075afa92101616838860808160065afa167f0ab8aeb9db83ef0443080a60f07080af7b4556dc0b4b3478db5c2b65f1c9e07f83527f0827f133ea2d2aa4e03618b7cf719920bf5b810606eb2d6a3da486b9ebe440208652611e64359081885285858560608160075afa92101616838860808160065afa167f215fd57452ddd95f1fe258168b4c5b706b83d21be4c467adcae3e4126e8dd2fb83527f189086628608e8ef777c04ee233213e773308b559b14835ac65cc5d9ae1c0e7c8652611e84359081885285858560608160075afa92101616838860808160065afa167f1132982c6a8443c524709ca59c31531f36c62f6067500e41cd603c82a5a83bc583527f168bba1dbdab7ca3d8fe548795c707996a5d4e705f0f4c396bcc57af0d43d9e58652611ea4359081885285858560608160075afa92101616838860808160065afa167f1d3e0e36985be2dd855a7b42e27b4945a603e9f3d58eb72b11a390d61c3e295183527f1799d61872354ca8f9335236550cb6a04d7eaaa83082fe4c49d0869f7b4d71e28652611ec4359081885285858560608160075afa92101616838860808160065afa167f2b431eb80f3d083382dbf17cd323e6925d3ec598b41265b3342266c18ab5e4c283527f1baac0d6da593d0863fc3a9b4609dc70052adb2a69fe6c2eb505d36624f8533e8652611ee4359081885285858560608160075afa92101616838860808160065afa167f03ef148ed543ffc5c6fab9fcfd97cff92d35edb5ce9bd3ba39424d7c1ab919e383527f077f5b4aa1a72c22d99570022326980e1c8d5017751481e71e3b79bb72bf46fd8652611f04359081885285858560608160075afa92101616838860808160065afa167f0e723c1b720fb350f1c8ec67bb11b6adba9c549fda82a443d79f2a54fa617e9883527ee9858666efc0204fb4eacca6492bcd3f4145afc6f38346181d47a6c645b9158652611f24359081885285858560608160075afa92101616838860808160065afa167f0edf34c77c4a29c3c4a94e3d2ac52880a4163e1ff3a4bed808949d6e2b36c9ca83527f2b92b2acd251f9096dc18bb1b6d4834bc9ed8cab4471deed86d54c62c99b64798652611f44359081885285858560608160075afa92101616838860808160065afa167f1de0a0949cb72a53e8257e3e696388a2195b6f5fe1205168bda41ee1f839f81283527f245ac5401083666bae9f52ddb3d2e6b6a2cbad44e5fa3d3e268498e01893e99d8652611f64359081885285858560608160075afa92101616838860808160065afa167f2ed4f63a4dd4eb82c3907138355096411144c242ec6727cff2ec24a1d55e622083527f23529f6e5981d100387cce5fcdbed628678cdae8a31e7c5e7a6a8477b88996338652611f84359081885285858560608160075afa92101616838860808160065afa167f2445d628dd5f5153a3ca0d0c88baaa399acbd4b6cb9b2b573b3c31650dece63383527f0cc4a74b5711d877802e608c1cbab86e92b14c41a9d2a7556fdf11e0b2a496b38652611fa4359081885285858560608160075afa92101616838860808160065afa167f0286df034186b8da2f58d71ba7840b5876dc1a2cded15e565d1639bc6588203a83527f1a0c8abe5939f5ae039d500a14e7a0af644fffa42182238aeb2a3f640100255d8652611fc4359081885285858560608160075afa92101616838860808160065afa167f1985423337e2d93a017c819ab0deea7540bd6071679b3429feffd8a2e4cb7c0083527f266c3feaa87f65c9bc8147e3162e5159c515fb15e62a18b4616699765d183e3c8652611fe4359081885285858560608160075afa92101616838860808160065afa167f0b9a13294bc5519a896f4803cb5fd123502c0f99bf4a56e1a466e504dc127a3883527f0465ec4e859cfea6e9c6d39616270e024779e4d84ca789cce1032f1ae212ca298652612004359081885285858560608160075afa92101616838860808160065afa167f0b8b884559920a0c8c7c430e23ff29dc94d081e6e2712e2063082df3fb66c31a83527f195950e4185cc78a053199e19fff72ab0eb80f300a485831dba759389accbaee8652612024359081885285858560608160075afa92101616838860808160065afa167f1096f396021eb7ce2f3677e22aec66f1b98d334b09613fe147f574dc938a4d1c83527f0253c8456613adf32624498b7da0e070e0c6ae1c1942ae0e321e4167d1a9dd0a8652612044359081885285858560608160075afa92101616838860808160065afa167f0e22fd9ac3ca0021af900b4c0cc7fd758ef385be96d2af044a9cde558ccef68983527f1b2a68c253b1487fe5a15e2cdef53b0382c671a89bb42681b09193038529626d8652612064359081885285858560608160075afa92101616838860808160065afa167f16789005979d0b96c363e2e25bb5d94393d31acba9327e04f5f93626a48d6df583527f17ecf2b5af2d1fe8038d81e6339555f3a18ea1d98fee25e2dba5726d31683e9b8652612084359081885285858560608160075afa92101616838860808160065afa167f2575854b8bd346865cbfdda31f7e4c6a07008337d495d4d067d80544b2574dcd83527f1bf8d7a7fed1f5d48284274ab7d55de76dec2ebaa74d53e9ad705ee92f7e3fbf86526120a4359081885285858560608160075afa92101616838860808160065afa167f13d0b0a63081cdc5a343ccfe4be90ce1333b0172ff04cc9064bd8be627a51aa683527f12061eb48375f427129e1250e7a201f2930263a98d9d76ba4418ef973921f3c186526120c4359081885285858560608160075afa92101616838860808160065afa167f10c0bb9cced6f8f3cd0a93a151d6b4c675a4c27a9dbb400e8203f3fc7f40755983527f0c146cad37c3be14acbc5b18a79e8df93b94d358f632ad8beee3552883948a5986526120e4359081885285858560608160075afa92101616838860808160065afa167f07bf8ee8da8e5996f3bf8cb32ca4fa9b776808bc7674913a65c82c4b8c05bfb083527e864a18cfdb9bd4e3d181def7def5c93e6e5899a21bb4359338073454eef24a8652612104359081885285858560608160075afa92101616838860808160065afa167f08caf6790fbf7d017a68add9932dfebcbe8c3f2b1ce91fcae8a64f3f8d6702ac83527f1deacfbe18fa2b3b38fef4bb25c46fb07acc3e53272c142b6def1ed918b827ff8652612124359081885285858560608160075afa92101616838860808160065afa167f1de20c2fd617447e33a5e042c879b5f63d7398606fb512a0f9593e7f1bd9632383527f18cb83216d6e60098b2e681f571d19e2df998283f4f029bf24cf0570f5b515358652612144359081885285858560608160075afa92101616838860808160065afa167f2a1616ad72c6fc4eda1c5e854057f90477c909cc2dd88356987d1d5066a4797783527f2205d51b7efc22a585cd8bc8945b2ed0c1679657a7a262d6fe6c772a25483ab18652612164359081885285858560608160075afa92101616838860808160065afa167f1f984caaca14c6f96160d5a4939e3ddb793413ebf88fca6bc1a6b6010b39092483527f24cc49a548ac7aad838a4e405f04cf32528e0041c5c8e3c1b2e078d30dae93308652612184359081885285858560608160075afa92101616838860808160065afa167f1616382e1cfa046eedcc864ded300ae4cd8afc0c47884b05a35b3351a5ccc15d83527f2a531db9b307830a5e227c47813b32ce91a99c221273044012687910584dd46c86526121a4359081885285858560608160075afa92101616838860808160065afa167f15cb63fc4bffb54666658e1012e966b9162e59c59c90bf0c3dde155948dd243483527f2ec473c7f22ca9255218f29ca6a8ba6128a51fd4cc31bb7efd139877476fd53486526121c4359081885285858560608160075afa92101616838860808160065afa167e22e924ca21cfadbf8b300d73bac5e0f700d99be6dd7613702b94127f107fab83527f0752275af08db8fc76ecb834cdf70efdeda4977f06603ce3c0a8560532a65f6b86526121e4359081885285858560608160075afa92101616838860808160065afa167f1d220214be37009074f8ba4c892ce131a4106a25f8575bf62050f88bbeba8bd383527f1364b122491c7eeb30a62f3b53d39645a9d250f757c87d8eb643908970c783868652612204359081885285858560608160075afa92101616838860808160065afa167f291d4be8950cb1fade131b097687cda6f63de333fb5471a15ca7b358cc46ac5683527f255eaf66adc4783d6038af54785183c7e3e6a9d868e205f93b6895cdcdffe9ad8652612224359081885285858560608160075afa92101616838860808160065afa167f10d137bd3fd4185078252a04f5098ddbc74a056c2b44f58bacc200933165a32483527f29e0fab57950a07adfda8d5f29093fa269fd50458d85a928e6c53da03300ab218652612244359081885285858560608160075afa92101616838860808160065afa167f2ba1a3e40081d4f7ac1f634c0e52b0f2f36c45ebd34b13d1e6b7b8091c95f54283527f28df30eeeadefee5b33635f4b6433ffd087842a4c1891264253d3760e9592df78652612264359081885285858560608160075afa92101616838860808160065afa167f0e838db41afad3123f929acb161cc291b5c449d7c8bc171b6a93b3730b59ddd183527f0d2be5134f2f10c9c6169c6f9057b0fb82e02cc87e9be98b5a790de21e6319f08652612284359081885285858560608160075afa92101616838860808160065afa167f0900c9bc7651b6916127ff99b4647cfec4d1d7f68ea7314c6be6a9be18fcba8783527f0432a8268c70b810e4fe27622d22503cae8f5b2440302b5b4aec2fafd0e7117986526122a4359081885285858560608160075afa92101616838860808160065afa167f273f7d51d36281784517f3339c3101fb6820178282ae04c4fd16d225aab2463283527f036d089a943fbdba5a74778d2789b791564c6166d4d9d29f8172d8da0fef752586526122c4359081885285858560608160075afa92101616838860808160065afa167f16d89284a05cb0617057cb17dc955193a30555d23ba6ae0502d021eb5c6221b583527f0bcef571ecf52a41521486e9a74a66ca26dca5fe3b690e3388dfb3556f83986886526122e4359081885285858560608160075afa92101616838860808160065afa167f29f5af49309af0d95bfc7b9513bb8ca7c82acfac6544eb503de3e37293009b2f83527f0727f3f092f4613e49cd05eeee440b424bca76bd7881f4d087155c9265afffd18652612304359081885285858560608160075afa92101616838860808160065afa167eb403e9ca53c1ecf7a2a5e162047fbcf350e012be26dc52a8b4133173b85fc283527f18bb8ea493a8308e158de54fcdbaf4a5dda9530a3560f63d6c6c4558c5ae8d558652612324359081885285858560608160075afa92101616838860808160065afa167f09677c59b7c3cdf29eafda2b00ce8c69e1527aba579303159aeb0beff453935983527f068b92843b6955870dccb29900165ba47b1bc8df810b1283e1f47669c94846ef8652612344359081885285858560608160075afa92101616838860808160065afa167f2c2220c9b04ec8eb5ed4129c59fdbc774c6973e017f07bf180e82d549228678283527f12ded898d4ca56920029ece0b31e62c01659215cd036a1dc0b2a17a1e1a87fbc8652612364359081885285858560608160075afa92101616838860808160065afa167f23bb26f8aaad6f532f26ac0aafd486ab4d106ebb32341fb0fb4d2bf8c10f55e783527f2eef2dd7300b8e9d5f4879b5874fca20daea408090d693e6d71a53f1aa58e6188652612384359081885285858560608160075afa92101616838860808160065afa167f2b793253e9eeacb2ab567430008d043de4d066bb0e0fae83c8a00657096c085a83527f2806d6078a386bb74188e7fe10e70708f6345edf2090d629bc7d09f48c94fb5386526123a4359081885285858560608160075afa92101616838860808160065afa167f08cbe1b044c707cfd981804a69ca0a4432ad8c9f4b083d85d3aec3cb47f27be383527f0234e80a0ed2c8783735529220162bba65467cbb5b8ef699e10fd9603efb7f9586526123c4359081885285858560608160075afa92101616838860808160065afa167f136a130389bce25efa5a2395ab502ab359ac36c7456c428b8139ac62cefec3e083527f18e0ce391e903da9c64887835a298812e0ed58df4ee25c06aa11a4c2f0af6efe86526123e4359081885285858560608160075afa92101616838860808160065afa167f07c268479357aba0264960fb5469be99fd78aad4109ed4465061e29c93726f9183527f1886bb8e8afc2ff2d711288be056b7e0ecbe739cee677748f73e4bc86f6188d08652612404359081885285858560608160075afa92101616838860808160065afa167f3046e82f7d444841c1ffc9603579bc2d038a336d27d60fee5f7031f405a69c8a83527f2e016634b9fff36c438c9ec444cf0344aa218cfb33ea60bc47fc38abc0417c8f8652612424359081885285858560608160075afa92101616838860808160065afa167f0ebd27533f42e5b759f6a5090efb32f02bb25cd0072b169158d495b119481fce83527f1f777bd8a98a695366c6f25913d64d3a48e85d5161c9feb901656460dcc8dada8652612444359081885285858560608160075afa92101616838860808160065afa167f10c8bd90f8cc3ec10949519c8a7255440ce9c4dc2bec34587a446608ad47ac4c83527f0c0e031c93d22f76ead2f773b4b6a0566afb47b4d5f0f805df5538df8327c25d8652612464359081885285858560608160075afa92101616838860808160065afa167f2f4870a8a44bd18f5a6a97242311c9691ddc4b749e66d32f8db6f8a6b30647d183527f02ae1ff1522a057b4a7a073d5b54fe60b27015f33279a180625c0133bf1f82bc8652612484359081885285858560608160075afa92101616838860808160065afa167f1c2eb9e2d301c722fba31a5575ddb1f07f1a1bf111392d84721a4143f0feefa183527f020c338c7fe69d0297e843bb3b0ee31a9ba9a53fb83ba0d449b21d35b0c6542f86526124a4359081885285858560608160075afa92101616838860808160065afa167f06f8e8ceb384b8461235111880471088a8e16e55aee06b6ba18482afc7cde4ad83527f2eb3ba81b3bc0ebbec84155e8d6eb395afbf7b82091b54dc5ab1641cb0d6a8e686526124c4359081885285858560608160075afa92101616838860808160065afa167f0e606d26640a4135b4fe1df5352b2101db86dabca777f55b0a758754a58a970583527f26c9ec9f72bb9802e55bda79a7399849c1cd5813968db034fd1ccf831bd613f286526124e4359081885285858560608160075afa92101616838860808160065afa167f1010e7579e894c854c2f14e83f5f11cfda51a5307eda56b66ce707c42235553883527f2db07d2caba47cd7c1636fbdc0a849d0f4e5ac5875a920339031fff574e5afe78652612504359081885285858560608160075afa92101616838860808160065afa167f1dc7678373b8a4b486e58525cc989ace7eeb6d35ed3b942705def50b0640ff0c83527f29f71c7282e4db8908957a36e71391870265d4444329246e8c710580bf8bd7608652612524359081885285858560608160075afa92101616838860808160065afa167f213b28256b9e50a15ac1e8712081b21058d1b3d189c6e467d2e359870047184383527f0a1b4210c3d0a94771a10720fa08fc020ad651a2ff2ef33f63f9ba7b6626315a8652612544359081885285858560608160075afa92101616838860808160065afa167f039ffca5e58cdbce938375f8fcb498917edf114eb17fc83f78a97f9c32abf8c683527f012b09a1c0213b60694a162b4928e4fac07c4b91c9cded066251399b0f5e93d48652612564359081885285858560608160075afa92101616838860808160065afa167f2efd72d3ac7b068252617fa50f433d1701f7ce635e8e0fda153148866de2706883527f2364e35950202b50d5c88fad577c0786cfbeba35c480a866934f215378b1b2df8652612584359081885285858560608160075afa92101616838860808160065afa167f1d7c16f7c16fe9cfad1289baa2f6b248133704791bd3cce3a3d0f7d49f98676f83527f112c030fe97896e7d8cd069a04147434f527277e13b91c9c8907fc68249dc62386526125a4359081885285858560608160075afa92101616838860808160065afa167f07a1bdb8255a9a746c0fe253c27d070173bdae10c2393ff8167175989a0d6c0183527f0f377959010a8df0a7ebf9de754858fed2dae31cec31d11cb47de3e0aee8a0db86526125c4359081885285858560608160075afa92101616838860808160065afa167f1dd5bf46a0acaead141ffe51231124b112330495489de0abf5a93f95e517d34c83527f2a5f62a1dc1f37ccb41cc12de0d2a396419390a099ff27821f36e5117750947286526125e4359081885285858560608160075afa92101616838860808160065afa167f01a197a532a3951c698ff9f973fc760f1b80d0a63cbbbe6f8c8da5c12a52d69483527f255d752818338dd80256648e7ce5568d249b627383067171e405983067a97a248652612604359081885285858560608160075afa92101616838860808160065afa167f202b175ab33e2290c73b61195e51a68e2949d3c25314f1a6c20c9eaa9d32060083527f19501d51f2745c389182438f093561f38433448bc721cfc392c8ce4d82cdfab88652612624359081885285858560608160075afa92101616838860808160065afa167f281ec28ee38245620fe868f905593a4c2ba5188ae69d275f4f6b0b8251c973c183527f2396a84697bb36561f43dddc84753604efa724dfb964ef058ac38756f091773b8652612644359081885285858560608160075afa92101616838860808160065afa16947f0d2269e3cb8d6b480c7206f52d9a1e6aba4a68e879049a25d9642cbcbfdda9d58352526126643580955260608160075afa9210161660408260808160065afa16905191519015617b635760405191610100600484377f0d01205175bb7faacb3326834fb9946998849cb8e4e6f5319f1dc1a2d2a5c5886101008401527f1fc45107b9151da45cfb27404dcbfe9fe85f3c44e1596933f13f1344b67669c06101208401527f14f291e78a53307bd7fe26e29f654adcd4f3dc6061eb85224e4c209b40a32dee6101408401527f09dc91a804a37fd5d9623c6785f3a65d00789b2fab6f37b92a0ac54c331d7c596101608401527f243cb04587ff114a738f1bd6da7b1e9eff474bb193b8fd4891dfa17181b5c2f66101808401527f158b310beb4202188124a5281aab57095b31cf027cee0da4187dc0cb296811916101a08401527f190f64d5953009f66d2400bc282b5d0425183c227b38fca830a3e823826395dc6101c08401527f0f565337d8e8b03ce6d98e45856241393f7bf98611b72d55dc87ddfc4893e2936101e08401527f12dba0fab350ca7965b991d1c8643e9fd350234a5deedb27f749637374e83c3b6102008401527f0e563af98092f7b594986d5e668517fb0c6a92b144c6e5167512d7470db6747a6102208401526102408301526102608201527f23b164991381d4e4bb5a1213a877d6d0d732ae0783215839c2d6455a213a68d46102808201527f1b5292d8d0d09b60d0eacd8e538b86fe39e29ecc61bbc8e76241f9a80e2ade356102a08201527f12086fa777a03016ba596dad8bfd00c750c5458d86df76728da2cc144f3794066102c08201527f0f7acbecb50cfa3e199099e9fa05c2fe4ddd77e20d8a10c5194daf70cfd3114f6102e08201526020816103008160085afa90511615617b2e57005b907fffffffffffffffffffffffffffffffffffffffffffffffffffffffffffffffe0601f604051930116820182811067ffffffffffffffff82111761f71357604052565b7f4e487b71000000000000000000000000000000000000000000000000000000005f52604160045260245ffd5b907f30644e72e131a029b85045b68181585d97816a916871ca8d3c208c16d87cfd47821080159061f803575b617b2e5781158061f7fb575b61f7f55761f7af7f30644e72e131a029b85045b68181585d97816a916871ca8d3c208c16d87cfd476003818581818009090861fd35565b81810361f7be57505060011b90565b7f30644e72e131a029b85045b68181585d97816a916871ca8d3c208c16d87cfd47809106810306145f14617b2e57600190811b1790565b50505f90565b50801561f778565b507f30644e72e131a029b85045b68181585d97816a916871ca8d3c208c16d87cfd4781101561f76c565b919093927f30644e72e131a029b85045b68181585d97816a916871ca8d3c208c16d87cfd47831080159061fae2575b801561fab8575b801561fa8e575b617b2e57808286851717171561fa835790829161f9c07f30644e72e131a029b85045b68181585d97816a916871ca8d3c208c16d87cfd4780808080888180808f9d7f30644e72e131a029b85045b68181585d97816a916871ca8d3c208c16d87cfd448f839290839109099d8e0981848181800909087f2b149d40ceb8aaae81be18991be06ac3b5b4c5e559dbefa33267e6dc24a138e5089a09818c8181800909087f2fcd3ac2a640a154eb23960892a85a68f031ca0c8344b23a577dcf1052b9e7750806810306947f30644e72e131a029b85045b68181585d97816a916871ca8d3c208c16d87cfd477f183227397098d014dc2822db40c0ac2ecbc0b548b438e5469e10460b6c3e7ea48161f98781808b8009818780090861fd35565b8408097f30644e72e131a029b85045b68181585d97816a916871ca8d3c208c16d87cfd4761f9b48261ff44565b8009141595869161fd6b565b92908082148061fa7a575b1561f9f25750505050905f1461f9ea5760ff60025b169060021b179190565b60ff5f61f9e0565b7f30644e72e131a029b85045b68181585d97816a916871ca8d3c208c16d87cfd4780910681030614918261fa48575b505015617b2e576001911561fa405760ff60025b169060021b17179190565b60ff5f61fa35565b7f30644e72e131a029b85045b68181585d97816a916871ca8d3c208c16d87cfd47919250819006810306145f8061fa21565b5083831461f9cb565b50505090505f905f90565b507f30644e72e131a029b85045b68181585d97816a916871ca8d3c208c16d87cfd4781101561f86a565b507f30644e72e131a029b85045b68181585d97816a916871ca8d3c208c16d87cfd4782101561f863565b507f30644e72e131a029b85045b68181585d97816a916871ca8d3c208c16d87cfd4785101561f85c565b801561fba9578060011c917f30644e72e131a029b85045b68181585d97816a916871ca8d3c208c16d87cfd47831015617b2e5760018061fb757f30644e72e131a029b85045b68181585d97816a916871ca8d3c208c16d87cfd476003818881818009090861fd35565b93161461fb7e57565b907f30644e72e131a029b85045b68181585d97816a916871ca8d3c208c16d87cfd4780910681030690565b505f905f90565b80158061fd2d575b61fd21578060021c92827f30644e72e131a029b85045b68181585d97816a916871ca8d3c208c16d87cfd47851080159061fcf7575b617b2e5784817f30644e72e131a029b85045b68181585d97816a916871ca8d3c208c16d87cfd4780808080808080807f30644e72e131a029b85045b68181585d97816a916871ca8d3c208c16d87cfd448161fcae9d8d0909998a0981898181800909087f2fcd3ac2a640a154eb23960892a85a68f031ca0c8344b23a577dcf1052b9e7750806810306936002808a16149509818a8181800909087f2b149d40ceb8aaae81be18991be06ac3b5b4c5e559dbefa33267e6dc24a138e50861fd6b565b8092916001808296161461fcc0575050565b7f30644e72e131a029b85045b68181585d97816a916871ca8d3c208c16d87cfd478093945080929550809106810306930681030690565b507f30644e72e131a029b85045b68181585d97816a916871ca8d3c208c16d87cfd4781101561fbed565b50505f905f905f905f90565b50811561fbb8565b9061fd3f8261ff44565b917f30644e72e131a029b85045b68181585d97816a916871ca8d3c208c16d87cfd4783800903617b2e57565b917f30644e72e131a029b85045b68181585d97816a916871ca8d3c208c16d87cfd477f183227397098d014dc2822db40c0ac2ecbc0b548b438e5469e10460b6c3e7ea48161fdd69396949661fdc882808a8009818a80090861fd35565b9061ff38575b86080961fd35565b927f30644e72e131a029b85045b68181585d97816a916871ca8d3c208c16d87cfd47600285096040519060208252602080830152602060408301528060608301527f30644e72e131a029b85045b68181585d97816a916871ca8d3c208c16d87cfd4560808301527f30644e72e131a029b85045b68181585d97816a916871ca8d3c208c16d87cfd4760a083015260208260c08160055afa91519115617b2e577f30644e72e131a029b85045b68181585d97816a916871ca8d3c208c16d87cfd47826001920903617b2e577f30644e72e131a029b85045b68181585d97816a916871ca8d3c208c16d87cfd47908209927f30644e72e131a029b85045b68181585d97816a916871ca8d3c208c16d87cfd47808080878009068103068187800908149081159161ff06575b50617b2e57565b90507f30644e72e131a029b85045b68181585d97816a916871ca8d3c208c16d87cfd478084860960020914155f61feff565b8180910681030661fdce565b9060405191602083526020808401526020604084015260608301527f0c19139cb84c680a6e14116da060561765e05aa45a1c72a34f082305b61f3f5260808301527f30644e72e131a029b85045b68181585d97816a916871ca8d3c208c16d87cfd4760a083015260208260c08160055afa91519115617b2e5756fea2646970667358221220ab6545f841934382a779932a7cb531b10a4ead004382a44ba1cc15001d96db6964736f6c634300081e0033","linkReferences":{}},"methodIdentifiers":{"compressProof(uint256[8])":"44f63692","verifyCompressedProof(uint256[4],uint256[300])":"4f89a155","verifyProof(uint256[8],uint256[300])":"0bd6bf49"},"id":1}