{"abi":[{"type":"function","name":"compressProof","inputs":[{"name":"proof","type":"uint256[8]","internalType":"uint256[8]"}],"outputs":[{"name":"compressed","type":"uint256[4]","internalType":"uint256[4]"}],"stateMutability":"view"},{"type":"function","name":"verifyCompressedProof","inputs":[{"name":"compressedProof","type":"uint256[4]","internalType":"uint256[4]"},{"name":"input","type":"uint256[15]","internalType":"uint256[15]"}],"outputs":[],"stateMutability":"view"},{"type":"function","name":"verifyProof","inputs":[{"name":"proof","type":"uint256[8]","internalType":"uint256[8]"},{"name":"input","type":"uint256[15]","internalType":"uint256[15]"}],"outputs":[],"stateMutability":"view"},{"type":"error","name":"ProofInvalid","inputs":[]},{"type":"error","name":"PublicInputNotInField","inputs":[]}],"bytecode":{"object":"0x60808060405234601557611cff908161001a8239f35b5f80fdfe60806040526004361015610011575f80fd5b5f3560e01c8063216df43414610a5357806344f63692146109a05763c6acb0f11461003a575f80fd5b3461099c576102e07ffffffffffffffffffffffffffffffffffffffffffffffffffffffffffffffffc36011261099c57366101041161099c57366102e41161099c5760405160408101907f060791d6e8b9468f088810dc19c0eca922c87da7d2ecf0dd476610a0a4ca7ddc815260208101917f0299cf6954cd6b2b06ba8a7b490da7a665b759f4b9093fbbc72c64fa689f697683527f0c5c5ad40bef29f8b2209eef7230c3d0ba2f9c33269a4c0fff8f263f97fe607d8152606082017f29a5da04f746150d84ff0f9e70331b357a8cf112543306848d36591fbb124ac281527f30644e72e131a029b85045b68181585d2833e84879b9709143e1f593f0000001604061010435937f2187600655aad32addf6bc46ec5b0eee20d8ba9963a99665d9737e673f18f81a608087019580875284848460608160075afa911016838860808160065afa167f2aee62f0a9ffdf5ae6cfffe014016e4530515184f356e5676ff4f0f87e8b06f883527f10cf0c32d898e71df151d09adc619b06c5faead3c6c37734ba5b8f43094d0af486526001610124359182895286868660608160075afa9310161616838860808160065afa167f0c47259c6fb40d55b75939f52e6ad1163e8400cddf3a29732a49eb70e895317f83527f1113e0f6b205bdc4db53e5e8700ceb15e146f8ac60bbca568754ba4518ce72728652610144359081885285858560608160075afa92101616838860808160065afa167f0efbdc558b03f04bc299efba23b22bd69c4d0df9a5cb6bcc7d30073a5f5c4d3383527f22445135708d459ed3d0bf6a27c46630ac669dd0a8b50b7509b4554deb7559eb8652610164359081885285858560608160075afa92101616838860808160065afa167f0f5fdc866faf4e6ae1990b61fbdb3f652cb24faf499e743b61153fca6c77e6b383527f1199ab7f1592c8c659a0c8681349b5711c832ee569d80ef4c3dcb2e3c4f885758652610184359081885285858560608160075afa92101616838860808160065afa167f168474fec04ef5bb5ec9a11ed413e739186379fe0ff410b3ae400e1b477d454283527f1fcb02ce245927da9f6e6634eed0edf46967f099148664ae3de00ac402ef628486526101a4359081885285858560608160075afa92101616838860808160065afa167f293e8a3875004a1076f354eceed6abf4fd3cfe15319de21d52f34597e8e9705e83527f138d8b3e86eedf61d5230eee3c3510984c6b629fc83996b8c80fe87a26f01d9186526101c4359081885285858560608160075afa92101616838860808160065afa167f141ebdf2d06a5e0d294267568681193e4553febe7dd17c9335e81b8396d9249383527f24a6ab37b376304d60f3097c592fe366a2d6c91b52ce2b8a58902e9b0f57304386526101e4359081885285858560608160075afa92101616838860808160065afa167f264ba280e4b6b797380a8ebc431060eec3bffbe58a21be8d0dc9d2e0bdec2c8c83527f1a876f9f6d0091b747b0fd944777b221c994f3d70a1d291d0cf5bd7a5eb7130f8652610204359081885285858560608160075afa92101616838860808160065afa167f199efadaa7fc162fdca34ca8d1bfe6abdd9589e061ea4b897b3073dfede7b79183527f09e7db348473def7ee34c67ed51ee38ecaf3238b99cf50b68592f9a219e608d68652610224359081885285858560608160075afa92101616838860808160065afa167f29ed987d351cf20803a9dee71acf41bf5d59aaff6f6bc0e49993f4d990f9409183527f121fbc459415707c6ae2387f6e020544ae82b70a42fb9ce17d0fb402852065218652610244359081885285858560608160075afa92101616838860808160065afa167f0c23988e41f50c86ea5f0b6584620932727b1d1532651bea1cf122ef91dbc3c683527f2120352a9f9c063f54a8253b3836ff46726444f78f03961a4c5bfd4c9752d6a28652610264359081885285858560608160075afa92101616838860808160065afa167f1e1c848f99a616ab178febd9d0be73192d9eec09f11f15cc9ed1fd92e9f34e1683527f15b30841cbaeac42b75a2a2db0cee52a1313ab486fbfc65609f765402f0226448652610284359081885285858560608160075afa92101616838860808160065afa167f16bfbcf4f810a58d9a38c22afdcf0190dfd1c369ab9b257aad170c676bf5171a83527f156fa43bfaf38a450f46b419a2fc2c0fa0e8613397e8d8e8b876b4a1e0e36eb886526102a4359081885285858560608160075afa92101616838860808160065afa16947f05a80da91fa549f8fa02847df142c90719352b3fec36bf88498b226e8c437d368352526102c43580955260608160075afa9210161660408260808160065afa169051915190156109745760405191610100600484377f1d73264a75ac539107edb5d77a68f499347112abca6d8ff277aaed53b1df01076101008401527f18a83f2a46f5afe5f1652cf2d2d8719dde5c2fd9d27bbeefc8679b96681d1a776101208401527f29371f8120a832410ed3524476ad0f75e782fd695370a0e22bac7c2e50e006446101408401527f2267738ebf6f8c79a74ee86908ceab36bf68b9e1cfed679624582be10c20baa06101608401527f0df3543c003a7d2d3b61c123a763a860094b234651e144c5256e4b07981601d26101808401527f2d1de65614e42bc1e979d06af6a353e47022258663f84131fa59832232c9da9e6101a08401527f0deaed63cbef0a6469acab1c2927271831ad7c2ce8253506e15516dfeb2572936101c08401527f11ba9663125b82eb6036f90f895197596b1013063151caca0813d01c71b89c666101e08401527f01495ed2e7048c670bc8bdb2484432f9b4d11405336ea0f91278b9e79b54065f6102008401527f20a17d3efdf8400782db32a2cb392f03e964c2abea239cde54da6b67b780972d6102208401526102408301526102608201527f018ddfaed0a33ee38459bab216184ee3d3fe0d0c3545d6ddcfdbd98dfe37b4016102808201527f180d26e0270cb0cada87cf469265794c2ddfa1566e9ef60ae24c3d29cd31cf9a6102a08201527f167191540692179b27f8219b6f7017e9f54458a8ff5e4da1b468c8d9cf58357c6102c08201527f2e5758fb9bf8888497ca5bf13bf896f90c62118b72d00378a56510d94974b6e56102e08201526020816103008160085afa9051161561094c57005b7f7fcdd1f4000000000000000000000000000000000000000000000000000000005f5260045ffd5b7fa54f8e27000000000000000000000000000000000000000000000000000000005f5260045ffd5b5f80fd5b3461099c576101007ffffffffffffffffffffffffffffffffffffffffffffffffffffffffffffffffc36011261099c57366101041161099c576109e360806113d9565b60803682376109f6602435600435611673565b8152610a0c60843560a435604435606435611760565b60208301526040820152610a2460e43560c435611673565b6060820152604051905f825b60048210610a3d57608084f35b6020806001928551815201930191019091610a30565b3461099c576102607ffffffffffffffffffffffffffffffffffffffffffffffffffffffffffffffffc36011261099c573660841161099c57366102641161099c57610300610aa0816113d9565b81368237610aaf60043561144a565b610ac06024939293356044356114ee565b91939290610acf60643561144a565b9390926040519660408801967f060791d6e8b9468f088810dc19c0eca922c87da7d2ecf0dd476610a0a4ca7ddc89528860208101987f0299cf6954cd6b2b06ba8a7b490da7a665b759f4b9093fbbc72c64fa689f69768a527f0c5c5ad40bef29f8b2209eef7230c3d0ba2f9c33269a4c0fff8f263f97fe607d81527f30644e72e131a029b85045b68181585d2833e84879b9709143e1f593f0000001604060608401927f29a5da04f746150d84ff0f9e70331b357a8cf112543306848d36591fbb124ac284527f2187600655aad32addf6bc46ec5b0eee20d8ba9963a99665d9737e673f18f81a6084359583608082019780895286828660608160075afa911016818360808160065afa167f2aee62f0a9ffdf5ae6cfffe014016e4530515184f356e5676ff4f0f87e8b06f885527f10cf0c32d898e71df151d09adc619b06c5faead3c6c37734ba5b8f43094d0af48852600160a43591828b5288848860608160075afa9310161616818360808160065afa167f0c47259c6fb40d55b75939f52e6ad1163e8400cddf3a29732a49eb70e895317f85527f1113e0f6b205bdc4db53e5e8700ceb15e146f8ac60bbca568754ba4518ce7272885260c43590818a5287838760608160075afa92101616818360808160065afa167f0efbdc558b03f04bc299efba23b22bd69c4d0df9a5cb6bcc7d30073a5f5c4d3385527f22445135708d459ed3d0bf6a27c46630ac669dd0a8b50b7509b4554deb7559eb885260e43590818a5287838760608160075afa92101616818360808160065afa167f0f5fdc866faf4e6ae1990b61fbdb3f652cb24faf499e743b61153fca6c77e6b385527f1199ab7f1592c8c659a0c8681349b5711c832ee569d80ef4c3dcb2e3c4f8857588526101043590818a5287838760608160075afa92101616818360808160065afa167f168474fec04ef5bb5ec9a11ed413e739186379fe0ff410b3ae400e1b477d454285527f1fcb02ce245927da9f6e6634eed0edf46967f099148664ae3de00ac402ef628488526101243590818a5287838760608160075afa92101616818360808160065afa167f293e8a3875004a1076f354eceed6abf4fd3cfe15319de21d52f34597e8e9705e85527f138d8b3e86eedf61d5230eee3c3510984c6b629fc83996b8c80fe87a26f01d9188526101443590818a5287838760608160075afa92101616818360808160065afa167f141ebdf2d06a5e0d294267568681193e4553febe7dd17c9335e81b8396d9249385527f24a6ab37b376304d60f3097c592fe366a2d6c91b52ce2b8a58902e9b0f57304388526101643590818a5287838760608160075afa92101616818360808160065afa167f264ba280e4b6b797380a8ebc431060eec3bffbe58a21be8d0dc9d2e0bdec2c8c85527f1a876f9f6d0091b747b0fd944777b221c994f3d70a1d291d0cf5bd7a5eb7130f88526101843590818a5287838760608160075afa92101616818360808160065afa167f199efadaa7fc162fdca34ca8d1bfe6abdd9589e061ea4b897b3073dfede7b79185527f09e7db348473def7ee34c67ed51ee38ecaf3238b99cf50b68592f9a219e608d688526101a43590818a5287838760608160075afa92101616818360808160065afa167f29ed987d351cf20803a9dee71acf41bf5d59aaff6f6bc0e49993f4d990f9409185527f121fbc459415707c6ae2387f6e020544ae82b70a42fb9ce17d0fb4028520652188526101c43590818a5287838760608160075afa92101616818360808160065afa167f0c23988e41f50c86ea5f0b6584620932727b1d1532651bea1cf122ef91dbc3c685527f2120352a9f9c063f54a8253b3836ff46726444f78f03961a4c5bfd4c9752d6a288526101e43590818a5287838760608160075afa92101616818360808160065afa167f1e1c848f99a616ab178febd9d0be73192d9eec09f11f15cc9ed1fd92e9f34e1685527f15b30841cbaeac42b75a2a2db0cee52a1313ab486fbfc65609f765402f02264488526102043590818a5287838760608160075afa92101616818360808160065afa167f16bfbcf4f810a58d9a38c22afdcf0190dfd1c369ab9b257aad170c676bf5171a85527f156fa43bfaf38a450f46b419a2fc2c0fa0e8613397e8d8e8b876b4a1e0e36eb888526102243590818a5287838760608160075afa921016169160808160065afa16947f05a80da91fa549f8fa02847df142c90719352b3fec36bf88498b226e8c437d368352526102443580955260608160075afa9210161660408a60808160065afa169851975198156109745760209a8a528a8a015260408901526060880152608087015260a086015260c085015260e08401527f1d73264a75ac539107edb5d77a68f499347112abca6d8ff277aaed53b1df01076101008401527f18a83f2a46f5afe5f1652cf2d2d8719dde5c2fd9d27bbeefc8679b96681d1a776101208401527f29371f8120a832410ed3524476ad0f75e782fd695370a0e22bac7c2e50e006446101408401527f2267738ebf6f8c79a74ee86908ceab36bf68b9e1cfed679624582be10c20baa06101608401527f0df3543c003a7d2d3b61c123a763a860094b234651e144c5256e4b07981601d26101808401527f2d1de65614e42bc1e979d06af6a353e47022258663f84131fa59832232c9da9e6101a08401527f0deaed63cbef0a6469acab1c2927271831ad7c2ce8253506e15516dfeb2572936101c08401527f11ba9663125b82eb6036f90f895197596b1013063151caca0813d01c71b89c666101e08401527f01495ed2e7048c670bc8bdb2484432f9b4d11405336ea0f91278b9e79b54065f6102008401527f20a17d3efdf8400782db32a2cb392f03e964c2abea239cde54da6b67b780972d6102208401526102408301526102608201527f018ddfaed0a33ee38459bab216184ee3d3fe0d0c3545d6ddcfdbd98dfe37b4016102808201527f180d26e0270cb0cada87cf469265794c2ddfa1566e9ef60ae24c3d29cd31cf9a6102a08201527f167191540692179b27f8219b6f7017e9f54458a8ff5e4da1b468c8d9cf58357c6102c08201527f2e5758fb9bf8888497ca5bf13bf896f90c62118b72d00378a56510d94974b6e56102e08201526113b1826113d9565b9283918336843760085afa159081156113cc575b5061094c57005b60019150511415816113c5565b907fffffffffffffffffffffffffffffffffffffffffffffffffffffffffffffffe0601f604051930116820182811067ffffffffffffffff82111761141d57604052565b7f4e487b71000000000000000000000000000000000000000000000000000000005f52604160045260245ffd5b80156114e7578060011c917f30644e72e131a029b85045b68181585d97816a916871ca8d3c208c16d87cfd4783101561094c576001806114b37f30644e72e131a029b85045b68181585d97816a916871ca8d3c208c16d87cfd4760038188818180090908611a3f565b9316146114bc57565b907f30644e72e131a029b85045b68181585d97816a916871ca8d3c208c16d87cfd4780910681030690565b505f905f90565b80158061166b575b61165f578060021c92827f30644e72e131a029b85045b68181585d97816a916871ca8d3c208c16d87cfd478510801590611635575b61094c5784817f30644e72e131a029b85045b68181585d97816a916871ca8d3c208c16d87cfd4780808080808080807f30644e72e131a029b85045b68181585d97816a916871ca8d3c208c16d87cfd44816115ec9d8d0909998a0981898181800909087f2fcd3ac2a640a154eb23960892a85a68f031ca0c8344b23a577dcf1052b9e7750806810306936002808a16149509818a8181800909087f2b149d40ceb8aaae81be18991be06ac3b5b4c5e559dbefa33267e6dc24a138e508611a75565b809291600180829616146115fe575050565b7f30644e72e131a029b85045b68181585d97816a916871ca8d3c208c16d87cfd478093945080929550809106810306930681030690565b507f30644e72e131a029b85045b68181585d97816a916871ca8d3c208c16d87cfd4781101561152b565b50505f905f905f905f90565b5081156114f6565b907f30644e72e131a029b85045b68181585d97816a916871ca8d3c208c16d87cfd478210801590611736575b61094c5781158061172e575b611728576116e27f30644e72e131a029b85045b68181585d97816a916871ca8d3c208c16d87cfd4760038185818180090908611a3f565b8181036116f157505060011b90565b7f30644e72e131a029b85045b68181585d97816a916871ca8d3c208c16d87cfd47809106810306145f1461094c57600190811b1790565b50505f90565b5080156116ab565b507f30644e72e131a029b85045b68181585d97816a916871ca8d3c208c16d87cfd4781101561169f565b919093927f30644e72e131a029b85045b68181585d97816a916871ca8d3c208c16d87cfd478310801590611a15575b80156119eb575b80156119c1575b61094c5780828685171717156119b6579082916118f37f30644e72e131a029b85045b68181585d97816a916871ca8d3c208c16d87cfd4780808080888180808f9d7f30644e72e131a029b85045b68181585d97816a916871ca8d3c208c16d87cfd448f839290839109099d8e0981848181800909087f2b149d40ceb8aaae81be18991be06ac3b5b4c5e559dbefa33267e6dc24a138e5089a09818c8181800909087f2fcd3ac2a640a154eb23960892a85a68f031ca0c8344b23a577dcf1052b9e7750806810306947f30644e72e131a029b85045b68181585d97816a916871ca8d3c208c16d87cfd477f183227397098d014dc2822db40c0ac2ecbc0b548b438e5469e10460b6c3e7ea4816118ba81808b80098187800908611a3f565b8408097f30644e72e131a029b85045b68181585d97816a916871ca8d3c208c16d87cfd476118e782611c4e565b80091415958691611a75565b9290808214806119ad575b156119255750505050905f1461191d5760ff60025b169060021b179190565b60ff5f611913565b7f30644e72e131a029b85045b68181585d97816a916871ca8d3c208c16d87cfd4780910681030614918261197b575b50501561094c57600191156119735760ff60025b169060021b17179190565b60ff5f611968565b7f30644e72e131a029b85045b68181585d97816a916871ca8d3c208c16d87cfd47919250819006810306145f80611954565b508383146118fe565b50505090505f905f90565b507f30644e72e131a029b85045b68181585d97816a916871ca8d3c208c16d87cfd4781101561179d565b507f30644e72e131a029b85045b68181585d97816a916871ca8d3c208c16d87cfd47821015611796565b507f30644e72e131a029b85045b68181585d97816a916871ca8d3c208c16d87cfd4785101561178f565b90611a4982611c4e565b917f30644e72e131a029b85045b68181585d97816a916871ca8d3c208c16d87cfd478380090361094c57565b917f30644e72e131a029b85045b68181585d97816a916871ca8d3c208c16d87cfd477f183227397098d014dc2822db40c0ac2ecbc0b548b438e5469e10460b6c3e7ea481611ae093969496611ad282808a8009818a800908611a3f565b90611c42575b860809611a3f565b927f30644e72e131a029b85045b68181585d97816a916871ca8d3c208c16d87cfd47600285096040519060208252602080830152602060408301528060608301527f30644e72e131a029b85045b68181585d97816a916871ca8d3c208c16d87cfd4560808301527f30644e72e131a029b85045b68181585d97816a916871ca8d3c208c16d87cfd4760a083015260208260c08160055afa9151911561094c577f30644e72e131a029b85045b68181585d97816a916871ca8d3c208c16d87cfd4782600192090361094c577f30644e72e131a029b85045b68181585d97816a916871ca8d3c208c16d87cfd47908209927f30644e72e131a029b85045b68181585d97816a916871ca8d3c208c16d87cfd478080808780090681030681878009081490811591611c10575b5061094c57565b90507f30644e72e131a029b85045b68181585d97816a916871ca8d3c208c16d87cfd478084860960020914155f611c09565b81809106810306611ad8565b9060405191602083526020808401526020604084015260608301527f0c19139cb84c680a6e14116da060561765e05aa45a1c72a34f082305b61f3f5260808301527f30644e72e131a029b85045b68181585d97816a916871ca8d3c208c16d87cfd4760a083015260208260c08160055afa9151911561094c5756fea2646970667358221220d59343b5c207de6ef308df923ca342a9e120ae5d3fdb1b4e3b70dddaafda2f8264736f6c634300081e0033","linkReferences":{}},"methodIdentifiers":{"compressProof(uint256[8])":"44f63692","verifyCompressedProof(uint256[4],uint256[15])":"216df434","verifyProof(uint256[8],uint256[15])":"c6acb0f1"},"id":0}