{"abi":[{"type":"function","name":"compressProof","inputs":[{"name":"proof","type":"uint256[8]","internalType":"uint256[8]"}],"outputs":[{"name":"compressed","type":"uint256[4]","internalType":"uint256[4]"}],"stateMutability":"view"},{"type":"function","name":"verifyCompressedProof","inputs":[{"name":"compressedProof","type":"uint256[4]","internalType":"uint256[4]"},{"name":"input","type":"uint256[300]","internalType":"uint256[300]"}],"outputs":[],"stateMutability":"view"},{"type":"function","name":"verifyProof","inputs":[{"name":"proof","type":"uint256[8]","internalType":"uint256[8]"},{"name":"input","type":"uint256[300]","internalType":"uint256[300]"}],"outputs":[],"stateMutability":"view"},{"type":"error","name":"ProofInvalid","inputs":[]},{"type":"error","name":"PublicInputNotInField","inputs":[]}],"bytecode":{"object":"0x608060405234615ba557610011615ba9565b7f1a5bece0a06bb393cb5ef163410e727a5477e6b9ea0812c81ccfa2950a43760e81527f1fa5a8a231f89dad86faa6ddf7da430d9a437f752fc56499813bc6e9b144a15060208201527f296a8531b938e5aaf3a2629279b5f89e307a36e2067a74bae7922389b6b72cd560408201527f0ea38287df54a5f3d420e0eb41c7bcb7380076eddcefed323a61ef50c16f796c60608201527f2886885ece937502ec95e84d7d72760c189de343c8a043de2682ffda9836ff4960808201527f1571e505c27878f500db4118d6c5670b8209d0fcc94bea85b774134373390a5e60a08201527f0bd76597391bea3c7f70edce9bf4c45d3b6c2a8af4665547fd3b6ddfd839de8d60c08201527f258d0d73eee8bd4a6168373b5fea38c0f62a9d3bc59181132d782cb3e52fe5bd60e08201527f178c4b5148dd0340b70e51102bf1eead6c5f7bc978a8a5d7aeefd4efa66d19ba6101008201527f2951f312957643e9b9c590a6b3f3015135b059fc0b54c48e95c98cab26cc00ad6101208201527ef02040d4fd0697e612501931a8370d7858e266057f0afee33aa611705793426101408201527f0ed40243c7579ef0e2f7bcc6dc8d0b9b7ad8a6da16a1e1bdfc26f8bf9a22db056101608201527f2ca75970204fe3f951bf614c864f97b82915431dba753cd74363e5228faf54b86101808201527f1cfefd6f026d2d6487a0e844eb06a9dc9668f270d87c40fbcd91393caffe01c36101a08201527f1105daaf6f4f01e126ecdeb6b9b69d9890dddb41d2b1507f50ad78be5d1f2d476101c08201527f2b32956f815a579849b379cc710c44f1da99dcd2ba05b800251900a40adb3b4b6101e08201527f1bf8bba6ac146da26b6736abe99a3e28d1f1d29dfef80694a0bc7c2f44df91fa6102008201527f28f645b9fbf9d49f4e360c78a52a124daca0904121e47f5d9110047f748d12f46102208201527f24dd397d8e1a05a933f4ae04a332119256e72d09dc0062f84225c82b12be5bcc6102408201527f18616fefe284961fa483a6a6a773e7e449bdedb47a5c8b931cb4d46c6d33970b6102608201527f279a2b59a98ae230cb456931372322dea8f12c7b534c39a94137ac219a851e556102808201527f22d88b350a7809fc78652d08906356f3b3d60e66c710fbdbeda5d8d5598029996102a08201527f2cf445df0b0131a091b5cf947b40555490bb88f03e4a497e1082e504761e62706102c08201527f1213d6634605ddf153affc03de766d13558209cb04ed53e9021e440bf08cb5906102e08201527f2cfdcb34a3ee18f6f81a6077acd9a0c0a87f5981c4e676b4628a1e5ee822e9176103008201527f0bd3bf31d32109a3201074c4094cc6efb69d64d0e80abc9efee0ba9993fd360a6103208201527f1a5c733bdbf8eca37f988e8005d5b4bfa239f976a9ade8d0357919f303ff5e086103408201527f034588be1b284e37dd593b4529c3c6f43c1ac111b7e2268a30089bc8ee809ae96103608201527f1b32a443d4fbc7bbbc7a6eefde3cd5d86bbc26aace5a222776d0c0ad00b91cc16103808201527f06a2a2db18cb8dea96116cf68f32cc79a1fef81cba23ff1fb84997adc34d670a6103a08201527f2aaff82ab20cab9f404233f8c56ef8d1901d38c48946dd5557e1058836f20c276103c08201527f243fa79acb843eea6b11a7ff8b561e970161483fbf74cf6072be1975472489236103e08201527f2328adadb16b1698936851c7c50add613a26a5169561cede98a67540af3453106104008201527e3ecfebd570f0746d65d803c85bb6df6c92cbe2d02a5ba442507f07fb2e0a8d6104208201527f1c95d3aba9c45d9a7c392e3b4b04256126e298ace066df6b5cb312f75550881c6104408201527f29d01c0a6d3b9ad837627e3ea34858ac5b06fe1617ee2873fa6e38b2313fc33e6104608201527f286995209a2f472dc61e2697423d2bb34733dd29300331e56057e55e29cae7a56104808201527f21c78df530e21172ecb792d222b5ce9e67dcf3d82bf338cd6e9b16148b6d1a066104a08201527f0a11129dde7705e4227f88b817dcb635ebe5db4dba07369f7e03e5f21d8680f46104c08201527f07c689aa6f26d8c0eee2234312dfb26401b2fff37eb9d7528431025b65e514096104e08201527f2d19b3e1666da4e5552c9afec60f54fdddd324e457be0eb6e4d3f301425666a76105008201527f0d9c749c078fe60f6892563d787f314a4a31458ca5872aa952f6748143ecf6b96105208201527f05bef49050ca61cbdc8be262aa2cd9b8bc786ac9d69a2b9b1bc8bb98cd626adb6105408201527f04284a9764ef6ad3448ba63e3bbe9b0e36eabeb6582397ff25291a9359a55e576105608201527f2d2b2907c998e6d5d732f2633d4a3993cd2d0756cea72f77b3d983a7ef2474136105808201527f1c2754a2f2218e1b5d4794c68e1b676ab2464cefd819ff35b6b53b66ca0a50f86105a08201527f0e06e4c93b1d82f0db8ce7e4dce578a3b01eafb5b2510eb6223aecb2e91ed51f6105c08201527f13a08f5ba629798b06be69d60736c350ab73aecb788b5e1e7a02200c1f7dd25c6105e08201527f0deae0e795564f037ba35288a41d0ec698867e9c1d88a36b2a577818e9c188c46106008201527f1941e2cfeda6138a5cb431c10ec35d443b6497518004009a2c6159a896ce0c556106208201527f11898204c83a5588a13dd643dca8637d84cb01e2122b422dbb1730f0b349657a6106408201527f037125540c4f08c6a2caf004c23271f9cc1683cdce860b9d98e00a8142d3ef2d6106608201527f02fd4e80146a467322d186420aad48effad5d5589799b8c29da71ea8b926a7186106808201527f1f4c8d12a523372c8a52d51b79e2adeafdde5225200c73c445eb978b457136366106a08201527f22e4888a22888f3217a74b3f1ff2e4c40637b355e8251acc46ea66331f69e79b6106c08201527f11fbab109f6ee9f648c3eea85a914f98f8b21114354dbb04cf880c96130a6b6d6106e08201527f0fae90e76a92d0f3536a02118fab0d6ff6fc1b40e6b546e10018ed86e4ab420f6107008201527f153697ee144a1cd8116bddcf999c589fb58981e4294107554f487cdb84d9c58b6107208201527f109cfe0c52774337cab9f275e428bd59a04421af4a8339e109e1e3846e0b81ad6107408201527f07ab1d32179743ba7c3d13cb6aa5c06382240c301480a828dd180181752b39ed6107608201527f14483917c4efe5a81504dacd2b913f67d46a6566783b69187b255b23fd8b6bc46107808201527f1b44d2c6a699215ef90bc5c2e42c316ddc96da21e0153577ba3221fd296934a26107a08201527f07f781f940eea32854622431fd97442e8a1e34ad11b3522c1f59f9d8ea3f13776107c08201527f2114d1438377f4a9238afcb8582420a2869089bc53701fa29dbfb592e8860ba26107e08201527f2641cc21b252de095d78bdcafb1f61580806ed18d7beb9223b55fc2e7a8421106108008201527f02c750dd8f5010e0a890264994332ee9e0252b3183190cfb97bf8525f02771ed6108208201527f1f17bdde9390704b52f212fe4f9de3b9d827eafca572a117f36852e2ea9504f26108408201527f079b510348bb9aa55071164214314d4901ef689e82ecf5f2c75b35edcd83e9796108608201527f0a87fc1706327899032be8f9af81871cc765e92e643e80908fe9aa67b9bbe16e6108808201527f214022bd1c8b916a22019498878fc3d798cb936a2cecd5e3af3084ca0ec363ae6108a08201527f0847b09f11d99a746d082f08313bfcf30af2cfa15c30459dd0c1c908541af5166108c08201527f1013fd5ba43630f37c540dea4c6193478c5f71c40acc1448e4a9c82b29b0fcf86108e08201527f24a7487c3e8b903a3e000b67a02575113ba42cf827f2d9201eb7ce651d2753c56109008201527f15e9fb926f97bb6748847de6dcceebe45e691e4bdc900618ea49f29eea4da8db6109208201527f24fdd500af49901a36a687e986536903488572d6594a481c8db0e215949105276109408201527f05c75f8547aaa6c48c7da0d7a414cd097b8b92d9d596ea000ddae0b0ab9e0b6c6109608201527f1c90eaebea9136182920c2a30123a54817d5f6e770b8c445284187c6dc9a25f76109808201527f09f69331b1971447457c05147230b73602c210a0821562db89ed12b08ddef05a6109a08201527f23800f4a970ca18172ad66d57a31f0b439af4f982f81640fb9f71b8aa43937896109c08201527f190cc9bedea2ae3d1130a5ced7e946b5f2025ad8cb3ac041589f125b1e3ed02e6109e08201527f0f83c8afe3d9ea982b287fe80983860ec9bc14eb0f7ade75f8b5bedfab0c4b6e610a008201527e3732d7b70f3f0eae6c8688def976393901cd2f691ef3510984261edc66c2a9610a208201527f01aca27092f5324fc64f2fc656a7f45987b7ed7788896ea5f1380f15d1de538c610a408201527f08ebcd3ef8b006031b8c2c8d417f2a96b2b771e890afafecf6113009f9fa23ca610a608201527f2516e334739d32e9e95e7e311a6b36ecd528fa902c355aceaad93ecdf96c31b7610a808201527f1f22cd5d1bd77088106c047f6b88a262bb7a07d590d9aa0bd098277c0299cdf8610aa08201527f165d7cf9e4fefdf8647c4daaadbd309d16e9ca5bdaeb7f3af26b7fc157ffd655610ac08201527f131b4ead1981d63410a4bb01e0095ea660d417669b80d643f7fe662d75a7c9b5610ae08201527f0f315ebf11bb6f7d6d608d8702db980a79c8c2405ef8456557dbf9a95f49249d610b008201527f2243c604dfc0001ea7e42f68d35fd77dec73554318e39c6d2843e71db0293578610b208201527f2c721babbfcda1ce3840d502e256b0e38dbb22d2ad9778ff8380c70e0be98d2b610b408201527f26f7ec84aef7a4d4d5ec14c2465deb089b1d4e9e4b048d30f85493e58a166061610b608201527f2f88d79082ad2f9af29494b60d81e8f1b7aad71b5392fede65ba466c19d4c6a1610b808201527f1c8255f56e818f8c6dd3451b3dfaf6d6a79d5b8609ee2da435d3614b7e4b7147610ba08201527f09e13c3ae0e5c5a605c680f16a734a914aa3ec9fcb46289879d7bb1ef8461d12610bc08201527f297ca64306f829095e1a57d5c8ad6fdd4199cc7589e973ae30d552c27635c959610be08201527f11be757f0bff13dfdfae422da357b088d788b943558901f1a2d97f79c2e163af610c008201527f124f91be0fe3c1337d61b2266a904777dd45eb69a104c9e52d2697fc4755c744610c208201527f1a745cb277e5bbfe677b7adf1d0aec33272a6bff19a6774dcd02b89d88c235fb610c408201527f0ec95dde7a134b0483425556b389ccad5f90ca1c455bbe3bcffc423319e46fec610c608201527f186089d0e8aeded0f02ac9e51f89a170d34c86946d62dfdda4090a2bd1f56281610c808201527f1286bfff7e1ed54ff6a75e28d7252638fe31c5968889bcd1c522ed63cfd6e947610ca08201527f216b8ba4c44a251b0af2e8214bdd1b04c5b93302b84250af22a5fc10de193a65610cc08201527f09af42508727b6d6ded07d09946336c9172fda91213cce538b788db78f8a9c79610ce08201527f2ab80a4f1a4736f6849e7e43d00b8e3169e907b0e2aa2b9e57b1833d42dfb2cb610d008201527f152c446b7edae2e83954a6210e4039796884a5ab3b84c2710107ec73e41fb546610d208201527f1e4afc9146d0495ff193bde78dbad116768258bf30cd79404884d9f861d3d2ed610d408201527f253b73ad6420604916ffc51cf457830c4846cbd2976d477ee9b6c2b6ec2fdcce610d608201527f0c176fa1bcde8d16bed3ba90cc97959508f04f272d3872ef98d2ddb5b673941a610d808201527f2ee13b88892bcb670fd30e8ce6ae34ad2587418378134cc9eaeaafa4638df76a610da08201527f29cb6f5e4bc36a62f3ea4fa5de50e3601dc3fde0b937d1413f5e5f852f06688a610dc08201527f0638429a39cc2851a94c8b46136a1b492777d447f71898ead5d78c6553374146610de08201527f1ab595d3a2a8b5296d5d0b52a8d25a8372f2ff0dfecac34414d95c2b45cb2c61610e008201527f1d3f2c9ef1c16c66d9b5a43e4f9c66da8dbadef7ac26ffa3f52d2a1165a6ae65610e208201527f05d923ed266e2aec81ab8b6f6aeca34b7a4cd6225df387f5c89d89b0b7dabd38610e408201527f0445c8890bc0343282387d0daec7bfacb45ae2c40fe70223742dbe566b4598de610e608201527f265ee335d08d2c56942a6b4eba3c455399499e567f5805e893906e1e26502f13610e808201527f2880a5ef25c63bc2b9d927f6d74c4a936b65c45e721dd4fcb427ded94278fe24610ea08201527f1db108dcd6c64db2a2f4a0ff0b6ac56e22218d4bb703979162e92358070a86fb610ec08201527f0c121abd1a9980300d8cc0407449c83d69c27c6ba7ad60f2f19138ac0a58af33610ee08201527f2f1938eb4ee546ecbb669339047ed73f96c7834c393291858a95a1feb0baa19d610f008201527f0830ed8f06666800d6dd3f443b8d1bd034702c4055f08dd580242f47bcf226cd610f208201527f0343ba346f52425408d9fee874cf3bf5a3c676d3752005a3b2e4211bcda1c822610f408201527f06116ead60906aecb0b9e64148904ab05c6cbb469d572f669f114acd7e5da9bb610f608201527f255e191f8453213bcc85954450af10e02ecc6c15aa572173af4def1f9fe0d487610f808201527f01918174ec5be26c7d40903576b8f3a5ccd683fbf67f0a922a27c1c795abefb6610fa08201527f301e0cad775c0d883633d6508a49e8e89e2bb1bca5b75a9fc6ddbd64e0fde22a610fc08201527f22f9c19c38344d4fa668bed6468acc9405e40d24e52c119afbca8310a737adeb610fe08201527f264317c9285b1d6a3c816134a99f11b0d9e5555a03f9a3e10e8f9384a42e993a6110008201527f15ca8d99bdde1d09c154c2ab858e57d29d3cec9a7fc74dada39dcb7aab1c6f436110208201527f1374771a0a13fa3a54ebc4310f5d69218e164c20cad7fafe3965a1178e1171da6110408201527f25db643882b90454e32a82cfc6a50edd974112a6898a800e43c1e82ab1ea7e8e6110608201527e072a3bd6e47a09ceba4a198f49b8b6190e5352bb4673de0fcbd1d51590db3d6110808201527f294ab9f8dd88b7db452e23a94bac640cbff36c25ef2ee271fc703146bca1a9186110a08201527f0bd5c061841a629ca98d8e997955320c8cf5138234b259bf5aac96973d5547d16110c08201527f2d2083eeaebc8b25a946fc3c39e8686a2acc346f2b2ec54a811f14e40834b6236110e08201527f10c75116d928c419baa07299590cb37bfe47b40f30f93da94fb272ebbe4342526111008201527f2a2ad810f49631fde57ef189cf7bf7bdaf6d8208c513561a81ffb9747be2017e6111208201527f2b261f8c706842deb94e9e7346246f47d5a24d1bf9fe536bd12fb477adcb1b176111408201527f13865b902c25f2f39d7201d829555cbef70ae35a041aca4142c7774d18a20f9e6111608201527f1538bedf641925cada2faea90b6279b63f61b26a62c4ef6f044acd313aeb13fd6111808201527f0ed8787791f83bb0ce89fc054152bd3ff641717b4013c141bec11b3ec4776e9d6111a08201527f295bb6706d0d85368405518278b50506693f157f686f5b6c5062149cd7d2f5456111c08201527f104ac1fc1fc9159d2f3687f8cac6e7ff77b021e6e6f8ab51f2046af7df7280036111e08201527f05a4ed6541ce8f6f8c80e18b8c9ca9488eda9e59173004784d8bfbc45af146e06112008201527f131a23e9e98e8c66ea65844503fcb37d6ea6ccf51944bf5e7997060b38ced0806112208201527f20bac03b869fd2ed2d5688e2065d502feeaa9e2d3b6d47c66a6edcdecd0aa2c86112408201527f2db34ef9ae476d06edd5d2d7f50a513af95c10408ad74bf904ee6cdb8eae17ec6112608201527f03c8e08c649ad5a3ed6921d4070f3932720a7650ff84c4851c162d4e02cabb686112808201527f15e026df8e85d51642d76b4953c812ede169e9f5efc655c34086703f03374a0e6112a08201527f19fb2ffb28a0944c82d3d2a5cdbc4530bf26c4b914ebbb6f5a1dea8b3d02cb976112c08201527f2a641ff908c20163cb0b627d1efc273c97e30f0835a836550dbf4434467630696112e08201527f05a05256eb204587b138d0cfe86829d2cfc61d2f3ed7bb83ab596c495f7afc336113008201527e42ce67f33e35591caf3f7101b7f7cfbe37b3b1625c237acf22d7fdc6e996506113208201527f02dda9d300d9a8ac4defc63eccb7839c4a7b8ff911035afe7a5df88c5dfdf74b6113408201527f262766b0dd048f806022f55530968739e88517d3e5bee99470be49866eca759d6113608201527f2d7e49add71fa589238f881da5bf171c20466b8df4d48c04116e0aa65ec62bbb6113808201527f0b4973470adb76fc015f04f3df3b9993ee2ed154099a6a8e36dcd370274fdc776113a08201527ef21710aae50352badc081697e074b4c8e200a84a330f689b8a03d0096393df6113c08201527f1e0fd5e30ee7bb0e320cf6aa0f9ca4f76269c93beb74b778aac4b127a498783c6113e08201527f1a37818eeebb5e6a2ff58d8f1979dc5d8c89138e7f13eeae33ea727633af00346114008201527f07de4b000a25a9d3b0d4153a50baaf06d53ec7ee22c82ab399e4b6e372614ef86114208201527f30631b95422fc4321e9b7ba4cd4a61d23e6dbca9b8995606b704f45b234f6e676114408201527f2053d5d2f1f67ff3c644e46a00e634971ec937b51b66dce0f7960b8ef09f2bf56114608201527f2cdb9c8e89b2c6baf0fcf28ad81948dc055b4201ad734b3fdeffebf28e1613886114808201527f2cd091886532702d9f6a38e6ca83b366cf723206f55032674b8f67ca66697bd46114a08201527f0eea8d2d8b7ac12e8b30d6216c458d6284ca870b559dee1b05d7bb4eee192dc16114c08201527f12c42f203b2c7b0c96e18c71b48ea31c5e5375185a64be7eff1a9084a7e991c96114e08201527f1d72f4dc92e62e668ea10edaf55b166d6871d78e06608ae6f00a7c272b8d27996115008201527f1fbeb08e88425728c5f9883de5d749b2ef0218fd936ea7215236cf6a9510044a6115208201527f2148d07500162a288f0327b41e51445712fe304854dd334ae776f028b9134dc36115408201527e5be3510acbb67cc99d6e7492886f773fc8c84450db1bac705f6062ca919c336115608201527f0f630f1bc7acb77abb6a087dca923f745e841230db38bc6324b5fef0426f44376115808201527f27e413a3e53c569b1d1ce9baaae2652f3ac6a0bf6d93c9c2d2ebd24ecf2a15ba6115a08201527f197ed8d24195518025175439de1d696f51a6b96925da0ed8734d5f5118e241496115c08201527f035246499ae9d6bd98cb06f980aa8040bee9953f40bc760b04b08d6a2e1143316115e08201527f1070789ecabc7a0cc6e1f33b3e4c262b1c6aaf12a08a93ef0da5022504d1c32d6116008201527f0dc8b807f33075470eb53de964b69920fdb96805d46bfa24d3bacece179344eb6116208201527f07cbc903f4e92f26cad293c529fff9c7405f5df6288556888a9a5501a4a627236116408201527f01515e7eafa389896402c2a78346f1d4f662f8327b52afb9398ca9d8c7ab110c6116608201527f0bd0f4a67a06c65c7bd1b9a40101a2a56f68b5a87c8a01f0fa5fa700193577086116808201527f0fafff3daae934d813c8c8c0edfb931dd295fd0a0fada815196f345af18974586116a08201527f157ed68adef4972d3649618356e54dd471bf2a309837a4fb2a22c5b3a306f0a76116c08201527f1048c64317cc3201a1d3b2e0270d312df521001b71cda118c53d2a6c6e97275a6116e08201527f01529b1ea38f93d75bb36f9dbba001eebefd663f15f8611ea703c94362254c366117008201527f2d53c53c6c80bb512ee43ff30df1fd5ad6ebaa4feee3e9af333afc9fd179ca256117208201527f24fa42b2edf6b7c22eb7b73f917e7e945304d3d2aaf668846a3f2b8e3bfb056e6117408201527f1b643671501eda31d22a381fd6c4cfa848973d8531fb53f41908736891a18e7f6117608201527f2ecb3dcf5f21457fd5ccc116b5e20f29dce95c5f8a25b66b8175c2ca4b63089e6117808201527f03b75d9970e66a0a4fc30b31ae762d619c0d51684645d91aa30ac651a969acf46117a08201527f2f874e3556bb42095d6313d2ef5834318752b321a094bc97d228891a81d379786117c08201527f16420a1a4770f0969dd3fa5ebf6bfb7a8e3162224a4a99570eab7f7fbb1fd66a6117e08201527f2f25e96c22dde2e2c3719efb79ab0acb04e2f1570732ebb1eb7e8801c82afa156118008201527f0455703200ffd01bde8b3b6682bb77522a259ce7179049ead837119610df4c216118208201527f02cef97d6ca4b2825b6f274671baf77b0f943bce510bcc6504cccdc457d2ba8c6118408201527f2bad2660ed2702b1df2e177827a7f16b47d6c8827b4e0fad2f0df30c1813ca546118608201527f28b9bd5a5c16690e945b61987b64579174f6d124636baf1cd1268f9ae6f4ce876118808201527f0828aa442b1372963f1e91a6596235d29b23c90720241c6ec4c15ff6eab4c77d6118a08201527f2b36e23d26f4b5b7784e7b107ab5caf39c7443765bf4f186509f4ddb72ff3f1b6118c08201527f29fe940c7b364e919388e53a6c4c8e17b1e9b97eaa9420a268ec931a9b9230a36118e08201527f0c1b3268c61002bc54dfbd8e35aa3af55e0f12a218119ef944a3e6f0f32385986119008201527f16d41812f456e39f9fbae35b6f245e09d0a28ba138f7879f88ebe50cc128c9836119208201527f04c5f35456c182905fedb7816be870a1338e8f8c52e51dbcd334d2265e69b64a6119408201527f2879088e6b49f5e7a2842103f003e7868578832fb39b316fc7951329a83faff86119608201527f082ac2085fea7a4db91e73d9085bf8dd115ddd41821209d0fb18de90f62da2b76119808201527f2aa3783e297f86a7f66c1d9183c2b2d70e6a7b1ed523635f53d7de7fba1e7df66119a08201527f293f86912f9dfaf03b560d00a9ecf87eff0052a50476b4a5e1cfa836384079836119c08201527f27d212eef5adde64bde94b3fefa1aa83129cbd808163ade31dd44fe55d96ecd06119e08201527f0d02e180fe6d55956430178a0391bcb6ccb91d1a273f54275a5839311155a4e5611a008201527f2c2bed2e4bcb568d67cae6b05f5f08c86728a78e7cf268ce88bfcf3e6d636d36611a208201527f152f079002d8aeb6a610f25c243216390fd81b1e536c8eda858056ebc51c6094611a408201527f1f6e67092ccaef69a694ae94285812972fd39bebd8749a11552b71acb538df59611a608201527f292f546f848868a18d27f300988e0bb6b4d05d27f4aaccce11aaa1dad5bfd9a6611a808201527f097614d953306ec5c64afe64d4a36b2f3a6c4d292d0621de8338b358ecf941cd611aa08201527f229c1a76cc3d8e26742f55ee36c09fb1f7e0d9341cf44530f0ffa80b41f1102b611ac08201527f08f2529be0754d4a1c4b8637506b73436e96b95eae7e34af9380fbb91e8e5303611ae08201527f14b790d43db70c8bafbee30e6312573c8e954780169ba0e94ce1f5d4695ffa73611b008201527f1bf517806343c46b69e166610c7051197a123a197d04d0643f979a3e972db2fe611b208201527f2fef881a49042a83989f813ea3dffd24362190960ac6a5a4e69f78480478fe93611b408201527f1a221b88f42c7710f1474f20195ae87e9adce31ec583fbee187cb1fa33662e58611b608201527f2ddd8716f128fc7a592117d59a5198cb8529dd493d8e68fcbae9703dbb7bbe60611b808201527f2dcf18ddf589f8338b8dfb2e574ca3eb78aa3201df50c40149ef5cb0aafe9842611ba08201527f1371f79420d3e91878155fe69d0fdbd373f992c8ffa138469120d072f38d2878611bc08201527f2b226431ca925ecaf8f9282286021280abdb7fcd7d44cb727789fafd7f760e81611be08201527f0b9d65c90b9d869dc97cdf945cd078eaff6a3329875912d06869e59421e3d88f611c008201527f1fc460bfe1f2bf5a8cf4d602c40f4af7102944338c4bd252e8591e66a342083a611c208201527f2928bf8962164df26f89421e317d5921afd538c0c1acef0357cd4458cb1612f0611c408201527f2abf4010ff58ddfef9e3c5a5ae658b2fe8480b2605287b025f759952860b4f0d611c608201527f0f30aa11b5d97c51411bfb0ef7aeb3a0fef1f0ec5d596ad35a2c66cad66f28f5611c808201527f2bf1068731c0c9abcbb214944eda8be74d5efb7109b7175de529da2f8c73e9e2611ca08201527f1eb561946299f1257c15f110b4fb27e65ff2aa51feaac377d09ded99bc90ea1d611cc08201527f2c800db285ec1f5848c1445000d66770c4ad0de47a3c2bb906df0137a5e4158a611ce08201527f0f210ba13c257d7d5c0642273c951422ed77f6bae0410f619030fbc55c6098bd611d008201527f0c56a18ec6a0f0b4413bc539a9cdeef76c3513caf58a669d2bc758234a0b4b5c611d208201527f096d74f1991d4708d17df4eea98d5d79622fa10a2923ad5bec983bb52a3f3cff611d408201527f0ab8aeb9db83ef0443080a60f07080af7b4556dc0b4b3478db5c2b65f1c9e07f611d608201527f215fd57452ddd95f1fe258168b4c5b706b83d21be4c467adcae3e4126e8dd2fb611d808201527f1132982c6a8443c524709ca59c31531f36c62f6067500e41cd603c82a5a83bc5611da08201527f1d3e0e36985be2dd855a7b42e27b4945a603e9f3d58eb72b11a390d61c3e2951611dc08201527f2b431eb80f3d083382dbf17cd323e6925d3ec598b41265b3342266c18ab5e4c2611de08201527f03ef148ed543ffc5c6fab9fcfd97cff92d35edb5ce9bd3ba39424d7c1ab919e3611e008201527f0e723c1b720fb350f1c8ec67bb11b6adba9c549fda82a443d79f2a54fa617e98611e208201527f0edf34c77c4a29c3c4a94e3d2ac52880a4163e1ff3a4bed808949d6e2b36c9ca611e408201527f1de0a0949cb72a53e8257e3e696388a2195b6f5fe1205168bda41ee1f839f812611e608201527f2ed4f63a4dd4eb82c3907138355096411144c242ec6727cff2ec24a1d55e6220611e808201527f2445d628dd5f5153a3ca0d0c88baaa399acbd4b6cb9b2b573b3c31650dece633611ea08201527f0286df034186b8da2f58d71ba7840b5876dc1a2cded15e565d1639bc6588203a611ec08201527f1985423337e2d93a017c819ab0deea7540bd6071679b3429feffd8a2e4cb7c00611ee08201527f0b9a13294bc5519a896f4803cb5fd123502c0f99bf4a56e1a466e504dc127a38611f008201527f0b8b884559920a0c8c7c430e23ff29dc94d081e6e2712e2063082df3fb66c31a611f208201527f1096f396021eb7ce2f3677e22aec66f1b98d334b09613fe147f574dc938a4d1c611f408201527f0e22fd9ac3ca0021af900b4c0cc7fd758ef385be96d2af044a9cde558ccef689611f608201527f16789005979d0b96c363e2e25bb5d94393d31acba9327e04f5f93626a48d6df5611f808201527f2575854b8bd346865cbfdda31f7e4c6a07008337d495d4d067d80544b2574dcd611fa08201527f13d0b0a63081cdc5a343ccfe4be90ce1333b0172ff04cc9064bd8be627a51aa6611fc08201527f10c0bb9cced6f8f3cd0a93a151d6b4c675a4c27a9dbb400e8203f3fc7f407559611fe08201527f07bf8ee8da8e5996f3bf8cb32ca4fa9b776808bc7674913a65c82c4b8c05bfb06120008201527f08caf6790fbf7d017a68add9932dfebcbe8c3f2b1ce91fcae8a64f3f8d6702ac6120208201527f1de20c2fd617447e33a5e042c879b5f63d7398606fb512a0f9593e7f1bd963236120408201527f2a1616ad72c6fc4eda1c5e854057f90477c909cc2dd88356987d1d5066a479776120608201527f1f984caaca14c6f96160d5a4939e3ddb793413ebf88fca6bc1a6b6010b3909246120808201527f1616382e1cfa046eedcc864ded300ae4cd8afc0c47884b05a35b3351a5ccc15d6120a08201527f15cb63fc4bffb54666658e1012e966b9162e59c59c90bf0c3dde155948dd24346120c08201527e22e924ca21cfadbf8b300d73bac5e0f700d99be6dd7613702b94127f107fab6120e08201527f1d220214be37009074f8ba4c892ce131a4106a25f8575bf62050f88bbeba8bd36121008201527f291d4be8950cb1fade131b097687cda6f63de333fb5471a15ca7b358cc46ac566121208201527f10d137bd3fd4185078252a04f5098ddbc74a056c2b44f58bacc200933165a3246121408201527f2ba1a3e40081d4f7ac1f634c0e52b0f2f36c45ebd34b13d1e6b7b8091c95f5426121608201527f0e838db41afad3123f929acb161cc291b5c449d7c8bc171b6a93b3730b59ddd16121808201527f0900c9bc7651b6916127ff99b4647cfec4d1d7f68ea7314c6be6a9be18fcba876121a08201527f273f7d51d36281784517f3339c3101fb6820178282ae04c4fd16d225aab246326121c08201527f16d89284a05cb0617057cb17dc955193a30555d23ba6ae0502d021eb5c6221b56121e08201527f29f5af49309af0d95bfc7b9513bb8ca7c82acfac6544eb503de3e37293009b2f6122008201527eb403e9ca53c1ecf7a2a5e162047fbcf350e012be26dc52a8b4133173b85fc26122208201527f09677c59b7c3cdf29eafda2b00ce8c69e1527aba579303159aeb0beff45393596122408201527f2c2220c9b04ec8eb5ed4129c59fdbc774c6973e017f07bf180e82d54922867826122608201527f23bb26f8aaad6f532f26ac0aafd486ab4d106ebb32341fb0fb4d2bf8c10f55e76122808201527f2b793253e9eeacb2ab567430008d043de4d066bb0e0fae83c8a00657096c085a6122a08201527f08cbe1b044c707cfd981804a69ca0a4432ad8c9f4b083d85d3aec3cb47f27be36122c08201527f136a130389bce25efa5a2395ab502ab359ac36c7456c428b8139ac62cefec3e06122e08201527f07c268479357aba0264960fb5469be99fd78aad4109ed4465061e29c93726f916123008201527f3046e82f7d444841c1ffc9603579bc2d038a336d27d60fee5f7031f405a69c8a6123208201527f0ebd27533f42e5b759f6a5090efb32f02bb25cd0072b169158d495b119481fce6123408201527f10c8bd90f8cc3ec10949519c8a7255440ce9c4dc2bec34587a446608ad47ac4c6123608201527f2f4870a8a44bd18f5a6a97242311c9691ddc4b749e66d32f8db6f8a6b30647d16123808201527f1c2eb9e2d301c722fba31a5575ddb1f07f1a1bf111392d84721a4143f0feefa16123a08201527f06f8e8ceb384b8461235111880471088a8e16e55aee06b6ba18482afc7cde4ad6123c08201527f0e606d26640a4135b4fe1df5352b2101db86dabca777f55b0a758754a58a97056123e08201527f1010e7579e894c854c2f14e83f5f11cfda51a5307eda56b66ce707c4223555386124008201527f1dc7678373b8a4b486e58525cc989ace7eeb6d35ed3b942705def50b0640ff0c6124208201527f213b28256b9e50a15ac1e8712081b21058d1b3d189c6e467d2e35987004718436124408201527f039ffca5e58cdbce938375f8fcb498917edf114eb17fc83f78a97f9c32abf8c66124608201527f2efd72d3ac7b068252617fa50f433d1701f7ce635e8e0fda153148866de270686124808201527f1d7c16f7c16fe9cfad1289baa2f6b248133704791bd3cce3a3d0f7d49f98676f6124a08201527f07a1bdb8255a9a746c0fe253c27d070173bdae10c2393ff8167175989a0d6c016124c08201527f1dd5bf46a0acaead141ffe51231124b112330495489de0abf5a93f95e517d34c6124e08201527f01a197a532a3951c698ff9f973fc760f1b80d0a63cbbbe6f8c8da5c12a52d6946125008201527f202b175ab33e2290c73b61195e51a68e2949d3c25314f1a6c20c9eaa9d3206006125208201527f281ec28ee38245620fe868f905593a4c2ba5188ae69d275f4f6b0b8251c973c16125408201527f0d2269e3cb8d6b480c7206f52d9a1e6aba4a68e879049a25d9642cbcbfdda9d56125608201525f5b61012c8110615b9357612dc4615ba9565b7f2d5f7caa4241d3497c78608878c383b205c6287978889ec8b88c2317e79ce36981527f2110f5866f98b33c96fe3cca59859b8539e8d5210c24738b12abe2f9fbe9f90860208201527f046d8705ef2cf5bcdb2a3d5f6c81705f13550b6d6cadaad3d6af386fe669dc8060408201527f22be0e74f875d777ae2233a49f6ebd4a25ff7c83864962f25be843a2974db70760608201527f041e09bc341f46c7d27e6e274f54c67adbd99d49ce7477d59b90cd40352be3fa60808201527f07b4066b4644f4af8911c32dff07e2c6e36265ad751b47ffc98a5b4fdd38f82660a08201527f059b6ac2841b2406bc58643111d9c9fea955ade2c793546cf3079618d2dcca0a60c08201527f10d4ef0b68845b5d02844300c7324d470d485b256d2c8b6b5249bbecffc50ee260e08201527f190d887831f9d0afa707d99038dd24501b7f6140d9f861cd2a95bc54c323f67c6101008201527f129e5d9d7b94cc61c68bd9154802ea8f65551e0de175339908c42f62a65712916101208201527f2697f2207cef01f7bff48f0c7b9314d8c79c345d70659ab8f696ba648ee4d7c86101408201527f1a1cbb4bf7567f8dd109064b0a0d12afd364137e025f6307425a4dfe43d8d1f96101608201527f0ee6df607a4517d69ab368bdd6b313c4b9ca69fd855cea59bb79eb0fb261da926101808201527f2f0e9b81abec6ca385627aa14f91df7e3eb11e47208979cc4b3fb8988f4fac176101a08201527f0dd4f637f091f0062d722e363731561673189b639bffdddf26ebb4897b7db3f36101c08201527f2c904c0606579028c20c6e3c7e53e35850644b79030365e4e952647f4b2523626101e08201527f22dcf1d0dd35b6ae4d3f7be41d00bdc91d7e0f7498ed8f84cfb8739fc76ed5c66102008201527f1d6d247f10325a0389972415e6638abba2382343729084acc61d3c80893b9e0a6102208201527f1e6f4d6d4406978c6f862ca6f0ab604001f076026e20a5dfd8bb544ba1c016376102408201527f264b7b5028fa4dd45f65e24b1f60d2b0ce4b9a00ab14eb68830ddfe601b21ca06102608201527f16298a37e149d5f73e97688d5c3d22ef4ef0327f401877d551cedada41be78a46102808201527f121d91b8dbc28d191f26d66dc8482d866a90f811da13ac5a006c1c4a3b95493c6102a08201527f2635231dbf35af7a9aa5dc558f9a835bae84c888c775bd8aaa121d510606212c6102c08201527f07059d3ab9a3d456fd2cc70cc457147e51dfc49ca5ba0a7ea92d02d90eb79c906102e08201527f29fea19020579efd200367f5c72ce40465765bfe55589dded6054bd9dcf7f6456103008201527f24bc79bd8a9708987f8445f930e0a138e93ac1d8ab296dc925e280f2a9a18edc6103208201527f05cb05f4b060847acaa2e9bebddcd381e2a2687c85e25d7a65a59fa2cea5ccc46103408201527f294c12a666c12396bf3b9c95ffa2258c5bffb72165e3c4e62d6f44f525cee6766103608201527f2990b162bc80cc162e38b28c38d62c8b9b2a894098adfed219258e4c13a6697a6103808201527f2286b55ab3018b843d5cb2ce8043de5cd77b2c75ba74143bba44aa64524962b86103a08201527f01f85478ab6ed2d6621fb98fd02dd460e4a3e39324475c27245f0144c61b92eb6103c08201527f0b7123182147826d05b775c0471c831a5fdb19fd9906e08e9ee7444a53b5168b6103e08201527f1ed983158e47bdc66c2c55c4d6fe2ece26e86aa969eb3db20722af67e5de1af66104008201527f08735fe27d1f793c841040838f7829c11f0c3afcbddd9baeaecc07c8e5986d176104208201527f0b68ef32d75ca3b6fa6bca0efe6d4392b116d9386d1d90c16f146b53c677543d6104408201527f105d8617d3e2b3cc995e0c88b3dd4d01e6b31ce77c3e6b0c777f4696367f25676104608201527f06c990c5aea5bba5f24ebdabc2d3c3b3bc87cccec02ba5a29378f7a8a10768356104808201527f02e19cba378c0812ad064d008dfea5343a3c49135c90f9df84eb085f1fb4737b6104a08201527f245f33ccbfbe9539284597a543e96b1874acca31aaf727d4396c3ff69637bb0c6104c08201527f1f47579947605636a33784134448e73e28688e03950c028ba2bab2f706afcd7b6104e08201527f2f7f253be1b892248866fa95f21a51d34b8d368b1764bc26052627a6d123e6ed6105008201527f03e0d753cd56637d5b95217727b2615a4202fc7ec5f4e3ba9a8a52b2360ffb9f6105208201527f23dd124596146dbe4b50936b82394dcc17fa909b8ed8252f00c4fda7781787a16105408201527f198c2a4ac58aa1100db62f7b3cef95173e3aa4b86f60163a5c32fe9b3aea53956105608201527f025d5c8a511d93f4c9951d788d427f77e51b76b51ce483fb23dc8f1fe8aa3dd16105808201527f106a2cb8cb8a861a858032a9056c37af86751f429694297f2d3c37f949e0c6ef6105a08201527f1f49f4b1d12b386ee6b0b81eac42c58db83f45d07908b538a7f0638beca0664c6105c08201527f0de75ce4b636b994639e6c2c4cc49054ee387aa3ca70293d692494a0008a95186105e08201527f010483714d340cc463c02399437da11d16d999b09098f7ece7b6fa381346bedf6106008201527f247dfacabddf9447772ce00e552fa25ba39f2823ac2b541a9105cc711329ee326106208201527f22bf13b4287f27da782485c7e73ad7441a0817b9e722b7df095b5acf6e74513c6106408201527f292d0f9aba598fb108aa87a10737eda503a0deeef1e851431308329f85fd47f76106608201527f13299035be8118ce0e19468892d0ca192078c9ccd842e41a3777cb4cd4617b576106808201527f22e2409997f99c5ce17f053381b7a2ca635bb20f4b3dd844621e9a65824a80796106a08201527f1c8362ae477b74528fc9b098410b45ff39873a3e383b78c3649e08066c9a1b656106c08201527f25dde49df3a9baf5d0f202a8a2b9df297a246761834d57bb2e0a0ef9dcae7aae6106e08201527f0acb59116e9efa0e35aa822c366a235df88a68dd64cca974400f23faa2764c4b6107008201527f13451bce003e7a10308fab0464b8e27e46cbbc0b2a395867e933582b536035ed6107208201527f123fb1360545f21f9a1b5d1ce424874f4918b5309dbfcbeca35cedb11fde11386107408201527f2b6dcfd1f27407f573c7f35d1fc4c19ad5e2928518d7b1c3533cd0e201929d006107608201527f0ac2bd55ba87537f49dc308a143844ed4ecb39ac35df93d58ebf54add5ea34bc6107808201527f1535cd0fec497a8ca7772469ffa872bbf629c0bd0f068b0b61c5ca60879905bf6107a08201527f2d8a2847795c9db067f47f9927edcafc451d31e5f85823ca67dfa889be07e97e6107c08201527f27d5c73dede0f3c2f94e8e5c9b6ddb77ccb0f8c9272e0c0bd4a13efbce619a6e6107e08201527f0e22d54cb5fb97bd03773b6378573c17f720c8cc8d8eef9eaed3b2c0194ca6a96108008201527f02cb35570537243343b63fbbf462a163a38a523fd2513928f8de17dc8be72b246108208201527f141753fe59369df23619707ad576ca5f21ab58da235b43965f13f552151881756108408201527f14ceb41b476d47cf5d8d407dc7a02960af53fbbb87c12cfdcc4b23e91daf15696108608201527f083129b0dab6afbd0c0eec081d68e847a94234cd570b1a8dc59ef388f5295db16108808201527f0b0bf015b3f4441f074d1d56a6facf8ac5370ed50ff3153689adc5ea82c3df786108a08201527f2ff7769d543cdd54b44dcfb4251c8ab886f5e08e6eb815f74421134cf41ea3e56108c08201527f03c3a317c7b1a9f38fa8b6c011519534de94f9f1b1550aba15e79d5c14e3a3ea6108e08201527f033d5c0b15f2c96f8bdea29eb34ff37cfd9874696eed2f2a328c3916d5ee4f466109008201527f093a0cd487c5a4433acbbfa36451f2ffbce1c2f7f76b529033b1c06b74435cec6109208201527f2c0957aa3902713f3473909dcc7cffe1ef3f5efec2966ea5a6af644a4fde42536109408201527f23f012060cab79881724a098698e06f008769c5713441ecbb5cffde455bf371c6109608201527f2a2a2b65388a81a642a76eeac7ae4cb0f1c49ad530fac4f214924ff3bec69ff16109808201527f1c81cf087e7e77aefc8eb1e83367977d877d92f451a5a8ece700bc89c1318e836109a08201527f28810643cc2b3520deb1768e49d418305dce27c28b94e981cd8b8831e08c2e8e6109c08201527f0f62d45f5daffdb1b77ea64c4383f930f22cb20292e8f6c9128a7c95bf4c06f96109e08201527f2b07184803e95411c9f9d3557c7bfc6c8d85e2130175ba2a2c09a42b0f3e4912610a008201527f0b9718b63da3fcb8daca3256fc294737259af7d22fbc5606722b4ee350aaf05d610a208201527f2bbc0b9f667a602ce0a881e130eb0b3e550f6e71e365387869a36b15819b0209610a408201527f0c510ee27777ad5bd268be8b4e7d0fd8e0cb9697735f2fc8d30b08edf4305107610a608201527f2cd2455510f2d6faca36bb3659de0a51ed06cde95bc40a32d8cb5c5c52e66e8b610a808201527f1f7da565094b1527cd54c80091211cf84b21bd9c919c015f6f138ff5ef09dfd2610aa08201527f1d827e91ce2e7e753698de0542dcc57e3bae22f6e1a62b963c65a506861aebfc610ac08201527f132c7bbc61d3b671b92f65b27bc64b56869270acfa3b8feae362d4c88a0cd74b610ae08201527f1bde494be41e162b4be40929d3fd4f5be18c59693cae327aa3e55c5c4bc81b09610b008201527f10f89448768cf06883ef7331df89671eee0a1f0cc179fb55df82bfd0ce8e0934610b208201527f2e7dcd31c80356ab73267db8f56655bea0a986b21c1efabc61d613c69882309f610b408201527f1ebd75d779194d0e509a4b2c30c35829e889dfdb8806cfda98f5927520fd2af8610b608201527f2500d635d161e6e80beb4be25664a78df9efc41caf01d2fbcbab8b3f2edee5bc610b808201527f19113394221e6bb8e090b49200bd2212df81f46a88a396bf3a7e48fa7ef63a92610ba08201527f18571f43b6d347d7b571b7cd9372d24ff0009023b22d476b06107c7be3c54bc8610bc08201527f026fafc844ce7753cce3232374b9c6c3ec518ce032c08358df92f6ab091c01ff610be08201527f103f5eb98c6b2b202f32e19d68841130951743f481113884dc60eb7289dda1b3610c008201527f1fa96b1f45afe12258deb61ca24ca089c1523ddaa90058a21b8913772df44a61610c208201527f130b6a55828cf8adc7189cf2b94674bb7c216d5d9b2aa1582f6e0d9a593f9565610c408201527f2f662c8447a0d060751064f049c532a0bd8f420d1d58ddcea0cc5bf797e1ea70610c608201527f2e37bc534754b328217395b1f7a70286fcabe6a88150470e1f8905d713f03a61610c808201527f033cd4ea1a57e173ca51a14fbcb77b526ae75d11525d52ff942a524c9b6de3ef610ca08201527f28286506ddd455895147d90af8c8b545a7732fbde2ecd214a899be4d3477451d610cc08201527f2c8f48cf0e0868af79b16f7ac7a4977aa280481a57cb7a5a662fb3981d70f98f610ce08201527f24fa6e495d83e7fe0eaf6785d44a7b8a4d288b9188d4e6303c85352209eddbfb610d008201527f2f74ce46ad1269900910b6db42c480d966e27650b528e7b4c56ba92854f5b33e610d208201527f2b31fd4593ecd56b03e852465d449ba693802e003e40927d0f6bdddd80c742d5610d408201527f1505606b72a1583c6da0f9d3fe76ed556e8aa2793ea03ac39c79cb8fad72a599610d608201527f1b33fa28baf65c6fbb38a2327eeaecedccce0e85cc45f35271c3517c12b4c656610d808201527e67fe8f2da1feb35bf3f339c78a1a4f7869078fa63de824a3ea077f27070c0a610da08201527f22a2999c3329c6b88999a223c454e2aeab859b61d80bfe73387d5e801f05654a610dc08201527f208b6746ff36e21114ec69afbddfd4a45148e7d353ec770c3185224ef7228d9b610de08201527f08a4c4cbcd252d474b3af6602b40ebd6d43960ff54fd3010a7725eecea67160a610e008201527f1f911f654f4e1a6c3e77962b370746edf2e5511a60e63d2c547c345446c51b6f610e208201527e2099dfc135b899548bee73463023a9a76c8f939253b4598631ffd9ec67cd61610e408201527f21c4bbb91e6bab5ecdebafe0fa13228dda04a9afd4e15258977b0c13f6c677a2610e608201527f2247c7b13120cadd050033c01e955c2238aaaeb7a8bf6db8676a70529ba6544f610e808201527f0ce3b167ecbdc1a3b42654bbec5026ca7c82b494b17de4ea7077e14164b9a63a610ea08201527f280ce34b5e37645cb6690a4ee9527a1c121942bf6003dd85c3cafff59a40dcf0610ec08201527e20defd148ca5315158c6f528c5867b2e54a1f648c1d4267fd9ffe08573c114610ee08201527f07502c1a6820b4440f0b8b6c3029d3f57f9284f0a7abcf0eed5dc460bbc6e569610f008201527f041672ed8b74cdf5ebd5e738283721d13aeb3d7a9beb8778a5f26d957d4df0a5610f208201527e95a855ac81feb1b114c3f7973d5e82a4b64c4ea4aabe17fb48c4b804602a4c610f408201527f0ab47305df5fe49a710f769925e144b7cdefa9fdccd2f15ec55380bf60dae34c610f608201527f2ad9397703a661ff815e25aedb186d873bbd1ea6243da452288834c5d564f069610f808201527f0a35b0b00fc38725219544f1f405cb4902947938489fe628f338d90a1f68a32c610fa08201527f1b1cafadd1d82c7b9ada5bc354964d86435f14d1a6aa86ddf4f56ddb1acb213a610fc08201527f2d1d84a5b6ff92670c64a46b55325ff148af4f643475cbc51d53c9003307d2c2610fe08201527f12c61eabcda1c503d790539a25609250e7564ee3b315881c9424705e83ed4ef96110008201527f055517b913f02c4292036595e928757d443fbef8fcc53aaf2542dfaaf91099ef6110208201527f0f80bd05f2d03c6ef5287d908e25ed7e57663f6562c19bcc45da4937eccefe036110408201527f270f1c159aa0e3d0aee5327cec164b68d1395af93d0807ccec2760478e9f97916110608201527f21b33f75a613e2c67f5a42b4fa0b77ddc5c95c44e4b53c2eff4f5f001329a9226110808201527f2e6f8ef4ca69c70fc7b66c81efe92a6b81d6344350c2bb0fc15b4e0d122e17586110a08201527f11b2170aa47194d28d88c50c34ce31c6017a69867f416c24f4ce5426b9f9e04e6110c08201527f2dc0c3dd8a72c81eadb85bbb6bf4ec75abf329b37d69021cdd0d5012a9502a556110e08201527f2abea80ad1af4b9ac501ccb52acf5fce9f5d4ecdbbf356d9f99549b4056202f16111008201527f2cc8ac938e3ff66255e55fed52c15ddbdf905b8ba79a67ff2943902e66589ad56111208201527f07dcf4aa819b65e5c4abd2ab9f44f8a1513cdef07007e931fe9238325de419176111408201527f1534061215e8a66f70ac7fefc65c7ab55984e27e34b4ae0f173ce1fef8ed990f6111608201527f1bf6c2625745ab6477f7b031ccd6107c2b8c562414a1d1a46efb0d00b7b022a66111808201527f0fb9fa6cc040bb3cec8928a2a8897dc0a22c6d1fd37a7786336f763281b91b1f6111a08201527f2bdaaaf72b24d77d0abbc1d753e11bc67f56b00db6aa016fb71a7777598b07b26111c08201527f061fbdef4fdc53bd2e9b598590fb4059231f2abf3ed36ea81b9163c971d01f4c6111e08201527f17287321f0372407825d989fbe96fbfad91aa31650e440a972689c7a0ef063436112008201527f026848933359c1ec980a1a9bd5c6903dc59900d6a718ec9b12a02d67433e5fc96112208201527f0fce5465484cf9e8d1d7c6d68656c73b9017657f684b4c8614a179f6c8a209036112408201527f05197801b1e5438ea9188a33cfe0d7dfe84084021f213cd4c987062558dbfdaa6112608201527f2c44c64be2ca0734858d2de4d0d89db1a2d2eb94ea06ab6eef7c921794bc3a656112808201527f10ed56c8260e14d242c3e82509abb72fa816d7a5a7af68f07d4c3df1a787637a6112a08201527f1bb2dfc37686d4d6a2b91194944c9db5dee269568912b64a9b915bbad329532e6112c08201527f18f485339c7eac9e4f0f35e0f922cb4ac8c303ee42fc03f4a2c7479cb222e2476112e08201527f03d2207d2e90442c2052b802d191b9cdc2097deb0b8e2f31ccc50f7cd0c98cd26113008201527f26822e1736150b65854acbdf7fa458d34f1b753619325ed850f3eeaaabeb52566113208201527f0fa6bc82a1bec08068580f9b951a631a7dc73daaf3c24ed803084ff7083717986113408201527f227f57966662444dfb9c26d4af0d196fe09036b345d26601a2789c1cf6dec3ed6113608201527f2d7030ce48d24a48ccebf0a933ad4e145f43ff74eb00f2146a73950c7bf4073d6113808201527f08da923ff6c9d9b0133a7a701e7661ab8913786d533b92f5f60de185eacb5df86113a08201527ebe5633dfb24d631aac7ca8177c00fd044562572a7424fa8d26141c44b649596113c08201527f1ebf8fd195d038332328afc702f88f4fb7c96a130574856ad6ecd1c56129418f6113e08201527f2784d22972b8956128fdfa8f89970507b66b08353b5e543d92a43e58e5758bde6114008201527f1417bf9c8b91136ebba7dd66700484444628fdb73503efe5e2dc41e85a6bbb5a6114208201527f0a6675be94074fa40a434cec8540c3088b9616cdda17515823fc03671db6d52c6114408201527f082be2f108725228363a30ea1fb539f8c05d41e1878e98b8b44c0fc6a1b7c4556114608201527f1453fa99f0c5ab50cac8087bffa7586ae660eb98b8aff3e7eb4867e4a77eff456114808201527f225b916e18304e98509d9a82de04ede2abe2d7f33d279068bc7d578de2ad55e46114a08201527f2097de8c93d20a785406429f0003198ee0b7d700b78a1952adee81115794fadc6114c08201527f26ffe97d13185bbba9a90839c5aab09aa4c970517eb7cfc368dc73f7edc2cbbc6114e08201527f224517c5006145cd92c4e69c912b01be20cea7246e6bb3b58ec26882b9b5b43c6115008201527f0efda4c5d250826ebb3e07c276c599d0b4682e56bca1f08a6b28f45d43c7640c6115208201527f0a4a4ae8d1b3eb5c46bfd88d06817e85e8f0d4a1af17a8378834b55211c88ed26115408201527f14a155f0f780f7c87aa46efec7b50c40f64cb1670c96e6b3cc766524fd26e0fc6115608201527f140af2890ad66b8aac482722e34a2ffaa9ce2917d2179a95152b8df0f94d28006115808201527f0d4bc8fa5fa1c0dc8b3ed776ae549c2f531ab48a85b4ab78412c35e727532ed26115a08201527f130239cec7f0dbdb683aedd781972a79ea0df665935ff2907d5ec168b61c79bc6115c08201527f2f9dfcce6f61ad1636231f2be0d492cd6c0fb6524505efc84ee24d22d9a8aedc6115e08201527f244e845e683cda660f5769e490c2773e4a62fcec01169cc122ce4cbdc50ceb696116008201527f24f4a6d65d74a6f1b01d22c2df763500d806ca69ff46036bfbecc131354c2ac76116208201527f2fdc2a09a834b98eabaf4c43561e728967ac0b24bdbe353f2dedb04aad93531d6116408201527f1dac9fc63ebce014337c37a2ad84345f8528dbe5d353ad1232565396e9f757a56116608201527f2c5b1f70fb82d0736a2749effcd67bb9208e9526742b46efeef5381c0f8d5e1b6116808201527f2e7428b7b434d30f338ec05ad54985ccfc4effa5b6c85c39dba1c3a0ff423c9c6116a08201527f220aab6b74e9b5cc35d45e8854e52df4b6227bddc4447f7344be85d87b57386a6116c08201527f055befcca06b3eda9abca5a5e317c518f7928c721fb55a26c7babf50abe0c82c6116e08201527f03ce09abfbfce2f48a6542350c1060dfe01ea1b4fd68aca2864d64d60e111ea96117008201527f069ee92b74948566d011b7900ce3ca0c630a427f281ca3fd2f45b734df1aad476117208201527f1103b3b7403fd4debbde9b75752113b95ff9eca4d36e835490906afafb2cc8186117408201527f063931512aa1316ef2f20cf8f9ec7bbd341c97b92b3321d25392fbc90d8e00136117608201527f1266daf05603912f1a98fa886c2a8cc3c271e149aa435a02becd7ea19f70cfb86117808201527f2d1ce91eb33e62969c9dbd7fd150b7ca6224c0985166734ac7e1ae34c19815f06117a08201527f1301928bf9321a2dde4e0750e6be9adf55d0ca796b45f9f7e6f2446d253fb7676117c08201527f28551e9e068748a66dde204c8691e1cf852eb6c4bc71be40c8c943026b27bce06117e08201527f149a58341860f4fa279db154e15929000ba7d077c631b7313f1cbb206752a0696118008201527f22e62884404e013e35b1f949576442b77142927ceed71189927961e2a3c1e9a86118208201527f1cec0b0189dc8d2e80c88760df6222c6dae5406fc2d7ab20c5d19ab44dc577686118408201527f18cef0062adaaffc4b6d6a5eb9c448d36d8a8a9464dbec6f36ec7ec7af6afe5e6118608201527f23b59fa228ed2e0adae581c2404a272a4a4f58b1af07c7a95b91ee6b5150b0ef6118808201527e42c28d54e41a878d26cb58cfe9515df558b7c296f2a76a7786b8df6e54180c6118a08201527ea2489e9f4f6362ac26a78875b2ad29160775d0975e8d5cf992fbbcb1636ff36118c08201527f1cab91019dc7f371bc7e8b32c184a62e4b87d1a4dbbc3a5678c7585afa422dc96118e08201527f2c33305d6c5586299749da2a70af876943061f0db6e1e101114b0c81cfe6542c6119008201527f2764c073acf75a2f3fa03e4dd171337afafb8d5568830d0d9b7c574e01dc91bc6119208201527f261a69fe1698a26c38b230c737d0d3a128eeb1901656b00e94015a988b5346e16119408201527f09d8377088a3aa0e032d20df32c9d960807a54c4622b093a6998c757733511bd6119608201527f0ce8e1ae656a8710e28aa8ae9447ee6a73a0966d294d91089873a430aa03998b6119808201527f06df914e97f052954b596ca6e756c806f4d6dfe8194a59bbc80c67ae07a9aded6119a08201527f0ef1bcceca604047a67083b1ebd397311245cd907e3229a2bb8e12700aa7cc9f6119c08201527f2683597bbd7367f0167165281c26b65d567f0047f82c3e2ceb2bd1c20c83fc486119e08201527f2f54f76d66bb3d2436e5d340be9821374179871156f6ae60d8652674f563adae611a008201527f27dd86b9aeca4662cf36a7aa006132f8bb436332cb532fc12ab13a4686c29e67611a208201527f2f699d91766d4e2f11c148d4e5eb0e614a61a847208069408843f180e8a5014e611a408201527f114159d82d39bba776bed329c8b46c519fddbdfccd73e1da506a43e626b856ed611a608201527f187d4512c411fae8b1560be632254087e6fbfcc3a5ac7d5bad66166b3c4dfcd0611a808201527f077d603ea3214a7351d46ca4e75dba6bb68afe18c5e15fd41e1f24e410e66524611aa08201527f02b6bf9d99c9a9bd31b170f69cc5da1ecf8c0c062a0fafea59113a32e9b3e54f611ac08201527f2af79689fa40e5b6d70185582b028b179644fca3dc9554db15af27aecf32a19e611ae08201527f2e6aa47450c467ea35a538f3f3772689e65a05c077e78d8b7fb447b1bc149492611b008201527f09d77aa6b3789da169b347c0a90af3eb2dce3ca59d801b711e5e0def17173c4a611b208201527f2c360deaa243338c127afdc633681c6cee6989478a5b5070003fb8acd84517b2611b408201527f2fbc37fa79a6c16ffa8028e0e1c0592c137255761802ef80f54c17c487f9da90611b608201527f2feb4df516bb6a300abb8a671e98c2a0c87664b033d29ba64f8861a0d2bcc7db611b808201527f1d0e5d0bcdad5c8e01873bd314e8937cd8ebbb5f279c3e58eb53b2a995016dce611ba08201527f0d62b69002b6ccbfea393d152658567edf63277f8ce403868bf69afc731cd758611bc08201527e0ab5b0ea9d6b684a4db4298a6224b592035348a71f10c42e31489cffb64811611be08201527f15d6bebbf288e26e5afea82bb113af1b6dd63027687cdd4cd95617749ade0ac7611c008201527f2c43446ad035448b902c529462141f6d0792d4412bb9c44d61fc4c9e04d8636a611c208201527f2e361620fd9d4f21ae2ca45ee608b9121cd96857bf52e2fce99a9ba766ac1c8f611c408201527f1414140ae6d9aeb1f267a144c57fb367673699a01be9a783bb7674e9b469de47611c608201527f1c2b8322cccece769f2341fe53cb179903b225f01fd1d979bd1bfc9ec4675e80611c808201527f0328bd1e9f0f245b843f487ba22a365cb733ea05cee648743eb5e5ffb309e8a3611ca08201527f0d1fda1caf694029a4fe8ce5a0e1a1cd5bae6905ae5a449ae186dd8288cb9403611cc08201527f1d3cfc8bd4857565cad4e944093e248216e5634cbddd85a69a5f55c34c3e51a1611ce08201527f2c278d83494222651a2899002e2b0cefc4ebf9d1b5af65118438107c2ad5c9f0611d008201527f0d840602e78f789bd28aaa6eeffa763c8ad0129745eb81ecbfe600b7ad55aa49611d208201527f29cb8bfe355af508e5be9bb3d1cdb80d184fd58a19d412f893c7a0e0c0208b48611d408201527f0827f133ea2d2aa4e03618b7cf719920bf5b810606eb2d6a3da486b9ebe44020611d608201527f189086628608e8ef777c04ee233213e773308b559b14835ac65cc5d9ae1c0e7c611d808201527f168bba1dbdab7ca3d8fe548795c707996a5d4e705f0f4c396bcc57af0d43d9e5611da08201527f1799d61872354ca8f9335236550cb6a04d7eaaa83082fe4c49d0869f7b4d71e2611dc08201527f1baac0d6da593d0863fc3a9b4609dc70052adb2a69fe6c2eb505d36624f8533e611de08201527f077f5b4aa1a72c22d99570022326980e1c8d5017751481e71e3b79bb72bf46fd611e008201527ee9858666efc0204fb4eacca6492bcd3f4145afc6f38346181d47a6c645b915611e208201527f2b92b2acd251f9096dc18bb1b6d4834bc9ed8cab4471deed86d54c62c99b6479611e408201527f245ac5401083666bae9f52ddb3d2e6b6a2cbad44e5fa3d3e268498e01893e99d611e608201527f23529f6e5981d100387cce5fcdbed628678cdae8a31e7c5e7a6a8477b8899633611e808201527f0cc4a74b5711d877802e608c1cbab86e92b14c41a9d2a7556fdf11e0b2a496b3611ea08201527f1a0c8abe5939f5ae039d500a14e7a0af644fffa42182238aeb2a3f640100255d611ec08201527f266c3feaa87f65c9bc8147e3162e5159c515fb15e62a18b4616699765d183e3c611ee08201527f0465ec4e859cfea6e9c6d39616270e024779e4d84ca789cce1032f1ae212ca29611f008201527f195950e4185cc78a053199e19fff72ab0eb80f300a485831dba759389accbaee611f208201527f0253c8456613adf32624498b7da0e070e0c6ae1c1942ae0e321e4167d1a9dd0a611f408201527f1b2a68c253b1487fe5a15e2cdef53b0382c671a89bb42681b09193038529626d611f608201527f17ecf2b5af2d1fe8038d81e6339555f3a18ea1d98fee25e2dba5726d31683e9b611f808201527f1bf8d7a7fed1f5d48284274ab7d55de76dec2ebaa74d53e9ad705ee92f7e3fbf611fa08201527f12061eb48375f427129e1250e7a201f2930263a98d9d76ba4418ef973921f3c1611fc08201527f0c146cad37c3be14acbc5b18a79e8df93b94d358f632ad8beee3552883948a59611fe08201527e864a18cfdb9bd4e3d181def7def5c93e6e5899a21bb4359338073454eef24a6120008201527f1deacfbe18fa2b3b38fef4bb25c46fb07acc3e53272c142b6def1ed918b827ff6120208201527f18cb83216d6e60098b2e681f571d19e2df998283f4f029bf24cf0570f5b515356120408201527f2205d51b7efc22a585cd8bc8945b2ed0c1679657a7a262d6fe6c772a25483ab16120608201527f24cc49a548ac7aad838a4e405f04cf32528e0041c5c8e3c1b2e078d30dae93306120808201527f2a531db9b307830a5e227c47813b32ce91a99c221273044012687910584dd46c6120a08201527f2ec473c7f22ca9255218f29ca6a8ba6128a51fd4cc31bb7efd139877476fd5346120c08201527f0752275af08db8fc76ecb834cdf70efdeda4977f06603ce3c0a8560532a65f6b6120e08201527f1364b122491c7eeb30a62f3b53d39645a9d250f757c87d8eb643908970c783866121008201527f255eaf66adc4783d6038af54785183c7e3e6a9d868e205f93b6895cdcdffe9ad6121208201527f29e0fab57950a07adfda8d5f29093fa269fd50458d85a928e6c53da03300ab216121408201527f28df30eeeadefee5b33635f4b6433ffd087842a4c1891264253d3760e9592df76121608201527f0d2be5134f2f10c9c6169c6f9057b0fb82e02cc87e9be98b5a790de21e6319f06121808201527f0432a8268c70b810e4fe27622d22503cae8f5b2440302b5b4aec2fafd0e711796121a08201527f036d089a943fbdba5a74778d2789b791564c6166d4d9d29f8172d8da0fef75256121c08201527f0bcef571ecf52a41521486e9a74a66ca26dca5fe3b690e3388dfb3556f8398686121e08201527f0727f3f092f4613e49cd05eeee440b424bca76bd7881f4d087155c9265afffd16122008201527f18bb8ea493a8308e158de54fcdbaf4a5dda9530a3560f63d6c6c4558c5ae8d556122208201527f068b92843b6955870dccb29900165ba47b1bc8df810b1283e1f47669c94846ef6122408201527f12ded898d4ca56920029ece0b31e62c01659215cd036a1dc0b2a17a1e1a87fbc6122608201527f2eef2dd7300b8e9d5f4879b5874fca20daea408090d693e6d71a53f1aa58e6186122808201527f2806d6078a386bb74188e7fe10e70708f6345edf2090d629bc7d09f48c94fb536122a08201527f0234e80a0ed2c8783735529220162bba65467cbb5b8ef699e10fd9603efb7f956122c08201527f18e0ce391e903da9c64887835a298812e0ed58df4ee25c06aa11a4c2f0af6efe6122e08201527f1886bb8e8afc2ff2d711288be056b7e0ecbe739cee677748f73e4bc86f6188d06123008201527f2e016634b9fff36c438c9ec444cf0344aa218cfb33ea60bc47fc38abc0417c8f6123208201527f1f777bd8a98a695366c6f25913d64d3a48e85d5161c9feb901656460dcc8dada6123408201527f0c0e031c93d22f76ead2f773b4b6a0566afb47b4d5f0f805df5538df8327c25d6123608201527f02ae1ff1522a057b4a7a073d5b54fe60b27015f33279a180625c0133bf1f82bc6123808201527f020c338c7fe69d0297e843bb3b0ee31a9ba9a53fb83ba0d449b21d35b0c6542f6123a08201527f2eb3ba81b3bc0ebbec84155e8d6eb395afbf7b82091b54dc5ab1641cb0d6a8e66123c08201527f26c9ec9f72bb9802e55bda79a7399849c1cd5813968db034fd1ccf831bd613f26123e08201527f2db07d2caba47cd7c1636fbdc0a849d0f4e5ac5875a920339031fff574e5afe76124008201527f29f71c7282e4db8908957a36e71391870265d4444329246e8c710580bf8bd7606124208201527f0a1b4210c3d0a94771a10720fa08fc020ad651a2ff2ef33f63f9ba7b6626315a6124408201527f012b09a1c0213b60694a162b4928e4fac07c4b91c9cded066251399b0f5e93d46124608201527f2364e35950202b50d5c88fad577c0786cfbeba35c480a866934f215378b1b2df6124808201527f112c030fe97896e7d8cd069a04147434f527277e13b91c9c8907fc68249dc6236124a08201527f0f377959010a8df0a7ebf9de754858fed2dae31cec31d11cb47de3e0aee8a0db6124c08201527f2a5f62a1dc1f37ccb41cc12de0d2a396419390a099ff27821f36e511775094726124e08201527f255d752818338dd80256648e7ce5568d249b627383067171e405983067a97a246125008201527f19501d51f2745c389182438f093561f38433448bc721cfc392c8ce4d82cdfab86125208201527f2396a84697bb36561f43dddc84753604efa724dfb964ef058ac38756f091773b6125408201527f191d92200ac5f3e4273a871f5b142435ee9b67c8b2513622f26f021a27c908806125608201525f5b61012c8110615b7d576040516111c99081615bde8239f35b600190602083519301928161012c015501615b65565b60019060208351930192815501612db3565b5f80fd5b6040519061258082016001600160401b03811183821017615bc957604052565b634e487b7160e01b5f52604160045260245ffdfe60806040526004361015610011575f80fd5b5f3560e01c80630bd6bf491461053057806344f636921461047d57634f89a1551461003a575f80fd5b34610479576126007ffffffffffffffffffffffffffffffffffffffffffffffffffffffffffffffffc360112610479573660841161047957366126041161047957610300610087816108a3565b81368237610096600435610ce0565b6100a7602493929335604435610d84565b919392906100b6606435610ce0565b9390926001966040519660408801977f16014102db9de88c44259633d122d1dd6e9fb82b8984a378c74b730d163a94ca815260208101987f0f2a2b6a68381bc93612284dd2875bdb9ff404311ebdc1da47f680142fa029ca8a525f9061012c5f90606085019260808601905b61258084106104105750505050505051975198156103e85760209a8a528a8a015260408901526060880152608087015260a086015260c085015260e08401527f0d01205175bb7faacb3326834fb9946998849cb8e4e6f5319f1dc1a2d2a5c5886101008401527f1fc45107b9151da45cfb27404dcbfe9fe85f3c44e1596933f13f1344b67669c06101208401527f14f291e78a53307bd7fe26e29f654adcd4f3dc6061eb85224e4c209b40a32dee6101408401527f09dc91a804a37fd5d9623c6785f3a65d00789b2fab6f37b92a0ac54c331d7c596101608401527f243cb04587ff114a738f1bd6da7b1e9eff474bb193b8fd4891dfa17181b5c2f66101808401527f158b310beb4202188124a5281aab57095b31cf027cee0da4187dc0cb296811916101a08401527f190f64d5953009f66d2400bc282b5d0425183c227b38fca830a3e823826395dc6101c08401527f0f565337d8e8b03ce6d98e45856241393f7bf98611b72d55dc87ddfc4893e2936101e08401527f12dba0fab350ca7965b991d1c8643e9fd350234a5deedb27f749637374e83c3b6102008401527f0e563af98092f7b594986d5e668517fb0c6a92b144c6e5167512d7470db6747a6102208401526102408301526102608201527f23b164991381d4e4bb5a1213a877d6d0d732ae0783215839c2d6455a213a68d46102808201527f1b5292d8d0d09b60d0eacd8e538b86fe39e29ecc61bbc8e76241f9a80e2ade356102a08201527f12086fa777a03016ba596dad8bfd00c750c5458d86df76728da2cc144f3794066102c08201527f0f7acbecb50cfa3e199099e9fa05c2fe4ddd77e20d8a10c5194daf70cfd3114f6102e0820152610398826108a3565b9283918336843760085afa159081156103db575b506103b357005b7f7fcdd1f4000000000000000000000000000000000000000000000000000000005f5260045ffd5b600191505114155f6103ac565b7fa54f8e27000000000000000000000000000000000000000000000000000000005f5260045ffd5b90919293949e8f5482528354865284608401359081845282805a6040926007606092fa917f30644e72e131a029b85045b68181585d2833e84879b9709143e1f593f000000111161686805a6040926006608092fa169e6001908101959460200193019190610122565b5f80fd5b34610479576101007ffffffffffffffffffffffffffffffffffffffffffffffffffffffffffffffffc360112610479573661010411610479576104c060806108a3565b60803682376104d3602435600435610914565b81526104e960843560a435604435606435610a01565b6020830152604082015261050160e43560c435610914565b6060820152604051905f825b6004821061051a57608084f35b602080600192855181520193019101909161050d565b34610479576126807ffffffffffffffffffffffffffffffffffffffffffffffffffffffffffffffffc3601126104795736610104116104795736612684116104795760016040519060408201917f16014102db9de88c44259633d122d1dd6e9fb82b8984a378c74b730d163a94ca815260208101927f0f2a2b6a68381bc93612284dd2875bdb9ff404311ebdc1da47f680142fa029ca84525f9061012c5f90606085019260808601905b612580841061083b578651895189156103e85760405191610100600484377f0d01205175bb7faacb3326834fb9946998849cb8e4e6f5319f1dc1a2d2a5c5886101008401527f1fc45107b9151da45cfb27404dcbfe9fe85f3c44e1596933f13f1344b67669c06101208401527f14f291e78a53307bd7fe26e29f654adcd4f3dc6061eb85224e4c209b40a32dee6101408401527f09dc91a804a37fd5d9623c6785f3a65d00789b2fab6f37b92a0ac54c331d7c596101608401527f243cb04587ff114a738f1bd6da7b1e9eff474bb193b8fd4891dfa17181b5c2f66101808401527f158b310beb4202188124a5281aab57095b31cf027cee0da4187dc0cb296811916101a08401527f190f64d5953009f66d2400bc282b5d0425183c227b38fca830a3e823826395dc6101c08401527f0f565337d8e8b03ce6d98e45856241393f7bf98611b72d55dc87ddfc4893e2936101e08401527f12dba0fab350ca7965b991d1c8643e9fd350234a5deedb27f749637374e83c3b6102008401527f0e563af98092f7b594986d5e668517fb0c6a92b144c6e5167512d7470db6747a6102208401526102408301526102608201527f23b164991381d4e4bb5a1213a877d6d0d732ae0783215839c2d6455a213a68d46102808201527f1b5292d8d0d09b60d0eacd8e538b86fe39e29ecc61bbc8e76241f9a80e2ade356102a08201527f12086fa777a03016ba596dad8bfd00c750c5458d86df76728da2cc144f3794066102c08201527f0f7acbecb50cfa3e199099e9fa05c2fe4ddd77e20d8a10c5194daf70cfd3114f6102e08201526020816103008160085afa905116156103b357005b9091929394966001806020928a54855286548952876101040135908187527f30644e72e131a029b85045b68181585d2833e84879b9709143e1f593f000000160408760608160075afa9210161660408a60808160065afa1699019401940192949391906105da565b907fffffffffffffffffffffffffffffffffffffffffffffffffffffffffffffffe0601f604051930116820182811067ffffffffffffffff8211176108e757604052565b7f4e487b71000000000000000000000000000000000000000000000000000000005f52604160045260245ffd5b907f30644e72e131a029b85045b68181585d97816a916871ca8d3c208c16d87cfd4782108015906109d7575b6103b3578115806109cf575b6109c9576109837f30644e72e131a029b85045b68181585d97816a916871ca8d3c208c16d87cfd4760038185818180090908610f09565b81810361099257505060011b90565b7f30644e72e131a029b85045b68181585d97816a916871ca8d3c208c16d87cfd47809106810306145f146103b357600190811b1790565b50505f90565b50801561094c565b507f30644e72e131a029b85045b68181585d97816a916871ca8d3c208c16d87cfd47811015610940565b919093927f30644e72e131a029b85045b68181585d97816a916871ca8d3c208c16d87cfd478310801590610cb6575b8015610c8c575b8015610c62575b6103b3578082868517171715610c5757908291610b947f30644e72e131a029b85045b68181585d97816a916871ca8d3c208c16d87cfd4780808080888180808f9d7f30644e72e131a029b85045b68181585d97816a916871ca8d3c208c16d87cfd448f839290839109099d8e0981848181800909087f2b149d40ceb8aaae81be18991be06ac3b5b4c5e559dbefa33267e6dc24a138e5089a09818c8181800909087f2fcd3ac2a640a154eb23960892a85a68f031ca0c8344b23a577dcf1052b9e7750806810306947f30644e72e131a029b85045b68181585d97816a916871ca8d3c208c16d87cfd477f183227397098d014dc2822db40c0ac2ecbc0b548b438e5469e10460b6c3e7ea481610b5b81808b80098187800908610f09565b8408097f30644e72e131a029b85045b68181585d97816a916871ca8d3c208c16d87cfd47610b8882611118565b80091415958691610f3f565b929080821480610c4e575b15610bc65750505050905f14610bbe5760ff60025b169060021b179190565b60ff5f610bb4565b7f30644e72e131a029b85045b68181585d97816a916871ca8d3c208c16d87cfd47809106810306149182610c1c575b5050156103b35760019115610c145760ff60025b169060021b17179190565b60ff5f610c09565b7f30644e72e131a029b85045b68181585d97816a916871ca8d3c208c16d87cfd47919250819006810306145f80610bf5565b50838314610b9f565b50505090505f905f90565b507f30644e72e131a029b85045b68181585d97816a916871ca8d3c208c16d87cfd47811015610a3e565b507f30644e72e131a029b85045b68181585d97816a916871ca8d3c208c16d87cfd47821015610a37565b507f30644e72e131a029b85045b68181585d97816a916871ca8d3c208c16d87cfd47851015610a30565b8015610d7d578060011c917f30644e72e131a029b85045b68181585d97816a916871ca8d3c208c16d87cfd478310156103b357600180610d497f30644e72e131a029b85045b68181585d97816a916871ca8d3c208c16d87cfd4760038188818180090908610f09565b931614610d5257565b907f30644e72e131a029b85045b68181585d97816a916871ca8d3c208c16d87cfd4780910681030690565b505f905f90565b801580610f01575b610ef5578060021c92827f30644e72e131a029b85045b68181585d97816a916871ca8d3c208c16d87cfd478510801590610ecb575b6103b35784817f30644e72e131a029b85045b68181585d97816a916871ca8d3c208c16d87cfd4780808080808080807f30644e72e131a029b85045b68181585d97816a916871ca8d3c208c16d87cfd4481610e829d8d0909998a0981898181800909087f2fcd3ac2a640a154eb23960892a85a68f031ca0c8344b23a577dcf1052b9e7750806810306936002808a16149509818a8181800909087f2b149d40ceb8aaae81be18991be06ac3b5b4c5e559dbefa33267e6dc24a138e508610f3f565b80929160018082961614610e94575050565b7f30644e72e131a029b85045b68181585d97816a916871ca8d3c208c16d87cfd478093945080929550809106810306930681030690565b507f30644e72e131a029b85045b68181585d97816a916871ca8d3c208c16d87cfd47811015610dc1565b50505f905f905f905f90565b508115610d8c565b90610f1382611118565b917f30644e72e131a029b85045b68181585d97816a916871ca8d3c208c16d87cfd47838009036103b357565b917f30644e72e131a029b85045b68181585d97816a916871ca8d3c208c16d87cfd477f183227397098d014dc2822db40c0ac2ecbc0b548b438e5469e10460b6c3e7ea481610faa93969496610f9c82808a8009818a800908610f09565b9061110c575b860809610f09565b927f30644e72e131a029b85045b68181585d97816a916871ca8d3c208c16d87cfd47600285096040519060208252602080830152602060408301528060608301527f30644e72e131a029b85045b68181585d97816a916871ca8d3c208c16d87cfd4560808301527f30644e72e131a029b85045b68181585d97816a916871ca8d3c208c16d87cfd4760a083015260208260c08160055afa915191156103b3577f30644e72e131a029b85045b68181585d97816a916871ca8d3c208c16d87cfd478260019209036103b3577f30644e72e131a029b85045b68181585d97816a916871ca8d3c208c16d87cfd47908209927f30644e72e131a029b85045b68181585d97816a916871ca8d3c208c16d87cfd4780808087800906810306818780090814908115916110da575b506103b357565b90507f30644e72e131a029b85045b68181585d97816a916871ca8d3c208c16d87cfd478084860960020914155f6110d3565b81809106810306610fa2565b9060405191602083526020808401526020604084015260608301527f0c19139cb84c680a6e14116da060561765e05aa45a1c72a34f082305b61f3f5260808301527f30644e72e131a029b85045b68181585d97816a916871ca8d3c208c16d87cfd4760a083015260208260c08160055afa915191156103b35756fea264697066735822122015afb45f3d9a4436abbec64530108d0b70cf4e915c8e2e5c6f947a1b504382bc64736f6c634300081e0033","linkReferences":{}},"methodIdentifiers":{"compressProof(uint256[8])":"44f63692","verifyCompressedProof(uint256[4],uint256[300])":"4f89a155","verifyProof(uint256[8],uint256[300])":"0bd6bf49"},"id":0}