{"abi":[{"type":"function","name":"compressProof","inputs":[{"name":"proof","type":"uint256[8]","internalType":"uint256[8]"}],"outputs":[{"name":"compressed","type":"uint256[4]","internalType":"uint256[4]"}],"stateMutability":"view"},{"type":"function","name":"verifyCompressedProof","inputs":[{"name":"compressedProof","type":"uint256[4]","internalType":"uint256[4]"},{"name":"input","type":"uint256[3]","internalType":"uint256[3]"}],"outputs":[],"stateMutability":"view"},{"type":"function","name":"verifyProof","inputs":[{"name":"proof","type":"uint256[8]","internalType":"uint256[8]"},{"name":"input","type":"uint256[3]","internalType":"uint256[3]"}],"outputs":[],"stateMutability":"view"},{"type":"error","name":"ProofInvalid","inputs":[]},{"type":"error","name":"PublicInputNotInField","inputs":[]}],"bytecode":{"object":"0x6080806040523460155761136c908161001a8239f35b5f80fdfe60806040526004361015610011575f80fd5b5f3560e01c806344f636921461099357806365c032591461054a576398c13db91461003a575f80fd5b346105465760e07ffffffffffffffffffffffffffffffffffffffffffffffffffffffffffffffffc3601126105465736608411610546573660e4116105465761030061008581610a46565b81368237610094600435610e83565b6100a5602493929335604435610f27565b919392906100b4606435610e83565b9390926040519660408801967f2413a4ea6872d882470dfa273f7cd10f95da7d73066b8749207af7b34530bbc389528860208101987f02afcedfbf51213b80aa14874f9c5ab461a082b6c00f6d20c5492e74e5d118fd8a527f25f067bf7ae2fde48b8d450dfe1ff39846196668f717aacb53caa419ad2abb1181527f30644e72e131a029b85045b68181585d2833e84879b9709143e1f593f0000001604060608401927f3047179c0c181166646e873cab34383e1cc3514b0ef60f363a8ad866688c597d84527f0ca24ef15f2ba0bc974b99a3037ef5e475722c1ec4dea705c4240a1b8dbb7cc76084359583608082019780895286828660608160075afa911016818360808160065afa167f0e8136f81bf50d73d818a8f4f115db42f8c3b15e8442d4e3690baad8e42cc57185527f19f8f0060a3ada2d01eac51061ddc371f5ebf20a53452fb39b93024ca58b6da38852600160a43591828b5288848860608160075afa93101616169160808160065afa16947f1e4881e59e662da14c8a190faf260ea769828178bf781afe9b757cbb17abb05183525260c43580955260608160075afa9210161660408a60808160065afa1698519751981561051e5760209a8a528a8a015260408901526060880152608087015260a086015260c085015260e08401527f102e185460dc25a5f893e4f561bdea0a3df626b97a826bef4f4120cbedb824286101008401527f202ecec190b3ce64e3a6711d35d05ce3072ab5041754c8c2d011b4e192f379cc6101208401527f2d098d60ee69f433a120664d41b4b89209a6546a8503695fdfaad682576db89d6101408401527f2ef3f1bec6082b1a70d6d9bfb4ddeacca20eda9285f1ea4db69448acb3cce5fa6101608401527f2d4d9aa7e302d9df41749d5507949d05dbea33fbb16c643b22f599a2be6df2e26101808401527f14bedd503c37ceb061d8ec60209fe345ce89830a19230301f076caff004d19266101a08401527f0967032fcbf776d1afc985f88877f182d38480a653f2decaa9794cbc3bf3060c6101c08401527f0e187847ad4c798374d0d6732bf501847dd68bc0e071241e0213bc7fc13db7ab6101e08401527e1752a100a72fdf1e5a5d6ea841cc20ec838bccfcf7bd559e79f1c9c759b6a06102008401527f192a8cc13cd9f762871f21e43451c6ca9eeab2cb2987c4e366a185c25dac2e7f6102208401526102408301526102608201527f198e9393920d483a7260bfb731fb5d25f1aa493335a9e71297e485b7aef312c26102808201527f1800deef121f1e76426a00665e5c4479674322d4f75edadd46debd5cd992f6ed6102a08201527f275dc4a288d1afb3cbb1ac09187524c7db36395df7be3b99e673b13a075a65ec6102c08201527f1d9befcd05a5323e6da4d435f3b617cdb3af83285c2df711ef39c01571827f9d6102e08201526104ce82610a46565b9283918336843760085afa15908115610511575b506104e957005b7f7fcdd1f4000000000000000000000000000000000000000000000000000000005f5260045ffd5b600191505114155f6104e2565b7fa54f8e27000000000000000000000000000000000000000000000000000000005f5260045ffd5b5f80fd5b34610546576101607ffffffffffffffffffffffffffffffffffffffffffffffffffffffffffffffffc3601126105465736610104116105465736610164116105465760405160408101907f2413a4ea6872d882470dfa273f7cd10f95da7d73066b8749207af7b34530bbc3815260208101917f02afcedfbf51213b80aa14874f9c5ab461a082b6c00f6d20c5492e74e5d118fd83527f25f067bf7ae2fde48b8d450dfe1ff39846196668f717aacb53caa419ad2abb118152606082017f3047179c0c181166646e873cab34383e1cc3514b0ef60f363a8ad866688c597d81527f30644e72e131a029b85045b68181585d2833e84879b9709143e1f593f0000001604061010435937f0ca24ef15f2ba0bc974b99a3037ef5e475722c1ec4dea705c4240a1b8dbb7cc7608087019580875284848460608160075afa911016838860808160065afa167f0e8136f81bf50d73d818a8f4f115db42f8c3b15e8442d4e3690baad8e42cc57183527f19f8f0060a3ada2d01eac51061ddc371f5ebf20a53452fb39b93024ca58b6da386526001610124359182895286868660608160075afa9310161616838860808160065afa16947f1e4881e59e662da14c8a190faf260ea769828178bf781afe9b757cbb17abb0518352526101443580955260608160075afa9210161660408260808160065afa1690519151901561051e5760405191610100600484377f102e185460dc25a5f893e4f561bdea0a3df626b97a826bef4f4120cbedb824286101008401527f202ecec190b3ce64e3a6711d35d05ce3072ab5041754c8c2d011b4e192f379cc6101208401527f2d098d60ee69f433a120664d41b4b89209a6546a8503695fdfaad682576db89d6101408401527f2ef3f1bec6082b1a70d6d9bfb4ddeacca20eda9285f1ea4db69448acb3cce5fa6101608401527f2d4d9aa7e302d9df41749d5507949d05dbea33fbb16c643b22f599a2be6df2e26101808401527f14bedd503c37ceb061d8ec60209fe345ce89830a19230301f076caff004d19266101a08401527f0967032fcbf776d1afc985f88877f182d38480a653f2decaa9794cbc3bf3060c6101c08401527f0e187847ad4c798374d0d6732bf501847dd68bc0e071241e0213bc7fc13db7ab6101e08401527e1752a100a72fdf1e5a5d6ea841cc20ec838bccfcf7bd559e79f1c9c759b6a06102008401527f192a8cc13cd9f762871f21e43451c6ca9eeab2cb2987c4e366a185c25dac2e7f6102208401526102408301526102608201527f198e9393920d483a7260bfb731fb5d25f1aa493335a9e71297e485b7aef312c26102808201527f1800deef121f1e76426a00665e5c4479674322d4f75edadd46debd5cd992f6ed6102a08201527f275dc4a288d1afb3cbb1ac09187524c7db36395df7be3b99e673b13a075a65ec6102c08201527f1d9befcd05a5323e6da4d435f3b617cdb3af83285c2df711ef39c01571827f9d6102e08201526020816103008160085afa905116156104e957005b34610546576101007ffffffffffffffffffffffffffffffffffffffffffffffffffffffffffffffffc360112610546573661010411610546576109d66080610a46565b60803682376109e9602435600435610ab7565b81526109ff60843560a435604435606435610ba4565b60208301526040820152610a1760e43560c435610ab7565b6060820152604051905f825b60048210610a3057608084f35b6020806001928551815201930191019091610a23565b907fffffffffffffffffffffffffffffffffffffffffffffffffffffffffffffffe0601f604051930116820182811067ffffffffffffffff821117610a8a57604052565b7f4e487b71000000000000000000000000000000000000000000000000000000005f52604160045260245ffd5b907f30644e72e131a029b85045b68181585d97816a916871ca8d3c208c16d87cfd478210801590610b7a575b6104e957811580610b72575b610b6c57610b267f30644e72e131a029b85045b68181585d97816a916871ca8d3c208c16d87cfd47600381858181800909086110ac565b818103610b3557505060011b90565b7f30644e72e131a029b85045b68181585d97816a916871ca8d3c208c16d87cfd47809106810306145f146104e957600190811b1790565b50505f90565b508015610aef565b507f30644e72e131a029b85045b68181585d97816a916871ca8d3c208c16d87cfd47811015610ae3565b919093927f30644e72e131a029b85045b68181585d97816a916871ca8d3c208c16d87cfd478310801590610e59575b8015610e2f575b8015610e05575b6104e9578082868517171715610dfa57908291610d377f30644e72e131a029b85045b68181585d97816a916871ca8d3c208c16d87cfd4780808080888180808f9d7f30644e72e131a029b85045b68181585d97816a916871ca8d3c208c16d87cfd448f839290839109099d8e0981848181800909087f2b149d40ceb8aaae81be18991be06ac3b5b4c5e559dbefa33267e6dc24a138e5089a09818c8181800909087f2fcd3ac2a640a154eb23960892a85a68f031ca0c8344b23a577dcf1052b9e7750806810306947f30644e72e131a029b85045b68181585d97816a916871ca8d3c208c16d87cfd477f183227397098d014dc2822db40c0ac2ecbc0b548b438e5469e10460b6c3e7ea481610cfe81808b800981878009086110ac565b8408097f30644e72e131a029b85045b68181585d97816a916871ca8d3c208c16d87cfd47610d2b826112bb565b800914159586916110e2565b929080821480610df1575b15610d695750505050905f14610d615760ff60025b169060021b179190565b60ff5f610d57565b7f30644e72e131a029b85045b68181585d97816a916871ca8d3c208c16d87cfd47809106810306149182610dbf575b5050156104e95760019115610db75760ff60025b169060021b17179190565b60ff5f610dac565b7f30644e72e131a029b85045b68181585d97816a916871ca8d3c208c16d87cfd47919250819006810306145f80610d98565b50838314610d42565b50505090505f905f90565b507f30644e72e131a029b85045b68181585d97816a916871ca8d3c208c16d87cfd47811015610be1565b507f30644e72e131a029b85045b68181585d97816a916871ca8d3c208c16d87cfd47821015610bda565b507f30644e72e131a029b85045b68181585d97816a916871ca8d3c208c16d87cfd47851015610bd3565b8015610f20578060011c917f30644e72e131a029b85045b68181585d97816a916871ca8d3c208c16d87cfd478310156104e957600180610eec7f30644e72e131a029b85045b68181585d97816a916871ca8d3c208c16d87cfd47600381888181800909086110ac565b931614610ef557565b907f30644e72e131a029b85045b68181585d97816a916871ca8d3c208c16d87cfd4780910681030690565b505f905f90565b8015806110a4575b611098578060021c92827f30644e72e131a029b85045b68181585d97816a916871ca8d3c208c16d87cfd47851080159061106e575b6104e95784817f30644e72e131a029b85045b68181585d97816a916871ca8d3c208c16d87cfd4780808080808080807f30644e72e131a029b85045b68181585d97816a916871ca8d3c208c16d87cfd44816110259d8d0909998a0981898181800909087f2fcd3ac2a640a154eb23960892a85a68f031ca0c8344b23a577dcf1052b9e7750806810306936002808a16149509818a8181800909087f2b149d40ceb8aaae81be18991be06ac3b5b4c5e559dbefa33267e6dc24a138e5086110e2565b80929160018082961614611037575050565b7f30644e72e131a029b85045b68181585d97816a916871ca8d3c208c16d87cfd478093945080929550809106810306930681030690565b507f30644e72e131a029b85045b68181585d97816a916871ca8d3c208c16d87cfd47811015610f64565b50505f905f905f905f90565b508115610f2f565b906110b6826112bb565b917f30644e72e131a029b85045b68181585d97816a916871ca8d3c208c16d87cfd47838009036104e957565b917f30644e72e131a029b85045b68181585d97816a916871ca8d3c208c16d87cfd477f183227397098d014dc2822db40c0ac2ecbc0b548b438e5469e10460b6c3e7ea48161114d9396949661113f82808a8009818a8009086110ac565b906112af575b8608096110ac565b927f30644e72e131a029b85045b68181585d97816a916871ca8d3c208c16d87cfd47600285096040519060208252602080830152602060408301528060608301527f30644e72e131a029b85045b68181585d97816a916871ca8d3c208c16d87cfd4560808301527f30644e72e131a029b85045b68181585d97816a916871ca8d3c208c16d87cfd4760a083015260208260c08160055afa915191156104e9577f30644e72e131a029b85045b68181585d97816a916871ca8d3c208c16d87cfd478260019209036104e9577f30644e72e131a029b85045b68181585d97816a916871ca8d3c208c16d87cfd47908209927f30644e72e131a029b85045b68181585d97816a916871ca8d3c208c16d87cfd47808080878009068103068187800908149081159161127d575b506104e957565b90507f30644e72e131a029b85045b68181585d97816a916871ca8d3c208c16d87cfd478084860960020914155f611276565b81809106810306611145565b9060405191602083526020808401526020604084015260608301527f0c19139cb84c680a6e14116da060561765e05aa45a1c72a34f082305b61f3f5260808301527f30644e72e131a029b85045b68181585d97816a916871ca8d3c208c16d87cfd4760a083015260208260c08160055afa915191156104e95756fea264697066735822122089d3b2996978b1fa66de979c95aee4654ecaca8b8315909630219b58d27c71fc64736f6c63430008220033","linkReferences":{}},"methodIdentifiers":{"compressProof(uint256[8])":"44f63692","verifyCompressedProof(uint256[4],uint256[3])":"98c13db9","verifyProof(uint256[8],uint256[3])":"65c03259"},"id":40}