{"abi":[{"type":"function","name":"compressProof","inputs":[{"name":"proof","type":"uint256[8]","internalType":"uint256[8]"}],"outputs":[{"name":"compressed","type":"uint256[4]","internalType":"uint256[4]"}],"stateMutability":"view"},{"type":"function","name":"verifyCompressedProof","inputs":[{"name":"compressedProof","type":"uint256[4]","internalType":"uint256[4]"},{"name":"input","type":"uint256[3]","internalType":"uint256[3]"}],"outputs":[],"stateMutability":"view"},{"type":"function","name":"verifyProof","inputs":[{"name":"proof","type":"uint256[8]","internalType":"uint256[8]"},{"name":"input","type":"uint256[3]","internalType":"uint256[3]"}],"outputs":[],"stateMutability":"view"},{"type":"error","name":"ProofInvalid","inputs":[]},{"type":"error","name":"PublicInputNotInField","inputs":[]}],"bytecode":{"object":"0x6080806040523460155761136e908161001a8239f35b5f80fdfe60806040526004361015610011575f80fd5b5f3560e01c806344f636921461099557806365c032591461054b576398c13db91461003a575f80fd5b346105475760e07ffffffffffffffffffffffffffffffffffffffffffffffffffffffffffffffffc3601126105475736608411610547573660e4116105475761030061008581610a48565b81368237610094600435610e85565b6100a5602493929335604435610f29565b919392906100b4606435610e85565b9390926040519660408801967f1e83758a4024862cb806f82de808eab685c327219b2f289c8f08a4fe1b268fcb89528860208101987f1b186a1ec9c52a570048ed4813250b0884faf05c77a2cd505f1c89b7dd16b2478a527f14a1d1a0fdd2b806da0198eceb9a42a5d433cbafd01b0454afe330a47557590681527f30644e72e131a029b85045b68181585d2833e84879b9709143e1f593f0000001604060608401927f2d198280501c0d2e6ee9cdfe07d2d14fd8b19db5f35b3cb7d1c8410e2f0c4d3384527f0767c81e4a7cd3d183073333559a2328fcb40310bf9794802fe332b55a651d576084359583608082019780895286828660608160075afa911016818360808160065afa167f0b057dc036523472790d6dc2560b831c23e63a4b8d14afa9e45ec6960365040185527f2d927fc0b78365268b327b469061cfd9fe1183fafdc394c1f00391094eebd60b8852600160a43591828b5288848860608160075afa93101616169160808160065afa16947f08137f3e4a6d9264205da2b5957ac4500608b11c9af0f5885f2d6747109b8f0183525260c43580955260608160075afa9210161660408a60808160065afa1698519751981561051f5760209a8a528a8a015260408901526060880152608087015260a086015260c085015260e08401527f1d73264a75ac539107edb5d77a68f499347112abca6d8ff277aaed53b1df01076101008401527f18a83f2a46f5afe5f1652cf2d2d8719dde5c2fd9d27bbeefc8679b96681d1a776101208401527f29371f8120a832410ed3524476ad0f75e782fd695370a0e22bac7c2e50e006446101408401527f2267738ebf6f8c79a74ee86908ceab36bf68b9e1cfed679624582be10c20baa06101608401527f0df3543c003a7d2d3b61c123a763a860094b234651e144c5256e4b07981601d26101808401527f2d1de65614e42bc1e979d06af6a353e47022258663f84131fa59832232c9da9e6101a08401527f0deaed63cbef0a6469acab1c2927271831ad7c2ce8253506e15516dfeb2572936101c08401527f11ba9663125b82eb6036f90f895197596b1013063151caca0813d01c71b89c666101e08401527f01495ed2e7048c670bc8bdb2484432f9b4d11405336ea0f91278b9e79b54065f6102008401527f20a17d3efdf8400782db32a2cb392f03e964c2abea239cde54da6b67b780972d6102208401526102408301526102608201527f018ddfaed0a33ee38459bab216184ee3d3fe0d0c3545d6ddcfdbd98dfe37b4016102808201527f180d26e0270cb0cada87cf469265794c2ddfa1566e9ef60ae24c3d29cd31cf9a6102a08201527f167191540692179b27f8219b6f7017e9f54458a8ff5e4da1b468c8d9cf58357c6102c08201527f2e5758fb9bf8888497ca5bf13bf896f90c62118b72d00378a56510d94974b6e56102e08201526104cf82610a48565b9283918336843760085afa15908115610512575b506104ea57005b7f7fcdd1f4000000000000000000000000000000000000000000000000000000005f5260045ffd5b600191505114155f6104e3565b7fa54f8e27000000000000000000000000000000000000000000000000000000005f5260045ffd5b5f80fd5b34610547576101607ffffffffffffffffffffffffffffffffffffffffffffffffffffffffffffffffc3601126105475736610104116105475736610164116105475760405160408101907f1e83758a4024862cb806f82de808eab685c327219b2f289c8f08a4fe1b268fcb815260208101917f1b186a1ec9c52a570048ed4813250b0884faf05c77a2cd505f1c89b7dd16b24783527f14a1d1a0fdd2b806da0198eceb9a42a5d433cbafd01b0454afe330a4755759068152606082017f2d198280501c0d2e6ee9cdfe07d2d14fd8b19db5f35b3cb7d1c8410e2f0c4d3381527f30644e72e131a029b85045b68181585d2833e84879b9709143e1f593f0000001604061010435937f0767c81e4a7cd3d183073333559a2328fcb40310bf9794802fe332b55a651d57608087019580875284848460608160075afa911016838860808160065afa167f0b057dc036523472790d6dc2560b831c23e63a4b8d14afa9e45ec6960365040183527f2d927fc0b78365268b327b469061cfd9fe1183fafdc394c1f00391094eebd60b86526001610124359182895286868660608160075afa9310161616838860808160065afa16947f08137f3e4a6d9264205da2b5957ac4500608b11c9af0f5885f2d6747109b8f018352526101443580955260608160075afa9210161660408260808160065afa1690519151901561051f5760405191610100600484377f1d73264a75ac539107edb5d77a68f499347112abca6d8ff277aaed53b1df01076101008401527f18a83f2a46f5afe5f1652cf2d2d8719dde5c2fd9d27bbeefc8679b96681d1a776101208401527f29371f8120a832410ed3524476ad0f75e782fd695370a0e22bac7c2e50e006446101408401527f2267738ebf6f8c79a74ee86908ceab36bf68b9e1cfed679624582be10c20baa06101608401527f0df3543c003a7d2d3b61c123a763a860094b234651e144c5256e4b07981601d26101808401527f2d1de65614e42bc1e979d06af6a353e47022258663f84131fa59832232c9da9e6101a08401527f0deaed63cbef0a6469acab1c2927271831ad7c2ce8253506e15516dfeb2572936101c08401527f11ba9663125b82eb6036f90f895197596b1013063151caca0813d01c71b89c666101e08401527f01495ed2e7048c670bc8bdb2484432f9b4d11405336ea0f91278b9e79b54065f6102008401527f20a17d3efdf8400782db32a2cb392f03e964c2abea239cde54da6b67b780972d6102208401526102408301526102608201527f018ddfaed0a33ee38459bab216184ee3d3fe0d0c3545d6ddcfdbd98dfe37b4016102808201527f180d26e0270cb0cada87cf469265794c2ddfa1566e9ef60ae24c3d29cd31cf9a6102a08201527f167191540692179b27f8219b6f7017e9f54458a8ff5e4da1b468c8d9cf58357c6102c08201527f2e5758fb9bf8888497ca5bf13bf896f90c62118b72d00378a56510d94974b6e56102e08201526020816103008160085afa905116156104ea57005b34610547576101007ffffffffffffffffffffffffffffffffffffffffffffffffffffffffffffffffc360112610547573661010411610547576109d86080610a48565b60803682376109eb602435600435610ab9565b8152610a0160843560a435604435606435610ba6565b60208301526040820152610a1960e43560c435610ab9565b6060820152604051905f825b60048210610a3257608084f35b6020806001928551815201930191019091610a25565b907fffffffffffffffffffffffffffffffffffffffffffffffffffffffffffffffe0601f604051930116820182811067ffffffffffffffff821117610a8c57604052565b7f4e487b71000000000000000000000000000000000000000000000000000000005f52604160045260245ffd5b907f30644e72e131a029b85045b68181585d97816a916871ca8d3c208c16d87cfd478210801590610b7c575b6104ea57811580610b74575b610b6e57610b287f30644e72e131a029b85045b68181585d97816a916871ca8d3c208c16d87cfd47600381858181800909086110ae565b818103610b3757505060011b90565b7f30644e72e131a029b85045b68181585d97816a916871ca8d3c208c16d87cfd47809106810306145f146104ea57600190811b1790565b50505f90565b508015610af1565b507f30644e72e131a029b85045b68181585d97816a916871ca8d3c208c16d87cfd47811015610ae5565b919093927f30644e72e131a029b85045b68181585d97816a916871ca8d3c208c16d87cfd478310801590610e5b575b8015610e31575b8015610e07575b6104ea578082868517171715610dfc57908291610d397f30644e72e131a029b85045b68181585d97816a916871ca8d3c208c16d87cfd4780808080888180808f9d7f30644e72e131a029b85045b68181585d97816a916871ca8d3c208c16d87cfd448f839290839109099d8e0981848181800909087f2b149d40ceb8aaae81be18991be06ac3b5b4c5e559dbefa33267e6dc24a138e5089a09818c8181800909087f2fcd3ac2a640a154eb23960892a85a68f031ca0c8344b23a577dcf1052b9e7750806810306947f30644e72e131a029b85045b68181585d97816a916871ca8d3c208c16d87cfd477f183227397098d014dc2822db40c0ac2ecbc0b548b438e5469e10460b6c3e7ea481610d0081808b800981878009086110ae565b8408097f30644e72e131a029b85045b68181585d97816a916871ca8d3c208c16d87cfd47610d2d826112bd565b800914159586916110e4565b929080821480610df3575b15610d6b5750505050905f14610d635760ff60025b169060021b179190565b60ff5f610d59565b7f30644e72e131a029b85045b68181585d97816a916871ca8d3c208c16d87cfd47809106810306149182610dc1575b5050156104ea5760019115610db95760ff60025b169060021b17179190565b60ff5f610dae565b7f30644e72e131a029b85045b68181585d97816a916871ca8d3c208c16d87cfd47919250819006810306145f80610d9a565b50838314610d44565b50505090505f905f90565b507f30644e72e131a029b85045b68181585d97816a916871ca8d3c208c16d87cfd47811015610be3565b507f30644e72e131a029b85045b68181585d97816a916871ca8d3c208c16d87cfd47821015610bdc565b507f30644e72e131a029b85045b68181585d97816a916871ca8d3c208c16d87cfd47851015610bd5565b8015610f22578060011c917f30644e72e131a029b85045b68181585d97816a916871ca8d3c208c16d87cfd478310156104ea57600180610eee7f30644e72e131a029b85045b68181585d97816a916871ca8d3c208c16d87cfd47600381888181800909086110ae565b931614610ef757565b907f30644e72e131a029b85045b68181585d97816a916871ca8d3c208c16d87cfd4780910681030690565b505f905f90565b8015806110a6575b61109a578060021c92827f30644e72e131a029b85045b68181585d97816a916871ca8d3c208c16d87cfd478510801590611070575b6104ea5784817f30644e72e131a029b85045b68181585d97816a916871ca8d3c208c16d87cfd4780808080808080807f30644e72e131a029b85045b68181585d97816a916871ca8d3c208c16d87cfd44816110279d8d0909998a0981898181800909087f2fcd3ac2a640a154eb23960892a85a68f031ca0c8344b23a577dcf1052b9e7750806810306936002808a16149509818a8181800909087f2b149d40ceb8aaae81be18991be06ac3b5b4c5e559dbefa33267e6dc24a138e5086110e4565b80929160018082961614611039575050565b7f30644e72e131a029b85045b68181585d97816a916871ca8d3c208c16d87cfd478093945080929550809106810306930681030690565b507f30644e72e131a029b85045b68181585d97816a916871ca8d3c208c16d87cfd47811015610f66565b50505f905f905f905f90565b508115610f31565b906110b8826112bd565b917f30644e72e131a029b85045b68181585d97816a916871ca8d3c208c16d87cfd47838009036104ea57565b917f30644e72e131a029b85045b68181585d97816a916871ca8d3c208c16d87cfd477f183227397098d014dc2822db40c0ac2ecbc0b548b438e5469e10460b6c3e7ea48161114f9396949661114182808a8009818a8009086110ae565b906112b1575b8608096110ae565b927f30644e72e131a029b85045b68181585d97816a916871ca8d3c208c16d87cfd47600285096040519060208252602080830152602060408301528060608301527f30644e72e131a029b85045b68181585d97816a916871ca8d3c208c16d87cfd4560808301527f30644e72e131a029b85045b68181585d97816a916871ca8d3c208c16d87cfd4760a083015260208260c08160055afa915191156104ea577f30644e72e131a029b85045b68181585d97816a916871ca8d3c208c16d87cfd478260019209036104ea577f30644e72e131a029b85045b68181585d97816a916871ca8d3c208c16d87cfd47908209927f30644e72e131a029b85045b68181585d97816a916871ca8d3c208c16d87cfd47808080878009068103068187800908149081159161127f575b506104ea57565b90507f30644e72e131a029b85045b68181585d97816a916871ca8d3c208c16d87cfd478084860960020914155f611278565b81809106810306611147565b9060405191602083526020808401526020604084015260608301527f0c19139cb84c680a6e14116da060561765e05aa45a1c72a34f082305b61f3f5260808301527f30644e72e131a029b85045b68181585d97816a916871ca8d3c208c16d87cfd4760a083015260208260c08160055afa915191156104ea5756fea26469706673582212201a470942bdd4e974cec152f4ef1b2fb3a83762391f1c949d2968cf333132c03264736f6c634300081e0033","linkReferences":{}},"methodIdentifiers":{"compressProof(uint256[8])":"44f63692","verifyCompressedProof(uint256[4],uint256[3])":"98c13db9","verifyProof(uint256[8],uint256[3])":"65c03259"},"id":42}